:020000040000fa
:10000000f07f0020396600008b4e00003175000043
:1000100000000000000000000000000000000000e0
:10002000000000000000000000000000db71000084
:100030000000000000000000db710000cd6d00003a
:10004000db710000db710000db710000f165000076
:10005000db710000db710000db710000db71000070
:10006000db7100007d410000613f0000994300000a
:10007000db7100000000000000000000e53c000013
:1000800000000000db710000db710000db7100008c
:10009000db710000db710000db710000db71000030
:1000a000db710000db710000db710000db71000020
:0c00b000db710000db710000db71000060
:020000040000fa
:1000bc00f8b5c046f8bc08bc9e4670478965000080
:1000cc00f8b5c046f8bc08bc9e4670476165000098
:020000040000fa
:0800dc00585100000100000072
:020000040000fa
:1000e400f0b5c64600b5dab0eb4b9b88eb4a9342b9
:1000f40001d101f0dbfd00d993e38022d2009342c9
:1001040001d101f091fa42d9e54a934201d101f0bb
:100114005cfc00d9dde2073a934201d101f028fbef
:1001240000d96de2f93a934201d101f0befa00d848
:100134003be2dc4a934201d101f0f9fa01d201f029
:10014400d5fa0132934201d000f0ecfed64c0f22d6
:10015400d6490431200007f0d2f8200007f01ff937
:100164000100200004f002fdd14ad24b1a80f6327d
:10017400c94b9a80d04b1a68d04b1a60200007f004
:100184000ef981b2200007f089f900f0cbfecc4ac9
:10019400934201d101f007f833d9c022920093426f
:1001a40001d101f009f900d9a8e1043a934201d13f
:1001b40001f039f800d844e1c24a934201d101f078
:1001c400bff801d901f0f1f8bf4c200007f0e7f8bf
:1001d40081b2200007f062f9c02252000021200001
:1001e40007f0c6f8b94b1b88b94a934201d101f014
:1001f400a2f80133a84a93800022b64b1a7000f08b
:1002040091fefc3a934201d100f0d2fe46d9fe227f
:10021400ff32934201d100f072ff00d89de0ae4a54
:10022400934201d100f095ff01d900f09cff002218
:10023400a84b1a701aaca94d2b002433220043cbcf
:1002440043c243cb43c203cb03c2200007f0a7f849
:1002540081b2200007f022f92b001033220003cbd7
:1002640003c21b8813809049200006f017ff20006a
:1002740007f095f881b2200007f010f9924c2000a5
:1002840007f08df881b2200007f008f9c02252006f
:100294000021200007f06cf800f044fe033a93427a
:1002a40001d100f043fe2bd8023a934201d100f071
:1002b4001afe0132934201d000f034fe7a4c072238
:1002c40087490831200007f01af8200007f067f882
:1002d4000100200004f04afc0222ff32814b1a8004
:1002e400fb326d4b9a80744b1a687f4b1a60200066
:1002f40007f055f881b2200007f0d0f800f012fea4
:100304000422ff32934201d100f031fe01329342c4
:1003140001d000f007fe644c0b22714930312000fb
:1003240006f0edff200007f03af80100200004f089
:100334001dfc822252006b4b1a80f832564b9a8075
:100344005d4b1a68684b1a60200007f028f881b2e8
:10035400200007f0a3f800f0e5fdf73a934201d13d
:1003640000f047fef632934201d000f0dbfd5c4919
:100374005c315e4806f0c4fb002801d100f05afe4f
:100384000222544b1a70594c200007f008f802005e
:1003940021004d4806f0b3ffc02252000021200086
:1003a40006f0e6ff0022524b1a604a4b1b78022be0
:1003b40001d100f05ffe474b1b78032b01d100f005
:1003c40099fe3d4b1b68484a12689b1a494a93425e
:1003d40001d800f0a7fd00223e4b1a701aac404b26
:1003e4006c33220023cb23c223cb23c223cb23c2cf
:1003f400200006f0d4ff81b2200007f04ff8374bfd
:100404001033220003cb03c21b881380264920002b
:1004140006f044fe200006f0c2ff81b2200007f07f
:100424003df8294c200006f0baff81b2200007f005
:1004340035f8c02252000021200006f099ff00f098
:1004440071fdfa3a934201d100f0cdfe013293429c
:1004540001d000f067fd144c0b22204960312000cc
:1004640006f04dff200006f09aff0100200004f082
:100474007dfb174a154b1a80f932074b9a800e4bb5
:100484001a681d4b1a60200006f089ff81b2200013
:1004940007f004f800f046fd34000020fc060000dc
:1004a4000305000005040000f0010020b42e000044
:1004b400060400006e2500204c250020282500207d
:1004c40001020000fe0200006c0a002060250020ea
:1004d40003020000dc010020ff010000b42d000035
:1004e400342d0000702500202c2500206c070020ee
:1004f4003c250020102700000c250020ff2292003c
:10050400934201d100f0c8ff24d9db4a934201d1c0
:1005140001f04ef801d901f080f8d84c200006f023
:100524003eff81b2200006f0b9ffc0225200002134
:10053400200006f01dffd24b1b88d24a934201d102
:1005440001f031f80133d04a93800022cf4b1a7066
:1005540000f0e8fcfb3a934201d100f04eff013277
:10056400934201d000f0defcc94c0c22c94944314d
:10057400200006f0c4fe200006f011ff0100200058
:1005840004f0f4fabf4abe4b1a80fa32be4b9a808a
:10059400c14b1a68c14b1a60200006f000ff81b2fb
:1005a400200006f07bff00f0bdfc023a934201d12b
:1005b40001f05bf80132934201d000f0b3fcb44c7b
:1005c4000b22b7493031200006f099fe200006f0d6
:1005d400e6fe0100200004f0c9fab24ab24b1a80c8
:1005e400fa32a94b9a80ac4b1a68b04b1a602000bf
:1005f40006f0d5fe81b2200006f050ff00f092fc18
:10060400ab4a934201d101f090f922d9a94a93420d
:1006140001d101f092f901d901f0b3f99c4c1e22e9
:10062400a5495031200006f06afe200006f0b7fe0e
:100634000100200004f09afa934a938801339380ce
:10064400200006f0acfe81b2200006f027ff00f087
:1006540069fc023a934201d101f048f90132934214
:1006640001d000f05ffc0022884b1a701aac924b48
:100674003433220023cb23c223cb23c21b88138011
:10068400200006f08cfe81b2200006f007ff814bab
:100694001033220003cb03c21b8813807c49200043
:1006a40006f0fcfc200006f07afe81b2200006f081
:1006b400f5fe724c200006f072fe81b2200006f0b6
:1006c400edfec02252000021200006f051fe00f091
:1006d40029fc7a4a934201d101f00bfa59d8043a21
:1006e400934201d101f0a2f928d9754a934201d16c
:1006f40001f0bdf901d901f0dbf9654c2e227149f5
:100704007031200006f0fbfd200006f048fe0100d9
:10071400200004f02bfa6c4a6c4b1a80fa325a4bc4
:100724009a805d4b1a686a4b1a60200006f037fe07
:1007340081b2200006f0b2fe00f0f4fb033a9342cb
:1007440001d101f065f90232934201d000f0eafbd5
:100754004f4c122252494831200006f0d0fd2000af
:1007640006f01dfe0100200004f000fac022d200b1
:10077400564b1a80fc32444b9a80474b1a68544bb0
:100784001a60200006f00bfe81b2200006f086feff
:10079400c8e3c122d200934201d101f0ecf917d988
:1007a4004c4a934201d101f029fa01d201f005fa31
:1007b400f132934200d0b5e3344b1b78012b00d0c7
:1007c400b0e30022314b1a70434a2f4b9a80a9e3bd
:1007d400023a934201d101f0adf90132934200d0c3
:1007e400a0e32b4c26223d497c31200006f087fdf6
:1007f400200006f0d4fd0100200004f0b7f9384ac7
:10080400324b1a80f532204b9a80234b1a68304bb6
:100814001a60200006f0c3fd81b2200006f03efeff
:1008240080e3304a934201d101f0cffd5ed92e4ad4
:10083400934201d101f029ff00d974e2073a9342af
:1008440001d101f0c7ff00d9e4e1043a934201d198
:1008540001f0a0fe00d8b8e1a0221201934201d118
:1008640001f0d0fe01d901f0effec02252000021b8
:10087400024806f07dfd55e3fe0300006c0a0020eb
:100884006c2500200203000034000020dc0100205d
:10089400f0010020b42d00004c2500202425002068
:1008a400342d0000020400006e25002028250020bd
:1008b400ff04000001050000b42e0000050600003e
:1008c40003060000342f0000020600006625002005
:1008d400182500200a060000ff060000b42f0000bf
:1008e4000706000002090000090a0000fa3aff3a6c
:1008f400934201d101f072fb29d9dd4a934201d11f
:1009040001f046fc00d925e1f03aff3a934201d1c7
:1009140001f0d8fb00d8f2e080221201934201d109
:1009240001f0f3fb0132934201d101f010fc033ad0
:10093400934200d0f6e2cf4b1b78012b00d0f1e2ba
:100944000022cc4b1a70cc4acc4b9a80eae2073a8c
:10095400934201d101f08ffa30d9c94a934201d1af
:1009640001f0d0fa00d89fe0c64a934201d101f0c9
:10097400edfa01d901f00efbbe4b1b78012b00d020
:10098400d0e20022bb4b1a70bf4c0f22bf49483142
:10099400200006f0b4fc200006f001fd0100200058
:1009a40004f0e4f8b54a938801339380200006f0fc
:1009b400f6fc81b2200006f071fdb3e2033a9342e3
:1009c40001d101f035fa43d8023a934201d101f042
:1009d400fef90132934200d0a4e20022a54b1a7022
:1009e4001aacab4b1033220023cb23c223cb23c23c
:1009f40023cb23c219681160998891809b799371e4
:100a0400200006f0ccfc81b2200006f047fda14b8b
:100a14001033220003cb03c21b8813809a492000a1
:100a240006f03cfb200006f0bafc81b2200006f080
:100a340035fd994c200006f0b2fc81b2200006f08e
:100a44002dfdc02252000021200006f091fc69e235
:100a5400e022d200934201d101f0f2f90132934233
:100a640000d05fe2834b1b78012b00d05ae20022b6
:100a7400804b1a70844c122285493c31200006f0c8
:100a84003efc200006f08bfc0100200004f06ef810
:100a94007a4a938801339380200006f080fc81b267
:100aa400200006f0fbfc3de2023a934201d101f042
:100ab40006fa0132934200d034e26e4b1b78012bcc
:100ac40000d02fe200226b4b1a706f4c1e22734928
:100ad4002431200006f013fc200006f060fc010025
:100ae400200004f043f8654a938801339380200082
:100af40006f055fc81b2200006f0d0fc12e2023a66
:100b0400934201d101f08efa0132934200d009e2fe
:100b1400584b1b78012b00d004e20022554b1a706d
:100b2400594c0f225e491431200006f0e8fb2000e6
:100b340006f035fc0100200004f018f84f4a9388b1
:100b440001339380200006f02afc81b2200006f0d5
:100b5400a5fce7e1534a934201d101f0bbfb0fd955
:100b640090221201934201d101f0ecfb01d901f072
:100b74000bfcc02252000021474806f0f9fbd1e1ea
:100b8400023a934201d101f011fb0132934200d0a9
:100b9400c8e1414c200006f002fc81b2200006f0be
:100ba4007dfcc02252000021200006f0e1fb3e4bf8
:100bb4001b883e4a934201d101f087fb01332f4a3f
:100bc400938000222b4b1a70ace1023a934201d17c
:100bd40001f04efc0132934200d0a3e12e4c2000e0
:100be40006f0ddfb81b2200006f058fcc022520062
:100bf4000021200006f0bcfb2d4b1b882d4a93429c
:100c040001d101f0c2fc01331c4a93800022194b2c
:100c14001a7087e1284a934201d101f078fd59d92d
:100c2400264a934201d101f093fd01d901f0b1fdaf
:100c3400154c192222496031200006f060fb200087
:100c440006f0adfb0100200003f090ff1d4a1e4b8f
:100c54001a80f632094b9a801c4b1a681c4b1a6096
:100c6400200006f09cfb81b2200006f017fc59e13d
:100c7400fb080000dc010020ff0700003400002016
:100c84000507000007070000f0010020b42f000052
:100c9400b4300000b42d00006c0a00203431000090
:100ca400b4310000fe08000068250020010800009f
:100cb4006225002001090000050a0000070a00005f
:100cc40034320000060a0000642500204c25002070
:100cd40014250020023a934201d101f0d7fd0132dc
:100ce400934200d01ee1e64c0e22e649503120002a
:100cf40006f005fb200006f052fb0100200003f083
:100d040035ffe14ae14b1a80f832e14b9a80e14b1e
:100d14001a68e14b1a60200006f041fb81b2200002
:100d240006f0bcfbfee0dd4a934201d101f09cfedb
:100d34005ad8f23a934201d101f0c9fd2bd9d84acd
:100d4400934201d101f0e4fd01d901f06efeef3ac6
:100d5400934200d0e6e0ca4c0e22d249443120002e
:100d640006f0cdfa200006f01afb0100200003f083
:100d7400fdfecd4ac54b1a80ef32c54b9a80c54b58
:100d84001a68c54b1a60200006f009fb81b22000e6
:100d940006f084fbc6e0023a934201d101f096fcce
:100da4000132934200d0bde0b54c0d22bd4934312f
:100db400200006f0a4fa200006f0f1fa0100200059
:100dc40003f0d4feb94ab14b1a80f132b04b9a8089
:100dd400b04b1a68b04b1a60200006f0e0fa81b2fa
:100de400200006f05bfb9de0b14a934201d101f083
:100df4007bfe15d9af4a934201d101f055ff01d2d0
:100e040001f0fffe0132934200d08be0c022520079
:100e14000021a94806f0acfa0022a84b1a7081e020
:100e2400a74a934201d101f057feb0221202934225
:100e340078d1a44cc02252000021200006f098fa78
:100e4400a14f390030311f22200006f058fa20004b
:100e540006f0a5fa00198e4b9846991d202206f03b
:100e64004efa01ad3b0050332a0043cb43c219680c
:100e740011609b8893802900200006f00ff9390047
:100e840064311022914806f03afa9049200006f0a5
:100e940005f93b0074337a6f01921b792b71290099
:100ea400200006f0fbf8764dc022520021002800f5
:100eb40006f025fa280006f072fa0100280003f073
:100ec40055fe834a834b1a80834b42469380714b71
:100ed4001a68824b1a60280006f061fa81b2280071
:100ee40006f0dcfa1ee0664c05227d49200006f07f
:100ef40006fa200006f053fa0100200003f036fe43
:100f040080225200774b1a80fc32614b9a80614bed
:100f14001a68754b1a60200006f041fa81b220006d
:100f240006f0bcfa5ab004bc9046f0bd544c1122f1
:100f34006b491031200006f0e2f9200006f02ffa88
:100f44000100200003f012fe81225200654b1a803a
:100f5400fa324f4b9a804f4b1a68634b1a60200049
:100f640006f01dfa81b2200006f098fadae7444c44
:100f74000b225b492431200006f0c1f9200006f061
:100f84000efa0100200003f0f1fd0422ff32554b5c
:100f94001a80f9323e4b9a803e4b1a68524b1a60c3
:100fa400200006f0fcf981b2200006f077fab9e7d8
:100fb400334c09224a493c31200006f0a0f92000b4
:100fc40006f0edf90100200003f0d0fd0622ff3207
:100fd400444b1a80f7322e4b9a802e4b1a68424ba0
:100fe4001a60200006f0dbf981b2200006f056fa00
:100ff40098e7234c12223a494831200006f07ff941
:10100400200006f0ccf90100200003f0affd83229c
:101014005200344b1a80f6321d4b9a801d4b1a68cd
:10102400314b1a60200006f0baf981b2200006f0b4
:1010340035fa77e72a4964312c4805f061fd002828
:1010440001d1fff7b2f903221c4b1a70274c200080
:1010540006f0a5f902002100174806f050f9c02255
:1010640052000021200006f083f90022204b1a6070
:10107400fff79bf9fe22ff32054b9a8052e7c046e8
:10108400f0010020b42d0000040a000064250020b3
:10109400340000204c25002014250020fe0a000006
:1010a400fc0a0000b43200000d0a00000b0a000024
:1010b400fcb00000feb000006c0a0020dc0100203f
:1010c400ff0a0000ec080020343300005a0000201e
:1010d40000b0ffff6a250020fcb0ffff20250020a0
:1010e400342d0000702500202c2500206c070020e2
:1010f4003c250020ff225200d04b9a8012e7d04cae
:10110400200006f04cf981b2200006f0c7f9cd4b5f
:101114001b888322520093420cd00133c74a938028
:10112400c02252000021c64806f022f90022c64b14
:101134001a70f7e6c5491c31c14805f0e1fc01000d
:10114400be4ca01d0531202206f0d9f8c04ba38067
:10115400e6e7c02252000021b94806f009f900224e
:10116400b94b1a70dee6bb4c0522bb49200006f0e1
:10117400c6f8200006f013f90100200003f0f6fc85
:1011840080229200b54b1a80fc32ac4b9a80b44b4f
:101194001a68b44b1a60200006f001f981b22000ed
:1011a40006f07cf9bee6ab4c0c22a8494431200081
:1011b40006f0a5f8200006f0f2f80100200003f084
:1011c400d5fca94aa54b1a80fb329c4b9a80a44bb0
:1011d4001a68a44b1a60200006f0e1f881b22000de
:1011e40006f05cf99ee69b4c0e2298495031200093
:1011f40006f085f8200006f0d2f80100200003f084
:10120400b5fc9a4a954b1a80fa328c4b9a80944bcf
:101214001a68944b1a60200006f0c1f881b22000cd
:1012240006f03cf97ee68c495c31914805f068fc97
:1012340000285bd00222844b1a708d4c200006f0eb
:10124400aef8020021007e4806f059f8c022520090
:101254000021200006f08cf80022864b1a607a4b9d
:101264001b78022b5fd0784b1b78032b5fd07c4b11
:101274001b687c4a12689b1a7f4a934200d851e645
:101284000022714b1a701aac704d2b006c33220083
:1012940043cb43c243cb43c243cb43c2200006f0fb
:1012a4007ef881b2200006f0f9f82b0010332200fa
:1012b40003cb03c21b8813806649200005f0eefeb1
:1012c400200006f06cf881b2200006f0e7f85c4cd0
:1012d400200006f064f881b2200006f0dff8c02296
:1012e40052000021200006f043f81be65a496431fd
:1012f4005f4805f005fc0028b1d00322524b1a7058
:101304005b4c200006f04bf8020021004c4805f02d
:10131400f6ffc02252000021200006f029f8002226
:10132400544b1a609be7554a444b9a80fae5544a59
:10133400424b9a80f6e5534a404b9a80fef75cff95
:101344000022414b1a701aac4f4b1033220023cbae
:1013540023c223cb23c203cb03c2200006f01ff811
:1013640081b2200006f09af8384b1033220003cbe8
:1013740003c21b8813803749200005f08ffe20002c
:1013840006f00df881b2200006f088f82c4c2000fd
:1013940006f005f881b2200006f080f8c022520061
:1013a4000021200005f0e4ffbce5c022520000212a
:1013b400234805f0ddffb5e5264c0b2226493031e4
:1013c400200005f09cff200005f0e9ff010020004b
:1013d40003f0ccfbc02292002c4b1a80fc32174b3a
:1013e4009a801f4b1a682a4b1a60200005f0d7ff19
:1013f40081b2200006f052f894e5164c09221649f1
:101404003c31200005f07bff200005f0c8ff0100ff
:10141400200003f0abfb1f4a1c4b1a80fb32074b26
:101424009a800f4b1a681a4b1a60200005f0b7ff18
:1014340081b2200006f032f874e5c0463400002082
:101444006c0a002070250020dc010020b42d00006f
:10145400ff010000f0010020342d00006025002071
:101464004c2500200c25002001020000020200008f
:101474006c0700203c25002010270000fd0200001e
:10148400fe020000ff020000342e00006c25002044
:101494002425002001030000ea495c31ea4805f0f4
:1014a4002ffb00285ad00222e84b1a70e64c200089
:1014b40005f075ff02002100e54805f020ffc02279
:1014c40052000021200005f053ff0022e14b1a6076
:1014d400de4b1b78022b5ed0dc4b1b78032b5ed0db
:1014e400dd4b1b68dd4a12689b1add4a934200d823
:1014f40018e50022d54b1a701aacda4b30332200af
:1015040023cb23c223cb23c223cb23c2200005f049
:1015140046ff81b2200005f0c1ffd34b10332200f7
:1015240003cb03c21b881380d049200005f0b6fd0d
:10153400200005f034ff81b2200005f0afffc44c59
:10154400200005f02cff81b2200005f0a7ffc02287
:1015540052000021200005f00bffe3e4b949643197
:10156400b94805f0cdfa0028b2d00322b74b1a705f
:10157400b54c200005f013ff02002100b44805f02b
:10158400befec02252000021200005f0f1fe002220
:10159400b04b1a609ce7b64ab64b9a80c2e4b64a8e
:1015a400b44b9a80bee4b54ab24b9a80fef7cdffa5
:1015b4000022a64b1a701aacaa4b5433220023cb38
:1015c40023c223cb23c203cb03c2200005f0e7fed2
:1015d40081b2200005f062ffa34b1033220003cb3d
:1015e40003c21b881380a149200005f057fd200089
:1015f40005f0d5fe81b2200005f050ff944c200088
:1016040005f0cdfe81b2200005f048ffc022520053
:101614000021200005f0acfe84e4c0225200002129
:101624008b4805f0a5fe7de4904c112285491031cc
:10163400200005f064fe200005f0b1fe010020004a
:1016440003f094fa8022d2008d4b1a80fc32894b2d
:101654009a80814b1a688b4b1a60200005f09ffe1c
:1016640081b2200005f01aff5ce4804c0b2275491e
:101674002431200005f043fe200005f090fe010017
:10168400200003f073fa804a7d4b1a80fb32794bb9
:101694009a80714b1a687b4b1a60200005f07ffe1c
:1016a40081b2200005f0fafe3ce4704c0922654941
:1016b4003c31200005f023fe200005f070fe0100ff
:1016c400200003f053fa714a6d4b1a80f932694bca
:1016d4009a80614b1a686b4b1a60200005f05ffe1c
:1016e40081b2200005f0dafefff71cfc5f4c0c22ef
:1016f4005d494431200005f002fe200005f04ffe54
:101704000100200003f032fa614a5d4b1a80f8327e
:10171400584b9a80504b1a685a4b1a60200005f0b7
:101724003efe81b2200005f0b9fefff7fbfb4f4cf3
:1017340010224c497431200005f0e1fd200005f031
:101744002efe0100200003f011fa524a4c4b1a807d
:10175400f732484b9a80404b1a684a4b1a60200073
:1017640005f01dfe81b2200005f098fefff7dafbbc
:1017740034495c31344805f0c3f9002800d18de0c8
:101784000222324b1a70304c200005f008fe020091
:1017940021002f4805f0b3fdc02252000021200093
:1017a40005f0e6fd00222b4b1a60284b1b78022b18
:1017b40000d191e0254b1b78032b00d191e0264bff
:1017c4001b68304a12689b1a254a934201d8fff7d6
:1017d400a9fb00221d4b1a701aac2f4b14332200a4
:1017e40023cb23c223cb23c2196811609b88938027
:1017f400200005f0d4fd81b2200005f04ffe1a4b05
:101804001033220003cb03c21b8813801749200026
:1018140005f044fc200005f0c2fd81b2200005f073
:101824003dfe0b4c200005f0bafd81b2200005f00e
:1018340035fec02252000021200005f099fdfff77b
:1018440071fbc046342d00006c070020dc01002031
:101854006c0a00203c2500204c2500202425002073
:1018640010270000342e0000b42d0000f0010020e9
:10187400fd03000034000020fe030000ff0300000d
:101884006e25002028250020010400000304000028
:101894000404000005040000b42e0000e84964318b
:1018a400e84805f02df9002800d17ee70322e64b35
:1018b4001a70e44c200005f072fd02002100e34898
:1018c40005f01dfdc02252000021200005f050fd4e
:1018d4000022df4b1a6068e7de4adf4b9a80fff78d
:1018e40021fbde4adc4b9a80fff71cfbd74c20001f
:1018f40005f055fd81b2200005f0d0fdc022520054
:101904000021200005f034fdd54b1b88d54a9342b5
:1019140007d00133d04a93800022cb4b1a70fff7d3
:1019240001fbd14acc4b9a80f6e7c0225200002139
:10193400c64805f01dfdfff7f5fac34b1b78012bd4
:1019440001d0fff7effa0022bf4b1a70c74c1e22da
:10195400c7497031200005f0d2fc200005f01ffdbe
:101964000100200003f002f9bb4a938801339380fd
:10197400200005f014fd81b2200005f08ffdfff773
:10198400d1fab14b1b78012b01d0fff7cbfa00221f
:10199400ad4b1a70b54c1e22b6491031200005f02b
:1019a400aefc200005f0fbfc0100200003f0def893
:1019b400a94a938801339380200005f0f0fc81b29a
:1019c400200005f06bfdfff7adfa9f4b1b78012b50
:1019d40001d0fff7a7fa00229b4b1a70a34c0f22e9
:1019e400a4493031200005f08afc200005f0d7fc22
:1019f4000100200003f0baf89f4a974b9a80200018
:101a040005f0cdfc81b2200005f048fdfff78afa0d
:101a14008d4b1b78012b01d0fff784fa00228a4bef
:101a24001a70964a8c4b9a80fff77cfa8f4c3022be
:101a340090494031200005f062fc200005f0affc25
:101a44000100200003f092f88d4a8e4b1a80fb327d
:101a5400814b9a808c4b1a688c4b1a60200005f0dd
:101a64009efc81b2200005f019fdfff75bfa7f4c64
:101a7400152287492031200005f041fc200005f0a3
:101a84008efc0100200003f071f8824a7d4b1a801d
:101a9400f932714b9a807c4b1a687c4b1a60200097
:101aa40005f07dfc81b2200005f0f8fcfff73afa5e
:101ab4006e4c0f2276493831200005f020fc2000be
:101ac40005f06dfc0100200003f050f8724a6d4be4
:101ad4001a80f832604b9a806b4b1a686b4b1a6011
:101ae400200005f05cfc81b2200005f0d7fcfff774
:101af40019fa5e4c0f2266494831200005f0fffbbd
:101b0400200005f04cfc0100200003f02ff8634a8c
:101b14005c4b1a80f732504b9a805b4b1a685b4bd4
:101b24001a60200005f03bfc81b2200005f0b6fcf1
:101b3400fff7f8f94d4c212255495831200005f0a2
:101b4400defb200005f02bfc0100200003f00ef862
:101b5400534a4c4b1a80f6323f4b9a804a4b1a68d0
:101b64004a4b1a60200005f01afc81b2200005f0ef
:101b740095fcfff7d7f93d4c16224a492431200041
:101b840005f0bdfb200005f00afc0100200002f076
:101b9400edffc122d2003b4b1a80f4322e4b9a80c7
:101ba400394b1a68394b1a60200005f0f8fb81b2f2
:101bb400200005f073fcfff7b5f92c4c12223949cb
:101bc4003c31200005f09bfb200005f0e8fb010000
:101bd400200002f0cbff344a2a4b1a80f3321e4b0a
:101be4009a80294b1a68294b1a60200005f0d7fb0c
:101bf40081b2200005f052fcfff794f91b4c0e2231
:101c040028495031200005f07afb200005f0c7fb7d
:101c14000100200002f0aaff194a1a4b1a80fb3275
:101c24000d4b9a80184b1a68184b1a60200005f067
:101c3400b6fb81b2200005f031fcfff773f9c04612
:101c4400342d00006c070020dc0100206c0a002009
:101c54003c250020fd04000034000020fe040000a8
:101c64006e25002006040000ff040000f00100209f
:101c7400b42e0000342f0000fe050000ff05000014
:101c840001060000662500204c25002018250020b0
:101c9400b42f00000306000004060000050600003f
:101ca400060600003430000009060000ef495c31ec
:101cb400ef4804f025ff002862d00222ed4b1a7091
:101cc400eb4c200005f06bfb02002100ea4805f014
:101cd40016fbc02252000021200005f049fb00221f
:101ce400e64b1a60e34b1b78022b66d0e14b1b7862
:101cf400032b67d0e24b1b68e24a12689b1ae24a44
:101d0400934201d8fff70ef90022da4b1a701aac8d
:101d1400de4b6033220023cb23c223cb23c223cb4d
:101d240023c203cb03c2198811809b7893702000cf
:101d340005f035fb81b2200005f0b0fbd44b103325
:101d4400220003cb03c21b881380d249200005f074
:101d5400a5f9200005f023fb81b2200005f09efbcd
:101d6400c54c200005f01bfb81b2200005f096fb5a
:101d7400c02252000021200005f0fafafff7d2f841
:101d8400ba496431ba4804f0bbfe0028aad0032241
:101d9400b84b1a70b64c200005f001fb020021007c
:101da400b54805f0acfac02252000021200005f02d
:101db400dffa0022b14b1a6094e7b74ab74b9a8016
:101dc400fff7b0f8b64ab54b9a80fff7abf8c023db
:101dd400db00b44a12889a421ad0a74c200005f0be
:101de400defa81b2200005f059fbc0225200002126
:101df400200005f0bdfaab4b1b88ab4a934213d0cd
:101e04000133a64a938000229a4b1a70fff78af88e
:101e14009f491c31984804f073fe411d20229f48bd
:101e2400063005f06cfad8e7a04a9c4b9a80eae7a2
:101e3400c02252000021904805f09afafff772f888
:101e4400944c30229a494031200005f058fa200081
:101e540005f0a5fa0100200002f088fe8f4a93885d
:101e640001339380200005f09afa81b2200005f036
:101e740015fbfff757f87f4b1b78012b01d0fff7b9
:101e840051f800227b4b1a70824c2e228949503122
:101e9400200005f034fa200005f081fa010020004a
:101ea40002f064fe7d4a938802339380200005f09b
:101eb40076fa81b2200005f0f1fafff733f86d4ba2
:101ec4001b78012b01d0fff72df80022694b1a7003
:101ed400704c24227849200005f011fa200005f006
:101ee4005efa0100200002f041fe6c4a938801333f
:101ef4009380200005f053fa81b2200005f0cefa59
:101f0400fff710f85b4b1b78012b01d0fff70af8a1
:101f14000022584b1a705f4c0f2268493831200058
:101f240005f0edf9200005f03afa0100200002f076
:101f34001dfe5a4a938801339380200005f02ffa3e
:101f440081b2200005f0aafafef7ecff494b1b789a
:101f5400012b01d0fef7e6ff0022464b1a704d4cd0
:101f64003d2255494431200005f0c9f9200005f00f
:101f740016fa0100200002f0f9fd484a9388013363
:101f84009380200005f00bfa81b2200005f086fa58
:101f9400fef7c8ff374b1b78012b01d0fef7c2ffb9
:101fa4000022344b1a703b4c262244497c312000d9
:101fb40005f0a5f9200005f0f2f90100200002f077
:101fc400d5fd364a938801339380200005f0e7f964
:101fd40081b2200005f062fafef7a4ff254b1b78be
:101fe400012b01d0fef79eff0022224b1a70294cd0
:101ff400162226492431200005f081f9200005f03d
:10200400cef90100200002f0b1fd244a9388013387
:102014009380200005f0c3f981b2200005f03efa58
:10202400fef780ff134b1b78012b01d0fef77affdc
:102034000022104b1a70174c102221490431200041
:1020440005f05df9200005f0aaf90100200002f076
:102054008dfd124a938801339380200005f09ff987
:1020640081b2200005f01afafef75cff342d00005f
:102074006c070020dc0100206c0a00203c250020b5
:102084004c250020182500201027000034300000c3
:10209400b42d0000f0010020fd06000034000020f3
:1020a400fe0600006625002009060000ff06000069
:1020b400342f0000b430000034310000b42f00008d
:1020c400b4310000d14b1b78012b01d0fef72aff5d
:1020d4000022ce4b1a70ce4c0e22ce495031200035
:1020e40005f00df9200005f05af90100200002f076
:1020f4003dfdc94ac94b9a80200005f050f981b2d0
:10210400200005f0cbf9fef70dffc14c0f22c449a6
:102114001431200005f0f3f8200005f040f9010027
:10212400200002f023fd80221201be4b1a80fc32f3
:10213400ba4b9a80bc4b1a68bc4b1a60200005f05d
:102144002ef981b2200005f0a9f9fef7ebfeb04ca0
:102154000f22b3492431200005f0d1f8200005f006
:102164001ef90100200002f001fdb14aad4b1a80b6
:10217400fb32aa4b9a80ac4b1a68ac4b1a60200015
:1021840005f00df981b2200005f088f9fef7cafeca
:102194009e4b1b78012b01d0fef7c4fe00229b4b03
:1021a4001a70a44a9d4b9a80fef7bcfea2495c318a
:1021b400a24804f0a5fc002860d00222934b1a70b8
:1021c4009e4c200005f0ebf8020021009c4805f02d
:1021d40096f8c02252000021200005f0c9f8002220
:1021e400984b1a60894b1b78022b64d0874b1b7861
:1021f400032b65d08c4b1b688c4a12689b1a924a3d
:10220400934201d8fef78efe0022804b1a701aac5e
:10221400834b3433220023cb23c223cb23c223cbcf
:1022240023c2196811601b791371200005f0b7f8f7
:1022340081b2200005f032f9844b1033220003cb25
:1022440003c21b8813807249200004f027ff20007a
:1022540005f0a5f881b2200005f020f9784c2000a3
:1022640005f09df881b2200005f018f9c022520053
:102274000021200005f07cf8fef754fe6e4964311d
:102284006e4804f03dfc0028acd003225f4b1a706a
:102294006a4c200005f083f802002100684805f02c
:1022a4002ef8c02252000021200005f061f800221f
:1022b400644b1a6096e7664a584b9a80fef732fee2
:1022c400644a564b9a80fef72dfe5a4a534b9a8025
:1022d400fef777fc00224d4b1a701aac504b60335a
:1022e400220023cb23c223cb23c223cb23c21b78bc
:1022f4001370200005f053f881b2200005f0cef8e9
:10230400524b1033220003cb03c21b881380404975
:10231400200004f0c3fe200005f041f881b2200043
:1023240005f0bcf8464c200005f039f881b22000d5
:1023340005f0b4f8c02252000021200005f018f87e
:10234400fef7f0fd324c102243497431200004f0b2
:10235400d6ff200005f023f80100200002f006fc5f
:10236400902212013d4b1a80fc322c4b9a802e4b4a
:102374001a683b4b1a60200005f011f881b2200066
:1023840005f08cf8fef7cefd214c0f2235490431bf
:10239400200004f0b4ff200005f001f80100200043
:1023a40002f0e4fb304a2d4b1a80fb321b4b9a801f
:1023b4001d4b1a682a4b1a60200004f0f0ff81b20a
:1023c400200005f06bf8fef7adfd114c0e221f49fd
:1023d4005031200004f093ff200004f0e0ff0100de
:1023e400200002f0c3fb214a1c4b1a80fa320b4b2b
:1023f4009a800d4b1a681a4b1a60200004f0cfff24
:1024040081b2200005f04af8fef78cfddc010020c3
:10241400f001002034300000fe07000034000020ea
:10242400b4310000682500204c2500201c25002024
:1024340001080000ff080000342d00006c07002094
:102444006c0a00203c25002010270000b42d000059
:10245400fd080000fe080000342e00006225002064
:1024640010250020b42e000001090000020900001c
:10247400e9495c31e94804f043fb00285ed00222bc
:10248400e74b1a70e54c200004f089ff020021009c
:10249400e44804f034ffc02252000021200004f07c
:1024a40067ff0022e04b1a60dd4b1b78022b62d0e1
:1024b400db4b1b78032b63d0dc4b1b68dc4a1268b4
:1024c4009b1adc4a934201d8fef72cfd0022d44b20
:1024d4001a701aacd84b0833220023cb23c223cb67
:1024e40023c203cb03c21b881380200004f057ffd0
:1024f40081b2200004f0d2ffd04b1033220003cb72
:1025040003c21b881380ce49200004f0c7fd2000bd
:1025140004f045ff81b2200004f0c0ffc14c20004c
:1025240004f03dff81b2200004f0b8ffc022520045
:102534000021200004f01cfffef7f4fcb6496431ce
:10254400b64804f0ddfa0028aed00322b44b1a706a
:10255400b24c200004f023ff02002100b14804f033
:10256400cefec02252000021200004f001ff002210
:10257400ad4b1a6098e7b34ab34b9a80fef7d2fc8e
:10258400b24ab14b9a80fef7cdfcb14aae4b9a8069
:10259400fef73cfb0022a24b1a701aaca64b2c335c
:1025a400220023cb23c223cb23c2196811609b884a
:1025b4009380200004f0f3fe81b2200004f06eff4b
:1025c4009e4b1033220003cb03c21b8813809c490b
:1025d400200004f063fd200004f0e1fe81b220003d
:1025e40004f05cff8f4c200004f0d9fe81b220007f
:1025f40004f054ffc02252000021200004f0b8fe71
:10260400fef790fc8e4c102292497431200004f0a5
:1026140076fe200004f0c3fe0100200002f0a6faba
:10262400a02212018c4b1a80fc32874b9a807f4b7c
:102634001a688a4b1a60200004f0b1fe81b22000af
:1026440004f02cfffef76efc7d4c0f22844904310c
:10265400200004f054fe200004f0a1fe010020003c
:1026640002f084fa7f4a7c4b1a80fb32764b9a80c4
:102674006e4b1a68794b1a60200004f090fe81b208
:10268400200004f00bfffef74dfc6d4c0f22764941
:102694001431200004f033fe200004f080fe010019
:1026a400200002f063fa714a6b4b1a80f332664bd6
:1026b4009a805e4b1a68694b1a60200004f06ffe22
:1026c40081b2200004f0eafefef72cfc5c4c0f22e1
:1026d40065492431200004f012fe200004f05ffe5e
:1026e4000100200002f042fa614a5b4b1a80f23288
:1026f400554b9a804d4b1a68584b1a60200004f0d1
:102704004efe81b2200004f0c9fefef70bfc4c4cd7
:10271400132249494c31200004f0f1fd200004f05b
:102724003efe0100200002f021fa524a4a4b1a8070
:10273400f732454b9a803d4b1a68484b1a6020008b
:1027440004f02dfe81b2200004f0a8fefef7eafb9f
:102754003b4c192238497c31200004f0d0fd200084
:1027640004f01dfe0100200002f000fa424a3a4b38
:102774001a80f532344b9a802c4b1a68374b1a6006
:10278400200004f00cfe81b2200004f087fefef766
:10279400c9fb2b4c192239491831200004f0affd34
:1027a400200004f0fcfd0100200002f0dff9344aaf
:1027b400294b1a80f432244b9a801c4b1a68274bfd
:1027c4001a60200004f0ebfd81b2200004f066fee4
:1027d400fef7a8fb1a4c2e222a497031200004f07f
:1027e4008efd200004f0dbfd0100200002f0bef9a4
:1027f400254a194b1a80fa32134b9a800b4b1a68ec
:10280400164b1a60200004f0cafd81b2200004f0c7
:1028140045fefef787fbc046342d00006c07002000
:10282400dc0100206c0a00203c2500204c250020ff
:10283400102500201027000034320000b42d0000c1
:10284400f0010020fd09000034000020fe09000012
:10285400ff090000342e0000642500201425002008
:10286400b42e0000010a0000b4310000090a00007f
:102874000a0a0000050a0000070a0000b43200003a
:10288400080a0000342f0000020a0000ed4c122256
:10289400ed493c31200004f032fd200004f07ffdbe
:1028a4000100200002f062f9e84ae94b1a80f9328b
:1028b400e84b9a80e84b1a68e84b1a60200004f051
:1028c4006efd81b2200004f0e9fdfef72bfbdd4c28
:1028d4000e22dd495031200004f011fd200004f0e7
:1028e4005efd0100200002f041f9dd4ad84b1a8058
:1028f400f032d84b9a80d84b1a68d84b1a60200013
:1029040004f04dfd81b2200004f0c8fdfef70afb7f
:10291400d4495c31d44804f0f3f800285ed0022294
:10292400d24b1a70d04c200004f039fd0200210073
:10293400cf4804f0e4fcc02252000021200004f03f
:1029440017fd0022cb4b1a60c84b1b78022b62d0b8
:10295400c64b1b78032b63d0bf4b1b68bf4a12685e
:102964009b1ac54a934201d8fef7dcfa0022bf4bfa
:102974001a701aacc14b5433220023cb23c223cb8d
:1029840023c223cb23c223cb23c2200004f007fda0
:1029940081b2200004f082fdb94b1033220003cb36
:1029a40003c21b881380a749200004f077fb200092
:1029b40004f0f5fc81b2200004f070fdac4c200062
:1029c40004f0edfc81b2200004f068fdc022520046
:1029d4000021200004f0ccfcfef7a4faa1496431e4
:1029e400a14804f08df80028aed003229f4b1a7042
:1029f4009d4c200004f0d3fc020021009c4804f00c
:102a04007efcc02252000021200004f0b1fc002210
:102a1400984b1a6098e79b4a8e4b9a80fef782fa8d
:102a2400994a8c4b9a80fef77dfa914c200004f071
:102a3400b6fc81b2200004f031fdc0225200002116
:102a4400200004f095fc824b1b88854a934207d0f2
:102a54000133804a93800022844b1a70fef762fa95
:102a64008a4a7c4b9a80f6e70022804b1a701aac93
:102a7400874b0433220023cb23c223cb23c223cb93
:102a840023c203cb03c2200004f089fc81b22000de
:102a940004f004fd7a4b1033220003cb03c21b88dd
:102aa40013806849200004f0f9fa200004f077fc50
:102ab40081b2200004f0f2fc6d4c200004f06ffca5
:102ac40081b2200004f0eafcc02252000021200060
:102ad40004f04efcfef726fac0225200002164489e
:102ae40004f046fcfef71efa5e495c315e4804f0d1
:102af40007f800285ed002225c4b1a705a4c200062
:102b040004f04dfc02002100594804f0f8fbc022f7
:102b140052000021200004f02bfc0022554b1a60c7
:102b2400524b1b78022b62d0504b1b78032b63d083
:102b3400494b1b68574a12689b1a4f4a934201d863
:102b4400fef7f0f90022494b1a701aac504b7c3353
:102b5400220023cb23c223cb23c223cb23c21b8833
:102b64001380200004f01bfc81b2200004f096fcca
:102b7400434b1033220003cb03c21b88138031491b
:102b8400200004f08bfa200004f009fc81b220003c
:102b940004f084fc364c200004f001fc81b22000d7
:102ba40004f07cfcc02252000021200004f0e0fb71
:102bb400fef7b8f92b4964312b4803f0a1ff002834
:102bc400aed00322294b1a70274c200004f0e7fbf7
:102bd40002002100264804f092fbc022520000218a
:102be400200004f0c5fb0022224b1a6098e72a4a11
:102bf400184b9a80fef796f9284a164b9a80fef7ee
:102c040091f91b4c200004f0cafb81b2200004f0af
:102c140045fc234b1b88b022120293420dd0013392
:102c24000c4a9380c02252000021114804f0a0fbfa
:102c340000220e4b1a70fef775f91a4a054b9a805a
:102c4400f0e7c046f001002034300000030a000021
:102c540064250020340000204c2500201425002089
:102c64000c0a0000342d00006c070020dc01002059
:102c74006c0a00203c250020204e0000b4320000e5
:102c8400b42d0000fd0a0000fe0a0000ff0a000047
:102c94003433000020250020fdb0fffffeb0ffff0d
:102ca4006a250020ffb0ffff00221c4b1a701aaceb
:102cb4001b4b2433220023cb23c223cb23c219680a
:102cc4001160998891809b799371200004f067fbcf
:102cd40081b2200004f0e2fb124b1033220003cb3c
:102ce40003c21b8813801049200004f0d7f9200088
:102cf40004f055fb81b2200004f0d0fb0b4c200003
:102d040004f04dfb81b2200004f0c8fbc022520045
:102d14000021200004f02cfbfef704f9dc01002064
:102d2400b4330000b42d0000f00100206c0a002030
:020000040000fa
:102d340041540d0a00000000415445300d0a0000c2
:102d440041542b434c434b3d225343222c320d0a16
:102d54000000000041542b4350494e3f0d0a00002f
:102d640041542b434f50533f0d0a000041542b4311
:102d740053510d0a0000000041542b55524446495a
:102d84004c453d225030220d0a0000004f4b0d0ae5
:102d9400000000004552524f520d0a005f41545f3b
:102da4004d4f44554c455f434f4e4e4543542020b0
:102db4004572726f725f74696d656f75740d0a0088
:102dc40074785f4552524f523a0000002c33322c33
:102dd400000000005f41545f4d4f44554c455f4334
:102de4004f4e4e45435420204572726f725f6d659d
:102df400670d0a0041542b43455245473f0d0a00d5
:102e040041542b434744434f4e543f0d0a000000a6
:102e140041542b43434c4b3f0d0a00005f41545f28
:102e240034474c54455f6c696e6b5f63686b20205c
:102e34004572726f725f74696d656f75740d0a0007
:102e44005f41545f34474c54455f6c696e6b5f63fc
:102e5400686b20204572726f725f6d65670d0a00a2
:102e64005f41545f4e4554574f524b5f5354415446
:102e7400555320204572726f725f74696d656f756a
:102e8400740d0a005f41545f4e4554574f524b5fd7
:102e940053544154555320204572726f725f6d65cf
:102ea400670d0a0041542b555053443d302c302caf
:102eb400300d0a0041542b55505344413d302c33be
:102ec4000d0a00005f41545f52454c4f475f494e25
:102ed40020204572726f725f74696d656f75740d31
:102ee4000a0000005f41545f52454c4f475f494e12
:102ef40020204572726f725f6d65670d0a000000d5
:102f040041542b555345434d4e473d302c302c22d4
:102f14007063626361222c313335390d0a0000007d
:102f240041542b555345434d4e473d302c312c22b3
:102f34007063626363222c313235370d0a0000005e
:102f440041542b555345434d4e473d302c322c2292
:102f5400706362706b222c313637350d0a00000025
:102f640041542b555345434d4e473d330d0a000004
:102f740041542b554d5154543d302c22394334394e
:102f840030443332424232303833333630313832df
:102f9400304531413732393843453232220d0a0047
:102fa40041542b554d5154543d322c227368617257
:102fb400656170702e73746f6e65746563682e63db
:102fc4006f6d2e7477222c383838330d0a000000c8
:102fd40041542b554d5154543d332c22222c383816
:102fe40038330d0a0000000041542b554d51545400
:102ff4003d362c310d0a000041542b554d5154548b
:103004003d372c310d0a000041542b554d51545479
:103014003d382c22736572617068696d2f6c617321
:103024007477696c6c220d0a0000000041542b5522
:103034004d5154543d392c22556e7265717565732a
:1030440074656420646973636f6e6e656374220dc6
:103054000a00000041542b554d5154543d31302c3d
:10306400333630302c32300d0a00000041542b55d9
:103074004d5154543d31312c312c320d0a00000095
:1030840041542b554d515454433d310d0a00000019
:103094005f41545f4d5154545f42494449525f412a
:1030a4005554485f504152415f4c4f4144202045a4
:1030b40072726f725f74696d656f75740d0a0000ca
:1030c4005f41545f4d5154545f42494449525f41fa
:1030d4005554485f504152415f4c4f414420204574
:1030e40072726f725f6d65670d0a000041542b5553
:1030f4004d5154543d312c313838330d0a00000001
:1031040041542b554d5154543d322c2273686172f5
:10311400656170702e73746f6e65746563682e6379
:103124006f6d2e7477222c313838330d0a0000006d
:1031340041542b554d5154543d332c227878782edc
:103144007878782e7878782e787878222c383838f1
:10315400330d0a0041542b554d5154543d342c2207
:1031640074657374222c226d717474313233220da0
:103174000a00000041542b554d5154543d382c2223
:10318400454d4f544f2f4445562f3943343930441d
:1031940033324242323038333336303138323045cc
:1031a400314137323938434532322f5550220d0ad6
:1031b4000000000041542b554d5154543d31312ce5
:1031c400300d0a0041542b554d5154544e563d3246
:1031d4000d0a000041542b554d5154544e563d3167
:1031e4000d0a00005f41545f4d5154545f504152e9
:1031f400415f4f5045524154494f4e202045727211
:103204006f725f74696d656f75740d0a000000005c
:103214005f41545f4d5154545f504152415f4f5090
:1032240045524154494f4e20204572726f725f6d72
:1032340065670d0a000000005f41545f34475f4c2e
:1032440054455f4c4f47494e20204572726f725f60
:1032540074696d656f75740d0a0000005f41545ff9
:1032640034475f4c54455f4c4f47494e20204572cc
:10327400726f725f6d65670d0a00000041542b5533
:103284005345435052463d322c302c310d0a000038
:1032940041542b555345435052463d322c332c2236
:1032a4007063626361220d0a0000000041542b55d3
:1032b4005345435052463d322c352c227063626391
:1032c40063220d0a0000000041542b55534543501e
:1032d40052463d322c362c22706362706b220d0aea
:1032e4000000000041542b554d5154543f200d0a09
:1032f4000000000041542b554d515454433d300db2
:103304000a0000005f41545f4d5154545f424944e8
:1033140049525f415554485f4c4f47494e5f464cb4
:103324004f5720204572726f725f74696d656f75b7
:10333400740d0a005f41545f4d5154545f42494437
:1033440049525f415554485f4c4f47494e5f464c84
:103354004f5720204572726f725f6d65670d0a00ca
:1033640041542b554d515454433d322c302c302c68
:10337400302c2022454d4f544f2f4445562f0000ea
:103384002f5550222c227b224c494e4b434d442234
:103394003a00000057696c6c69616d77616e6774ff
:1033a400657374007d220d0a000000005f41545fc4
:1033b4004d5154545f54585f55505f44415441310a
:1033c40020204572726f725f74696d656f75740d3c
:1033d4000a0000005f4d5154545f54585f55505fcc
:1033e400444154413120204572726f725f6d6567ac
:0433f4000d0a0000be
:020000040000fa
:1033f800c42400201c000000000000004c21002014
:103408009c000000000000000000002034000000c4
:1034180000000000602500200200000000000000fd
:103428000c25002004000000000000006225002098
:103438000200000000000000102500200400000029
:1034480000000000642500200200000000000000c9
:10345800142500200400000000000000662500205c
:1034680002000000000000001825002004000000f1
:103478000000000068250020020000000000000095
:103488001c25002004000000000000006a25002020
:1034980002000000000000002025002004000000b9
:1034a800000000006c250020020000000000000061
:1034b8002425002004000000000000006e250020e4
:1034c8000200000000000000282500200400000081
:1034d800000000007025002002000000000000002d
:1034e8002c2500200400000000000000340000200b
:1034f8003c030000000000007625002001000000c9
:1035080000000000772500200100000000000000f6
:103518007825002001000000000000003025002070
:103528000400000000000000342500200400000012
:1035380000000000792500200100000000000000c4
:103548003825002004000000000000007a25002033
:1035580001000000000000007b25002001000000a1
:10356800010000000100000080030020ec030000bf
:10357800000000007225002002000000000000008a
:103588003c25002004000000000000006c0700201b
:103598008310000000000000242400202c000000fc
:1035a800000000004025002004000000000000008a
:1035b80044250020040000000000000048250020e9
:1035c80004000000000000004c250020040000005a
:1035d80000000000f01700200500000000000000b7
:1035e8007425002002000000000000005423002081
:1035f800500000000000000074220020800000003d
:1036080000000000e82100208c00000000000000fd
:10361800a424002020000000000000007c240020da
:103628002800000000000000101800209001000091
:10363800000000008c200020c000000000000000f6
:10364800502400202c00000000000000a0190020d9
:103658008001000000000000201b00208001000005
:1036680000000000a423002040000000000000002b
:103678008c1f00200001000000000000a01c00209a
:103688008001000000000000e4230020400000004a
:1036980000000000002500200c00000000000000d1
:1036a800e02400201000000000000000f0240020aa
:1036b8001000000000000000f817002010000000b3
:1036c80000000000081800200100000000000000b1
:1036d800502500200400000001000000f422002012
:1036e800f42200206000000001000000000000003b
:1036f800446f0000646f0000246f000000000000a9
:1037080000000000000000000000000000000000b1
:1037180000000000000000000000000000000000a1
:103728000000000000000000000000000000000091
:103738000000000000000000000000000000000081
:10374800000000000000000000000000201e002013
:103758006c010000010000004300000000000000b0
:103768000000000000000000000000000000000051
:1037780000000000000000004300000000000000fe
:103788000000000000000000000000000000000031
:1037980000000000000000004300000000000000de
:1037a8000000000000000000000000000000000011
:1037b80000000000000000004300000000000000be
:1037c80000000000000000000000000000000000f1
:1037d800000000000000000043000000000000009e
:1037e80000000000000000000000000000000000d1
:1037f800000000000000000043000000000000007e
:1038080000000000000000000000000000000000b0
:10381800000000000000000043000000000000005d
:103828000000000000000000000000000000000090
:103838000000000000000000ad710000f16d000004
:1038480000000000884d00009d7400009c7400007a
:103858009c7400009c7400009c7400009c74000020
:103868009c7400009c7400009c7400009c74000010
:10387800ffffffffffffffffffffffffffff00004e
:1038880001004153434949000000000000000000c6
:103898000000000000000000000000000000000020
:1038a80000004153434949000000000000000000a7
:1038b8000000000000000000000000000000000000
:1038c8000000000054250020040000000000000053
:1038d8005825002004000000000000000c180020fb
:1038e80004000000000000005c2500200400000027
:1038f8000000000000000000000000002222222238
:020000040000fa
:10390800f0b59db00490039115001c00002805d067
:1039180083690593002b01d102f0cafb984b039ae7
:103928009a4260d1049b5b680393039b9b891b07a6
:1039380067d5039b1b690593002b62d000220f9269
:1039480020220aab5a76302206959a76069d2b7865
:10395800002b60d1069bee1a0cd03300069a03990f
:10396800049802f0adfe431c00d170e10f9b9e1934
:1039780005930f962b78002b00d168e101220aae3f
:10398800524272605322002306a97e4f5218013515
:103998000a93f360b3601370223705222978380040
:1039a80003f00cfc6a1c002839d13068c30604d522
:1039b8005323202106afdb191970030704d55323bd
:1039c8002b2106afdb1919702b782a2b2fd000205a
:1039d8000a21f3682a78303a092a00d870e00028ca
:1039e8002cd0f3602ae0684b039a9a4202d1049bd8
:1039f8009b6899e7654b039a9a4296d1049bdb68ca
:103a080092e70399049801f0b3fa002896d00120b0
:103a180040421db0f0bd252b9cd0013597e701230e
:103a2800c01b8340316815000b433360b5e723683a
:103a3800211d002b3edbf36015000c002b782e2b8c
:103a48000ad16b786a1c2a2b42d122680235231dc1
:103a5800002a3adb1c0072604a4f29782837032273
:103a6800380003f0abfb002806d04023c01b83407e
:103a78003268013513433360424f297838006b1c94
:103a880006222c300693317603f098fb5322337ebe
:103a980006a95218692b31d03ed8582b78d029d88e
:103aa800002b00d1f6e0522106a809180b7001235b
:103ab8000e9356e05b42f360022303433360bbe797
:103ac8004b4301359b18012084e701225242c1e78c
:103ad800002315000a201a00736029783039092953
:103ae80003d9002bb8d07260b6e7424301355218ab
:103af8000123f2e7632b2cd0642bd4d10a99231d20
:103b08002668080633d51c00002e02da2d237642db
:103b180013700a23059357e0702b00d19ee00dd84f
:103b28006f2bc0d10a99221d2668080623d51400d8
:103b38006f2b00d19be00a23059340e0752bf1d051
:103b4800782bb0d15523782206a95b181a70113743
:103b580022e0522306a95b18217804341970012346
:103b6800336100235225137006abed1851e0490666
:103b7800c9d536b2c7e74906d9d5b6b2d7e7c046e0
:103b8800446f0000706a0000646f0000246f00003a
:103b9800552206a9521813700a9b221d2668190679
:103ba80061d51400da0702d5202213430a931023a3
:103bb8000593002e03d120230a9a9a430a9253238d
:103bc800002206a95b181a700b9b0c93002b7bdb59
:103bd80004220a9991430a91002e4ad1002b75d1eb
:103be800532506abed18059b082b0dd10a9bdb0767
:103bf8000ad50b9b05930e9b0793079a059b934247
:103c080002dc3023013d2b70532306aa9b185b1b53
:103c18000e93314b09aa00930aa9039b049801f05b
:103c280076fb431c13d00e9b2a000399049802f0dc
:103c380047fd431c0bd00a9b002505939b0737d4ef
:103c4800099a0d9b934200da13005a1c37d1039b43
:103c58000f989b895b0600d4dbe6d8e62023326800
:103c6800134333606ee759069bd5b6b299e708232c
:103c780062e7532506abed183000059901f0deff29
:103c88007b5c013d30002b70059901f09bff061eff
:103c9800f2d1a8e733611500bbe7292206a9012361
:103ca80052180498039902f00bfd431ccfd001353c
:103cb8000d9b099a05939b1a9d42eedbc0e70f9a6c
:103cc800d31805920f9341e6002ed2d1522506aba8
:0c3cd800ed183b782b7086e7c9660000f1
:020000040000fa
:103ce400f0b5ce46474680b585b0964b1c6da30112
:103cf40003d580229204934b1a65e30755d5914b63
:103d0400012119655a6d8a435a65a4229b585b06a2
:103d14004bd0a4238b4ad558ad04ad0e29018a4b50
:103d2400de68761833685b0000d4ade0ab005b1945
:103d34009b00864a9a583368db00db0813603268bc
:103d440073689b0202d4930000d5d3e0ab005b19e7
:103d54009b007e4ad3181b6900221a7077681022d0
:103d64007b49684603f0cbfa3f033f0f6b46db5dac
:103d74009946764b9846af007b199b00434458689c
:103d8400310008314a4603f0bafa7f19bf004744ac
:103d9400bb684a461a70a8236a4ad5506d4b1b6803
:103da400002b02d06b4a50689847e3065ad5654bfe
:103db400102119655a6d8a435a65b4229b585b06d3
:103dc40050d0b4235f4ad558ad04ad0e29015e4be3
:103dd4001e69761833685b0060d5ab005b199a00e6
:103de4005a4b9b18c8331a683368db00db0813602e
:103df400326873689b0202d4930000d583e0ab0061
:103e04005b199a00514b9b18d8331b6800221a7017
:103e1400776810224e49684603f071fa3f033f0f5a
:103e24006b46db5d9946494fab0098465b199b0096
:103e3400fb18cc331868310008314a4603f05ffaa6
:103e440043465b199b00ff18d0373b684a461a70fb
:103e5400b8233c4ad5503f4b9b68002b02d03d4ac7
:103e6400d0689847a3052cd5364b802292001a655a
:103e74005a6d39490a405a6500231f229446012786
:103e8400304ad826e0204fe0ab005b199b002f4a54
:103e94009a583368db005b0d136050e7ab005b1985
:103ea4009a002a4b9b18c8331a683368db005b0df1
:103eb40013609de7274b9b69002b02d0254ad069ec
:103ec4009847230511d51f4980231b010b65c42086
:103ed4000b581b0a1f2213400958090c0a4093422d
:103ee40003d20133dbb29a42fbd105b00cbc90463d
:103ef4009946f0bdab005b199b00144ad3181b69ab
:103f040001221a702ae7ab005b199a000f4b9b1829
:103f1400d8331b6801221a707ae715588d4315505f
:103f24000133dbb2052bc5d0614619403d008d40fd
:103f340029009559a84615580d42f1d045460d4221
:103f4400ebd1ede7001c00427c2400201018002077
:0c3f540034730000a4240020fffdffffd8
:020000040000fa
:103f6000f0b5de4657464e464546e0b583b07f4b3a
:103f70009b7d002b00d1f2e07c490a7ed2b28b7d82
:103f80005bb2002b0ddb794a137edbb2927dd20748
:103f900000d4dce0db0700d4d9e0754c754b9846c3
:103fa00067e052b2002aeeda704b5b8b07221340b7
:103fb000e9d06f4ad3876d4b80221a7607225a8345
:103fc0001b7e5b0705d5694b04211a8d1a7e0a42b8
:103fd000fbd1674b1b6a002bd5d0654a516a022082
:103fe0009847d0e75e00b246624e5546755d0d704b
:103ff000b346da4455466d784d70013316e00b78c0
:104000001385002f1ed1137e01252b4200d19ee087
:10401000a3689a46e3689a4500d195e05668064041
:10402000012edfd04646f65c0e7001334b45b6419b
:1040300033406646f36053680340012bdfd10b88a1
:104040001385dee703f006f9494b1b68002b10d0ff
:10405000474a127f002a08d0454a9269904208d305
:10406000434a51680320984703e0414a92699042cd
:104070000bd03f4b1b6999463d4b1f7d3b4a0720a8
:104080006b46991d3a4b9c46bde7394a516803205f
:104090009847eee74246126a002a2fd0796a01203b
:1040a0009047bb6a01333a6b93429241134025e03b
:1040b0002f4a916a4900304a54545218240a5470c5
:1040c0002ae02b4a926b904208d1294a516a00207b
:1040d000984703e0264d2e00a8462f00234b1b7e59
:1040e0005b073cd5214b1c8da4b2ab6a01332a6b14
:1040f000934292411340f26a9a42cbd01c4ad26a50
:104100009a42ebd0194a516807220a40012acfd0bf
:10411000174a926a18498c54154a93623423d35c27
:10412000002bdbd002f084ff114b1b6a002bd5d093
:104130003c220f498a5c002ac3d08a6b9042cdd3bf
:10414000496a00209847c9e70122084b1a75074ab7
:10415000137edbb2927d520701d55b07bad403b060
:104160003cbc90469946a246ab46f0bd00080042d2
:0c417000a4230020201b0020a019002028
:020000040000fa
:10417c00f0b5de4657464e464546e0b583b07f4b1c
:10418c009b7d002b00d1f2e07c490a7ed2b28b7d64
:10419c005bb2002b0ddb794a137edbb2927dd2072a
:1041ac0000d4dce0db0700d4d9e0754c754b9846a5
:1041bc0067e052b2002aeeda704b5b8b0722134099
:1041cc00e9d06f4ad3876d4b80221a7607225a8327
:1041dc001b7e5b0705d5694b04211a8d1a7e0a429a
:1041ec00fbd1674b1b6a002bd5d0654a516a022064
:1041fc009847d0e75e00b246624e5546755d0d702d
:10420c00b346da4455466d784d70013316e00b78a1
:10421c001385002f1ed1137e01252b4200d19ee069
:10422c00a3689a46e3689a4500d195e05668064023
:10423c00012edfd04646f65c0e7001334b45b6417d
:10424c0033406646f36053680340012bdfd10b8883
:10425c001385dee703f002f8494b1b68002b10d0e6
:10426c00474a127f002a08d0454a9269904208d3e7
:10427c00434a51680320984703e0414a92699042af
:10428c000bd03f4b1b6999463d4b1f7d3b4a07208a
:10429c006b46991d3a4b9c46bde7394a5168032041
:1042ac009847eee74246126a002a2fd0796a01201d
:1042bc009047bb6a01333a6b93429241134025e01d
:1042cc002f4a916a4900304a54545218240a5470a7
:1042dc002ae02b4a926b904208d1294a516a00205d
:1042ec00984703e0264d2e00a8462f00234b1b7e3b
:1042fc005b073cd5214b1c8da4b2ab6a01332a6bf6
:10430c00934292411340f26a9a42cbd01c4ad26a31
:10431c009a42ebd0194a516807220a40012acfd0a1
:10432c00174a926a18498c54154a93623423d35c09
:10433c00002bdbd002f092fe114b1b6a002bd5d068
:10434c003c220f498a5c002ac3d08a6b9042cdd3a1
:10435c00496a00209847c9e70122084b1a75074a99
:10436c00137edbb2927d520701d55b07bad403b042
:10437c003cbc90469946a246ab46f0bd00040042b8
:0c438c00e4230020a01c00208c1f002057
:020000040000fa
:1043980010b5694b9b7d002b17d0674b5b8b9b0738
:1043a80014d5664bff2120229954022121229954c9
:1043b8002023624ad35c5bb2013300d18be0202317
:1043c8005e4ad35c062b00d19de010bd5a4b5b8b37
:1043d800db0707d5594bff212022995402212122be
:1043e8009954e5e7544b5b8b5b0707d5534bff218b
:1043f80020229954012121229954d9e720234f4a98
:10440800d35c5bb2032b44d0042b0fd0022bcfd14b
:104418001369002b04d09088002101f05fffc7e7e3
:10442800464b9888012101f059ffc1e7434a936937
:10443800126993420cd0414a9168cc5c28213e48cd
:104448004454013393610200d369002bfcd1afe7d8
:104458003a4b5b69002b0ed0384b9b885b000122de
:104468001343354a5362d369002bfcd1032120231f
:10447800324ad1549ce7304a5168c0239b020b430f
:104488005360d369002bfcd1062120232b4ad15439
:104498008ee72a4a5369013bd2699a420dd0264acf
:1044a800d369002bfcd1254ad36928212248415cd5
:1044b800d068c1540133d3617ae71f4a5168e023b9
:1044c800db020b435360d369002bfcd10621202368
:1044d8001a4ad154e3e700212023d154164a5168df
:1044e800c0239b020b435360d369002bfcd183226a
:1044f800114b1a76114b5b6a002b00d165e70f4a06
:10450800906a984761e71300002220215a5421211c
:104518005a548322084b1a76190030224b8b1340c9
:10452800102bfbd1054b5b6a002b00d14de7034aea
:10453800906a984749e7c046000c00425024002082
:020000040000fa
:10454800130fdeff253032580000000022563030ad
:1045580031223a2225642e25303164222c000000b5
:104568002252303031223a2225303164222c000088
:104578002252303031223a2225303264222c000077
:104588002252303031223a2225303364222c000066
:104598002252303031223a2225303464222c000055
:1045a8002252303031223a2225303564222c000044
:1045b8002252303031223a2225303664222c000033
:1045c8002254303031223a2225303364222c000024
:1045d8002254303031223a2225303264222c000015
:1045e8002254303031223a2225303164222c000006
:1045f800225350303031223a2225303364222c00a5
:10460800225350303031223a2225303264222c0095
:10461800225350303031223a2225303164222c0086
:1046280022475244303031223a2225303364222c3a
:104638000000000022475244303031223a2225300f
:104648003264222c000000002247524430303122cc
:104658003a2225303164222c0000000022455744bc
:10466800303030223a22253075222c002245523033
:104678003030223a22253075222c000022435f4137
:1046880056473031223a2225642e25303164222cb7
:1046980000000000224d5f4156473031223a222562
:1046a800642e25303164222c0000000022534f4331
:1046b8003031223a222564222c000000224f444f38
:1046c800223a22256c642e25303164222c00c04603
:020000040000fa
:1046d80070b504000e00002800d18be005680020aa
:1046e800002d4ad0002900d1434e2b019e4245d3cc
:1046f800290b28053200002302f0cef880235b0244
:10470800181a00213d4a13680225ab431360d36988
:10471800002bfcd180b2394b98816368022b52d0b0
:10472800364a136849033648184080235b0403431c
:10473800194311605168a368e06803433148014098
:104748000b4361680b4353602c4ad369002bfcd19f
:104758002a4a136802210b431360d369002bfcd14a
:10476800264b5a6807231340012b3cd0264b802246
:1047780052001a6380321a61012070bdeb009e421c
:104788000ad3690be8043200002302f085f880237d
:104798005b02181a0221b5e76b005b199e420fd322
:1047a800c022920200232800002101f0f3ff32000a
:1047b800002302f071f880235b02181a0421a1e794
:1047c800002100209ee70d4a136849030c48034066
:1047d800194311605168a368e06803434720814387
:1047e8000b435360b0e7084b80221a63c0221a615a
:1047f8000120c2e70020c0e7006cdc020004004290
:0c480800ff1ffff0b8dfffffe4230020db
:020000040000fa
:1048140070b504000e00002800d189e0056800206e
:10482400002d49d0002900d1424e2b019e4244d391
:10483400290b28053200002302f030f880235b02a4
:10484400181a00213c4a13680225ab431360d3694c
:10485400002bfcd180b2384b98816368022b51d075
:10486400354a136849033548184080235b040343e1
:10487400194311605168a368e0680343304801405c
:104884000b4361680b4353602b4ad369002bfcd163
:10489400294a136802210b431360d369002bfcd10e
:1048a400254b5a6807231340012b3bd0254bc022cc
:1048b40052001a631a61012070bdeb009e420ad3b4
:1048c400690be8043200002301f0e8ff80235b0257
:1048d400181a0221b6e76b005b199e420fd3c0225f
:1048e400920200232800002101f056ff3200002329
:1048f40001f0d4ff80235b02181a0421a2e70021ef
:1049040000209fe70c4a136849030c4803401943ed
:1049140011605168a368e0680343472081430b4357
:104924005360b1e7074bc0221a631a610120c3e741
:104934000020c1e7006cdc0200080042ff1ffff00a
:08494400b8dfffffa4230020ef
:020000040000fa
:10494c00f7b58a8905000c00130760d44b68002b5f
:10495c0004dc0b6c002b01dc0020febde76a002f91
:10496c00fad000232e682b6080235b011a4034d0d0
:10497c00606da3895b0706d56368c01a636b002b57
:10498c0001d0236cc01a0200216a00232800e76ab8
:10499c00b847a189431c06d12b681d2b31d82c4a52
:1049ac00da40d3072dd50023636023692360cb0441
:1049bc0005d5431c02d12b68002b00d16065616bbf
:1049cc002e600029c8d023004433994202d028001d
:1049dc0001f01ef800206063bfe70123216a280064
:1049ec00b847431cc5d12b68002bc2d01d2b01d05e
:1049fc00162b01d12e60afe74023a2891343a3816c
:104a0c00abe740230b430120a3814042a5e70f698c
:104a1c00002fa1d00b680f60db1b019300239207c2
:104a2c0000d14b69a360019b002b00dc94e7019b38
:104a3c003a00216a2800a66ab047002803dc40230c
:104a4c00a2891343dfe7019b3f181b1a0193eae786
:044a5c0001004020f5
:020000040000fa
:104a6000f0b5de4657464e464546e0b583b00423d2
:104a70009846002399463c4b9b463c4d1e000ae05d
:104a800043467f2b19d880235b009c46e144434674
:104a900004339bb298464346043b9bb25a46516846
:104aa0004a468f5aaf42ebd042467f2a05d89b0830
:104ab0000193444680239a463fe0080000232a4c95
:104ac00004e001339bb24030802b05d002883d2aa0
:104ad000f7d8a2181372f4e7012040424623224a75
:104ae000d05204220027214c002011e001339bb258
:104af000934205d09d016d5aa542f7d00600f5e717
:104b0000002e09d10137bfb2043292b2202f06d055
:104b1000131f9bb20126ede74623134ad75203b079
:104b20003cbc90469946a246ab46f0bd019802f0c7
:104b3000c9f90434a4b27f2ca5d87268a3019b5a8a
:104b4000ab42f6d09f42f4d14a445346d35a11881f
:104b50009942ebd04021525a9a42e7d0a00880b245
:104b600002f0b0f9e5e7c046e8210020ffff0000b1
:020000040000fa
:104b7000f0b5de4657464e464546e0b585b0029054
:104b80008c46002900d170e0394b1b69984607001c
:104b900001250022364b9a46994646460fe04000d2
:104ba00034495c460c5488464044002444704946cd
:104bb0008b6001326b1c0237ac4546d91d00019257
:104bc0002d4b586807230340012b15d0284b9868bc
:104bd000dc68431cb34289410b409c4236d00299a9
:104be000895c8b46244c616807240c40012cd6d08c
:104bf00020495c460c54dae77b781b023878034383
:104c0000039351468c68c9688846601cb04289414c
:104c1000084080451ad0184949688b4607218846c4
:104c2000594643461940012906d0124b6946097b73
:104c300019550f4b9860bce764000e4b039919554a
:104c4000984644440b0a6370f3e7019502f0e2f9d9
:104c5000002802d00122084b9a75019805b03cbc8f
:104c600090469946a246ab46f0bd00230193ede77e
:0c4c7000a4230020201b002000080042ac
:020000040000fa
:104c7c00f0b5de4657464e464546e0b585b0029047
:104c8c008c46002900d170e0394b1b69984607000f
:104c9c0001250022364b9a46994646460fe04000c5
:104cac0034495c460c5488464044002444704946c0
:104cbc008b6001326b1c0237ac4546d91d0001924a
:104ccc002d4b586807230340012b15d0284b9868af
:104cdc00dc68431cb34289410b409c4236d002999c
:104cec00895c8b46244c616807240c40012cd6d07f
:104cfc0020495c460c54dae77b781b023878034376
:104d0c00039351468c68c9688846601cb04289413f
:104d1c00084080451ad0184949688b4607218846b7
:104d2c00594643461940012906d0124b6946097b66
:104d3c0019550f4b9860bce764000e4b039919553d
:104d4c00984644440b0a6370f3e7019502f078f936
:104d5c00002802d00122084b9a75019805b03cbc82
:104d6c0090469946a246ab46f0bd00230193ede771
:0c4d7c00e4230020a01c002000040042e2
:020000040000fa
:104d88000020202020202020202028282828282013
:104d9800202020202020202020202020202020200b
:104da8002088101010101010101010101010101073
:104db8001004040404040404040404101010101063
:104dc800101041414141414101010101010101012d
:104dd800010101010101010101010101101010107f
:104de80010104242424242420202020202020202ff
:104df8000202020202020202020202021010101053
:104e0800200000000000000000000000000000007a
:104e1800000000000000000000000000000000008a
:104e2800000000000000000000000000000000007a
:104e3800000000000000000000000000000000006a
:104e4800000000000000000000000000000000005a
:104e5800000000000000000000000000000000004a
:104e6800000000000000000000000000000000003a
:104e7800000000000000000000000000000000002a
:014e88000029
:020000040000fa
:024e8a00fee741
:020000040000fa
:104e8c00324b5a6852031b68db0c13439b029b0a80
:104e9c002f4a936300235375110004228b691a4225
:104eac00fcd12b491022cb681a42fcd0294b002292
:104ebc009a611a61284a294b1a62190004224b681c
:104ecc001a42fcd140218823244ad1501000882159
:104edc00402243581a42fcd04021cc231f4ad150c7
:104eec001000cc21402243581a42fcd04021d02340
:104efc001a4ad1501000d021402243581a42fcd0fb
:104f0c004021d423154ad1501000d42140224358bb
:104f1c001a42fcd04021e823104ad1501000e8215d
:104f2c00402243581a42fcd0402182235b000b4a9a
:104f3c00d15010001900402243581a42fcd0084ba3
:104f4c00084a1a61084ada617047c046206080003e
:104f5c00001000400014004006010100001c00403d
:0c4f6c0000080040ff1d00000e000200c5
:020000040000fa
:104f7800364b70b51d6806000c00002d05d0ab69d6
:104f8800002b02d1280001f093f8314b9c420fd13d
:104f98006c680c23e25e93b219072dd4d90611d49c
:104fa80009233360402301201343a381404270bd8d
:104fb800284b9c4201d1ac68ebe7274b9c42e8d1d7
:104fc800ec68e6e75b0713d5616b002908d023007e
:104fd8004433994202d0300000f01cfd0023636383
:104fe8002422a3899343a381002363602369236058
:104ff8000823a2891343a3812369002b0bd1a02185
:105008008022a389890092000b40934203d021009b
:10501800300000f0dbff0123a289134011d00023e8
:10502800a36063695b42a361002023698342bed108
:105038000c23e25e1306bad540231343a38101383b
:10504800b5e7920700d46369a360ede75025002017
:0c505800446f0000646f0000246f000033
:020000040000fa
:1050640010b52e4b1b78002b21d02d4b1b78002b19
:105074001bd12a4b9b882b4a934240d018d82a4aea
:10508400934230d00bd9294a934232d00132ff32b5
:1050940093420ad1264a214b9a80c04605e0002b50
:1050a40003d1c022d2001d4b9a80fbf719f810bd22
:1050b400204a934225d00dd91f4a934227d01f4a34
:1050c4009342f2d11e4801f0c9fb1e4a134b9a8049
:1050d400c046eae7013aff3a9342e6d1144a0f4b3d
:1050e4009a80c046e1e7802292000c4b9a80c04629
:1050f400dbe7c0229200094b9a80c046d5e7c04640
:10510400d3e780221201054b9a80c046cde7a02246
:105114001201024b9a80c046c7e7c0463400002003
:10512400dc010020ff040000ff010000ff0200007a
:1051340001060000ff060000ff080000ff0a00004f
:085144008813000000b0ffff1a
:020000040000fa
:10514c00f0b5c64600b50400f2225200002102f070
:10515c000bf9304a936901210b4393611100012231
:10516c008b691a42fcd02b4dab6902221343ab6105
:10517c00294ffc602204120c28490a43a023ea5050
:10518c002300a0333b611b041b0c0b43b022ab5020
:10519c0023004133ff33bb611b041b0ca022d20440
:1051ac001343c022ab5023009133ff33fb611b042c
:1051bc001b0ca026f6023343f022ab50dc235b0021
:1051cc009846a04443463b6204221549404602f0ef
:1051dc0092f843461b041b0c802252021343842278
:1051ec00ab50bd34ff347c6228220e49200002f003
:1051fc0082f82404240c34438823ec50ab6901223c
:10520c009343ab6129008b691a42fcd104bc9046d4
:10521c00f0bdc046001c00427c24002000000a8027
:08522c001c750000946c0000e9
:020000040000fa
:10523400f0b5060085b00f0015001c008b4265d840
:1052440001d1824262d82100280001f095ff390083
:105254000090300001f090ff009b21001b1a1a00ff
:105264002800039301f07cff00900191019bbb4255
:1052740046d802d1009bb34242d8009b019c039aba
:1052840001200021f61aa74101f06aff039b002bbd
:105294002fd0019b009adb0754081c43019b5d0837
:1052a400039b9c46bd422ed801d1b4422bd8320078
:1052b4003b00121bab41012692185b410027b61834
:1052c4005f4101235b429c446346002bead1801971
:1052d4007941039a04000d003000390001f034ffd5
:1052e400039a06000f0001f03bff241a8d412000b1
:1052f40029000a9b002b01d01e605f6005b0f0bd41
:1053040000200021c2e7b6197f41dae7002000211e
:02531400efe7c1
:020000040000fa
:10531600f7b5150001938a680b6900900c0093425b
:1053260000da130022002b6043321278002a01d0e3
:1053360001332b6023689b0602d52b6802332b6052
:10534600062723681f4027d0230043331b785a1ea5
:1053560093412268920630d4220001994332009884
:10536600089eb047431c25d0062320682a68e168ba
:1053760003400025042b03d18d1aeb43db171d4098
:10538600a3682269934201dd9b1aed180027bd42ee
:1053960020d1002010e00137e3682a689b1a9f425b
:1053a600d2da22000123193201990098089eb047eb
:1053b600431cf0d101204042febd3020e1184331ac
:1053c600087021005a1c45310978a218433202336d
:1053d6001170c1e7220001231a3201990098089e34
:0a53e600b047431ce6d00137d1e7c1
:020000040000fa
:1053f000f0b5c64600b582b004008846150001929b
:10540000304b9f6a53180020bb4257d82d4b0021c8
:105410004c2299545e6a3100280000f013fc711a86
:105420004246884500d90a00264b988a80239b0271
:105430009f4204d901ab997802230b401843802383
:105440005b029f4204d901ab997801230b401843ba
:1054500080235b0000219f4204d92b0a3021194f81
:105460007b5401214b1c9c46164b5b1830331d703e
:10547000002a0cd000230021124e6644e75cf3188a
:1054800030331f70013189b20b008a42f6d80d4bc0
:10549000ad189d61a418dc6141468e1a1e6200247d
:1054a00042215c546244190030311b695b689847a3
:1054b000002803d102214c23024ad15402b004bc7b
:0854c0009046f0bd54230020ca
:020000040000fa
:1054c800f8b505000e001400002804d08369002bed
:1054d80001d100f0edfd294b9c4233d16c68a369e2
:1054e800a360a3891b0737d52369002b34d00c236d
:1054f800e25e80239b01f7b2f6b21a4236d02368e7
:105508002269981a6369984205db2100280000f097
:105518008ffe002826d1a3680130013ba3602368d1
:105528005a1c22601f706369984204d0a389db0764
:105538001ad50a2e18d12100280000f079fe00287b
:1055480012d00fe00e4b9c4201d1ac68c7e70d4b5f
:105558009c42c4d1ec68c2e721002800fff708fd8f
:105568000028c4d0012676423000f8bd1343a38139
:10557800226e054b13402366c1e7c046446f000006
:0c558800646f0000246f0000ffdfffffd5
:020000040000fa
:1055940010b52d4c23691b6998474223e35c012b0a
:1055a40026d0002b0fd0022b41d04c23264ad35cab
:1055b400002b07d0536c002b04d04c21505cc0b29c
:1055c400916c984710bd002804d002214c231e4a38
:1055d400d154eae701f064fc002804d102214c23f1
:1055e400194ad154e1e701214223174ad154dce797
:1055f400002813d1144b196a002904d101214c232a
:10560400114ad154d1e79a69d869fff7effe00280f
:10561400cbd102214c230c4ad154c6e701f040fc03
:105624000028c2d102214c23074ad154bde70028e7
:1056340004d002214c23044ad154b6e701214c235f
:0c564400014ad154b1e7c04654230020b5
:020000040000fa
:10565000032370b5cd1c9d43083506000c2d1ed2ca
:105660000c25a9421dd8300001f064ff254a1468ba
:105670002100002919d1244c2368002b03d13000cc
:1056800001f0c8fb20602900300001f0c3fb431c7f
:105690002cd10c233000336001f04dff03e0002dce
:1056a000dfda0c233360002070bd0b685b1b1ad45b
:1056b0000b2b03d90b60cc18256003e08c420ed174
:1056c00063681360300001f036ff200007220b30c2
:1056d000231d9043c31ae7d05a42e250e4e74b68d7
:1056e00063600c00eee70c004968c2e70323c41caa
:1056f0009c43a042e0d0211a300001f08bfb431cf8
:0c570000dad1c6e754250020582500200f
:020000040000fa
:10570c00f8b50400012802d901204042f8bd8301fc
:10571c00224a9b5c002b02d001204042f6e7170086
:10572c00850101220126ea557d190b682b618b68d6
:10573c006b614b68ab6000236b60eb612b626b7031
:10574c002a83cb68eb620b692b634b696b638b69a8
:10575c00ab63cb69eb632b0026331a7001331e70dd
:10576c0001331e7001f0a6fe2b0029331e7001f0d0
:10577c00a5fe01f09ffe2b002a331e7001f09efe49
:10578c002b695b692900064898472b691b6829001f
:10579c000448984702232b732000b7e7742200209b
:0857ac00157300008963000081
:020000040000fa
:1057b400f0b5c64600b582b0019308ac2478002c3d
:1057c40003d0012c1bd0002015e01f4ea424345913
:1057d400a404a40e1d4fa5002b199b00d851f81842
:1057e40042608160019bc360099b0361736d012268
:1057f40013437365012002b004bc9046f0bd124e01
:10580400b4243559ad04ad0e104fab009c465c1961
:10581400a4003c19c8239846a044434618602000bd
:10582400cc3002602200d0321160d434019b23605a
:105834006544ad007d19d835099b2b60736d10222a
:10584400134373650120d6e7001c004210180020a2
:020000040000fa
:1058540010b58223db05254a1a60802252051a619d
:10586400002240215a5441215a5442215a540121c0
:1058740043201954442019544520195447201a54dc
:1058840048201954492019544f201a5403245020f5
:105894001c54512019545220195453201954572080
:1058a4001a5458201954592019545b2019540620ad
:1058b4005c21585430215a5410203121585433213a
:1058c400322019545a543420195437215a5422215d
:1058d40038201954392019543b215a5466203c214c
:1058e40058543d215a543e215a5410bd878080009b
:020000040000fa
:1058f400f0b5de4657464e464546e0b51e4ad36ae5
:10590400966a002933d0b34234d0126b9046050016
:1059140004000120194a9446194a924691460ee021
:105924004a46d25c2a70013343459241134088426f
:1059340014d2421c013502349e4210d0100062463b
:10594400526807273a40012aead15a005746bf5cf9
:1059540027705244527862700133e5e71e00064b0b
:10596400de623cbc90469946a246ab46f0bd1e00a2
:105974000020f4e70020f2e7a423002000080042fe
:04598400a019002046
:020000040000fa
:10598800f0b5de4657464e464546e0b51e4ad36a50
:10599800966a002933d0b34234d0126b9046050082
:1059a80004000120194a9446194a924691460ee08d
:1059b8004a46d25c2a7001334345924113408842db
:1059c80014d2421c013502349e4210d010006246a7
:1059d800526807273a40012aead15a005746bf5c65
