:020000040000fa
:10000000f07f0020d96f0000b37e0000635800002d
:1000100000000000000000000000000000000000e0
:100020000000000000000000000000005f7b0000f6
:1000300000000000000000005f7b0000517700001e
:100040005f7b00005f7b00005f7b0000916f000022
:100050005f7b00005f7b00005f7b00005f7b000038
:100060005f7b00007548000059460000654c0000a9
:100070005f7b00000000000000000000dd43000086
:10008000000000005f7b00005f7b00005f7b0000e2
:100090005f7b00005f7b00005f7b00005f7b0000f8
:1000a0005f7b00005f7b00005f7b00005f7b0000e8
:0c00b0005f7b00005f7b00005f7b0000b6
:020000040000fa
:1000bc00f8b5c046f8bc08bc9e467047296f0000d6
:1000cc00f8b5c046f8bc08bc9e467047016f0000ee
:020000040000fa
:0800dc00485a00000100000079
:020000040000fa
:1000e400f0b5c64600b5eb4ca544eb4b5b88eb4a38
:1000f400934201d101f0eafe01d900f072fce84a12
:10010400934201d101f086fb00d96be2e54a9342a8
:1001140001d101f0edf900d9a5e0fc3a934201d1f7
:1001240001f081f85cd8043a934201d101f018f847
:100134002ad982225200934201d101f032f801d926
:1001440001f050f8d84c0b22d8492431200007f094
:1001540098fd200007f0e5fd0100200005f06cf992
:100164000422ff32d24b1a80f932cb4b5a80d14b46
:100174001a68d14b1a60200007f0d3fd81b2200029
:1001840007f054fe00f0e0ff023a934201d100f080
:10019400bcff0132934201d000f0d6ffc24c0722cb
:1001a400c2490831200007f06cfd200007f0b9fdba
:1001b4000100200005f040f90222ff32bc4b1a80f6
:1001c400fb32b54b5a80bb4b1a68bb4b1a602000fc
:1001d40007f0a7fd81b2200007f028fe00f0b4ff6d
:1001e400ff225200934201d101f006f913d9802273
:1001f4009200934201d101f03bf901d901f058f981
:10020400c02252000021ad4807f074fd0022ac4b1f
:100214001a7000f09fff023a934201d101f024f8d2
:100224000132934201d000f08fffa44c200007f06c
:1002340078fd81b2200007f0f9fd9d4b1b888322d5
:100244005200934201d101f09ef80133924a538047
:10025400c02252000021994807f04cfd0022984b1f
:100264001a7000f071ff974a934201d101f0eef940
:1002740000d9c4e0043a934201d101f0a1f943d971
:10028400914a934201d101f0b9f901d901f0bdf9c4
:10029400814b8e495a5c01325a5400225a80884b51
:1002a4001a7080ac8a4b1033220023cb23c223cb99
:1002b40023c203cb03c2200007f033fd81b2200028
:1002c40007f0b4fd834b1033220003cb03c21b8819
:1002d40013807549200007f0a3fb200007f021fddf
:1002e40081b2200007f0a2fd744c200007f019fd34
:1002f40081b2200007f09afdc022520000212000a4
:1003040007f0f8fc00f020fffa3a934201d101f023
:100314000ff9f932934201d000f016ff63495c31c2
:100324006d4807f09bf8002801d101f021f9022261
:10033400634b1a70684c200007f0f3fc02002100a4
:100344005e4807f09efcc02252000021200007f006
:10035400d1fc0022614b1a60594b1b78022b01d14e
:1003640001f026f9564b1b78032b01d101f024f937
:10037400504b1b685a4a12689b1a5a4a934201d836
:1003840000f0e8fe444b51495a5c01325a540022b1
:100394005a804b4b1a7080ac4e4d2b006c332200ac
:1003a40043cb43c243cb43c243cb43c2200007f0f9
:1003b400b8fc81b2200007f039fd2b001033220075
:1003c40003cb03c21b8813803749200007f028fba6
:1003d400200007f0a6fc81b2200007f027fd374c6f
:1003e400200007f09efc81b2200007f01ffdc02210
:1003f40052000021200007f07dfc00f0a5fe3a4adf
:10040400934201d101f08af972d9384a934201d159
:1004140001f0a2f901d901f0a6f91f4b2b495a5c4e
:1004240001325a5400225a80254b1a7080ac284b52
:100434005433220023cb23c223cb23c203cb03c2d6
:10044400200007f06efc81b2200007f0effc214b86
:100454001033220003cb03c21b88138012492000ef
:1004640007f0defa200007f05cfc81b2200007f000
:10047400ddfc124c200007f054fc81b2200007f090
:10048400d5fcc02252000021200007f033fc00f00c
:100494005bfec04600fdffff34000020fd060000a7
:1004a40001040000020200006c0700204833000031
:1004b40076190020501900202c1900206c0a002005
:1004c4006403002001030000ff0200002a0300006f
:1004d40048340000c8330000ec0800204019002014
:1004e4000819002088130000fd030000ff0300002a
:1004f400fb3a934201d101f0c9f8fa32934201d098
:1005040000f022feec495c31ec4806f0a7ff00281d
:1005140001d101f0dbf80222e94b1a70e74c20000c
:1005240007f0fffb02002100e64807f0aafbc02207
:1005340052000021200007f0ddfb0022e24b1a608c
:10054400df4b1b78022b01d101f0e0f8dc4b1b7868
:10055400032b01d101f0def8dc4b1b68dc4a126886
:100564009b1adc4a934201d800f0f4fdda4bdb49d4
:100574005a5c01325a5400225a80d14b1a7080ac12
:10058400d74b3033220023cb23c223cb23c223cb2c
:1005940023c2200007f0c5fb81b2200007f046fc0f
:1005a400d04b1033220003cb03c21b881380ce49e7
:1005b400200007f035fa200007f0b3fb81b22000d9
:1005c40007f034fcbf4c200007f0abfb81b22000e5
:1005d40007f02cfcc02252000021200007f08afb07
:1005e40000f0b2fdc14a934201d101f09dfa00d955
:1005f40001e1023aff3a934201d101f0d7f900d95f
:10060400b0e0f93a934201d101f044f900d87ee018
:10061400b74a934201d101f07ef901d201f05af9af
:10062400f632934201d000f08ffda3495c31a34818
:1006340006f014ff002801d101f08ef90222a04b2c
:100644001a709e4c200007f06cfb020021009d48ac
:1006540007f017fbc02252000021200007f04afbdc
:100664000022994b1a60964b1b78022b01d101f0a2
:1006740093f9934b1b78032b01d101f092f9934b1f
:100684001b689c4a12689b1a924a934201d800f054
:1006940061fd914b91495a5c01325a5400225a80af
:1006a400874b1a7080ac944b1433220023cb23c2a3
:1006b40023cb23c2196811609b889380200007f024
:1006c40030fb81b2200007f0b1fb864b10332200cf
:1006d40003cb03c21b8813808349200007f0a0f9d1
:1006e400200007f01efb81b2200007f09ffb754c31
:1006f400200007f016fb81b2200007f097fbc02210
:1007040052000021200007f0f5fa00f01dfd023a26
:10071400934201d101f09ef80132934201d000f0de
:1007240013fd714c092264493c31200007f0a9faf9
:10073400200007f0f6fa0100200004f07dfe6f4a65
:100744006f4b1a80f932644b5a80604b1a68694bbc
:100754001a60200007f0e5fa81b2200007f066fb7a
:1007640000f0f2fca022d200934201d101f079f909
:100774002fd9644a934201d101f0b2f901d201f0b8
:100784008bf90132934201d000f0defc4c4b1b7814
:10079400012b01d000f0defc0022494b1a70524cb0
:1007a4000f2259493031200007f06bfa200007f07e
:1007b400b8fa0100200004f03ffe4c4a464b5a8030
:1007c400200007f0aefa81b2200007f02ffb00f002
:1007d400bbfc023a934201d101f007f90132934282
:1007e40001d000f0b1fcc02252000021354807f0ce
:1007f40081fa00f0affc454a934201d101f05efa60
:1008040000d991e0043a934201d101f0bdf928d90d
:100814003f4a934201d101f00ffa01d901f02dfab8
:10082400314c15223b492031200007f02afa2000e0
:1008340007f077fa0100200004f0fefd364a374b3a
:100844001a80f932244b5a80204b1a68344b1a60b0
:10085400200007f066fa81b2200007f0e7fa00f002
:1008640073fc023a934201d101f06cf901329342d4
:1008740001d000f069fc1c4c302223494031200097
:1008840007f0fff9200007f04cfa0100200004f003
:10089400d3fd244a214b1a80fb320f4b5a800b4b59
:1008a4001a681f4b1a60200007f03bfa81b220003f
:1008b40007f0bcfa00f048fc48330000ec080020c4
:1008c400640300206c0a0020401900205019002005
:1008d4002019002088130000340000202a0300009f
:1008e40048340000c83300006c070020fe050000f7
:1008f4000604000028190020c83400000304000086
:1009040074190020020500004835000006060000a6
:1009140004060000c8350000030600006a19002020
:100924001419002001060000ac4a934201d101f0e1
:1009340007fa2cd9aa4a934201d101f022fa01d92b
:1009440001f02dfaf13a934201d000f0fdfba54ce1
:100954000e22a5495031200007f093f9200007f03a
:10096400e0f90100200004f067fda04aa04b1a80c2
:10097400fb32a04b5a80a04b1a68a04b1a6020008f
:1009840007f0cff981b2200007f050fadce3023a15
:10099400934201d101f0b3f90132934200d0d3e381
:1009a400904c162290492431200007f06af9200067
:1009b40007f0b7f90100200004f03efdc122d20087
:1009c4008b4b1a80f4328b4b5a808b4b1a688b4baf
:1009d4001a60200007f0a5f981b2200007f026fa7a
:1009e400b2e3874a934201d101f04ffe00d9bae144
:1009f400844a934201d101f024fc00d9a0e0073ad3
:100a0400934201d101f069fb3fd8043a934201d1ea
:100a140001f0cffa29d97c4a934201d101f016fba7
:100a240001d901f037fb794b1b78012b00d091e3fe
:100a34000022764b1a706b4c122275493c3120000f
:100a440007f01ff9200007f06cf90100200004f002
:100a5400f3fc684a538801335380200007f061f99e
:100a640081b2200007f0e2f96ee3023a934201d129
:100a740001f05dfa0132934200d065e3c0225200d6
:100a84000021644807f036f964e3634a934201d1d4
:100a940001f06bfb29d9614a934201d101f089fb32
:100aa40001d901f0aafb594b1b78012b00d051e36b
:100ab4000022564b1a704b4c262259497c31200097
:100ac40007f0dff8200007f02cf90100200004f003
:100ad400b3fc484a538801335380200007f021f9be
:100ae40081b2200007f0a2f92ee3023a934201d129
:100af40001f017fb0132934200d025e3434b1b78ee
:100b0400012b00d026e30022404b1a70354c0f22f3
:100b140043494831200007f0b4f8200007f001f9f8
:100b24000100200004f088fc324a538801335380ca
:100b3400200007f0f6f881b2200007f077f903e30c
:100b4400384a934201d101f0b5fc79d8fd3a934279
:100b540001d101f0bdfb2bd9334a934201d101f0fd
:100b6400d9fb01d901f0e4fbfa3a934200d0ebe25d
:100b74001c4c0f222d492431200007f082f820005c
:100b840007f0cff80100200004f056fc284a294b56
:100b94001a80fb32174b5a80174b1a68264b1a607f
:100ba400200007f0bef881b2200007f03ff9cbe245
:100bb400f43a934201d101f068fbf232934200d03f
:100bc400c2e2124b1b78012b00d0c3e200220f4b70
:100bd4001a701a4a074b5a80bce2c0460906000044
:100be400fb0600006c0700204836000001060000e8
:100bf4006a19002034000020501900201419002024
:100c0400fd0900000b070000020700006403002038
:100c1400c83600006c0a002007070000090700001e
:100c2400c8350000fd080000fb080000c8370000bc
:100c3400010800006c19002018190020ff070000ab
:100c440090221201934201d101f091fc7bd9e14a37
:100c5400934201d101f0cefc01d201f0aafcfa3298
:100c6400934200d070e2dc495c31dc4806f0f6fbcc
:100c7400002801d101f0dffc0222d94b1a70d74cb5
:100c8400200007f04ef802002100d64806f0f9ffd4
:100c9400c02252000021200007f02cf80022d24b81
:100ca4001a60cf4b1b78022b01d101f0e4fccc4b32
:100cb4001b78032b01d101f0e3fccc4b1b68cc4a1d
:100cc40012689b1acb4a934200d843e2ca4bcb49e1
:100cd4005a5c01325a5400225a80c14b1a7080acbb
:100ce400c74b0833220023cb23c223cb23c203cb1d
:100cf40003c21b881380200007f013f881b2200080
:100d040007f094f8bf4b1033220003cb03c21b88b7
:100d14001380bd49200006f083fe200007f001f88f
:100d240081b2200007f082f8ae4c200006f0f9fff3
:100d340081b2200007f07af8c0225200002120007e
:100d440006f0d8ff00e2023a934201d101f0d1fb50
:100d54000132934200d0f7e1c02252000021a148a1
:100d640006f0c8fff6e1a94a934201d101f0edfd76
:100d740000d99ae0073a934201d101f005fd3dd82c
:100d8400043a934201d101f0ddfc27d9a04a9342f1
:100d940001d101f0fbfd01d901f019fe9a4c0f229b
:100da4009c490431200006f06cff200006f0b9ffd6
:100db4000100200004f040fb974a984b1a80fb3254
:100dc4008d4b5a80894b1a68954b1a60200006f0a7
:100dd400a8ff81b2200007f029f8b5e1023a934256
:100de40001d101f071fc0132934200d0ace1c02288
:100df400520000217b4806f07dffabe1894a934213
:100e040001d101f081fd27d9874a934201d101f034
:100e1400dcfc01d901f036fd7b4c192283491831e1
:100e2400200006f02eff200006f07bff01002000ca
:100e340004f002fb7e4a794b1a80f4326e4b5a80de
:100e44006a4b1a68764b1a60200006f06aff81b27a
:100e5400200006f0ebff77e1023a934201d101f062
:100e640032fd0132934200d06ee1674c192264498d
:100e74006031200006f005ff200006f052ff01005b
:100e8400200004f0d9fa6b4a644b1a80f6325a4bac
:100e94005a80564b1a68624b1a60200006f041ffd4
:100ea40081b2200006f0c2ff4ee1634a934201d1b1
:100eb40001f008ff71d8f03a934201d101f0ccfd62
:100ec4002bd95e4a934201d101f007fe01d901f00a
:100ed40097feed3a934200d036e14b4c0e22534933
:100ee4007431200006f0cdfe200006f01aff010048
:100ef400200004f0a1fa524a484b1a80ed323e4bce
:100f04005a803a4b1a68464b1a60200006f009ffd3
:100f140081b2200006f08aff16e1023a934201d121
:100f240001f076fd0132934200d00de1364c3f4d85
:100f3400290044311a22200006f0a3fe200006f006
:100f4400f0fe00192c4eb11d202206f09afe6946cf
:100f54002b0060336a4621cb21c21b78137020001a
:100f640006f05efd200006f0dcfe0100200004f027
:100f740063fa344a294b1a80304b73801b4b1a682e
:100f8400274b1a60200006f0ccfe81b2200006f048
:100f94004dff2d4806f010f9d6e02c4a934201d1ba
:100fa40001f0d9fe56d92a4a934201d101f08bffb0
:100fb40001d201f064ff0132934200d0c4e0002268
:100fc400074b1a700c4b1b78022b00d0c2e001f0c7
:100fd400c2ffc0460209000048330000ec080020ac
:100fe400640300206c0a00204019002050190020de
:100ff4000c19002088130000340000202a0300008c
:1010040048380000c83300006c0700200b0a0000b9
:10101400020a0000c8340000010a00006819002018
:1010240010190020070a0000090a0000c83800004f
:10103400080a0000060a0000fe0a0000fc0a00007c
:101044000f0a00000d0a0000b80b0000fc0b0000a2
:10105400fe0b0000fd3a934201d101f071fe013212
:10106400934271d1d04cc02252000021200006f0de
:1010740041fe1f22cd496031200006f002fe20000f
:1010840006f04ffe0019ca4b9846991d202206f01f
:10109400f8fd6d46c74e6b46320083ca83c31168a0
:1010a400196092889a806946200006f0b9fc3100e4
:1010b40014311022c04806f0e4fdbf49200006f0b8
:1010c400affc33002433726a00921b792b7169469a
:1010d400200006f0a5fc200006f023fe01002000fd
:1010e40004f0aaf9b0221201b44b1a80b44b424660
:1010f4005380b44b1a68b44b1a60200006f011fefa
:1011040081b2200006f092fe1ee0a74c0522af49f2
:10111400200006f0b6fd200006f003fe01002000ca
:1011240004f08af980225200a94b1a80fc32a04ba9
:101134005a80a44b1a68a74b1a60200006f0f1fdf0
:1011440081b2200006f072fe994b1b78022b01d16c
:1011540001f0fafec0239b009d4404bc9046f0bd00
:10116400914c112299491031200006f08afd20008b
:1011740006f0d7fd0100200004f05ef98122520040
:10118400934b1a80fa328a4b5a808e4b1a68914bd1
:101194001a60200006f0c5fd81b2200006f046fe6c
:1011a400d2e7814c0b2289493031200006f069fdd9
:1011b400200006f0b6fd0100200004f03df9822273
:1011c4005200834b1a80f832794b5a807d4b1a684f
:1011d400804b1a60200006f0a4fd81b2200006f0c6
:1011e40025feb1e7704c092278493c31200006f015
:1011f40048fd200006f095fd0100200004f01cf9d4
:101204000622ff32724b1a80f732694b5a806d4bbb
:101214001a68704b1a60200006f083fd81b220002a
:1012240006f004fe90e7604c122268494831200021
:1012340006f027fd200006f074fd0100200004f0f4
:10124400fbf883225200624b1a80f632584b5a80c4
:101254005c4b1a685f4b1a60200006f062fd81b295
:10126400200006f0e3fd6fe758495c315a4806f068
:10127400f5f8002860d00222584b1a70564c200012
:1012840006f04ffd02002100554806f0fafcc0228a
:1012940052000021200006f02dfd0022514b1a605f
:1012a4004e4b1b78022b64d04c4b1b78032b65d020
:1012b400444b1b68474a12689b1a4b4a934200d816
:1012c40048e73b4b49495a5c01325a5400225a8040
:1012d400424b1a7080ac3d4b6c33220023cb23c2ab
:1012e40023cb23c223cb23c2200006f01afd81b2f4
:1012f400200006f09bfd3e4b1033220003cb03c2bb
:101304001b8813802849200006f08afb200006f081
:1013140008fd81b2200006f089fd314c200006f062
:1013240000fd81b2200006f081fdc02252000021a0
:10133400200006f0dffc07e724496431264806f064
:101344008df80028acd00322244b1a70224c2000c4
:1013540006f0e7fc02002100214806f092fcc022be
:1013640052000021200006f0c5fc00221d4b1a602b
:1013740096e7fe22ff320e4b5a80ebe6ff22520024
:101384000b4b5a80e6e61a491c31154806f066f8fc
:101394000100074ca01d0531202206f072fc154bfc
:1013a4006380fef755ffc0466c07002048390000f3
:1013b40034000020c83900005b0000206e190020b2
:1013c400fc0b0000501900201c19002048330000b9
:1013d400761900202c190020ec080020640300205a
:1013e4006c0a002040190020881300002a03000022
:1013f400c8330000ff010000eb4bec495a5c01329a
:101404005a5400225a80ea4b1a7080ace94d2b00e2
:101414002433220043cb43c243cb43c203cb03c296
:10142400200006f07efc81b2200006f0fffc2b00b9
:101434001033220003cb03c21b881380de49200033
:1014440006f0eefa200006f06cfc81b2200006f0f3
:10145400edfcda4c200006f064fc81b2200006f0ba
:10146400e5fcc02252000021200006f043fc6be69c
:10147400d14c0522d249200006f003fc200006f0de
:1014840050fc0100200003f0d7ff80229200cd4bd6
:101494001a80fc32c44b5a80cb4b1a68cb4b1a606f
:1014a400200006f03efc81b2200006f0bffc4be6b3
:1014b400c14c0c22bf494431200006f0e2fb20005d
:1014c40006f02ffc0100200003f0b6ffc04abd4b1c
:1014d4001a80fb32b44b5a80bb4b1a68bb4b1a6060
:1014e400200006f01efc81b2200006f09ffc2be6d3
:1014f400b14c0e22af495031200006f0c2fb20004f
:1015040006f00ffc0100200003f096ffb14aad4b3a
:101514001a80fa32a44b5a80ab4b1a68ab4b1a6050
:10152400200006f0fefb81b2200006f07ffc0be6f3
:10153400a14c0b229f496031200006f0a2fb200041
:1015440006f0effb0100200003f076ffa24a9d4b5a
:101554001a80f932944b5a809b4b1a689b4b1a6041
:10156400200006f0defb81b2200006f05ffcebe514
:1015740093496431994805f071ff002801d1fef7c1
:10158400ebfe03228a4b1a70944c200006f0c9fb30
:1015940002002100894806f074fbc0225200002199
:1015a400200006f0a7fb00228d4b1a60fef7d4fe44
:1015b4008c4a7d4b5a80cde58b4a7b4b5a80c9e5da
:1015c4007e4c200006f0adfb81b2200006f02efc1c
:1015d400c02252000021200006f08cfb794b1b88ae
:1015e4007d4a934206d001336f4a53800022704be8
:1015f4001a70a9e57d4a6c4b5a80f7e7c022520065
:1016040000216e4806f076fba4e56b4c0b226c4976
:101614003031200006f035fb200006f082fb01008b
:10162400200003f009ffc0229200714b1a80fc32a3
:101634005d4b5a80644b1a686e4b1a60200006f0aa
:1016440070fb81b2200006f0f1fb7de55a4c0922c3
:101654005b493c31200006f014fb200006f061fbde
:101664000100200003f0e8fe634a614b1a80fb325c
:101674004d4b5a80544b1a685e4b1a60200006f09a
:1016840050fb81b2200006f0d1fb5de54a4c0c22f0
:1016940048494431200006f0f4fa200006f041fbea
:1016a4000100200003f0c8fe544a514b1a80fa325c
:1016b4003d4b5a80444b1a684e4b1a60200006f08a
:1016c40030fb81b2200006f0b1fb3de53c496431ba
:1016d400424805f0c3fe002801d1fef731ff032282
:1016e400334b1a703d4c200006f01bfb0200210016
:1016f400324806f0c6fac02252000021200006f04b
:10170400f9fa0022364b1a60fef71aff3c4a264bc0
:101714005a801fe53b4a244b5a801be5274c200086
:1017240006f0fffa81b2200006f080fbc0225200ce
:101734000021200006f0defa2d4b1b882f4a93422d
:1017440006d00133184a53800022194b1a70fbe467
:101754002d4a154b5a80f7e7c02252000021174842
:1017640006f0c8faf6e4144c112215491031200091
:1017740006f087fa200006f0d4fa0100200003f0f6
:101784005bfe8022d200214b1a80fc32064b5a8029
:101794000d4b1a681e4b1a60200006f0c2fa81b283
:1017a400200006f043fbcfe4340000202a030000ad
:1017b40064030020c83300006c0700206c0a00207a
:1017c4004833000064190020501900200819002033
:1017d400010200000202000003020000ec080020e5
:1017e40040190020fd020000fe020000ff0200007c
:1017f40070190020201900200103000002030000da
:10180400fd030000fe030000ff0300007419002024
:1018140028190020ed4c0b22ed492431200006f05c
:1018240030fa200006f07dfa0100200003f004fee7
:10183400e84ae94b1a80fb32e84b5a80e84b1a68b5
:10184400e84b1a60200006f06cfa81b2200006f022
:10185400edfa79e4dd4c0b22dd493031200006f04d
:1018640010fa200006f05dfa0100200003f0e4fd08
:10187400dd4ad94b1a80fa32d84b5a80d84b1a68b1
:10188400d84b1a60200006f04cfa81b2200006f012
:10189400cdfa59e4cd4c0c22d4494431200006f051
:1018a400f0f9200006f03dfa0100200003f0c4fd29
:1018b400cf4ac94b1a80f832c84b5a80c84b1a68b1
:1018c400c84b1a60200006f02cfa81b2200006f002
:1018d400adfa39e4bd4c1022c6497431200006f03b
:1018e400d0f9200006f01dfa0100200003f0a4fd49
:1018f400c14ab94b1a80f732b84b5a80b84b1a68b0
:10190400b84b1a60200006f00cfa81b2200006f0f1
:101914008dfafff719fcad4c0f22b84904312000b1
:1019240006f0aff9200006f0fcf90100200003f0f6
:1019340083fdb34aa84b1a80f632a84b5a80a84bb1
:101944001a68a84b1a60200006f0ebf981b2200057
:1019540006f06cfafff7f8fb9d496431a94805f0dd
:101964007dfd002801d1fef77efe0322a64b1a70ee
:10197400a44c200006f0d5f902002100a34806f08b
:1019840080f9c02252000021200006f0b3f90022a1
:101994009f4b1a60fef767fe9e4a904b5a80fff7f2
:1019a400d9fb9d4a8d4b5a80fff7d4fb974c2000fe
:1019b40006f0b7f981b2200006f038fac0225200ce
:1019c4000021200006f096f9834b1b888c4a934231
:1019d40007d00133814a538000228b4b1a70fff7e2
:1019e400b3fb8e4a7d4b5a80f6e77c4b8c495a5c9c
:1019f40001325a5400225a80834b1a7080ac7f4bb8
:101a04003433220023cb23c223cb23c21b8813806d
:101a1400200006f086f981b2200006f007fa734b25
:101a24001033220003cb03c21b88138067492000b4
:101a340005f0f6ff200006f074f981b2200006f0ec
:101a4400f5f9724c200006f06cf981b2200006f022
:101a5400edf9c02252000021200006f04bf9fff7f7
:101a640073fb5a4c1e2265495031200006f009f9d7
:101a7400200006f056f90100200003f0ddfc574a6f
:101a8400538801335380200006f04bf981b22000c3
:101a940006f0ccf9fff758fb5b4b1b78012b01d008
:101aa400fff758fb0022584b1a70484c1e2253492a
:101ab4007031200006f0e5f8200006f032f901004c
:101ac400200003f0b9fc454a5388013353802000b9
:101ad40006f027f981b2200006f0a8f9fff734fbdd
:101ae400494b1b78012b01d0fff734fb0022464bf6
:101af4001a70364c1e224b491031200006f0c1f8f2
:101b0400200006f00ef90100200003f095fc334a92
:101b1400538801335380200006f003f981b220007a
:101b240006f084f9fff710fb374b1b78012b01d02b
:101b3400fff710fb0022344b1a703b4a274b5a80a4
:101b4400fff708fb214c122221494831200006f0fe
:101b540098f8200006f0e5f80100200003f06cfc82
:101b6400c022d200314b1a80fc321c4b5a801c4bd1
:101b74001a682f4b1a60200006f0d3f881b22000b7
:101b840006f054f9fff7e0fa104c2e222549703183
:101b9400200006f076f8200006f0c3f801002000cb
:101ba40003f04afc234a214b1a80fa320b4b5a8029
:101bb4000b4b1a681e4b1a60200006f0b2f881b273
:101bc400200006f033f9fff7bffac0466c07002087
:101bd4004833000001040000741900203400002080
:101be400501900202819002002040000c833000006
:101bf400040400004834000005040000c834000058
:101c040006040000ec080020640300206c0a002095
:101c140040190020fd040000fe040000ff04000041
:101c24002a03000048350000ff0500006a1900205f
:101c34001419002002060000eb4c0f22eb49383146
:101c4400200006f01ef8200006f06bf801002000ca
:101c540003f0f2fbe64ae74b1a80f832e64b5a806f
:101c6400e64b1a68e64b1a60200006f05af881b277
:101c7400200006f0dbf8fff767fadb4c0f22db49a4
:101c84004831200005f0fdff200006f04af801006d
:101c9400200003f0d1fbdb4ad64b1a80f732d64b37
:101ca4005a80d64b1a68d64b1a60200006f039f8d1
:101cb40081b2200006f0baf8fff746faca4c212296
:101cc400ca495831200005f0dcff200006f029f84d
:101cd4000100200003f0b0fbcb4ac64b1a80f63259
:101ce400c54b5a80c54b1a68c54b1a60200006f0d4
:101cf40018f881b2200006f099f8fff725faba4cdb
:101d04002622ba497c31200005f0bbff200006f0f2
:101d140008f80100200003f08ffbbc4ab54b1a8081
:101d2400f532b54b5a80b54b1a68b54b1a60200092
:101d340005f0f7ff81b2200006f078f8fff704fa07
:101d4400a94c1222b2493c31200005f09aff200030
:101d540005f0e7ff0100200003f06efbad4aa54b40
:101d64001a80f332a44b5a80a44b1a68a44b1a600d
:101d7400200005f0d6ff81b2200006f057f8fff7e7
:101d8400e3f9a54b1b78012b01d0fff7e3f90022ff
:101d9400a14b1a70a14a984b5a80fff7dbf9a0496e
:101da4005c31a04805f05afb002868d002229a4b07
:101db4001a709c4c200005f0b4ff020021009a48e0
:101dc40005f05fffc02252000021200005f092ffc1
:101dd4000022964b1a60904b1b78022b6cd08e4bd2
:101de4001b78032b6dd0854b1b68854a12689b1aa0
:101df4008f4a934201d8fff7adf97f4b8d495a5c66
:101e040001325a5400225a80834b1a7080ac804ba2
:101e14006033220023cb23c223cb23c223cb23c290
:101e240003cb03c2198811809b789370200005f0be
:101e340078ff81b2200005f0f9ff7f4b10332200b8
:101e440003cb03c21b8813806749200005f0e8fd1b
:101e5400200005f066ff81b2200005f0e7ff724c18
:101e6400200005f05eff81b2200005f0dfffc022f4
:101e740052000021200005f03dfffff765f9684995
:101e84006431684805f0eafa0028a4d00322624bc2
:101e94001a70644c200005f044ff020021006248df
:101ea40005f0effec02252000021200005f022ffc1
:101eb40000225e4b1a608ee7604a4f4b5a80fff750
:101ec40049f95f4a4c4b5a80fff744f9c023db00c1
:101ed400484a12889a421ad0534c200005f021ff38
:101ee40081b2200005f0a2ffc02252000021200090
:101ef40005f000ff3f4b1b88464a934213d0013341
:101f04003d4a53800022444b1a70fff71df94a4999
:101f14001c31454805f0a2fa411d202236480630fe
:101f240005f0affed8e73d4a334b5a80eae7324b1f
:101f340040495a5c01325a5400225a80364b1a7076
:101f440080ac404b1033220023cb23c223cb23c2cb
:101f540023cb23c219681160998891809b7993716e
:101f6400200005f0defe81b2200005f05fff324b59
:101f74001033220003cb03c21b8813801a492000ac
:101f840005f04efd200005f0ccfe81b2200005f0e6
:101f94004dff254c200005f0c4fe81b2200005f061
:101fa40045ffc02252000021200005f0a3fefff7e8
:101fb400cbf80d4c302224494031200005f061fe5d
:101fc400200005f0aefe0100200003f035fa0a4ab5
:101fd400538801335380200005f0a3fe81b2200012
:101fe40005f024fffff7b0f86c070020c8350000a7
:101ff400040600006a190020340000205019002053
:10200400141900200506000006060000070600005b
:10201400483600000906000064030020ff060000a3
:1020240048330000ec0800206c0a0020401900200e
:10203400881300002a030000c8330000fd060000d6
:10204400fe060000c836000048350000f14b1b783e
:10205400012b01d0fff77ef80022ee4b1a70ee4cf4
:102064002e22ee495031200005f00bfe200005f031
:1020740058fe0100200003f0dff9e94a53880233d7
:102084005380200005f04dfe81b2200005f0cefe05
:10209400fff75af8df4b1b78012b01d0fff75af8f2
:1020a4000022dc4b1a70dc4c2422de49200005f0af
:1020b400e8fd200005f035fe0100200003f0bcf926
:1020c400d74a538801335380200005f02afe81b299
:1020d400200005f0abfefff737f8ce4b1b78012b41
:1020e40001d0fff737f80022ca4b1a70ca4c1e22df
:1020f400cc492431200005f0c4fd200005f011fe78
:102104000100200003f098f9c54a53880133538035
:10211400200005f006fe81b2200005f087fefff7df
:1021240013f8bc4b1b78012b01d0fff713f80022e6
:10213400b84b1a70b84c0f22bb493831200005f057
:10214400a0fd200005f0edfd0100200003f074f96e
:10215400b34a538801335380200005f0e2fd81b275
:10216400200005f063fefef7efffaa4b1b78012b5e
:1021740001d0fef7efff0022a64b1a70a64c3d22b9
:10218400a8494431200005f07cfd200005f0c9fd7c
:102194000100200003f050f9a14a53880133538011
:1021a400200005f0befd81b2200005f03ffefef7e1
:1021b400cbff984b1b78012b01d0fef7cbff0022fd
:1021c400944b1a70944c162298492431200005f03f
:1021d40058fd200005f0a5fd0100200003f02cf9b6
:1021e4008f4a538801335380200005f09afd81b251
:1021f400200005f01bfefef7a7ff864b1b78012b82
:1022040001d0fef7a7ff0022824b1a70824c1022e5
:1022140087490431200005f034fd200005f081fddc
:102224000100200003f008f97d4a538801335380ec
:10223400200005f076fd81b2200005f0f7fdfef7e1
:1022440083ff744b1b78012b01d0fef783ff002220
:10225400704b1a70704c0f2275491431200005f030
:1022640010fd200005f05dfd0100200003f0e4f8fe
:102274006b4a538801335380200005f052fd81b22c
:10228400200005f0d3fdfef75fff624b1b78012ba6
:1022940001d0fef75fff00225e4b1a705e4c0e22e7
:1022a40062495031200005f0ecfc200005f039fdb6
:1022b4000100200003f0c0f85e4a594b5a80200008
:1022c40005f02ffd81b2200005f0b0fdfef73cffc4
:1022d400514c0f2256491431200005f0d2fc200045
:1022e40005f01ffd0100200003f0a6f88022120172
:1022f400514b1a80fc324a4b5a80504b1a68504b4f
:102304001a60200005f00dfd81b2200005f08efd5d
:10231400fef71aff3f4b1b78012b01d0fef71aff83
:1023240000223c4b1a70474a3d4b5a80fef712ff7d
:1023340045495c31454805f091f8002800d191e009
:102344000222344b1a70414c200005f0eafc0200d2
:1023540021003f4805f095fcc022520000212000d6
:1023640005f0c8fc00223b4b1a602a4b1b78022b59
:1023740000d195e0274b1b78032b00d195e02f4b20
:102384001b682f4a12689b1a334a934201d8fef7fe
:10239400e1fe234b31495a5c01325a5400225a80df
:1023a4001c4b1a7080ac224b3433220023cb23c243
:1023b40023cb23c223cb23c2196811601b79137169
:1023c400200005f0aefc81b2200005f02ffd244b67
:1023d4001033220003cb03c21b8813800e49200054
:1023e40005f01efb200005f09cfc81b2200005f0e6
:1023f4001dfd174c200005f094fc81b2200005f06f
:1024040015fdc02252000021200005f073fcfef7e8
:102414009bfec046640300206c070020c836000001
:102424003400002048370000c8350000483600005a
:10243400c8370000fe0700006c1900205019002066
:1024440018190020ff08000048330000ec080020a1
:102454006c0a002040190020881300002a030000a1
:10246400c8330000e9496431e94804f0f7ff002863
:1024740000d17ae70322e74b1a70e54c200005f0ff
:1024840050fc02002100e44805f0fbfbc02252008e
:102494000021200005f02efc0022e04b1a6064e7c6
:1024a400df4ae04b5a80fef755fedf4add4b5a8087
:1024b400fef750fed84c200005f033fc81b220001a
:1024c40005f0b4fcc02252000021200005f012fceb
:1024d400d64b1b88d64a934207d00133d14a538046
:1024e4000022cc4b1a70fef72ffed24acd4b5a80f5
:1024f400f6e7cc4bd0495a5c01325a5400225a8038
:10250400c44b1a7080accd4b6033220023cb23c262
:1025140023cb23c223cb23c21b781370200005f0e6
:1025240000fc81b2200005f081fcc54b1033220071
:1025340003cb03c21b881380c249200005f070fa44
:10254400200005f0eefb81b2200005f06ffcb24cd8
:10255400200005f0e6fb81b2200005f067fcc022f4
:1025640052000021200005f0c5fbfef7edfdb54c3f
:102574001022b5497431200005f083fb200005f0da
:10258400d0fb0100200002f057ff90221201af4b54
:102594001a80fc32a34b5a80ad4b1a68ad4b1a60bb
:1025a400200005f0befb81b2200005f03ffcfef7e1
:1025b400cbfda44c0f22a8490431200005f061fb97
:1025c400200005f0aefb0100200002f035ffa34a15
:1025d4009e4b1a80fb32934b5a809d4b1a689d4b3d
:1025e4001a60200005f09dfb81b2200005f01efc5e
:1025f400fef7aafd934c0e2291495031200005f0bc
:1026040040fb200005f08dfb0100200002f014ffc8
:10261400934a8e4b1a80fa32824b5a808c4b1a683a
:102624008c4b1a60200005f07cfb81b2200005f081
:10263400fdfbfef789fd75496431754804f00eff12
:10264400002801d1fef72dfb0322724b1a70704c47
:10265400200005f066fb020021006f4805f011fb25
:10266400c02252000021200005f044fb00226b4be5
:102674001a60fef716fb7b4a6a4b5a80fef76afd26
:10268400794a684b5a80fef765fd634c200005f0db
:1026940048fb81b2200005f0c9fbc0225200002192
:1026a400200005f027fb694b1b886c4a934207d036
:1026b40001335c4a53800022564b1a70fef744fde6
:1026c4006a4a584b5a80f6e7564b5b495a5c0132ca
:1026d4005a5400225a804f4b1a7080ac644b2c33ee
:1026e400220023cb23c223cb23c2196811609b8809
:1026f4009380200005f015fb81b2200005f096fbc5
:102704004f4b1033220003cb03c21b8813804d4967
:10271400200005f085f9200005f003fb81b22000bc
:1027240005f084fb3c4c200005f0fbfa81b220004c
:1027340005f07cfbc02252000021200005f0dafaeb
:10274400fef702fd3f4c10223f497431200005f092
:1027540098fa200005f0e5fa0100200002f06cfe72
:10276400a0221201434b1a80fc322e4b5a80384b64
:102774001a68414b1a60200005f0d3fa81b2200098
:1027840005f054fbfef7e0fc2e4c0e222c49503190
:10279400200005f076fa200005f0c3fa01002000bd
:1027a40002f04afe354a334b1a80f8321d4b5a80e8
:1027b400274b1a68304b1a60200005f0b2fa81b238
:1027c400200005f033fbfef7bffc1e4c0f221b4913
:1027d4001431200005f055fa200005f0a2fa01009a
:1027e400200002f029fe264a224b1a80f3320d4bb8
:1027f4005a80174b1a68204b1a60200005f091fa92
:1028040081b2200005f012fbfef79efc4833000065
:10281400ec080020640300206c0a0020401900200a
:10282400fd08000034000020fe0800006c190020a0
:1028340001080000ff0800002a030000c837000058
:10284400c83300006c0700204834000066190020db
:10285400501900200c190020c834000001090000a0
:1028640002090000fd090000fe090000ff09000044
:10287400483800006819002010190020040a0000dc
:10288400090a0000ee4c0f22ee492431200005f025
:10289400f8f9200005f045fa0100200002f0ccfd13
:1028a400e94aea4b1a80f232e94b5a80e94b1a683a
:1028b400e94b1a60200005f034fa81b2200005f0db
:1028c400b5fafef741fcde4c1322e4494c312000fa
:1028d40005f0d7f9200005f024fa0100200002f0e9
:1028e400abfddf4ad94b1a80f732d94b5a80d94b0a
:1028f4001a68d94b1a60200005f013fa81b220003f
:1029040005f094fafef720fccd4c1922d3497c3112
:10291400200005f0b6f9200005f003fa01002000bc
:1029240002f08afdcf4ac94b1a80f532c84b5a804f
:10293400c84b1a68c84b1a60200005f0f2f981b23e
:10294400200005f073fafef7fffbbd4c0d22c649cb
:102954003431200005f095f9200005f0e2f901007a
:10296400200002f069fdc14ab84b1a80f132b84b1d
:102974005a80b84b1a68b84b1a60200005f0d1f998
:1029840081b2200005f052fafef7defbac4c2e2299
:10299400b7497031200005f074f9200005f0c1f941
:1029a4000100200002f048fdb24aa84b1a80fa3216
:1029b400a74b5a80a74b1a68a74b1a60200005f052
:1029c400b0f981b2200005f031fafef7bdfb9c4c52
:1029d4001222a9493c31200005f053f9200005f0ea
:1029e400a0f90100200002f027fda44a974b1a80a9
:1029f400f932974b5a80974b1a68974b1a6020000c
:102a040005f08ff981b2200005f010fafef79cfb67
:102a14008b4c0e2298495031200005f032f92000e9
:102a240005f07ff90100200002f006fd944a874b6f
:102a34001a80f032864b5a80864b1a68864b1a608d
:102a4400200005f06ef981b2200005f0eff98d4801
:102a540004f0b2fbfef778fb794cc022520000214f
:102a6400200005f047f964220021684605f042f988
:102a74007d4d290044311a22200005f002f920007e
:102a840005f04ff90019724fb91d202205f0f9f82d
:102a94002b006c336a4603cb03c26946200004f062
:102aa400bfff200005f03df90100200002f0c4fc46
:102ab400754a664b1a80754b7b80664b1a68664b69
:102ac4001a60200005f02df981b2200005f0aef95e
:102ad4006f4804f071fbfef737fb6e495c316e48ba
:102ae40004f0bcfc002864d002226c4b1a706a4cbf
:102af400200005f016f902002100694805f0c1f82c
:102b0400c02252000021200005f0f4f80022654b99
:102b14001a60624b1b78022b68d0604b1b78032b26
:102b240069d04c4b1b684c4a12689b1a5e4a93420c
:102b340001d8fef70ffb464b5c495a5c01325a54ec
:102b440000225a80554b1a7080ac594b0433220032
:102b540023cb23c223cb23c223cb23c223cb23c225
:102b6400200005f0def881b2200005f05ff9514b3a
:102b74001033220003cb03c21b881380304920008a
:102b840004f04eff200005f0ccf881b2200005f0df
:102b94004df9434c200005f0c4f881b2200005f043
:102ba40045f9c02252000021200005f0a3f8fef7e9
:102bb400cbfa38496431384804f050fc0028a8d0d6
:102bc4000322364b1a70344c200005f0aaf8020098
:102bd4002100334805f055f8c0225200002120009e
:102be40005f088f800222f4b1a6092e7324a184bfe
:102bf4005a80fef7affa314a154b5a80fef7aafa0b
:102c0400274c200005f08df881b2200005f00ef964
:102c1400c02252000021200005f06cf80b4b1b88e9
:102c2400194a934207d00133094a538000221b4baf
:102c34001a70fef789fa224a054b5a80f6e7c04615
:102c44006c070020c83700000a0a00006819002039
:102c540034000020501900201019002048380000ca
:102c6400050a0000070a0000c83800000b0a00002b
:102c740048350000020a000048360000030a00003c
:102c84000c0a0000881300000e0a0000fc0a000071
:102c9400b80b000048330000ec0800206403002057
:102ca4006c0a002040190020102700002a030000ad
:102cb40048390000c8330000fd0a0000fe0a000085
:102cc400ff0a0000d44bd5495a5c01325a54002201
:102cd4005a80d34b1a7080acd24b3433220023cbae
:102ce40023c223cb23c223cb23c203cb03c22000a2
:102cf40005f017f881b2200005f098f8ca4b10339c
:102d0400220003cb03c21b881380c849200004f0af
:102d140087fe200005f005f881b2200005f086f852
:102d2400c34c200004f0fdff81b2200005f07ef8c2
:102d3400c02252000021200004f0dcfffef704fa58
:102d44000021b64bb44ad154c0225200b84804f012
:102d5400d1fffef7fff9b7495c31b74804f07efbb9
:102d6400002865d00222ae4b1a70b34c200004f048
:102d7400d8ff02002100ae4804f083ffc0225200b5
:102d84000021200004f0b6ff0022ac4b1a60a44bd3
:102d94001b78022b69d0a24b1b78032b6ad0a84b5b
:102da4001b68a84a12689b1aa74a934201d8fef7e7
:102db400d1f9994b99495a5c01325a54a34a5a8021
:102dc4000022974b1a7080aca14b2c33220023cbea
:102dd40023c223cb23c223cb23c21b88138020000e
:102de40004f09fff81b2200005f020f88e4b1033d1
:102df400220003cb03c21b8813808c49200004f0fb
:102e04000ffe200004f08dff81b2200005f00ef8c3
:102e1400874c200004f085ff81b2200005f006f8fd
:102e2400c02252000021200004f064fffef78cf958
:102e340080496431804804f011fb0028a7d00322a4
:102e4400774b1a707c4c200004f06bff02002100c9
:102e5400774804f016ffc02252000021200004f03d
:102e640049ff0022754b1a6091e77a4a6a4b5a80ef
:102e7400fef770f9784a684b5a80fef76bf9002127
:102e8400664b654ad1546a4c200004f04aff81b273
:102e9400200004f0cbff714b1b88b0221201934237
:102ea4000dd001335c4a5380c02252000021604897
:102eb40004f020ff00225a4b1a70fef745f9634aca
:102ec400554b5a80f0e7544b54495a5c01325a54da
:102ed4005e4a5a800022524b1a7080ac5c4b5433c9
:102ee400220023cb23c223cb23c219681160998803
:102ef40091809b799371200004f013ff81b220002c
:102f040004f094ff484b1033220003cb03c21b8808
:102f140013804649200004f083fd200004f001ffe3
:102f240081b2200004f082ff414c200004f0f9fe3d
:102f340081b2200004f07affc02252000021200058
:102f440004f0d8fefef700f9404b334a52889a4207
:102f540001d0fef7fff8304b9b88414a934200d1e1
:102f64008ae015d93f4a934200d184e100d215e1a9
:102f74000132934201d0fef7edf8c0225200002145
:102f84002b4804f0b7fe0022254b1a70fef7e2f836
:102f9400fc3a934225d00132934201d0fef7daf88d
:102fa400224c0e2230490831200004f06afe200031
:102fb40004f0b7fe0100200002f03efa2b4a2c4b2d
:102fc4001a80fb32144b9a801d4b1a68294b1a60e5
:102fd400200004f0a6fe81b2200004f027fffef7d3
:102fe400b9f81b497431144804f038fa0c30040061
:102ff4001d49043104f032fa002801d1fef7aaf881
:10300400200004f0fbfe044bd42252009852174acd
:103014009a80fef79ff8c046340000202a0300007f
:103024006403002048390000c83300006c07002006
:103034006c0a002048330000ec08002040190020ee
:10304400501900201c19002010270000ff0b00005d
:10305400c8390000fd0b0000fe0b00006e190020b3
:10306400fc800000fe800000483a00000180ffff61
:1030740072190020241900209d495c319d4804f0f8
:10308400edf9002863d002229b4b1a70994c200062
:1030940004f047fe02002100984804f0f2fdc0222b
:1030a40052000021200004f025fe0022944b1a60f7
:1030b400914b1b78022b67d08f4b1b78032b68d066
:1030c400904b1b68904a12689b1a904a934201d80d
:1030d400fef740f80022884b1a708d4b8d495a5cdc
:1030e40001325a548c4a9a8080ac8c4b183322009b
:1030f40023cb23c223cb23c21b881380200004f0dc
:1031040010fe81b2200004f091fe854b10332200a2
:1031140003cb03c21b8813808249200004f080fc87
:10312400200004f0fefd81b2200004f07ffe734c09
:10313400200004f0f6fd81b2200004f077fec022e6
:1031440052000021200004f0d5fdfef703f8684981
:103154006431684804f082f90028a9d00322664b40
:103164001a70644c200004f0dcfd02002100634866
:1031740004f087fdc02252000021200004f0bafdb3
:1031840000225f4b1a6093e7674a614b9a80fdf710
:10319400e1ff664a5e4b9a80fdf7dcff5f4c21003d
:1031a4003431564d280004f059f9060021003c3111
:1031b400280004f053f9002e4ad0504c57494431aa
:1031c400200004f04bf9c51c59492431200004f0b7
:1031d40045f9584c421b2900200004f052fdab3c39
:1031e400ff3c0122a823ff33e25400228533ff333e
:1031f400e2546c46494d2b0048336a4603cb03c264
:103204001b7813704b49684604f00afc684604f0c6
:1032140088fd2018291d032204f033fd684604f0bc
:1032240080fd81b2684604f001fe434b1b88434a8b
:10323400934210d00133364a9380c02252000021b9
:103244002e4804f057fd00222b4b1a70fdf782ff25
:103254000028b2d1cde72e49d42252008b5a013b2b
:103264009bb28b52002b02d12b4a8a80e5e7344a69
:10327400274b9a80e1e700221f4b1a70244b254903
:103284005a5c01325a54244a9a8080ac234b5433fa
:10329400220023cb23c203cb03c21b88138020004c
:1032a40004f03ffd81b2200004f0c0fd1c4b10333c
:1032b400220003cb03c21b8813801a49200004f0a8
:1032c400affb200004f02dfd81b2200004f0aefd20
:1032d4000a4c200004f025fd81b2200004f0a6fd74
:1032e400c02252000021200004f004fdfdf732ff4b
:1032f40048330000ec080020640300206c0a00201e
:103304004019002050190020241900201027000023
:10331400340000202b0300000080ffff483a000027
:10332400c83300006c070020fd80fffffe80ffff14
:10333400c8390000de01002072190020018000005d
:043344000180ffff06
:020000040000fa
:1033480041540d0a00000000415445300d0a0000a8
:1033580041542b434c434b3d225343222c320d0afc
:103368000000000041542b4350494e3f0d0a000015
:1033780041542b434f50533f0d0a000041542b43f7
:1033880053510d0a0000000041542b555244464940
:103398004c453d225030220d0a0000004f4b0d0acb
:1033a800000000004552524f520d0a005f41545f21
:1033b8004d4f44554c455f434f4e4e454354202096
:1033c8004572726f725f74696d656f75740d0a006e
:1033d80074785f4552524f523a0000002c33322c19
:1033e800000000005f41545f4d4f44554c455f431a
:1033f8004f4e4e45435420204572726f725f6d6583
:10340800670d0a0041542b43455245473f0d0a00ba
:1034180041542b434744434f4e543f0d0a0000008c
:1034280041542b43434c4b3f0d0a00005f41545f0e
:1034380034474c54455f6c696e6b5f63686b202042
:103448004572726f725f74696d656f75740d0a00ed
:103458005f41545f34474c54455f6c696e6b5f63e2
:10346800686b20204572726f725f6d65670d0a0088
:103478005f41545f4e4554574f524b5f535441542c
:10348800555320204572726f725f74696d656f7550
:10349800740d0a005f41545f4e4554574f524b5fbd
:1034a80053544154555320204572726f725f6d65b5
:1034b800670d0a0041542b555053443d302c302c95
:1034c800300d0a0041542b55505344413d302c33a4
:1034d8000d0a00005f41545f52454c4f475f494e0b
:1034e80020204572726f725f74696d656f75740d17
:1034f8000a0000005f41545f52454c4f475f494ef8
:1035080020204572726f725f6d65670d0a000000ba
:1035180041542b555345434d4e473d302c302c22ba
:103528007063626361222c313335390d0a00000063
:1035380041542b555345434d4e473d302c312c2299
:103548007063626363222c313235370d0a00000044
:1035580041542b555345434d4e473d302c322c2278
:10356800706362706b222c313637350d0a0000000b
:1035780041542b555345434d4e473d330d0a0000ea
:1035880041542b554d5154543d302c223943343934
:1035980030443332424232303833333630313832c5
:1035a800304531413732393843453232220d0a002d
:1035b80041542b554d5154543d322c22736861723d
:1035c800656170702e73746f6e65746563682e63c1
:1035d8006f6d2e7477222c383838330d0a000000ae
:1035e80041542b554d5154543d332c22222c3838fc
:1035f80038330d0a0000000041542b554d515454e6
:103608003d362c310d0a000041542b554d51545470
:103618003d372c310d0a000041542b554d5154545f
:103628003d382c22736572617068696d2f6c617307
:103638007477696c6c220d0a0000000041542b5508
:103648004d5154543d392c22556e72657175657310
:1036580074656420646973636f6e6e656374220dac
:103668000a00000041542b554d5154543d31302c23
:10367800333630302c32300d0a00000041542b55bf
:103688004d5154543d31312c312c320d0a0000007b
:1036980041542b554d515454433d310d0a000000ff
:1036a8005f41545f4d5154545f42494449525f4110
:1036b8005554485f504152415f4c4f41442020458a
:1036c80072726f725f74696d656f75740d0a0000b0
:1036d8005f41545f4d5154545f42494449525f41e0
:1036e8005554485f504152415f4c4f41442020455a
:1036f80072726f725f6d65670d0a000041542b5539
:103708004d5154543d312c313838330d0a000000e6
:1037180041542b554d5154543d322c2273686172db
:10372800656170702e73746f6e65746563682e635f
:103738006f6d2e7477222c313838330d0a00000053
:1037480041542b554d5154543d332c227878782ec2
:103758007878782e7878782e787878222c383838d7
:10376800330d0a0041542b554d5154543d342c22ed
:1037780074657374222c226d717474313233220d86
:103788000a00000041542b554d5154543d382c2209
:10379800454d4f544f2f4445562f39433439304403
:1037a80033324242323038333336303138323045b2
:1037b800314137323938434532322f5550220d0abc
:1037c8000000000041542b554d5154543d31312ccb
:1037d800300d0a0041542b554d5154544e563d322c
:1037e8000d0a000041542b554d5154544e563d314d
:1037f8000d0a00005f41545f4d5154545f504152cf
:10380800415f4f5045524154494f4e2020457272f6
:103818006f725f74696d656f75740d0a0000000042
:103828005f41545f4d5154545f504152415f4f5076
:1038380045524154494f4e20204572726f725f6d58
:1038480065670d0a000000005f41545f34475f4c14
:1038580054455f4c4f47494e20204572726f725f46
:1038680074696d656f75740d0a0000005f41545fdf
:1038780034475f4c54455f4c4f47494e20204572b2
:10388800726f725f6d65670d0a00000041542b5519
:103898005345435052463d322c302c310d0a00001e
:1038a80041542b555345435052463d322c332c221c
:1038b8007063626361220d0a0000000041542b55b9
:1038c8005345435052463d322c352c227063626377
:1038d80063220d0a0000000041542b555345435004
:1038e80052463d322c362c22706362706b220d0ad0
:1038f8000000000041542b554d5154543f200d0aef
:103908000000000041542b554d515454433d342c74
:10391800302c22454d4f544f2f4445562f00000060
:103928002f444f574e220d0a000000002f505542d9
:10393800220d0a0041542b554d515454433d300d2e
:103948000a0000005f41545f4d5154545f4249449e
:1039580049525f415554485f4c4f47494e5f464c6a
:103968004f5720204572726f725f74696d656f756d
:10397800740d0a005f41545f4d5154545f424944ed
:1039880049525f415554485f4c4f47494e5f464c3a
:103998004f5720204572726f725f6d65670d0a0080
:1039a80041542b554d515454433d322c302c302c1e
:1039b800302c2022454d4f544f2f4445562f0000a0
:1039c8002f5550222c227b224c494e4b434d4422ea
:1039d8003a00000057696c6c69616d77616e6774b5
:1039e800657374007d220d0a000000005f41545f7a
:1039f8004d5154545f54585f55505f4441544131c0
:103a080020204572726f725f74696d656f75740df1
:103a18000a0000005f4d5154545f54585f55505f81
:103a2800444154413120204572726f725f6d656761
:103a38000d0a00002b55554d515454433a20362c4d
:103a4800000000000d0a000041542b554d515454fc
:103a5800433d360d0a0000005f41545f5245414422
:103a680020204572726f725f74696d656f75740d91
:103a78000a0000002f444f574e222c002f50554269
:103a8800222c00002c227b00525820444154413af9
:103a9800000000005f41545f5245414420204572b8
:103aa800726f725f6d65670d0a0000004552524fd4
:103ab800523a4c54452034472052455345542049e6
:083ac8004e495449414c000035
:020000040000fa
:103ad000c01800201c000000000000004815002055
:103ae0009c000000000000000000002034000000e6
:103af0000000000064190020020000000000000027
:103b000008190020040000000000000066190020d1
:103b100002000000000000000c190020040000005a
:103b200000000000681900200200000000000000f2
:103b30001019002004000000000000006a19002095
:103b40000200000000000000141900200400000022
:103b5000000000006c1900200200000000000000be
:103b60001819002004000000000000006e19002059
:103b700002000000000000001c19002004000000ea
:103b8000000000007019002002000000000000008a
:103b9000201900200400000000000000721900201d
:103ba00002000000000000002419002004000000b2
:103bb0000000000074190020020000000000000056
:103bc00028190020040000000000000076190020e1
:103bd00002000000000000002c190020040000007a
:103be0000000000030190020040000000000000068
:103bf0003400002031030000000000007c19002088
:103c000001000000000000007d19002001000000fc
:103c1000000000007e1900200100000000000000ec
:103c200034190020040000000000000038190020b2
:103c300004000000000000007f19002001000000c7
:103c4000000000003c1900200400000000000000fb
:103c500080190020010000000000000081190020f0
:103c600001000000010000000100000080030020ae
:103c7000ec030000000000007819002002000000a2
:103c800000000000401900200400000000000000b7
:103c90006c070020800400000000000020180020b5
:103ca0002c00000000000000441900200400000067
:103cb000000000004819002004000000000000007f
:103cc0004c190020040000000000000050190020e2
:103cd0000400000000000000ec0b002005000000c4
:103ce000000000007a19002002000000000000001f
:103cf0005017002050000000000000007016002047
:103d00008000000000000000e41500208c0000008e
:103d100000000000a01800202000000000000000ab
:103d20007818002028000000000000000c0c002083
:103d3000900100000000000088140020c000000076
:103d4000000000004c1800202c00000000000000c3
:103d50009c0d002080010000000000001c0f0020ce
:103d60008001000000000000a017002040000000bb
:103d70000000000088130020000100000000000087
:103d80009c1000208001000000000000e0170020cf
:103d90004000000000000000fc1800200c000000a3
:103da00000000000dc1800201000000000000000ef
:103db000ec1800201000000000000000f40b0020b0
:103dc0001000000000000000040c002001000000b2
:103dd0000000000054190020040000000100000051
:103de000f0160020f0160020600000000100000026
:103df00000000000c8780000e8780000a878000003
:103e000000000000000000000000000000000000b2
:103e100000000000000000000000000000000000a2
:103e20000000000000000000000000000000000092
:103e30000000000000000000000000000000000082
:103e40000000000000000000000000000000000072
:103e50001c1200206c010000010000004300000063
:103e60000000000000000000000000000000000052
:103e700000000000000000000000000043000000ff
:103e80000000000000000000000000000000000032
:103e900000000000000000000000000043000000df
:103ea0000000000000000000000000000000000012
:103eb00000000000000000000000000043000000bf
:103ec00000000000000000000000000000000000f2
:103ed000000000000000000000000000430000009f
:103ee00000000000000000000000000000000000d2
:103ef000000000000000000000000000430000007f
:103f000000000000000000000000000000000000b1
:103f1000000000000000000000000000430000005e
:103f20000000000000000000000000000000000091
:103f3000000000000000000000000000317b0000d5
:103f40007577000000000000605700002d7e000023
:103f50002c7e00002c7e00002c7e00002c7e0000b9
:103f60002c7e00002c7e00002c7e00002c7e0000a9
:103f70002c7e0000ffffffffffffffffffffffffa3
:103f8000ffff0000010041534349490000000000c9
:103f90000000000000000000000000000000000021
:103fa00000000000000041534349490000000000a8
:103fb0000000000000000000000000000000000001
:103fc000000000000000000058190020040000005c
:103fd000000000005c190020040000000000000048
:103fe000080c002004000000000000006019002000
:103ff00004000000000000000000000000000000bd
:020000040000fa
:10400000f0b59db00490039115001c00002805d068
:1040100083690593002b01d102f01efd984b039a92
:104020009a4260d1049b5b680393039b9b891b07a7
:1040300067d5039b1b690593002b62d000220f926a
:1040400020220aab5a76302206959a76069d2b7866
:10405000002b60d1069bee1a0cd03300069a039910
:10406000049803f001f8431c00d170e10f9b9e19e6
:1040700005930f962b78002b00d168e101220aae40
:10408000524272605322002306a97e4f5218013516
:104090000a93f360b3601370223705222978380041
:1040a00003f052fd6a1c002839d13068c30604d5dc
:1040b0005323202106afdb191970030704d55323be
:1040c0002b2106afdb1919702b782a2b2fd000205b
:1040d0000a21f3682a78303a092a00d870e00028cb
:1040e0002cd0f3602ae0684b039a9a4202d1049bd9
:1040f0009b6899e7654b039a9a4296d1049bdb68cb
:1041000092e70399049801f023fc002896d001203f
:1041100040421db0f0bd252b9cd0013597e701230f
:10412000c01b8340316815000b433360b5e723683b
:10413000211d002b3edbf36015000c002b782e2b8d
:104140000ad16b786a1c2a2b42d122680235231dc2
:10415000002a3adb1c0072604a4f29782837032274
:10416000380003f0f1fc002806d04023c01b834038
:104170003268013513433360424f297838006b1c95
:1041800006222c300693317603f0defc5322337e78
:1041900006a95218692b31d03ed8582b78d029d88f
:1041a000002b00d1f6e0522106a809180b7001235c
:1041b0000e9356e05b42f360022303433360bbe798
:1041c0004b4301359b18012084e701225242c1e78d
:1041d000002315000a201a00736029783039092954
:1041e00003d9002bb8d07260b6e7424301355218ac
:1041f0000123f2e7632b2cd0642bd4d10a99231d21
:104200002668080633d51c00002e02da2d237642dc
:1042100013700a23059357e0702b00d19ee00dd850
:104220006f2bc0d10a99221d2668080623d51400d9
:104230006f2b00d19be00a23059340e0752bf1d052
:10424000782bb0d15523782206a95b181a70113744
:1042500022e0522306a95b18217804341970012347
:10426000336100235225137006abed1851e0490667
:10427000c9d536b2c7e74906d9d5b6b2d7e7c046e1
:10428000c8780000cc730000e8780000a87800002f
:10429000552206a9521813700a9b221d266819067a
:1042a00061d51400da0702d5202213430a931023a4
:1042b0000593002e03d120230a9a9a430a9253238e
:1042c000002206a95b181a700b9b0c93002b7bdb5a
:1042d00004220a9991430a91002e4ad1002b75d1ec
:1042e000532506abed18059b082b0dd10a9bdb0768
:1042f0000ad50b9b05930e9b0793079a059b934248
:1043000002dc3023013d2b70532306aa9b185b1b54
:104310000e93314b09aa00930aa9039b049801f05c
:1043200072fc431c13d00e9b2a000399049802f0e0
:104330009bfe431c0bd00a9b002505939b0737d49b
:10434000099a0d9b934200da13005a1c37d1039b44
:104350000f989b895b0600d4dbe6d8e62023326801
:10436000134333606ee759069bd5b6b299e708232d
:1043700062e7532506abed183000059902f032f9db
:104380007b5c013d30002b70059902f0eff8061eb2
:10439000f2d1a8e733611500bbe7292206a9012362
:1043a00052180498039902f05ffe431ccfd00135e8
:1043b0000d9b099a05939b1a9d42eedbc0e70f9a6d
:1043c000d31805920f9341e6002ed2d1522506aba9
:0c43d000ed183b782b7086e76970000048
:020000040000fa
:1043dc00f0b5ce46474680b585b0964b1c6da30113
:1043ec0003d580229204934b1a65e30755d5914b64
:1043fc00012119655a6d8a435a65a4229b585b06a4
:10440c004bd0a4238b4ad558ad04ad0e29018a4b51
:10441c00de68761833685b0000d4ade0ab005b1946
:10442c009b00864a9a583368db00db0813603268bd
:10443c0073689b0202d4930000d5d3e0ab005b19e8
:10444c009b007e4ad3181b6900221a7077681022d1
:10445c007b49684603f011fc3f033f0f6b46db5d65
:10446c009946764b9846af007b199b00434458689d
:10447c00310008314a4603f000fc7f19bf00474465
:10448c00bb684a461a70a8236a4ad5506d4b1b6804
:10449c00002b02d06b4a50689847e3065ad5654bff
:1044ac00102119655a6d8a435a65b4229b585b06d4
:1044bc0050d0b4235f4ad558ad04ad0e29015e4be4
:1044cc001e69761833685b0060d5ab005b199a00e7
:1044dc005a4b9b18c8331a683368db00db0813602f
:1044ec00326873689b0202d4930000d583e0ab0062
:1044fc005b199a00514b9b18d8331b6800221a7019
:10450c00776810224e49684603f0b7fb3f033f0f14
:10451c006b46db5d9946494fab0098465b199b0097
:10452c00fb18cc331868310008314a4603f0a5fb60
:10453c0043465b199b00ff18d0373b684a461a70fc
:10454c00b8233c4ad5503f4b9b68002b02d03d4ac8
:10455c00d0689847a3052cd5364b802292001a655b
:10456c005a6d39490a405a6500231f229446012787
:10457c00304ad826e0204fe0ab005b199b002f4a55
:10458c009a583368db005b0d136050e7ab005b1986
:10459c009a002a4b9b18c8331a683368db005b0df2
:1045ac0013609de7274b9b69002b02d0254ad069ed
:1045bc009847230511d51f4980231b010b65c42087
:1045cc000b581b0a1f2213400958090c0a4093422e
:1045dc0003d20133dbb29a42fbd105b00cbc90463e
:1045ec009946f0bdab005b199b00144ad3181b69ac
:1045fc0001221a702ae7ab005b199a000f4b9b182b
:10460c00d8331b6801221a707ae715588d43155060
:10461c000133dbb2052bc5d0614619403d008d40fe
:10462c0029009559a84615580d42f1d045460d4222
:10463c00ebd1ede7001c0042781800200c0c002098
:0c464c00b87c0000a0180020fffdffff5c
:020000040000fa
:10465800f0b5de4657464e464546e0b583b07f4b3b
:104668009b7d002b00d1f2e07c490a7ed2b28b7d83
:104678005bb2002b0ddb794a137edbb2927dd20749
:1046880000d4dce0db0700d4d9e0754c754b9846c4
:1046980067e052b2002aeeda704b5b8b07221340b8
:1046a800e9d06f4ad3876d4b80221a7607225a8346
:1046b8001b7e5b0705d5694b04211a8d1a7e0a42b9
:1046c800fbd1674b1b6a002bd5d0654a516a022083
:1046d8009847d0e75e00b246624e5546755d0d704c
:1046e800b346da4455466d784d70013316e00b78c1
:1046f8001385002f1ed1137e01252b4200d19ee089
:10470800a3689a46e3689a4500d195e05668064042
:10471800012edfd04646f65c0e7001334b45b6419c
:1047280033406646f36053680340012bdfd10b88a2
:104738001385dee703f04cfa494b1b68002b10d0b9
:10474800474a127f002a08d0454a9269904208d306
:10475800434a51680320984703e0414a92699042ce
:104768000bd03f4b1b6999463d4b1f7d3b4a0720a9
:104778006b46991d3a4b9c46bde7394a5168032060
:104788009847eee74246126a002a2fd0796a01203c
:104798009047bb6a01333a6b93429241134025e03c
:1047a8002f4a916a4900304a54545218240a5470c6
:1047b8002ae02b4a926b904208d1294a516a00207c
:1047c800984703e0264d2e00a8462f00234b1b7e5a
:1047d8005b073cd5214b1c8da4b2ab6a01332a6b15
:1047e800934292411340f26a9a42cbd01c4ad26a51
:1047f8009a42ebd0194a516807220a40012acfd0c1
:10480800174a926a18498c54154a93623423d35c28
:10481800002bdbd003f0caf8114b1b6a002bd5d054
:104828003c220f498a5c002ac3d08a6b9042cdd3c0
:10483800496a00209847c9e70122084b1a75074ab8
:10484800137edbb2927d520701d55b07bad403b061
:104858003cbc90469946a246ab46f0bd00080042d3
:0c486800a01700201c0f00209c0d002059
:020000040000fa
:10487400f0b5de4657464e464546e0b583b07f4b1d
:104884009b7d002b00d1f2e07c490a7ed2b28b7d65
:104894005bb2002b0ddb794a137edbb2927dd2072b
:1048a40000d4dce0db0700d4d9e0754c754b9846a6
:1048b40067e052b2002aeeda704b5b8b072213409a
:1048c400e9d06f4ad3876d4b80221a7607225a8328
:1048d4001b7e5b0705d5694b04211a8d1a7e0a429b
:1048e400fbd1674b1b6a002bd5d0654a516a022065
:1048f4009847d0e75e00b246624e5546755d0d702e
:10490400b346da4455466d784d70013316e00b78a2
:104914001385002f1ed1137e01252b4200d19ee06a
:10492400a3689a46e3689a4500d195e05668064024
:10493400012edfd04646f65c0e7001334b45b6417e
:1049440033406646f36053680340012bdfd10b8884
:104954001385dee703f048f9494b1b68002b10d0a0
:10496400474a127f002a08d0454a9269904208d3e8
:10497400434a51680320984703e0414a92699042b0
:104984000bd03f4b1b6999463d4b1f7d3b4a07208b
:104994006b46991d3a4b9c46bde7394a5168032042
:1049a4009847eee74246126a002a2fd0796a01201e
:1049b4009047bb6a01333a6b93429241134025e01e
:1049c4002f4a916a4900304a54545218240a5470a8
:1049d4002ae02b4a926b904208d1294a516a00205e
:1049e400984703e0264d2e00a8462f00234b1b7e3c
:1049f4005b073cd5214b1c8da4b2ab6a01332a6bf7
:104a0400934292411340f26a9a42cbd01c4ad26a32
:104a14009a42ebd0194a516807220a40012acfd0a2
:104a2400174a926a18498c54154a93623423d35c0a
:104a3400002bdbd002f0d8ff114b1b6a002bd5d022
:104a44003c220f498a5c002ac3d08a6b9042cdd3a2
:104a5400496a00209847c9e70122084b1a75074a9a
:104a6400137edbb2927d520701d55b07bad403b043
:104a74003cbc90469946a246ab46f0bd00040042b9
:0c4a8400e01700209c1000208813002088
:020000040000fa
:104a900030b59bb0644b1b78002b4bd0634b1b781d
:104aa000002b30d1604b5b88614a934200d168e0b3
:104ab00011d9604a934200d16ae03dd85e4a9342e0
:104ac00061d00132ff3293421dd180221201564b38
:104ad0005a80c04617e0594a934246d00bd9584aeb
:104ae000934248d00132ff3293420cd1554a4e4b8b
:104af0005a80c04607e0002b05d14b4b03221a70a9
:104b0000c022d2005a80cb239b00474ad35c002ba3
:104b10004cd04d4b444ad35c022b03d84b4bd35c57
:104b2000022b07d94a4b1b684a4a12689b1a4a4a09
:104b3000934257d81bb030bd484a93422ed0013221
:104b4000ff329342dfd12623374ad35c012bdad1df
:104b5000928880231b029a42d5d1334b0021262212
:104b60009954b02212015a80cde7802292002e4b38
:104b70005a80c046c7e7c02292002b4b5a80c046dd
:104b8000c1e7c046bfe72f4a274b5a80c046bae765
:104b9000a0221201244b5a80c046b4e7224b0222c5
:104ba0001a70b02212015a80c046ace7fbf79afa9d
:104bb000254b1d4ad35c022b03d8244bd35c022b1c
:104bc000b8d9cb239b00184ad35c002baad1130081
:104bd00001221a701e4908681e490860cb2189000d
:104be0005a54a7e701ac1e4b6c33220023cb23c2df
:104bf00023cb23c2198811809b789370200003f087
:104c000092f881b2200003f013f90022064b1a70cb
:104c100004228223db055a61fa20800002f0cefada
:104c200001f0ecf986e7c046340000206403002060
:104c3000ff040000ff080000ff050000ff01000066
:104c4000ff020000010600002a0300002b03000001
:104c5000501900203019002060ea0000ff0a00000f
:044c6000483a0000ce
:020000040000fa
:104c640010b5694b9b7d002b17d0674b5b8b9b0763
:104c740014d5664bff2120229954022121229954f4
:104c84002023624ad35c5bb2013300d18be0202342
:104c94005e4ad35c062b00d19de010bd5a4b5b8b62
:104ca400db0707d5594bff212022995402212122e9
:104cb4009954e5e7544b5b8b5b0707d5534bff21b6
:104cc40020229954012121229954d9e720234f4ac3
:104cd400d35c5bb2032b44d0042b0fd0022bcfd177
:104ce4001369002b04d09088002101f0c9ffc7e7a5
:104cf400464b9888012101f0c3ffc1e7434a9369f9
:104d0400126993420cd0414a9168cc5c28213e48f8
:104d14004454013393610200d369002bfcd1afe703
:104d24003a4b5b69002b0ed0384b9b885b00012209
:104d34001343354a5362d369002bfcd1032120234a
:104d4400324ad1549ce7304a5168c0239b020b433a
:104d54005360d369002bfcd1062120232b4ad15464
:104d64008ee72a4a5369013bd2699a420dd0264afa
:104d7400d369002bfcd1254ad36928212248415c00
:104d8400d068c1540133d3617ae71f4a5168e023e4
:104d9400db020b435360d369002bfcd10621202393
:104da4001a4ad154e3e700212023d154164a51680a
:104db400c0239b020b435360d369002bfcd1832295
:104dc400114b1a76114b5b6a002b00d165e70f4a31
:104dd400906a984761e71300002220215a54212148
:104de4005a548322084b1a76190030224b8b1340f5
:104df400102bfbd1054b5b6a002b00d14de7034a16
:104e0400906a984749e7c046000c00424c180020bd
:020000040000fa
:104e1400130fdeff253032580000000022563030d8
:104e240031223a2225642e25303164222c000000e0
:104e34002252303031223a2225303164222c0000b3
:104e44002252303031223a2225303264222c0000a2
:104e54002252303031223a2225303364222c000091
:104e64002252303031223a2225303464222c000080
:104e74002252303031223a2225303564222c00006f
:104e84002252303031223a2225303664222c00005e
:104e94002254303031223a2225303364222c00004f
:104ea4002254303031223a2225303264222c000040
:104eb4002254303031223a2225303164222c000031
:104ec400225350303031223a2225303364222c00d0
:104ed400225350303031223a2225303264222c00c1
:104ee400225350303031223a2225303164222c00b2
:104ef40022475244303031223a2225303364222c66
:104f04000000000022475244303031223a2225303a
:104f14003264222c000000002247524430303122f7
:104f24003a2225303164222c0000000022455744e7
:104f3400303030223a22253075222c00224552305e
:104f44003030223a22253075222c000022435f4162
:104f540056473031223a2225642e25303164222ce2
:104f640000000000224d5f4156473031223a22258d
:104f7400642e25303164222c0000000022534f435c
:104f84003031223a222564222c000000224f444f63
:104f9400223a22256c642e25303164222c00c0462e
:020000040000fa
:104fa40070b504000e00002800d18be005680020d5
:104fb400002d4ad0002900d1434e2b019e4245d3f7
:104fc400290b28053200002302f016f980235b0226
:104fd400181a00213d4a13680225ab431360d369b4
:104fe400002bfcd180b2394b98816368022b52d0dc
:104ff400364a136849033648184080235b04034348
:10500400194311605168a368e068034331480140c3
:105014000b4361680b4353602c4ad369002bfcd1ca
:105024002a4a136802210b431360d369002bfcd175
:10503400264b5a6807231340012b3cd0264b802271
:1050440052001a6380321a61012070bdeb009e4247
:105054000ad3690be8043200002302f0cdf8802360
:105064005b02181a0221b5e76b005b199e420fd34d
:10507400c022920200232800002102f03bf83200f3
:10508400002302f0b9f880235b02181a0421a1e777
:10509400002100209ee70d4a136849030c48034091
:1050a400194311605168a368e068034347208143b2
:1050b4000b435360b0e7084b80221a63c0221a6185
:1050c4000120c2e70020c0e7006cdc0200040042bb
:0c50d400ff1ffff0b8dfffffe017002017
:020000040000fa
:1050e00070b504000e00002800d189e0056800209a
:1050f000002d49d0002900d1424e2b019e4244d3bd
:10510000290b28053200002302f078f880235b0287
:10511000181a00213c4a13680225ab431360d36977
:10512000002bfcd180b2384b98816368022b51d0a0
:10513000354a136849033548184080235b0403430c
:10514000194311605168a368e06803433048014087
:105150000b4361680b4353602b4ad369002bfcd18e
:10516000294a136802210b431360d369002bfcd139
:10517000254b5a6807231340012b3bd0254bc022f7
:1051800052001a631a61012070bdeb009e420ad3df
:10519000690be8043200002302f030f880235b0240
:1051a000181a0221b6e76b005b199e420fd3c0228a
:1051b000920200232800002101f09eff320000230c
:1051c00002f01cf880235b02181a0421a2e70021d8
:1051d00000209fe70c4a136849030c480340194319
:1051e00011605168a368e0680343472081430b4383
:1051f0005360b1e7074bc0221a631a610120c3e76d
:105200000020c1e7006cdc0200080042ff1ffff035
:08521000b8dfffffa01700202a
:020000040000fa
:10521800f7b58a8905000c00130760d44b68002b8a
:1052280004dc0b6c002b01dc0020febde76a002fbc
:10523800fad000232e682b6080235b011a4034d0fb
:10524800606da3895b0706d56368c01a636b002b82
:1052580001d0236cc01a0200216a00232800e76ae3
:10526800b847a189431c06d12b681d2b31d82c4a7d
:10527800da40d3072dd50023636023692360cb046c
:1052880005d5431c02d12b68002b00d16065616bea
:105298002e600029c8d023004433994202d0280048
:1052a80001f088f800206063bfe70123216a280025
:1052b800b847431cc5d12b68002bc2d01d2b01d089
:1052c800162b01d12e60afe74023a2891343a38197
:1052d800abe740230b430120a3814042a5e70f69b8
:1052e800002fa1d00b680f60db1b019300239207ee
:1052f80000d14b69a360019b002b00dc94e7019b64
:105308003a00216a2800a66ab047002803dc402337
:10531800a2891343dfe7019b3f181b1a0193eae7b1
:045328000100402020
:020000040000fa
:10532c00f0b5de4657464e464546e0b583b00423fd
:10533c009846002399463c4b9b463c4d1e000ae088
:10534c0043467f2b19d880235b009c46e14443469f
:10535c0004339bb298464346043b9bb25a46516871
:10536c004a468f5aaf42ebd042467f2a05d89b085b
:10537c000193444680239a463fe0080000232a4cc0
:10538c0004e001339bb24030802b05d002883d2acb
:10539c00f7d8a2181372f4e7012040424623224aa0
:1053ac00d05204220027214c002011e001339bb283
:1053bc00934205d09d016d5aa542f7d00600f5e742
:1053cc00002e09d10137bfb2043292b2202f06d081
:1053dc00131f9bb20126ede74623134ad75203b0a5
:1053ec003cbc90469946a246ab46f0bd019802f0f3
:1053fc0025fa0434a4b27f2ca5d87268a3019b5a59
:10540c00ab42f6d09f42f4d14a445346d35a11884a
:10541c009942ebd04021525a9a42e7d0a00880b270
:10542c0002f00cfae5e7c046e4150020ffff00008f
:020000040000fa
:10543c00f0b5de4657464e464546e0b585b002907f
:10544c008c46002900d170e0394b1b699846070047
:10545c0001250022364b9a46994646460fe04000fd
:10546c0034495c460c5488464044002444704946f8
:10547c008b6001326b1c0237ac4546d91d00019282
:10548c002d4b586807230340012b15d0284b9868e7
:10549c00dc68431cb34289410b409c4236d00299d4
:1054ac00895c8b46244c616807240c40012cd6d0b7
:1054bc0020495c460c54dae77b781b0238780343ae
:1054cc00039351468c68c9688846601cb042894178
:1054dc00084080451ad0184949688b4607218846f0
:1054ec00594643461940012906d0124b6946097b9f
:1054fc0019550f4b9860bce764000e4b0399195576
:10550c00984644440b0a6370f3e7019502f03efaa7
:10551c00002802d00122084b9a75019805b03cbcba
:10552c0090469946a246ab46f0bd00230193ede7a9
:0c553c00a01700201c0f002000080042f7
:020000040000fa
:10554800f0b5de4657464e464546e0b585b0029072
:105558008c46002900d170e0394b1b69984607003a
:1055680001250022364b9a46994646460fe04000f0
:1055780034495c460c5488464044002444704946eb
:105588008b6001326b1c0237ac4546d91d00019275
:105598002d4b586807230340012b15d0284b9868da
:1055a800dc68431cb34289410b409c4236d00299c7
:1055b800895c8b46244c616807240c40012cd6d0aa
:1055c80020495c460c54dae77b781b0238780343a1
:1055d800039351468c68c9688846601cb04289416b
:1055e800084080451ad0184949688b4607218846e3
:1055f800594643461940012906d0124b6946097b92
:1056080019550f4b9860bce764000e4b0399195568
:10561800984644440b0a6370f3e7019502f0d4f905
:10562800002802d00122084b9a75019805b03cbcad
:1056380090469946a246ab46f0bd00230193ede79c
:0c564800e01700209c100020000400422d
:020000040000fa
:10565400f0b51e000f0087b00590039102920c98dc
:105664003c7802f021fc0822001943787d1c134089
:105674000cd12d2c0cd101232c780193bd1c002eb0
:105684000cd0102e14d1302c0ad011e02f00e6e7f4
:1056940001932b2cf3d12c78bd1cf0e7302c2fd1a7
:1056a40020222b789343582b51d110266c78023545
:1056b400019b294a31009f18380000f091ff3800ff
:1056c4000491310000f050ff0121002349420200ff
:1056d4008c46180021003039092913d80c00a64241
:1056e4001cdd591c09d06346824206d302d10499b9
:1056f400a14202db0123704320182c780135e9e72d
:105704000a26d5e721004139192901d8373ce6e7b3
:1057140021006139192901d8573ce0e75a1c08d106
:105724002223059a38001360029b002b0bd107b08b
:10573400f0bd019a002a00d04042029a002af6d015
:10574400039a002b00d06a1e029b1a60efe73024f4
:0c575400002eadd10826abe7ffffff7f61
:020000040000fa
:105760000020202020202020202028282828282031
:105770002020202020202020202020202020202029
:105780002088101010101010101010101010101091
:105790001004040404040404040404101010101081
:1057a000101041414141414101010101010101014b
:1057b000010101010101010101010101101010109d
:1057c000101042424242424202020202020202021d
:1057d0000202020202020202020202021010101071
:1057e0002000000000000000000000000000000099
:1057f00000000000000000000000000000000000a9
:105800000000000000000000000000000000000098
:105810000000000000000000000000000000000088
:105820000000000000000000000000000000000078
:105830000000000000000000000000000000000068
:105840000000000000000000000000000000000058
:105850000000000000000000000000000000000048
:015860000047
:020000040000fa
:02586200fee75f
:020000040000fa
:10586400324b5a6852031b68db0c13439b029b0a9e
:105874002f4a936300235375110004228b691a4243
:10588400fcd12b491022cb681a42fcd0294b0022b0
:105894009a611a61284a294b1a62190004224b683a
:1058a4001a42fcd140218823244ad1501000882177
:1058b400402243581a42fcd04021cc231f4ad150e5
:1058c4001000cc21402243581a42fcd04021d0235e
:1058d4001a4ad1501000d021402243581a42fcd019
:1058e4004021d423154ad1501000d42140224358da
:1058f4001a42fcd04021e823104ad1501000e8217c
:10590400402243581a42fcd0402182235b000b4ab8
:10591400d15010001900402243581a42fcd0084bc1
:10592400084a1a61084ada617047c046206080005c
:10593400001000400014004006010100001c00405b
:0c59440000080040ff1d00000e000200e3
:020000040000fa
:10595000364b70b51d6806000c00002d05d0ab69f4
:10596000002b02d1280001f077f8314b9c420fd177
:105970006c680c23e25e93b219072dd4d90611d4ba
:1059800009233360402301201343a381404270bdab
:10599000284b9c4201d1ac68ebe7274b9c42e8d1f5
:1059a000ec68e6e75b0713d5616b002908d023009c
:1059b0004433994202d0300000f000fd00236363bd
:1059c0002422a3899343a381002363602369236076
:1059d0000823a2891343a3812369002b0bd1a021a3
:1059e0008022a389890092000b40934203d02100ba
:1059f000300000f0bfff0123a289134011d0002323
:105a0000a36063695b42a361002023698342bed126
:105a10000c23e25e1306bad540231343a381013859
:105a2000b5e7920700d46369a360ede7541900203d
