:020000040000fa
:10000000f87f00201dc60000dbbf0000cbc300004e
:1000100000000000000000000000000000000000e0
:10002000000000000000000000000000f3b7000026
:100030000000000000000000f3b70000d9cf00006e
:10004000f3b70000f3b70000f3b70000d5c5000018
:10005000f3b70000f3b70000f3b70000f3b70000f8
:10006000f3b70000c9880000ad860000b18e000023
:10007000f3b700000000000000000000e57700007a
:1000800000000000f3b70000f3b70000f3b7000072
:10009000f3b70000f3b70000f3b70000f3b70000b8
:1000a000f3b70000f3b70000f3b70000f3b70000a8
:0c00b000f3b70000f3b70000f3b7000046
:020000040000fa
:1000bc00f8b5c046f8bc08bc9e46704725c5000084
:1000cc00f8b5c046f8bc08bc9e467047fdc400009d
:020000040000fa
:0800dc0054a300000100000024
:020000040000fa
:1000e400f0b5c64600b5e64ca544e64b5b88e64a47
:1000f400934201d102f008f801d900f06bfce34a05
:10010400934201d101f06efc00d93ce2e04a9342f3
:1001140001d101f01dfa00d910e1fd3a934201d159
:1001240001f0f1f800d883e0da4a934201d101f0fa
:100134009bf900d9d9e0023a934201d101f02ef99a
:1001440001d901f055f9013a934201d001f06cf85c
:10015400d1495c31d1480cf031fd002801d101f0c6
:10016400f3f80222ce4b1a70cc4c20000df0e5fac5
:1001740002002100cb480df066fac0225200002193
:1001840020000df0bbfa0022c74b1a60c44b1b7849
:10019400022b01d101f0f8f8c14b1b78032b01d1dc
:1001a40001f0f7f8c14b1b68c14a12689b1ac14a97
:1001b400934201d801f03ef8b24bbf495a5c013278
:1001c4005a5400225a80b64b1a7082acb24b6c332c
:1001d400220023cb23c223cb23c223cb23c2200060
:1001e4000df0abfa81b220000df049fbb34b103394
:1001f400220003cb03c21b881380b14920000df0f9
:10020400b3f820000df099fa81b220000df037fb0d
:10021400a44c20000df091fa81b220000df02ffbc8
:10022400c0225200002120000df068fa00f0fcff0b
:10023400043a934201d101f003f82ad982225200f0
:10024400934201d101f01df801d901f03bf89c4c17
:100254000b229149243120000df0f5f920000df016
:100264006cfa0100200009f063fc0422ff32954b74
:100274001a80f932834b5a808c4b1a688c4b1a6063
:1002840020000df05afa81b220000df0f8fa00f0c7
:10029400cbff023a934201d100f0a7ff013293420f
:1002a40001d000f0c1ff864c07227b4908312000b1
:1002b4000df0c9f920000df040fa0100200009f00a
:1002c40037fc0222ff327f4b1a80fb326d4b5a807f
:1002d400764b1a68764b1a6020000df02efa81b224
:1002e40020000df0ccfa00f09fff774a934201d131
:1002f40001f0c4f801d901f0e1f8714c0522664916
:1003040020000df0a0f920000df017fa01002000e4
:1003140009f00efc802292006c4b1a80fc32594b7f
:100324005a80624b1a686a4b1a6020000df005fa75
:1003340081b220000df0a3fa00f076ff654a9342e3
:1003440001d101f034fa00d883e0634a934201d129
:1003540001f0cefa00d9ece0023a934201d101f067
:100364006efa01d901f089fa013a934201d000f002
:100374005bff49495c3149480cf020fc002801d15d
:1003840001f035fa0222464b1a70444c20000df05d
:10039400d4f90200210043480df055f9c02252005f
:1003a400002120000df0aaf900223f4b1a603c4bbb
:1003b4001b78022b01d101f03afa394b1b78032b3d
:1003c40001d101f038fa394b1b68444a12689b1a70
:1003d400384a934201d800f02dff2a4b36495a5c23
:1003e40001325a5400225a802d4b1a7082ac3c4b75
:1003f4003033220023cb23c223cb23c223cb23c2fb
:1004040020000df09af981b220000df038fa2b4b40
:100414001033220003cb03c21b8813802849200019
:100424000cf0a2ff20000df088f981b220000df03d
:1004340026fa1c4c20000df080f981b220000df04a
:100444001efac0225200002120000df057f900f0de
:10045400ebfe043a934201d101f02df942d9c022b6
:100464009200934201d101f061f901d901f07ff9c1
:10047400c022520000210b480df040f900f0dafed2
:10048400f8fcffff34000020010700000304000013
:1004940003020000ff010000ac4f000030090020ff
:1004a40070030020b00a00205c1a0020701a00209b
:1004b4003c1a0020881300002a0300002c5000007e
:1004c400b0070020a01a0020010200008c1a0020ae
:1004d400141a002002030000ff030000301a002059
:1004e400ac500000023a934201d101f051f80132bc
:1004f400934201d000f098fef04c20000df01df95d
:1005040081b220000df0bbf9c0225200002120006e
:100514000df0f4f8ea4b1b88ea4a934201d101f04a
:10052400c5f80133e84a53800022e84b1a7000f002
:100534007bfee74a934201d101f014fa01d901f09c
:1005440031fae44c1122e449103120000df07bf81b
:1005540020000df0f2f80100200009f0e9fa8022f1
:10056400d200de4b1a80fc32d74b5a80dc4b1a681f
:10057400dc4b1a6020000df0e0f881b220000df091
:100584007ef900f051fed84a934201d101f0fcfb00
:1005940000d9fde0043aff3a934201d101f00afb8d
:1005a40029d9d24a934201d101f054fb00d9d3e0b6
:1005b400023a934201d101f005fb01d901f026fb77
:1005c400c44c1e22ca49503120000df03cf82000d2
:1005d4000df0b3f80100200009f0aafaba4a5388d2
:1005e4000133538020000df0a8f881b220000df0f3
:1005f40046f900f019fef93a934201d101f034fab8
:1006040000d87ee0bb4a934201d101f078fa01d9c7
:1006140001f094fa013a934201d000f005feae498c
:100624005c31b5480cf0cafa002801d101f03dfa5a
:100634000222a64b1a70b04c20000df07ef8020086
:1006440021009e480cf0ffffc02252000021200030
:100654000df054f80022a94b1a609c4b1b78022b16
:1006640001d101f042fa994b1b78032b01d101f01f
:1006740041fa9b4b1b689b4a12689b1aa04a9342ff
:1006840001d800f0d7fd904b9e495a5c01325a5470
:1006940000225a808d4b1a7082ac954b1433220081
:1006a40023cb23c223cb23c2196811609b88938078
:1006b40020000df042f881b220000df0e0f8924bda
:1006c4001033220003cb03c21b881380814920000e
:1006d4000cf04afe20000df030f881b220000df03d
:1006e400cef8764c20000df028f881b220000df0f1
:1006f400c6f8c0225200002120000cf0ffff00f0d9
:1007040093fd023a934201d101f08df901329342f3
:1007140001d000f089fd6f4c10227c497431200017
:100724000cf091ff20000df008f80100200009f002
:10073400fff9774a694b1a80f732634b5a80684b4a
:100744001a68684b1a6020000cf0f7ff81b2200091
:100754000df095f800f068fdc022d200934201d15b
:1007640001f09bfa01d901f0bafa023a934201d09e
:1007740000f05afd554b1b78012b01d000f05afdb7
:100784000022524b1a70634a4f4b5a8000f052fdbc
:10079400614a934201d101f09dfb34d95f4a9342ef
:1007a40001d101f05dfc00d9cae0023a934201d1c3
:1007b40001f0b1fb01d901f0bcfbf13a934201d045
:1007c40000f032fd434c0e225549503120000cf00c
:1007d4003aff20000cf0b1ff0100200009f0a8f955
:1007e400504a514b1a80fb32374b5a803c4b1a68a3
:1007f4004e4b1a6020000cf0a0ff81b220000df0d7
:100804003ef800f011fd043a934201d101f0fefae2
:1008140028d9474a934201d101f019fb01d901f0cb
:1008240037fb2c4c21224349583120000cf00bff9c
:1008340020000cf082ff0100200009f079f93e4a03
:10084400394b1a80f632204b5a80254b1a68374ba5
:100854001a6020000cf071ff81b220000df00ff837
:1008640000f0e2fc023a934201d101f0aefa013207
:10087400934201d000f0d8fc164c0f222d49383198
:1008840020000cf0e0fe20000cf057ff01002000d7
:1008940009f04ef9294a244b1a80f8320a4b5a803f
:1008a4000f4b1a68214b1a6020000cf046ff81b2ee
:1008b40020000cf0e4ff00f0b7fcc046b00a0020b2
:1008c4008c1a002003020000340000207003002072
:1008d40001040000b0070020ac4f00009e1a002065
:1008e400701a0020381a00200206000003050000d8
:1008f4002c510000fd040000300900205c1a002087
:10090400881300002a0300002c500000ac500000a3
:1009140005040000ff05000009060000fd060000b4
:10092400ac52000001060000941a0020241a002092
:10093400070600002c520000060600000406000012
:10094400e64a934201d101f0bcfb01d901f0c1fb9d
:10095400e34be4495a5c01325a5400225a80e24b78
:100964001a7082ace14b1033220023cb23c223cb79
:1009740023c223cb23c219681160998891809b7983
:10098400937120000cf0d9fe81b220000cf077ffa7
:10099400d74b1033220003cb03c21b881380d549e5
:1009a40020000cf0e1fc20000cf0c7fe81b2200016
:1009b4000cf065ffd04c20000cf0bffe81b220008b
:1009c4000cf05dffc0225200002120000cf096fec6
:1009d40000f02afcc94a934201d102f078f800d908
:1009e400d9e1093aff3a934201d101f045fd00d91a
:1009f400aee0f43aff3a934201d101f06bfc32d9f4
:100a0400bf4a934201d101f0d1fc00d985e0023afa
:100a1400934201d101f082fc01d901f0a3fcb24b55
:100a24001b78012b01d000f005fc0022ae4b1a709c
:100a3400b04c1622b349243120000cf004fe2000ef
:100a44000cf07bfe0100200009f072f8a44a5388e0
:100a54000133538020000cf070fe81b220000cf0b2
:100a64000eff00f0e1fb043a934201d101f0c6fb12
:100a740029d9a54a934201d101f0e4fb01d901f03f
:100a840005fc994b1b78012b00d0d3e30022964b35
:100a94001a70984c0f229d49383120000cf0d3fd78
:100aa40020000cf04afe0100200009f041f88c4ab5
:100ab40053880133538020000cf03ffe81b22000a4
:100ac4000cf0ddfeb0e3023a934201d101f072fb77
:100ad4000132934200d0a7e3834b1b78012b00d053
:100ae400a8e30022804b1a70824c242288492000fb
:100af4000cf0a9fd20000cf020fe0100200009f0fc
:100b040017f8774a53880133538020000cf015fe00
:100b140081b220000cf0b3fe86e3802212019342de
:100b240001d101f066fc0132934201d101f083fc52
:100b3400033a934200d077e36b4b1b78012b00d030
:100b440078e30022684b1a70724a654b5a8071e34d
:100b5400714a934201d101f0e7fd00d882e06f4a67
:100b6400934201d101f088fe00d9ebe0023a9342ae
:100b740001d101f024fe01d901f040fe013a934273
:100b840000d051e366495c3166480cf017f8002840
:100b940001d101f0eafd0222534b1a70614c20008e
:100ba4000cf0cbfd0200210053480cf04cfdc02298
:100bb4005200002120000cf0a1fd00225a4b1a60c3
:100bc400494b1b78022b01d101f0effd464b1b78fa
:100bd400032b01d101f0eefd544b1b68544a1268fb
:100be4009b1a544a934200d824e33d4b3d495a5c36
:100bf40001325a5400225a803b4b1a7082ac4e4b3d
:100c04000833220023cb23c223cb23c203cb03c24a
:100c14001b88138020000cf090fd81b220000cf0a2
:100c24002efe334b1033220003cb03c21b881380e8
:100c3400304920000cf098fb20000cf07efd81b2be
:100c440020000cf01cfe2c4c20000cf076fd81b230
:100c540020000cf014fec0225200002120000cf0f1
:100c64004dfde1e2043a934201d101f0dcfc0fd9dd
:100c740090221201934201d101f013fd01d901f038
:100c840032fdc022520000211b480cf037fdd1e296
:100c9400023a934201d101f0fdfb0132934200d0ac
:100ca400c2e2154c20000cf048fd81b220000cf08b
:100cb400e6fdc0225200002120000cf01ffd1f4b56
:100cc4001b881f4a934201d101f0a8fc0133044a56
:100cd40053800022044b1a70a6e2c046ff060000af
:100ce400340000202a030000700300202c5300006d
:100cf4002c500000b0070020b00a0020030a0000b6
:100d04000c070000ac520000060700002c52000043
:100d1400ac530000ff07000002090000ff090000b7
:100d2400ac4f0000300900205c1a0020701a00202b
:100d3400181a002088130000ac540000961a0020f2
:100d440001080000ea4a934201d101f09dfd01d956
:100d540001f09cfee74c1022e749743120000cf0ae
:100d640072fc20000cf0e9fc0100200008f0e0fe19
:100d7400a0221201e14b1a80fc32e14b5a80e14b74
:100d84001a68e14b1a6020000cf0d7fc81b22000f5
:100d94000cf075fd48e2dd4a934201d102f046f8b9
:100da40000d9b7e0f43a934201d101f0d0fd2ed935
:100db400d74a934201d101f007ff00d97ee0023afd
:100dc400934201d101f0a4fe01d901f0c5fec94c42
:100dd4000d22d049343120000cf035fc20000cf0f9
:100de400acfc0100200008f0a3fecb4ac34b1a80e0
:100df400f132c34b5a80c34b1a68c34b1a602000ac
:100e04000cf09bfc81b220000cf039fd0ce2043a9a
:100e1400934201d101f0f8fd27d9c04a934201d190
:100e240001f013fe01d901f071fdb24c1922bc4945
:100e34007c3120000cf007fc20000cf07efc01004b
:100e4400200008f075feb74aac4b1a80f532ac4b63
:100e54005a80ac4b1a68ac4b1a6020000cf06dfc45
:100e640081b220000cf00bfddee1023a934201d185
:100e740001f02bfd0132934200d0d5e19d4c1322a9
:100e8400a7494c3120000cf0defb20000cf055fc8f
:100e94000100200008f04cfea34a984b1a80f73258
:100ea400974b5a80974b1a68974b1a6020000cf0a6
:100eb40044fc81b220000cf0e2fcb5e19b4a934271
:100ec40001d101f0c3fe01d901f053ffed3a934281
:100ed40000d0a9e1874c0e228e49743120000cf019
:100ee400b2fb20000cf029fc0100200008f020fed9
:100ef4008f4a824b1a80ed32814b5a80814b1a689b
:100f0400814b1a6020000cf018fc81b220000cf018
:100f1400b6fc89e1874a934201d102f05cf866d9b4
:100f2400854a934201d102f063f900d94de1fd3abb
:100f3400934201d102f021f901d202f0e2f8013228
:100f4400934200d070e16b4cc0225200002120007b
:100f54000cf0d4fb794e310008311f2220000cf034
:100f640072fb20000cf0e9fb0019654b9846991db3
:100f740020220cf068fb02ad330028332a0083cb17
:100f840083c2196811609b889380290020000cf0ab
:100f9400ebf931003c31102269480cf054fb6849ec
:100fa40020000cf0e1f933004c33f26c02921b790f
:100fb4002b71290020000cf0d7f920000cf0bdfba8
:100fc4000100200008f0b4fdc02212015d4b1a801c
:100fd400594b424653804b4b1a685b4b1a602000b6
:100fe4000cf0abfb81b220000cf049fc1ce1fc3a94
:100ff400934201d101f063ff00d8bde0534a93420c
:1010040001d101f09dff01d201f07afff932934240
:1010140000d009e14e495c314e480bf0cffd002869
:1010240001d101f0aeff02224b4b1a70494c200053
:101034000cf083fb0200210048480cf004fbc022a2
:101044005200002120000cf059fb0022444b1a608e
:10105400414b1b78022b01d101f0b3ff3e4b1b78af
:10106400032b01d101f0b2ff264b1b683d4a1268e5
:101074009b1a3d4a934200d8dce0214b3b495a5c21
:1010840001325a5400225a80334b1a7082ac384bc6
:101094002033220023cb23c223cb23c21b7813701b
:1010a40020000cf04afb81b220000cf0e8fb314b2d
:1010b4001033220003cb03c21b8813800d49200088
:1010c4000cf052f920000cf038fb81b220000cf037
:1010d400d6fb224c20000cf030fb81b220000cf037
:1010e400cefbc0225200002120000cf007fb9be045
:1010f400010a0000b0070020ac500000921a002042
:1011040034000020701a0020201a0020fe0a00007b
:101114000e0a00002c5500000b0a0000080a00000b
:10112400ac540000070a0000050a0000fc0a000095
:101134000f0a0000fd0b0000fc0c0000ac56000080
:101144005b000020981a00202c1a0020030b0000da
:10115400ac4f00003009002070030020b00a0020ca
:101164005c1a00201c1a0020881300002a030000c7
:101174002c5600002c500000023a934201d101f099
:1011840093fe013293424fd1dc4c0d22dc49603195
:1011940020000cf058fa20000cf0cffa01002000d7
:1011a40008f0c6fcb0221201d64b1a80fc32d64b92
:1011b4005a80d64b1a68d64b1a6020000cf0bdfa40
:1011c40081b220000cf05bfb2ee0d24a934201d1a5
:1011d40002f0c6f801d202f09ff80132934223d103
:1011e4000022cd4b1a7001f0d1ffc44c0522cb492b
:1011f40020000cf028fa20000cf09ffa01002000d7
:1012040008f096fc80225200c54b1a80fc32be4b7b
:101214005a80be4b1a68c34b1a6020000cf08dfa3a
:1012240081b220000cf02bfbb74b1b78022b01d1b1
:1012340002f0d7f8c2239b009d4404bc9046f0bd45
:10124400ae4c1122b549103120000cf0fcf92000fd
:101254000cf073fa0100200008f06afc81225200ad
:10126400af4b1a80fa32a84b5a80a84b1a68ad4b80
:101274001a6020000cf061fa81b220000cf0fffa31
:10128400d2e79e4c0b22a549303120000cf0dbf94b
:1012940020000cf052fa0100200008f049fc8222e0
:1012a40052009f4b1a80f832974b5a80974b1a681a
:1012b4009c4b1a6020000cf040fa81b220000cf024
:1012c400defab1e78d4c092294493c3120000cf040
:1012d400baf920000cf031fa0100200008f028fcd3
:1012e4000622ff328e4b1a80f732874b5a80874b87
:1012f4001a688c4b1a6020000cf01ffa81b220008f
:101304000cf0bdfa90e77d4c12228449483120004c
:101314000cf099f920000cf010fa0100200008f0fc
:1013240007fc832252007e4b1a80f632764b5a8099
:10133400764b1a687b4b1a6020000cf0fef981b2e0
:1013440020000cf09cfa6fe77449643176480bf086
:1013540035fc002801d1fef719ff03226e4b1a70e9
:10136400714c20000cf0e9f9020021006f480cf0e8
:101374006af9c0225200002120000cf0bff90022bb
:101384006b4b1a60fef702fffe22ff325e4b5a805f
:1013940050e7ff2252005c4b5a804be7634c20001d
:1013a4000cf0cbf981b220000cf069fa5c4b1b887d
:1013b4008322520093420cd00133534a5380c022fb
:1013c4005200002159480cf099f90022524b1a702e
:1013d4002ae758491c3155480bf0f0fb01004a4cf0
:1013e400a01d053120220cf02ef9534b6380e6e753
:1013f400454b52495a5c01325a5400225a80464b9a
:101404001a7082ac4b4d2b002433220043cb43c2d1
:1014140043cb43c203cb03c220000cf08ef981b24c
:1014240020000cf02cfa2b001033220003cb03c253
:101434001b881380314920000bf096ff20000cf02c
:101444007cf981b220000cf01afa384c20000cf020
:1014540074f981b220000cf012fac022520000216b
:1014640020000cf04bf9dfe6c022520000212f4887
:101474000cf044f90022284b1a70dbe61f4c0c22b6
:101484002c49443120000cf0def820000cf055f912
:101494000100200008f04cfb294a2a4b1a80fb3239
:1014a400194b5a80194b1a68274b1a6020000cf00c
:1014b40044f981b220000cf0e2f9b5e60f4c0e229b
:1014c4001c49503120000cf0bef820000cf035f916
:1014d4000100200008f02cfb1c4a1a4b1a80fa3237
:1014e400094b5a80094b1a68174b1a6020000cf0fc
:1014f40024f981b220000cf0c2f995e6b00700206f
:10150400ac550000901a002034000020701a00200e
:101514001c1a0020fe0c000070030020ac4f0000d9
:10152400a01a00203c1a002030090020b00a002034
:101534005c1a00202c500000ff0100002a03000068
:10154400010200008c1a0020141a0020020200007c
:10155400eb4c0b22eb49603120000cf074f82000b6
:101564000cf0ebf80100200008f0e2fae64ae74b41
:101574001a80f932e64b5a80e64b1a68e64b1a6039
:1015840020000cf0daf881b220000cf078f94be678
:10159400e2495c31e2480bf011fb002861d00222e1
:1015a400e04b1a70de4c20000cf0c7f8020021005a
:1015b400dd480cf048f8c0225200002120000cf055
:1015c4009df80022d94b1a60d64b1b78022b65d0ac
:1015d400d44b1b78032b65d0ce4b1b68ce4a1268c4
:1015e4009b1ad34a934200d824e6c94bd1495a5c8a
:1015f40001325a5400225a80ca4b1a7082acc14d2f
:101604002b006c33220043cb43c243cb43c243cbb6
:1016140043c220000cf091f881b220000cf02ff9a5
:101624002b001033220003cb03c21b881380b44960
:1016340020000bf099fe20000cf07ff881b220000e
:101644000cf01df9b84c20000cf077f881b22000a2
:101654000cf015f9c0225200002120000cf04ef8c5
:10166400e2e5ae496431ae480bf0a8fa0028abd0ed
:101674000322ac4b1a70aa4c20000cf05ef8020056
:101684002100a9480bf0dfffc022520000212000f6
:101694000cf034f80022a54b1a6095e7a64a9c4b3f
:1016a4005a80c7e5a54a9a4b5a80c3e5a44a984b89
:1016b4005a80fef739ff964b9e495a5c01325a54c0
:1016c40000225a80974b1a7082ac9e4b1033220032
:1016d40023cb23c223cb23c203cb03c220000cf0b1
:1016e4002cf881b220000cf0caf8864b103322008b
:1016f40003cb03c21b881380814920000bf034fe06
:1017040020000cf01af881b220000cf0b8f8864cd6
:1017140020000cf012f881b220000cf0b0f8c022c6
:101724005200002120000bf0e9ff7de5744c0b22f0
:101734007a49303120000bf086ff20000bf0fdffca
:101744000100200008f0f4f9c02292007e4b1a80b8
:10175400fc326f4b5a806f4b1a687c4b1a60200026
:101764000bf0ebff81b220000cf089f85ce5644ccf
:1017740009226a493c3120000bf065ff20000bf080
:10178400dcff0100200008f0d3f9714a6e4b1a8087
:10179400fb325f4b5a805f4b1a686c4b1a60200017
:1017a4000bf0cbff81b220000cf069f83ce5544cff
:1017b4000c225449443120000bf045ff20000bf06b
:1017c400bcff0100200008f0b3f9624a5e4b1a80a6
:1017d400fa324f4b5a804f4b1a685c4b1a60200008
:1017e4000bf0abff81b220000cf049f81ce54b492b
:1017f40064314b480bf0e2f9002801d1fef7d7fd24
:101804000322484b1a70464c20000bf096ff02004e
:10181400210045480bf017ffc02252000021200090
:101824000bf06cff0022414b1a60fef7c0fd4a4ae0
:10183400374b5a80fee4494a354b5a80fae43a4c15
:1018440020000bf07aff81b220000cf018f8c022bf
:101854005200002120000bf051ff3b4b1b883d4af6
:10186400934206d001332a4a538000222d4b1a702a
:10187400dae43b4a264b5a80f7e7254b2d495a5c5c
:1018840001325a5400225a80264b1a7082ac2d4bd6
:101894005433220023cb23c223cb23c203cb03c262
:1018a40020000bf04aff81b220000bf0e8ff154b3b
:1018b4001033220003cb03c21b881380104920007d
:1018c4000bf052fd20000bf038ff81b220000bf02a
:1018d400d6ff154c20000bf030ff81b220000bf036
:1018e400ceffc0225200002120000bf007ff9be432
:1018f400c022520000210c480bf000ff9ae4c046bd
:10190400b00700202c500000030200008c1a0020b5
:1019140034000020701a0020141a0020ac4f00007c
:101924003009002070030020b00a00205c1a002057
:10193400881300002a030000fd020000fe020000dc
:10194400ff020000ac5000009a1a0020301a002058
:101954000103000002030000fd030000fe03000079
:10196400ff030000ee4c0b22ee49243120000bf063
:101974006afe20000bf0e1fe0100200008f0d8f818
:10198400e94aea4b1a80fb32e94b5a80e94b1a6860
:10199400e94b1a6020000bf0d0fe81b220000bf05e
:1019a4006eff41e4de4c0b22de49303120000bf0a7
:1019b4004afe20000bf0c1fe0100200008f0b8f838
:1019c400de4ada4b1a80fa32d94b5a80d94b1a685c
:1019d400d94b1a6020000bf0b0fe81b220000bf04e
:1019e4004eff21e4ce4c0922ce493c3120000bf0bd
:1019f4002afe20000bf0a1fe0100200008f098f858
:101a0400cf4aca4b1a80f932c94b5a80c94b1a685b
:101a1400c94b1a6020000bf090fe81b220000bf03d
:101a24002efffff701fcbe4c0c22c64944312000b6
:101a34000bf009fe20000bf080fe0100200008f0ee
:101a440077f8c14ab94b1a80f832b94b5a80b94b6e
:101a54001a68b94b1a6020000bf06ffe81b22000a7
:101a64000bf00dfffff7e0fbad4c0f22b74904313b
:101a740020000bf0e8fd20000bf05ffe01002000c9
:101a840008f056f8b24aa94b1a80f632a84b5a808d
:101a9400a84b1a68a84b1a6020000bf04efe81b2c6
:101aa40020000bf0ecfefff7bffb9e496431a94810
:101ab4000bf084f8002801d1fef7cffd0322a64bda
:101ac4001a70a44c20000bf038fe02002100a34839
:101ad4000bf0b9fdc0225200002120000bf00efed5
:101ae40000229f4b1a60fef7b8fd9e4a904b5a8025
:101af400fff7a0fb9c4a8e4b5a80fff79bfb974c49
:101b040020000bf01afe81b220000bf0b8fec022b8
:101b14005200002120000bf0f1fd844b1b888c4afd
:101b2400934207d00133824a538000228a4b1a70b1
:101b3400fff77afb8d4a7e4b5a80f6e77c4b8c4943
:101b44005a5c01325a5400225a80834b1a7082ac78
:101b54007e4b3433220023cb23c223cb23c21b88e6
:101b6400138020000bf0e9fd81b220000bf087fe0a
:101b7400744b1033220003cb03c21b8813806849c3
:101b840020000bf0f1fb20000bf0d7fd81b2200008
:101b94000bf075fe714c20000bf0cffd81b22000dc
:101ba4000bf06dfec0225200002120000bf0a6fdb8
:101bb400fff73afbc0225200002168480bf09efd5b
:101bc400fff738fb644b1b78012b01d0fff732fb86
:101bd4000022614b1a70524c1e225c497031200065
:101be4000bf031fd20000bf0a8fd0100200007f0f0
:101bf4009fff4f4a53880133538020000bf09dfd13
:101c040081b220000bf03bfefff70efb524b1b781a
:101c1400012b01d0fff70efb00224f4b1a70404cf2
:101c24001e225449103120000bf00dfd20000bf052
:101c340084fd0100200007f07bff3d4a53880133f7
:101c4400538020000bf079fd81b220000bf017fec9
:101c5400fff7eafa404b1b78012b01d0fff7eafab1
:101c640000223d4b1a702e4c0f2242493031200085
:101c74000bf0e9fc20000bf060fd0100200007f0f0
:101c840057ff3d4a2a4b5a8020000bf056fd81b283
:101c940020000bf0f4fdfff7c7fa214c1222214972
:101ca400483120000bf0cffc20000bf046fd010072
:101cb400200007f03dffc022d200304b1a80fc32d6
:101cc4001b4b5a801b4b1a682d4b1a6020000bf0db
:101cd40034fd81b220000bf0d2fdfff7a5fa104cc1
:101ce40030222449403120000bf0adfc20000bf0e1
:101cf40024fd0100200007f01bff224a1f4b1a801d
:101d0400fb320b4b5a800b4b1a681d4b1a60200098
:101d14000bf013fd81b220000bf0b1fdfff784fa44
:101d2400b0070020ac4f0000010400009e1a002000
:101d340034000020701a0020381a00200204000029
:101d4400030400002c500000040400002c51000087
:101d5400060400003009002070030020b00a0020af
:101d64005c1a0020fd040000fe040000ff040000d3
:101d74002a030000ac510000fe050000941a002064
:101d8400241a002001060000f14c2e22f149703182
:101d940020000bf058fc20000bf0cffc01002000c9
:101da40007f0c6feec4aed4b1a80fa32ec4b5a802f
:101db400ec4b1a68ec4b1a6020000bf0befc81b2ad
:101dc40020000bf05cfdfff72ffae14c1522e749e8
:101dd400203120000bf037fc20000bf0aefc01009a
:101de400200007f0a5fee24adc4b1a80f932dc4bf6
:101df4005a80dc4b1a68dc4b1a6020000bf09dfc07
:101e040081b220000bf03bfdfff70efad04c0f22fd
:101e1400d649483120000bf016fc20000bf08dfc55
:101e24000100200007f084fed24acc4b1a80f7321e
:101e3400cb4b5a80cb4b1a68cb4b1a6020000bf06b
:101e44007cfc81b220000bf01afdfff7edf9c04cc9
:101e54002622c6497c3120000bf0f5fb20000bf054
:101e64006cfc0100200007f063fec34abb4b1a80e0
:101e7400f532bb4b5a80bb4b1a68bb4b1a6020002f
:101e84000bf05bfc81b220000bf0f9fcfff7ccf9fe
:101e9400af4c1622b949243120000bf0d4fb2000aa
:101ea4000bf04bfc0100200007f042fec122d200df
:101eb400aa4b1a80f432aa4b5a80aa4b1a68aa4b2e
:101ec4001a6020000bf039fc81b220000bf0d7fc23
:101ed400fff7aaf99e4c1222a8493c3120000bf0ce
:101ee400b2fb20000bf029fc0100200007f020fecb
:101ef400a34a9a4b1a80f332994b5a80994b1a6829
:101f0400994b1a6020000bf018fc81b220000bf0f2
:101f1400b6fcfff789f99b4b1b78012b01d0fff727
:101f240089f90022974b1a70974a8d4b5a80fff714
:101f340081f996495c3196480af040fe002868d041
:101f44000222904b1a70924c20000bf0f6fb020018
:101f5400210090480bf077fbc022520000212000a2
:101f64000bf0ccfb00228c4b1a60864b1b78022ba7
:101f74006cd0844b1b78032b6dd07a4b1b687a4a48
:101f840012689b1a854a934201d8fff753f9744ba0
:101f940083495a5c01325a5400225a80794b1a7090
:101fa40082ac764b6033220023cb23c223cb23c2e3
:101fb40023cb23c203cb03c2198811809b7893706f
:101fc40020000bf0bafb81b220000bf058fc754bdb
:101fd4001033220003cb03c21b8813805c4920000a
:101fe4000bf0c2f920000bf0a8fb81b220000bf02b
:101ff40046fc684c20000bf0a0fb81b220000bf0e3
:102004003efcc0225200002120000bf077fbfff7ba
:102014000bf95e4964315e480af0d0fd0028a4d073
:102024000322584b1a705a4c20000bf086fb020016
:10203400210058480bf007fbc02252000021200069
:102044000bf05cfb0022544b1a608ee7564a444b5b
:102054005a80fff7eff8554a414b5a80fff7eaf8e8
:10206400c023db003d4a12889a421ad0494c200012
:102074000bf063fb81b220000bf001fcc022520084
:10208400002120000bf03afb344b1b883c4a93425e
:1020940013d00133324a538000223a4b1a70fff7af
:1020a400c3f840491c313b480af088fd411d2022f9
:1020b4002b4806300bf0c7fad8e7334a284b5a802e
:1020c400eae7c0225200002132480bf017fbfff769
:1020d400b1f81f4c30221f49403120000bf0b3faf5
:1020e40020000bf02afb0100200007f021fd1c4a10
:1020f40053880133538020000bf01ffb81b2200072
:102104000bf0bdfbfff790f81e4b1b78012b01d0a1
:10211400fff790f800221b4b1a700d4c1222244931
:102124003c3120000bf08ffa20000bf006fb01007d
:10213400200007f0fdfc0a4a538801335380200035
:102144000bf0fbfa81b220000bf099fbfff76cf85f
:10215400b0070020ac51000002060000941a0020d1
:1021640034000020701a0020241a00202c52000091
:10217400030600000506000007060000ac5200003c
:102184000906000070030020ff060000ac4f0000a9
:1021940030090020b00a00205c1a002088130000d7
:1021a4002a0300002c500000fd060000fe0600007b
:1021b4002c530000f04b1b78012b01d0fff73af8a9
:1021c4000022ed4b1a70ed4c2e22ed4950312000c7
:1021d4000bf039fa20000bf0b0fa0100200007f0f0
:1021e400a7fce84a53880233538020000bf0a5fa79
:1021f40081b220000bf043fbfff716f8de4b1b788f
:10220400012b01d0fff716f80022db4b1a70db4cd0
:102214001e22dd49243120000bf015fa20000bf0ba
:102224008cfa0100200007f083fcd64a538801335e
:10223400538020000bf081fa81b220000bf01ffbc9
:10224400fef7f2ffcc4b1b78012b01d0fef7f2ff17
:102254000022c94b1a70c94c0f22cc4948312000c6
:102264000bf0f1f920000bf068fa0100200007f0f0
:102274005ffcc44a53880133538020000bf05dfa9d
:1022840081b220000bf0fbfafef7ceffba4b1b78ad
:10229400012b01d0fef7ceff0022b74b1a70b74cca
:1022a4003d22b949443120000bf0cdf920000bf058
:1022b40044fa0100200007f03bfcb24a5388013382
:1022c400538020000bf039fa81b220000bf0d7faca
:1022d400fef7aaffa84b1b78012b01d0fef7aaff3b
:1022e4000022a54b1a70a54c2622a8497c31200057
:1022f4000bf0a9f920000bf020fa0100200007f0f0
:1023040017fca04a53880133538020000bf015fac0
:1023140081b220000bf0b3fafef786ff964b1b78d0
:10232400012b01d0fef786ff0022934b1a70934cc9
:1023340010229749043120000bf085f920000bf09e
:10234400fcf90100200007f0f3fb8e4a53880133a7
:10235400538020000bf0f1f981b220000bf08ffaca
:10236400fef762ff844b1b78012b01d0fef762ff5e
:102374000022814b1a70814c0f22854914312000b0
:102384000bf061f920000bf0d8f90100200007f0f0
:10239400cffb7c4a53880133538020000bf0cdf9e6
:1023a40081b220000bf06bfafef73eff724b1b78f4
:1023b400012b01d0fef73eff00226f4b1a706f4cc9
:1023c4000e227449503120000bf03df920000bf02f
:1023d400b4f90100200007f0abfb6f4a694b5a8047
:1023e40020000bf0aaf981b220000bf048fafef7a6
:1023f4001bff624c0f226649143120000bf023f9b5
:1024040020000bf09af90100200007f091fb8022d4
:102414001201624b1a80fc325a4b5a80604b1a6884
:10242400604b1a6020000bf088f981b220000bf099
:1024340026fafef7f9fe514c0f22554924312000ab
:102444000bf001f920000bf078f90100200007f0ef
:102454006ffb554a514b1a80fb324a4b5a80504b02
:102464001a68504b1a6020000bf067f981b2200003
:102474000bf005fafef7d8fe3f4b1b78012b01d079
:10248400fef7d8fe00223c4b1a70484a3d4b5a8056
:10249400fef7d0fe46495c3146480af08ffb00281f
:1024a40000d193e00222344b1a70424c20000bf00e
:1024b40044f90200210040480bf0c5f8c022520044
:1024c400002120000bf01af900223c4b1a602a4b21
:1024d4001b78022b00d197e0274b1b78032b00d1ec
:1024e40097e02f4b1b682f4a12689b1a344a934279
:1024f40001d8fef79ffe234b32495a5c01325a54ed
:1025040000225a801c4b1a7082ac214b34332200b7
:1025140023cb23c223cb23c223cb23c2196811604c
:102524001b79137120000bf008f981b220000bf025
:10253400a6f9254b1033220003cb03c21b8813805a
:102544000e4920000af010ff20000bf0f6f881b2cb
:1025540020000bf094f9184c20000bf0eef881b237
:1025640020000bf08cf9c0225200002120000bf057
:10257400c5f8fef759fec04670030020b0070020de
:102584002c53000034000020ac5300002c520000f7
:102594002c540000ac520000fe070000961a0020e4
:1025a400701a0020281a002001080000ff0800000b
:1025b400ac4f000030090020b00a00205c1a002053
:1025c400881300002a0300002c500000f0496431f5
:1025d400f0480af0f3fa002800d178e70322ee4b22
:1025e4001a70ec4c20000bf0a8f802002100eb4814
:1025f4000bf029f8c0225200002120000bf07ef8d5
:102604000022e74b1a6062e7e64ae74b5a80fef77e
:1026140011fee64ae44b5a80fef70cfee44ae24b14
:102624005a80fef756fbe04be2495a5c01325a5499
:1026340000225a80d84b1a7082acdf4b60332200e0
:1026440023cb23c223cb23c223cb23c21b781370f7
:1026540020000bf072f881b220000bf010f9d74b78
:102664001033220003cb03c21b881380d4492000fb
:102674000af07afe20000bf060f881b220000bf023
:10268400fef8c64c20000bf058f881b220000bf085
:10269400f6f8c0225200002120000bf02ff8fef7bc
:1026a400c3fdc74c1022c749743120000af0cbff88
:1026b40020000bf042f80100200007f039fa9022c4
:1026c4001201c14b1a80fc32b74b5a80bf4b1a68b7
:1026d400bf4b1a6020000bf030f881b220000bf0e1
:1026e400cef8fef7a1fdb64c0f22ba490431200002
:1026f4000af0a9ff20000bf020f80100200007f0e9
:1027040017fab54ab04b1a80fb32a74b5a80af4b2d
:102714001a68af4b1a6020000bf00ff881b220004a
:102724000bf0adf8fef780fda54c0e22a349503105
:1027340020000af088ff20000af0ffff01002000bb
:1027440007f0f6f9a54aa04b1a80fa32964b5a8044
:102754009e4b1a689e4b1a6020000af0eeff81b26d
:1027640020000bf08cf8fef75ffd8949643189483d
:102774000af024fa002801d1fef722fa0322864b3c
:102784001a70844c20000af0d8ff0200210083480c
:102794000af059ffc0225200002120000af0aeffc7
:1027a40000227f4b1a60fef70bfa8d4a7e4b5a804b
:1027b400fef740fd8b4a7c4b5a80fef73bfd774c7d
:1027c40020000af0baff81b220000bf058f8c022b2
:1027d4005200002120000af091ff7b4b1b887e4aa7
:1027e400934207d00133704a538000226a4b1a7017
:1027f400fef71afd7c4a6c4b5a80f6e76a4b6d492a
:102804005a5c01325a5400225a80634b1a7082accb
:10281400764b2c33220023cb23c223cb23c219684b
:1028240011609b88938020000af087ff81b220000a
:102834000bf025f8614b1033220003cb03c21b8835
:1028440013805f4920000af08ffd20000af075ff15
:1028540081b220000bf013f8504c20000af06dfff9
:1028640081b220000bf00bf8c0225200002120009e
:102874000af044fffef7d8fcc0225200002147486a
:102884000af03cfffef7d6fc4d4c0f2251490431af
:1028940020000af0d8fe20000af04fff01002000bb
:1028a40007f046f9524a534b1a80fb323e4b5a808a
:1028b400464b1a68504b1a6020000af03eff81b262
:1028c40020000af0dcfffef7affc3d4c0e223b4932
:1028d400503120000af0b7fe20000af02eff01005c
:1028e400200007f025f9454a424b1a80f8322e4b56
:1028f4005a80364b1a68404b1a6020000af01dffbc
:1029040081b220000af0bbfffef78efc2c4c0f2294
:102914002949143120000af096fe20000af00dff28
:102924000100200007f004f9354a324b1a80f332d3
:102934001d4b5a80254b1a682f4b1a6020000af051
:10294400fcfe81b220000af09afffef76dfc1c4cdd
:102954000f221949243120000af075fe20000af0e4
:10296400ecfe0100200007f0e3f8264a214b1a8010
:10297400f2320d4b5a80154b1a681f4b1a60200017
:102984000af0dbfe81b220000af079fffef74cfc6e
:10299400ac4f00003009002070030020b00a002072
:1029a4005c1a0020fd08000034000020fe0800002e
:1029b400ff0800002a0300002c5400002c500000e3
:1029c400b0070020ac5000008e1a0020701a0020be
:1029d400181a00202c51000001090000020900000f
:1029e400fd090000fe090000ff090000ac540000ce
:1029f400010a0000921a0020201a0020040a000094
:102a0400090a00000a0a0000e94c1922e949603168
:102a140020000af018fe20000af08ffe01002000ba
:102a240007f086f8e44ae54b1a80f632e44b5a8004
:102a3400e44b1a68e44b1a6020000af07efe81b26f
:102a440020000af01cfffef7effbd94c1922df49e6
:102a5400183120000af0f7fd20000af06efe010094
:102a6400200007f065f8da4ad44b1a80f432d44bcc
:102a74005a80d44b1a68d44b1a6020000af05dfec9
:102a840081b220000af0fbfefef7cefbc84c2e22da
:102a9400d049703120000af0d6fd20000af04dfe26
:102aa4000100200007f044f8cb4ac44b1a80fa32e4
:102ab400c34b5a80c34b1a68c34b1a6020000af0f8
:102ac4003cfe81b220000af0dafefef7adfbb84c02
:102ad4001222c2493c3120000af0b5fd20000af060
:102ae4002cfe0100200007f023f8bd4ab34b1a80e6
:102af400f932b34b5a80b34b1a68b34b1a602000b7
:102b04000af01bfe81b220000af0b9fefef78cfb2e
:102b1400a74c0e22b149503120000af094fd200048
:102b24000af00bfe0100200007f002f8ad4aa34ba7
:102b34001a80f032a24b5a80a24b1a68a24b1a6038
:102b440020000af0fafd81b220000af098fea6489f
:102b540009f07afefef768fb954c9c4d2900443140
:102b64001a2220000af06ffd20000af0e6fd001989
:102b7400934eb11d20220af066fd02a92b0060339a
:102b84000a0021cb21c21b78137020000af0ecfb51
:102b940020000af0d2fd0100200006f0c9ff934a8c
:102ba400864b1a80924b7380864b1a68864b1a6048
:102bb40020000af0c2fd81b220000af060fe8d48b8
:102bc40009f042fefef730fb794cc022520000218e
:102bd40020000af093fd02ae6422002130000af0c6
:102be4008dfd7a4d290044311a2220000af02bfd74
:102bf40020000af0a2fd0019714fb91d20220af02d
:102c040022fd2b006c33320003cb03c231002000c1
:102c14000af0aafb20000af090fd0100200006f053
:102c240087ff754a654b1a80714b7b80654b1a6828
:102c3400654b1a6020000af080fd81b220000af082
:102c44001efe6c4809f000fefef7eefa6b495c319b
:102c54006b4809f0b3ff002864d00222694b1a7054
:102c6400674c20000af069fd0200210066480af062
:102c7400eafcc0225200002120000af03ffd00229d
:102c8400624b1a605f4b1b78022b68d05d4b1b783c
:102c9400032b69d04b4b1b684b4a12689b1a5c4a46
:102ca400934201d8fef7c6fa454b5a495a5c0132a1
:102cb4005a5400225a80534b1a7082ac564b043338
:102cc400220023cb23c223cb23c223cb23c223cb77
:102cd40023c220000af031fd81b220000af0cffdaa
:102ce4004e4b1033220003cb03c21b8813803049a0
:102cf40020000af039fb20000af01ffd81b22000f9
:102d04000af0bdfd404c20000af017fd81b22000fe
:102d14000af0b5fdc0225200002120000af0eefcaa
:102d2400fef782fa35496431354809f047ff002837
:102d3400a8d00322334b1a70314c20000af0fdfc5a
:102d44000200210030480af07efcc022520000211b
:102d540020000af0d3fc00222c4b1a6092e7304a80
:102d6400174b5a80fef766fa2e4a154b5a80fef727
:102d740061fa254c20000af0e0fc81b220000af040
:102d84007efdc0225200002120000af0b7fc0b4b4c
:102d94001b88194a934207d00133094a5380002201
:102da400184b1a70fef740fa1f4a054b5a80f6e793
:102db400b0070020ac540000060a0000921a00205c
:102dc40034000020701a0020201a00202c55000026
:102dd400080a0000ac510000020a0000ac520000d6
:102de400030a00000c0a0000881300000d0a00000a
:102df400fc0a0000b80b00000e0a0000ac4f0000f3
:102e04003009002070030020b00a00205c1a002062
:102e1400102700002a030000ac5500002c500000cd
:102e2400fd0a0000fe0a0000ff0a0000db4bdc493b
:102e34005a5c01325a5400225a80da4b1a7082ac1e
:102e4400d94b3433220023cb23c223cb23c223cb3d
:102e540023c203cb03c220000af06ffc81b220001e
:102e64000af00dfdd14b1033220003cb03c21b88a3
:102e74001380cf4920000af077fa20000af05dfca5
:102e840081b220000af0fbfcca4c20000af055fc79
:102e940081b220000af0f3fcc0225200002120007d
:102ea4000af02cfcfef7c0f90021bd4bbb4ad154fb
:102eb400c0225200bf480af021fcfef7bbf9bc4c0b
:102ec4000d22b949703120000af0bdfb20000af040
:102ed40034fc0100200006f02bfeb74ab74b1a80e1
:102ee400fb32ae4b5a80b64b1a68b64b1a602000c0
:102ef4000af023fc81b220000af0c1fcfef794f929
:102f0400ab4c1122b04920000af09dfb20000af0ce
:102f140014fc0100200006f00bfeac4aa74b1a80fb
:102f2400fa329e4b5a80a64b1a68a64b1a602000b0
:102f34000af003fc81b220000af0a1fcfef774f948
:102f44009b4c0c22a049143120000af07cfb200089
:102f54000af0f3fb0100200006f0eafd9c4a974bbf
:102f64001a80f9328d4b5a80954b1a68954b1a602a
:102f740020000af0e2fb81b220000af080fcfef798
:102f840053f994496431944809f018fe002801d19a
:102f9400fef75ef80322834b1a708f4c20000af070
:102fa400ccfb0200210083480af04dfbc0225200f2
:102fb400002120000af0a2fb0022884b1a60fef7d1
:102fc40047f8874a754b5a80fef734f9854a734ba4
:102fd4005a80fef72ff9774c20000af0aefb81b23d
:102fe40020000af04cfc754b1b88794a934207d0a9
:102ff40001336a4a538000226a4b1a70fef714f9af
:1030040071493c316b4809f0d9fd00283ed00330aa
:103014000af030fc07f024f8041ccd239b005f4a1f
:10302400d05069494031634809f0c8fd002837d0c1
:1030340003300af01ffc07f013f8041cce239b0096
:10304400564ad050604948315a4809f0b7fd002823
:103054004ed0524ccd239b00e05808f075f8060082
:103064000f00ce239b00e05808f06ef80090019109
:1030740032003b0054494c3182a809f025fc82a857
:103084000af05bfb81b282a80af0f9fbc02252006d
:10309400002148480af032fb534a404b5a80aae7c1
:1030a4003e4f80231b069c466444cd239b00fc506a
:1030b400454d290044313f4e300009f07ffd033077
:1030c4000af0d8fb06f0ccff041cce239b00f8507a
:1030d40029004831300009f071fd0028b9d180235e
:1030e4001b069c466444ce239b002c4ad450b0e774
:1030f40080231b069c466444ce239b00274ad4505d
:10310400a7e7264b26495a5c01325a5400225a80ba
:10311400244b1a7082ac2c4b7033220023cb23c275
:1031240003cb03c21b78137020000af006fb81b2a4
:1031340020000af0a4fb1d4b1033220003cb03c272
:103144001b8813801a4920000af00ef920000af0a7
:10315400f4fa81b220000af092fb164c20000af027
:10316400ecfa81b220000af08afbc022520000214e
:1031740020000af0c3fafef757f8c02252000021db
:103184000c480af0bbfa194a044b5a80034b1b78cb
:10319400022b01d0fef74ef82ae1c046340000208d
:1031a4002a03000070030020ac5500002c500000de
:1031b400b0070020b00a0020010b0000901a002084
:1031c400701a00201c1a00202c560000020b00006c
:1031d400030b0000ac4f0000300900205c1a0020f3
:1031e400fd0b0000fe0b0000ff0b0000ff0c0000b5
:1031f400e6495c31e64809f0e1fc002865d002228a
:10320400e44b1a70e24c20000af097fa0200210005
:10321400e1480af018fac0225200002120000af006
:103224006dfa0022dd4b1a60da4b1b78022b69d051
:10323400d84b1b78032b6ad0d94b1b68d94a126828
:103244009b1ad94a934201d8fdf7f4ffd74bd849ca
:103254005a5c01325a54d74a5a800022cd4b1a7014
:1032640082acd54b5433220023cb23c223cb23c2bd
:1032740023cb23c21b88138020000af05efa81b29c
:1032840020000af0fcfacd4b1033220003cb03c21a
:103294001b881380ca4920000af066f820000af04f
:1032a4004cfa81b220000af0eafabb4c20000af082
:1032b40044fa81b220000af0e2fac022520000214e
:1032c40020000af01bfafdf7afffb0496431b048a3
:1032d40009f074fc0028a7d00322ae4b1a70ac4c42
:1032e40020000af02afa02002100ab480af0abf9e8
:1032f400c0225200002120000af000fa0022a74b4d
:103304001a6091e7af4aa94b5a80fdf793ffae4a82
:10331400a64b5a80fdf78eff0021a54ba34ad1543a
:103324009d4c20000af009fa81b220000af0a7faa5
:10333400a64b1b88c022120193420dd001339b4a35
:103344005380c0225200002193480af0d7f900228a
:10335400904b1a70fdf768ff964a944b5a80f0e739
:10336400924b93495a5c01325a54924a5a80002231
:10337400884b1a7082ac904b7c33220023cb23c23f
:1033840023cb23c219681160998891809b7993712a
:1033940020000af0d2f981b220000af070fa874bbb
:1033a4001033220003cb03c21b88138084492000fe
:1033b40009f0daff20000af0c0f981b220000af017
:1033c4005efa754c20000af0b8f981b220000af0c8
:1033d40056fac0225200002120000af08ff9fdf7ae
:1033e40023ff744b714a52889a4201d0fdf722ffa1
:1033f4006e4b9b88764a93425ad015d9754a9342ac
:1034040000d18be100d21be10132934201d0fdf7e0
:1034140011ffc022520000215f480af06ff9002218
:103424005c4b1a70fdf706fffc3a934225d001323b
:10343400934201d0fdf7fefe614c0e226649303105
:1034440020000af000f920000af077f901002000ba
:1034540006f06efb614a624b1a80fb32534b9a8032
:103464004f4b1a685f4b1a6020000af066f981b26c
:1034740020000af004fafdf7ddfe574c21001c3150
:10348400434809f09bfb0c30050021002c3109f066
:1034940095fb002801d1fdf7cdfe28000af0c6f9fe
:1034a400424bd422520098524c4a9a80fdf7c2fef5
:1034b40036495c31364809f081fb002800d197e099
:1034c4000222344b1a70324c20000af036f9020002
:1034d400210031480af0b7f8c02252000021200030
:1034e4000af00cf900222d4b1a602a4b1b78022b90
:1034f40000d19be0274b1b78032b00d19be0284b8a
:103504001b68384a12689b1a274a934201d8fdf770
:1035140091fe00221f4b1a70244b33495a5c01322e
:103524005a54324a9a8082ac2b4b4033220023cb2c
:1035340023c223cb23c21b88138020000af0fdf88a
:1035440081b220000af09bf91c4b1033220003cbfc
:1035540003c21b8813801a49200009f005ff2000cc
:103564000af0ebf881b220000af089f90a4c200035
:103574000af0e3f881b220000af081f9c022520077
:10358400002120000af0baf8fdf754feac4f000009
:103594003009002070030020b00a00205c1a0020cb
:1035a400701a00202c1a002010270000340000207c
:1035b4002a030000ff0c0000ac5600002c50000051
:1035c400b0070020fd0c0000fe0c0000981a00203b
:1035d400fc800000fe8000002c5700000180ffffeb
:1035e4009c1a0020341a00202b0300000080ffffe7
:1035f40069496431694809f0e1fa002800d174e7a7
:103604000322674b1a70654c20000af096f80200fa
:10361400210064480af017f8c0225200002120005b
:103624000af06cf80022604b1a605ee75f4a604b58
:103634009a80fdf7fffd5f4a5d4b9a80fdf7fafd26
:103644005d4c21005c31574d280009f0b7fa0600a3
:1036540021006431280009f0b1fa002e4bd0514cfe
:1036640055496c31200009f0a9fac51c53494c3165
:10367400200009f0a3fa524c421b2900200009f053
:10368400e2ffab3cff3c0122a823ff33e2540022bb
:103694008533ff33e25402ac474d2b0070332200d4
:1036a40003cb03c21b7813704549200009f05cfe6c
:1036b40020000af042f8201829002c31032209f0d6
:1036c400c2ff20000af039f881b220000af0d7f8ce
:1036d4003c4b1b883c4a934210d00133344a9380bc
:1036e400c022520000212f480af008f800222c4b77
:1036f4001a70fdf79ffd0028b1d1cce72c49d422e4
:1037040052008b5a013b9bb28b52002b02d12f4aa1
:103714008a80e5e72e4a264b9a80e1e70022204b77
:103724001a70234b2b495a5c01325a54274a9a8007
:1037340082ac214b7c33220023cb23c203cb03c2b4
:103744001b881380200009f0f8ff81b220000af0e2
:1037540096f8214b1033220003cb03c21b8813803d
:103764001e49200009f000fe200009f0e6ff81b2a6
:1037740020000af084f80b4c200009f0deff81b22f
:1037840020000af07cf8c02252000021200009f039
:10379400b5fffdf74ffdc046ac4f000030090020d7
:1037a40070030020b00a00205c1a0020fd80ffff97
:1037b40034000020fe80ffff2c570000ac560000b0
:1037c400de0100209c1a0020018000000080ffff21
:1037d4000180ffff2b0300002c500000b0070020e5
:020000040000fa
:1037e400f0b5a5b0079300230490079820930691a1
:1037f4001a920af08df80500006809f09eff002671
:103804000027069b05901f931f9b1a780d2a39d811
:10381400092a3dd2002a44d00023129300221f9c7f
:103824000c922378302b00d07ee06378582b02d0a2
:10383400782b00d06ee0079bb74a0293129b1fa916
:10384400019320ab0093049821ab03f0a1fd07255d
:103854000590054005d0062d2fd1002301341f9477
:1038640012931a9b002b02d01a9b1f9a1a60129b68
:10387400002b1dd0802332001b06fb1810001900fa
:1038840025b0f0bd2b2a05d02d2a14d0202ac3d16f
:103894000133b8e7002212925a1c1f925b78002b66
:1038a400bcd1069b1f93002312931a9b002bdbd1e0
:1038b40032003b00e2e70122ede7209a002a07d01c
:1038c400352122a809f01afa2099049809f014f96c
:1038d400681e042806d809f069fe0c0317190c00a9
:1038e400229e239f059b1b07bbd580231b061f43da
:1038f400b7e7239b894a8a491a40219b229e5b1879
:103904001b051a431700ede7864febe70126864fa8
:103914007642e7e71f9b5a1c1f925b78302bf9d045
:10392400002b9ed001230c931f9b0a221393002388
:103934000b930a9308931f9804782300303bd9b261
:10394400092926d9059a296809f0d3fb002832d021
:10395400002023008446089a07900592202219002b
:1039640091430a000021452a00d0a7e0059b0c9a48
:10397400034313438b4294d01f9b069301331f933d
:10398400069b5b782b2b71d00c002d2b74d101245a
:103994006de00899082909dc0a9951435b180a93d8
:1039a400089b0130013308931f90c4e70b995143de
:1039b4005b180b93f4e71f9a059b9446089a63449b
:1039c4001f931b78002a49d11000302b28d01a00ed
:1039d400313a082a46d8844600201f9a059013924b
:1039e400303b421c002b0fd00a219444059a101836
:1039f40082421bd1511c0591082a25dc0a220a990e
:103a04004a439b1800220a9310001f9b591c1f91c4
:103a14005b781a00303a092ae2d9012207929de71d
:103a24001f9b01305a1c1f925b78cee70132541e53
:103a3400082c03dc0a9c4c430a94d9e7102ad7dcef
:103a44000b9c4c430b94d3e7059900221029dbdc33
:103a54000a210b9841435b180b93d5e7089a8446d7
:103a64000592d6e7002294460592d6e70c00069b01
:103a740002331f93069b9b781a00303a092a60d8b8
:103a8400302b43d01a00313a0021082a16d8303b93
:103a94001f9d0e931f9b591c1f915b781a00303a8f
:103aa400092a47d94a1b214d2900082a03dc0e990b
:103ab400a94200dd2900002c00d04942059a002ac1
:103ac40063d10c9a104300d0cbe6079a002a00d0a9
:103ad400e7e64e2b3ed038dc492b00d0e1e6144c0f
:103ae4001fa8210009f0daf9002800d1d9e61f9bac
:103af400e11c013b1fa81f9309f0d0f9002802d153
:103b04001f9b01331f93074f0026aae61f9b5a1cd5
:103b14001f925b78b4e7c046d8d50000ffffefffe3
:103b2400330400000000f07fffffff7f1f4e000002
:103b34003cd800000a220e994a43d218303a0e9219
:103b4400a8e7069a00211f92b8e7692bc7d06e2b0d
:103b540000d0a6e68b491fa8093109f09ff9002877
:103b640000d19ee61f9b1b78282b0cd122aa8649e4
:103b74001fa805f0a5fd052805d1239b834a229e95
:103b84001a4317006de6824fbee76346cb1a0793cc
:103b9400089b002b01d1059b0893059c102c00dd8c
:103ba40010240a9808f086f906000f00092c15dd88
:103bb4002200784b093ad2009b181a685b6804f01b
:103bc4002ff806000b980f0008f074f902000b00a0
:103bd4003000390002f0b0fb06000f00059b0f2bec
:103be40039dc079b002b00d13be626dd162b0bdcd2
:103bf4006849db00c9183200086849683b0004f0d2
:103c04000ff806000f002ce62523059a9b1a079a45
:103c14009a4220dc0f24059b5e4de41ae1006918ea
:103c24003200086849683b0003f0faff079b1c1b3d
:103c3400e4002c1922686368e1e7079b16330adb6a
:103c4400079b3000da00534b39009b1a1a685b68f3
:103c540003f0fcf8d5e7059b1c1b079be418002c1c
:103c64006edd0f2323400ad04a49db00c918320015
:103c7400086849683b0003f0d3ff06000f000f23d8
:103c84009c4348d02633ff339c4221dd0024059415
:103c94000a94079422230026049a3c4f13600a9b3b
:103ca400b34200d1dde52099049808f025ff079977
:103cb400049808f021ff0599049808f01dff0a995b
:103cc400049808f019ff2100049808f015ffc8e5ce
:103cd4000023300039001d002411012c1edc002bb0
:103ce40001d006000f002c4bed00ff182b4b3200c7
:103cf4005d19286869683b0003f092ff234b0f00ad
:103d04000b40274906008b42c0d826498b4213d961
:103d14000126254f76420023069373e001221442c4
:103d240007d01e4aeb009b181a685b6803f078ff03
:103d3400012301356410d0e7d4239b04ff18eae77c
:103d4400002ce8d00f23644223400ad0114adb0040
:103d5400d31830001a685b68390003f077f806005e
:103d64000f002411d7d01f2c20dd002405940a94c1
:103d740007942223049a002613600a9b0027002b31
:103d840091d16ee53cd80000ecd500000000f07f36
:103d94000000f8ff20a900000000b0fcc8ce00001d
:103da4000000a07c0000907cffffef7f10232340e5
:103db400069301d06a230693300039000023ca4dcc
:103dc400002c00dd03e1002b01d006000f00069b50
:103dd400002b0fd06b237900490d3a005b1a002b9e
:103de40008dd1f2b00dc04e10026342b00dcf9e0a5
:103df400dc27bf04002200233000390007f03efe18
:103e04000028b2d10a9b089a00931399059b049841
:103e140007f0aefc0a90002800d137e7079b002486
:103e2400da175b421a40079b1592db43079adb17ac
:103e34001a40139205940a9b0498596807f0fcfef3
:103e44000790002800d125e70a9b0a991b690c31c9
:103e54009a1c92000c30089309f0f5fb22ab0193f5
:103e640021ab009332003b0004980e960f9706f0a6
:103e740081ff2090002800d10ce70121049809f06b
:103e8400ebfb0590002800d104e7219b002b00da0e
:103e9400b4e0159ad518139a94460699229a5b1a97
:103ea40036219b189148013b8a1a0121834200db89
:103eb400b0e0c01a121a1f2800dda4e081400023dc
:103ec40014910c93ab1808931300069a6344d31807
:103ed400089a0b932b00954200dd13000b9a934232
:103ee40000dd1300002b06dd089aed1ad21a0892a1
:103ef4000b9ad21a0b92159b002b17d01a00059916
:103f0400049807f081f80590002800d1c2e601006a
:103f1400209a049805f06bfc1b90002800d1b9e6a8
:103f24002099049808f0e8fd1b9b2093089b002b24
:103f340073dc139b002b79d10b9b002b08dd1a003b
:103f44000799049806f0beff0790002800d1a1e667
:103f5400002d08dd2a000599049806f0b3ff0590aa
:103f6400002800d196e6079a2099049806f072fc7e
:103f7400041e00d18ee60025c3680599c5600b9325
:103f840008f0d3fda8425bda0b9bab421bd1ae42d7
:103f940019d13b03ab4216d1d622554bd2043b4038
:103fa400934210d96369ab4202d12369012b0add24
:103fb40021000122049806f085ff0599040008f009
:103fc400b4fd00286cdc069b002b78d16be6012243
:103fd400144204d02a686b6803f022fe01236410a3
:103fe4000835ede60121203b494299400a4017007b
:103ff40000e7012252429a401640fbe6139a159daf
:10400400d21a944649e73b48c31a080098400c90da
:10401400149157e700230c93fae7089a209904981f
:1040240006f050ff2090002883d133e6139a0799b5
:10403400049806f0e9ff0790002800d07ce729e601
:10404400002800d095e00b9a3b03002a24d02a498b
:104054003a001b0b8b425ed1069b0138b44601002b
:10406400002b0ad0d425224bed043b40ab4204d8ac
:104074006b211b0dcb1a0100994061454bd11f4b9d
:104084009a4202d14b1c00d104e6194b00261a4077
:1040940080235b03d71896e7002b3cd1002e3ad13e
:1040a400069a134b002a2dd01a00d6213a40c9048f
:1040b4008a4227dcdc239b049a4200dc59e6104b3d
:1040c40030001193002310933900109a119b03f0d0
:1040d400a7fd06000f1e00d0e5e5002800d0e2e5ac
:1040e4002223049a1360dee550ce000002fcffff99
:1040f4000000f07fe2fbffffffff0f00ffffef7ff9
:10410400000050390126a94a3b409b18a84a764230
:104114001a43170057e70c9b002b13d03b4200d1e6
:1041240051e70b9b069a30003900002b0fd008f0a2
:104134005dfd02000b000e980f9902f0fdf80600d9
:104144000f0040e7149b334200d13ce7e9e708f055
:104154004dfd02000b000e980f9901f03dfb00226b
:10416400002306000f0007f089fc002800d000e6b9
:1041740029e70599200008f0fff880230022db05d9
:104184000890099107f08afc002875d00b9b002b3e
:1041940043d00022874b0c920d93864b0893864b99
:1041a4003b401493149a854b9a4200d0b1e00e9a86
:1041b4000f9b10921193824b3000ff18390008f0c6
:1041c4004ff902000b000c980d9903f029fd320001
:1041d4003b0002f0b1f8784a7a4b06000a409a4252
:1041e40062d9794b119a9a4203d1109a013200d1c3
:1041f40050e501261f0076422099049808f07cfcc3
:104204000799049808f078fc0599049808f074fc60
:104214002100049808f070fc0de6002e1dd13b032c
:1042240020d1089809990022624b07f02dfc002840
:104234001ed1089809990022644b03f0f1fc050093
:104244000891802212069446089b1c9563441d9392
:104254001c9a1d9b0c920d93a1e7012e02d1002ff5
:1042640000d186e500225a4b00250c920d9394e769
:10427400564b0b9d0893e4e7544b08980999002288
:1042840003f0cefc0b9b05000891002b07d1802383
:104294001b06cb1816901793169a179bdae70200a1
:1042a400089b16921793f7e7d4239b04cf18069b19
:1042b400002ba1d1404b149a0c973b409a429bd1be
:1042c4000899280007f090fd07f07cfc0b00020021
:1042d4000899280001f080fa0b9b08900991002ba3
:1042e40004d1002e02d10c9b1b0358d008980999c5
:1042f400384a394b07f0c8fb002800d0d3e40898ab
:104304000999364a314b07f0d3fb002800d173e7f3
:10431400c9e4069b002b2ad0d423149adb049a42c6
:1043240025d82f4a2f4b2800089907f0b7fb0028ff
:1043340016d02800089908f075fb002800d1012048
:1043440007f0b8fd0b9b05000891002b22d18023b8
:104354001b06cb1818901993189a199b0c920d935d
:10436400d6220d9bd2049b18149a9b1a0d930e9877
:104374000f990c9e0d9f08f073f802000b0030009b
:10438400390003f04dfc0e9a0f9b01f0d5ff060097
:104394000f008ce70200089b18921993dce70d4a82
:1043a400114b0898099907f06ffbaee70000f0ff86
:1043b400ffff0f000000f03f0000f07f0000e07fef
:1043c4000000b0fcffff9f7cffffef7f0000e03f99
:1043d4000000f0bf9535a094ffffdf3f35e5af3512
:0c43e4000000c0ffffffdf41ffffcf3fe4
:020000040000fa
:1043f000f0b516001f00446a9db00490259d0696f6
:104400000797002c08d1102009f0faf8049b586295
:10441000446084600460c460049b5b6a196800297e
:104420000bd05a68012393404a608b60049808f0cf
:1044300065fb0022049b5b6a1a60079b002b1cda59
:1044400001232b607b005b080793079cba4b22007b
:1044500019931a409a421cd1b84b249a1360069ab9
:10446000b74b002a03d1240301d100f08cfd269a1a
:10447000002a05d109330a9308e000232b60e4e702
:104480001a0009320a920c33269a13600a981db05a
:10449000f0bd069e079f002200233000390007f080
:1044a000effa051e0ed00123249a1360a44b1a00c4
:1044b0000d320a92269a002ae8d01a0026990e3266
:1044c0000a60e3e71aab01931bab009332003b0099
:1044d000049806f051fc630005905b0d00d17fe06d
:1044e0003a03984c120b14432100974a3000189558
:1044f0009e180022954b01f071f9954a954b03f0f7
:1045000091fb954a954b01f019ff040030000d0016
:1045100007f05afb924a934b03f084fb02000b0016
:104520002000290001f00aff04000d0007f05efce6
:104530000022039000232000290007f0a7fa00289a
:104540000ed0039807f040fb0b000200290020006a
:1045500007f096fa030058425841039b1b1a039335
:1045600001231693039b162b0fd87f49db00c91834
:1045700008684968069a079b07f09cfa00284bd008
:10458000039b013b0393002316931a9b9e1b00235e
:104590000b933300013b0c9304d501239b1b0b931e
:1045a00000230c93039b002b38db039a0c9b94464f
:1045b00063440c9300230f920893229b0125092b3f
:1045c00000d991e0052b02dd0025043b2293229bbc
:1045d000981e032800d991e008f0eaff828429762a
:1045e0001a9b1b9a9e18614bf218202a0fdd203b64
:1045f0000698f318d84040239b1a9c40204307f0ac
:104600005bfc01235a4c013e0919189371e72023e2
:1046100006989b1a9840f2e71690b6e70b9b039a10
:104620009b1a0b935342089300230f93c5e7012372
:104630000e93239b002b65dd1f000d93049a546a93
:104640000022626004221100143199425fd961682e
:10465000049807f0f3fa049b20605b6a1b680a93d6
:104660000e2f00d9fce0002d00d1f9e0069b079c3d
:1046700014931594039b002b00dc7de01a000f219e
:10468000394b0a40d2009b185c681b681093119448
:10469000039b02241d11eb060ad5364b0d401a6a06
:1046a0005b6a1498159902f0d3fb032406900791d6
:1046b000304e002d30d1109a119b0698079902f0c8
:1046c000c7fb0690079171e00123239a0e9394464d
:1046d000039b63445f1c0d933b1eafdc0123ade7de
:1046e0000023a5e70023f0e700230e952293013b6a
:1046f0000d931f000022122323929fe701230e93a4
:10470000023bf5e701230d931f001a00f4e76168ef
:1047100052000131616096e701231d4208d01098d4
:104720001199e4183268736803f07cfa10901191c3
:104730006d100836bde7c0460000f07f0f2700006f
:1047400020d700000000f03f01fcffff0000f83f11
:1047500061436f63a787d23fb3c8608b288ac63f87
:10476000fb799f501344d33f20a90000320400007e
:10477000000010fec8ce0000039b0224002b15d0c1
:10478000149815995d420f23c94a2b40db00d318ba
:104790001a685b6803f046fa002306900791c54e3d
:1047a0002d11002d00d08be0002b8ad1169b002b01
:1047b00000d191e0069a079b1092119310981199dd
:1047c0000022bd4b07f062f9002800d184e0002fe1
:1047d00000d181e00d9b002b3edd10981199039bc9
:1047e00000225e1eb54b03f01dfa069007910d9d49
:1047f0000134200007f0e8f9069a079b03f012fa4b
:104800000022af4b01f09afd12901391129b139c62
:10481000ac4a10931194139b9c181194002d5ed1f7
:10482000069807990022a84b00f0d8ff109a2300a1
:104830000690079107f03ef9002800d000e3a34856
:104840001399844661440b0006980799109a07f063
:104850001df9002800d0e7e2149b159c06930794ed
:104860001b9b002b00da56e1039a0e2a00dd52e171
:104870008f4bd2009b185c681b6808930994239b9c
:10488000002b00dbcee0002f00ddcbe000d0cee23d
:104890000898099900228c4b03f0c4f9069a079beb
:1048a00007f012f93e000897002800d0a3e20a9b07
:1048b0000a9a5d1c31231370039b013303939ee21c
:1048c0000122154205d0a4183268736803f0aaf9d2
:1048d00001236d10083664e7039e3d0089e70a9abc
:1048e000691e521917920e9a714bc900002a4ad0bc
:1048f0005b181a685b680020754902f0a9fa109ae3
:10490000119b00f06bff0a9b109011911293069877
:10491000079907f06bfa040007f056f902000b0044
:104920000698079900f05aff129b30345d1c1c70ea
:10493000109a119b0690079107f0a8f8002865d1fe
:10494000069a079b00205c4900f048ff109a119bd3
:1049500007f09cf8002800d0bde0179b9d4200d1d5
:104960007ae7109811990022544b03f05bf900226a
:104970001090119106980799504b03f053f9129536
:1049800006900791c3e7591808684968109a119b67
:1049900003f048f9109011910a9c179d0698079909
:1049a00007f024fa129007f00ff902000b000698a6
:1049b000079900f013ff129b069007913033237084
:1049c000179b01340022a34224d1414b1098119926
:1049d00001f0b4fc02000b000698079907f06af892
:1049e000002800d077e0109a119b0020384900f091
:1049f000f5fe02000b000698079907f047f800281b
:104a000000d129e76b1e1a78302a01d003963fe0c7
:104a10001d00f7e706980799284b03f003f9069065
:104a20000791bbe70a9e089a099b0698079902f02e
:104a30000ffa07f0dbf9040007f0c6f8089a099ba3
:104a400003f0f0f80b0002000698079900f0c6fe8c
:104a50002300303333700a9b751ceb1a9f424bd1f5
:104a600002000b0001f06afc06000f0002000b00c0
:104a70000898099907f00af800282bd10898099995
:104a800032003b0006f0fcff002801d0e30721d4f0
:104a90000599049808f032f800232b70039b249aa0
:104aa00001331360269b002b00d1efe41d60ede481
:104ab00020a90000c8ce00000000f03f0000244004
:104ac00000001c400000c0fc000014400000c07c3e
:104ad0000000e03f039e6b1e1a78392a06d10a9a1d
:104ae0009a4207d130231370130001361a7801322d
:104af0001a708be71d00eee70022cf4b03f092f80f
:104b000000220023069007912e0006f0b9ff00282e
:104b100000d188e7bce70e9a002a00d187e0229aec
:104b2000012a6edc189a002a67d0c44a9b18089d97
:104b30000b9c0b9a0121d2180b920c9a0498d31853
:104b40000c9308f08bfd0600002c0edd0c9b002b57
:104b50000bdd0c9a2300944200dd13000b9ae41a3b
:104b6000d21a0b920c9ad31a0c93089b002b1ed0ce
:104b70000e9b002b5fd0002d11dd31002a00049820
:104b800006f044fa059a01000600049804f031fe8c
:104b900005991090049807f0b1ff109b0593089bae
:104ba0005a1b04d00599049806f030fa05900121ab
:104bb000049808f053fd0f9b0890002b3ddd1a0070
:104bc0000100049806f022fa229b08900025012b90
:104bd0003bdc0025069bab4233d1079b1b03ab425a
:104be0002fd1199b079a13422bd00b9b0125013320
:104bf0000b930c9b01330c9323e036231a9a9b1ad8
:104c000095e7089b7d1eab4206db5d1b002f0bda90
:104c10000b9bdc1b00238ce7089b0895ea1a0f9b73
:104c200000259b180f93f1e70b9c3b0081e7089d43
:104c30000b9c0e9e88e7089ab4e7229b0025012b67
:104c4000c7dd0f9b0120002b0bd0089b089a1b6926
:104c50000f9303339b00d318586807f01bff2023e2
:104c6000181a0c9bc0181f23184000d1abe020235a
:104c70001b1a042b00dc9be01c23181a0b9b241826
:104c80001b180b930c9b1b180c930b9b002b05dd27
:104c90001a000599049806f017f905900c9b002b53
:104ca00005dd1a000899049806f00ef90890169b85
:104cb000002b00d189e00899059807f038ff0028fb
:104cc00000db82e0039b0a22013b0393059900234a
:104cd000049806f003ff0e9b0590002b00d15be1ca
:104ce000002331000a22049806f0f8fe0d9b06000e
:104cf000002b02dc229b022b6ddc002c05dd310039
:104d00002200049806f0e0f806003000002d11d0d3
:104d10007168049806f092ff3100040033690c3189
:104d20009a1c92000c3008f090fc0122210004989b
:104d300006f0caf80d9f0a9b013f0b93db19370061
:104d400006000f930899059805f086f839000d9034
:104d50000400059807f0ebfe32000e9008990498c5
:104d600005f07afd01230c93c36830340500002b55
:104d700004d10100059807f0dafe0c902900049890
:104d800007f0bcfe0c9b229a134300d089e001235c
:104d9000069a134200d084e0392c00d1a3e00e9b88
:104da000002b01dd0d9c31340b9b5d1c1c7027e03a
:104db000042b00d169e70b9a1c33d2180b920c9a82
:104dc000e418d31860e70300f5e7002f3cdc229bd2
:104dd000022b39dd0d970d9b002b0cd10899052274
:104de000049806f07bfe08900100059807f09ffeee
:104df000002800dd5be5239b0a9ddb43039300272e
:104e00000899049807f07afe002e00d140e6002fa2
:104e100005d0b74203d03900049807f06ffe310087
:104e2000049807f06bfe33e608952e00e3e70023b5
:104e300008931e00dfe7c046000024403304000052
:104e4000039608952e0032e50e9b0d97002b00d09f
:104e500053e70a9d0899059804f0feff0a9b30303d
:104e60000d9a287001350400eb1a9a4278dc151e61
:104e700000dc012500270a9b5d1905990122049891
:104e800006f022f80899059007f051fe00282fdc63
:104e900001d1e3072cd46b1e1a78302ab0d11d0043
:104ea000f9e70e9b002b07db1d00229b1d4326d13b
:104eb0000123069a134222d10c9b002b00dc73e7de
:104ec00005990122049805f0ffff0899059007f065
:104ed0002efe002804dc00d066e7e30700d463e779
:104ee000392c00d05ee70b9b0b9a5d1c39231370a5
:104ef0006b1e1a78392a3bd001321a7080e70b9b5f
:104f000001330d930c9b002b05dd392cebd00d9d4f
:104f100001340b9b4ae70b9b0f9a0d9d1c7093422b
:104f2000abd000230a220599049806f0d7fd002390
:104f300005900a2239000498b74206d106f0cefd4a
:104f4000070006000d9b0b93fce606f0c7fd310041
:104f5000070000230a22049806f0c0fd0600f1e7ce
:104f600000230a220599049806f0b8fd059071e720
:104f70000a9a9a4205d1039b01330393312313709c
:104f80003ee71d00b4e7269a0a930833002a01d0b1
:104f9000fff77afafff77afa0d9b002b00dd58e74e
:0c4fa000229b022b00dc54e715e7c04602
:020000040000fa
:104fac0041540d0a00000000415445300d0a000028
:104fbc0041542b434c434b3d225343222c320d0a7c
:104fcc000000000041542b4350494e3f0d0a000095
:104fdc0041542b434f50533f0d0a000041542b4377
:104fec0053510d0a0000000041542b5552444649c0
:104ffc004c453d225030220d0a0000004f4b0d0a4b
:10500c00000000004552524f520d0a005f41545fa0
:10501c004d4f44554c455f434f4e4e454354202015
:10502c004572726f725f74696d656f75740d0a00ed
:10503c0074785f4552524f523a0000002c33322c98
:10504c00000000005f41545f4d4f44554c455f4399
:10505c004f4e4e45435420204572726f725f6d6502
:10506c00670d0a0041542b43455245473f0d0a003a
:10507c0041542b434744434f4e543f0d0a0000000c
:10508c0041542b43434c4b3f0d0a00005f41545f8e
:10509c0034474c54455f6c696e6b5f63686b2020c2
:1050ac004572726f725f74696d656f75740d0a006d
:1050bc005f41545f34474c54455f6c696e6b5f6362
:1050cc00686b20204572726f725f6d65670d0a0008
:1050dc005f41545f4e4554574f524b5f53544154ac
:1050ec00555320204572726f725f74696d656f75d0
:1050fc00740d0a005f41545f4e4554574f524b5f3d
:10510c0053544154555320204572726f725f6d6534
:10511c00670d0a0041542b555053443d302c302c14
:10512c00300d0a0041542b55505344413d302c3323
:10513c000d0a00005f41545f52454c4f475f494e8a
:10514c0020204572726f725f74696d656f75740d96
:10515c000a0000005f41545f52454c4f475f494e77
:10516c0020204572726f725f6d65670d0a0000003a
:10517c0041542b555345434d4e473d302c302c223a
:10518c007063626361222c313335390d0a000000e3
:10519c0041542b555345434d4e473d302c312c2219
:1051ac007063626363222c313235370d0a000000c4
:1051bc0041542b555345434d4e473d302c322c22f8
:1051cc00706362706b222c313637350d0a0000008b
:1051dc0041542b555345434d4e473d330d0a00006a
:1051ec0041542b554d5154543d302c2239433439b4
:1051fc003044333242423230383333363031383245
:10520c00304531413732393843453232220d0a00ac
:10521c0041542b554d5154543d322c2273686172bc
:10522c00656170702e73746f6e65746563682e6340
:10523c006f6d2e7477222c383838330d0a0000002d
:10524c0041542b554d5154543d332c22222c38387b
:10525c0038330d0a0000000041542b554d51545465
:10526c003d362c310d0a000041542b554d515454f0
:10527c003d372c310d0a000041542b554d515454df
:10528c003d382c22736572617068696d2f6c617387
:10529c007477696c6c220d0a0000000041542b5588
:1052ac004d5154543d392c22556e72657175657390
:1052bc0074656420646973636f6e6e656374220d2c
:1052cc000a00000041542b554d5154543d31302ca3
:1052dc00333630302c32300d0a00000041542b553f
:1052ec004d5154543d31312c312c320d0a000000fb
:1052fc0041542b554d515454433d310d0a0000007f
:10530c005f41545f4d5154545f42494449525f418f
:10531c005554485f504152415f4c4f414420204509
:10532c0072726f725f74696d656f75740d0a00002f
:10533c005f41545f4d5154545f42494449525f415f
:10534c005554485f504152415f4c4f4144202045d9
:10535c0072726f725f6d65670d0a000041542b55b8
:10536c004d5154543d312c313838330d0a00000066
:10537c0041542b554d5154543d322c22736861725b
:10538c00656170702e73746f6e65746563682e63df
:10539c006f6d2e7477222c313838330d0a000000d3
:1053ac0041542b554d5154543d332c227878782e42
:1053bc007878782e7878782e787878222c38383857
:1053cc00330d0a0041542b554d5154543d342c226d
:1053dc0074657374222c226d717474313233220d06
:1053ec000a00000041542b554d5154543d382c2289
:1053fc00454d4f544f2f4445562f39433439304483
:10540c003332424232303833333630313832304531
:10541c00314137323938434532322f5550220d0a3b
:10542c000000000041542b554d5154543d31312c4a
:10543c00300d0a0041542b554d5154544e563d32ab
:10544c000d0a000041542b554d5154544e563d31cc
:10545c000d0a00005f41545f4d5154545f5041524e
:10546c00415f4f5045524154494f4e202045727276
:10547c006f725f74696d656f75740d0a00000000c2
:10548c005f41545f4d5154545f504152415f4f50f6
:10549c0045524154494f4e20204572726f725f6dd8
:1054ac0065670d0a000000005f41545f34475f4c94
:1054bc0054455f4c4f47494e20204572726f725fc6
:1054cc0074696d656f75740d0a0000005f41545f5f
:1054dc0034475f4c54455f4c4f47494e2020457232
:1054ec00726f725f6d65670d0a00000041542b5599
:1054fc005345435052463d322c302c310d0a00009e
:10550c0041542b555345435052463d322c332c229b
:10551c007063626361220d0a0000000041542b5538
:10552c005345435052463d322c352c2270636263f6
:10553c0063220d0a0000000041542b555345435083
:10554c0052463d322c362c22706362706b220d0a4f
:10555c000000000041542b554d5154543f200d0a6e
:10556c000000000041542b554d515454433d342cf4
:10557c00302c22454d4f544f2f4445562f000000e0
:10558c002f444f574e220d0a000000002f50554259
:10559c00220d0a0041542b554d515454433d300dae
:1055ac000a0000005f41545f4d5154545f4249441e
:1055bc0049525f415554485f4c4f47494e5f464cea
:1055cc004f5720204572726f725f74696d656f75ed
:1055dc00740d0a005f41545f4d5154545f4249446d
:1055ec0049525f415554485f4c4f47494e5f464cba
:1055fc004f5720204572726f725f6d65670d0a0000
:10560c0041542b5547524d433d310d0a00000000cb
:10561c0041542b5547494e443d310d0a00000000c2
:10562c0041542b554750533d312c392c36370d0aec
:10563c000000000041542b5547524d433f0d0a00ca
:10564c005f41545f47505320204572726f725f74f4
:10565c00696d656f75740d0a000000002c412c00fb
:10566c002c4e2c002c532c002c452c006c61746996
:10567c00747564653d20252e30366620206c6f6e67
:10568c006769747564653d252e3036660d0a000019
:10569c005f41545f47505320204572726f725f6dab
:1056ac0065670d0a0000000041542b554d515454b0
:1056bc00433d322c302c302c302c2022454d4f5475
:1056cc004f2f4445562f00002f5550222c227b2261
:1056dc004c494e4b434d44223a00000057696c6cc8
:1056ec0069616d77616e6774657374007d220d0a54
:1056fc00000000005f41545f4d5154545f54585f9b
:10570c0055505f444154413120204572726f725f95
:10571c0074696d656f75740d0a0000005f4d51540e
:10572c00545f54585f55505f4441544131202045db
:10573c0072726f725f6d65670d0a00002b55554dc7
:10574c00515454433a20362c000000000d0a00003e
:10575c0041542b554d515454433d360d0a00000015
:10576c005f41545f5245414420204572726f725f15
:10577c0074696d656f75740d0a0000002f444f57e6
:10578c004e222c002f505542222c00002c227b0044
:10579c00525820444154413a000000005f41545f8c
:1057ac005245414420204572726f725f6d65670de2
:1057bc000a0000004552524f523a4c54452034478f
:1057cc0020524553455420494e495449414c000000
:020000040000fa
:1057dc00f7b50d0009036c00ed0f0095490a450f54
:1057ec0029431d035e00c700d80f6b0a550f2b43ce
:1057fc00c14d640d760dd200ae4203d11d0084461e
:10580c00154302d101254540ac46009da01bac457b
:10581c0000d036e1002861dd002e25d11d00154396
:10582c0000d196e2461e002e19d1ba18ba42a441f4
:10583c00c91864420919170001240b0200d4bee0f8
:10584c00ad4b01349c4200d180e2ac487b08014056
:10585c00012007401f43c80707434908afe0a64d86
:10586c00a84209d1a44caae0a34dac4200d1a6e0b9
:10587c00802506002d042b43382e2adc1f2e17dc26
:10588c0020201d00801b8540ac4615000190f54082
:10589c00604605430198f3408240501e82411543f7
:1058ac00ed195b18bd428941494259182f00c4e7d4
:1058bc0030001d002038c5400020202e03d0402091
:1058cc00861bb34018000243501e8241154300232f
:1058dc00e6e71a4315006a1e9541f8e7002850d0f8
:1058ec00002c14d10c003c4300d128e2c443002c02
:1058fc0007d1bf189742a441c91864420919340052
:10590c009be77d48864209d119001700aae77a4c1b
:10591c00a642f9d04442802000040143382c2bdcf1
:10592c001f2c17dc2025281b01900800019de1404d
:10593c00a840844638006546e0402843019daf40ae
:10594c007d1eaf413843871897429241c918524285
:10595c008918d4e720000d002038c5402800002508
:10596c00202c03d040252c1ba1400d002f437d1e65
:10597c00af4138430021e6e70f433800471eb841da
:10598c00f8e7661c75056d0d012d00dd69e008005a
:10599c003843002c49d1002800d1d3e11800104322
:1059ac000dd0ba18ba42b641c9188023764289196b
:1059bc001b041700194202d00124504b19407b07dd
:1059cc0009d00f233b40042b05d03b1dbb42bf41ec
:1059dc007f42c9191f000b0206d5474b01349c426c
:1059ec0000d1c3e1454b1940434b4807ff083843ee
:1059fc00c9089c4206d103000b4300d1b9e18023b6
:105a0c001b031943002709033b0d1b05090b194305
:105a1c003b4b6405194064080c43009b6400d90798
:105a2c0064080c43210003b0f0bd002800d16be7e3
:105a3c001800104300d115e74807ff0807438020e2
:105a4c00c9080003014207d0dc08044204d1d20883
:105a5c005b0713431f002100780fc9000143ff00af
:105a6c0000e7254ca64200d16fe1ba18c918ba421a
:105a7c009b415b42cb18df0752081743590834008f
:105a8c009de700285ddd002e3cd11d00154300d1a3
:105a9c005fe1461e002e0ed1ba1a9742bf41c91ab9
