:020000040000fa
:10000000f07f00203dd200006bba00007fc30000eb
:1000100000000000000000000000000000000000e0
:10002000000000000000000000000000d7b0000049
:100030000000000000000000d7b0000035dd000027
:10004000d7b00000d7b00000d7b00000f5d1000055
:10005000d7b00000d7b00000d7b00000d7b0000084
:10006000d7b00000f58e0000d98c0000ad980000dc
:10007000d7b000000000000000000000157800006c
:1000800000000000d7b00000d7b00000d7b00000db
:10009000d7b00000d7b00000d7b00000d7b0000044
:1000a000d7b00000d7b00000d7b00000d7b0000034
:0c00b000d7b00000d7b00000d7b00000af
:020000040000fa
:1000bc00f8b5c046f8bc08bc9e467047b5d00000e9
:1000cc00f8b5c046f8bc08bc9e4670478dd0000001
:020000040000fa
:0800dc0060ad0000010000000e
:020000040000fa
:1000e400f0b5e64ca544e64b5b88e64a934201d161
:1000f40001f0f0ff01d900f06bfce34a934201d117
:1001040001f056fc00d93ce2e04a934201d101f0ef
:1001140005fa00d910e1fd3a934201d101f0d9f872
:1001240000d883e0da4a934201d101f083f900d97f
:10013400d9e0023a934201d101f016f901d901f054
:100144003df9013a934201d001f056f8d1495c31ae
:10015400d1480df0cffb002801d101f0dbf80222d9
:10016400ce4b1a70cc4c20000ef0adf902002100e9
:10017400cb480ef02ef980229200002120000ef0d0
:1001840083f90022c74b1a60c44b1b78022b01d1a0
:1001940001f0e0f8c14b1b78032b01d101f0dff82b
:1001a400c14b1b68c14a12689b1ac14a934201d8c9
:1001b40001f028f8b24bbf495a5c01325a5400226c
:1001c4005a80b64b1a7084acb24b6c33220023cbea
:1001d40023c223cb23c223cb23c220000ef073f906
:1001e40081b220000ef011fab34b1033220003cb7e
:1001f40003c21b881380b14920000df063ff200067
:100204000ef061f981b220000ef0fff9a44c200039
:100214000ef059f981b220000ef0f7f98022920015
:10022400002120000ef030f900f0e6ff043a93427a
:1002340001d100f0ebff2ad982225200934201d16e
:1002440001f005f801d901f023f89c4c0b229149e7
:10025400243120000ef0bdf820000ef034f9010026
:1002640020000af06bf90422ff32954b1a80f93210
:10027400834b5a808c4b1a688c4b1a6020000ef00a
:1002840022f981b220000ef0c0f900f0b5ff023a65
:10029400934201d100f091ff0132934201d000f06a
:1002a400abff864c07227b49083120000ef091f801
:1002b40020000ef008f9010020000af03ff90222a4
:1002c400ff327f4b1a80fb326d4b5a80764b1a6893
:1002d400764b1a6020000ef0f6f881b220000ef082
:1002e40094f900f089ff774a934201d101f0acf808
:1002f40001d901f0c9f8714c0522664920000ef0bd
:1003040068f820000ef0dff8010020000af016f96a
:10031400802292006c4b1a80fc32594b5a80624bfb
:100324001a686a4b1a6020000ef0cdf881b22000e2
:100334000ef06bf900f060ff654a934201d101f0c1
:100344001cfa00d883e0634a934201d101f0b6fa63
:1003540000d9ece0023a934201d101f056fa01d9f6
:1003640001f071fa013a934201d000f045ff494986
:100374005c3149480df0befa002801d101f01dfaa4
:100384000222464b1a70444c20000ef09cf80200e6
:10039400210043480ef01df8802292000021200025
:1003a4000ef072f800223f4b1a603c4b1b78022b74
:1003b40001d101f022fa394b1b78032b01d101f052
:1003c40020fa394b1b68444a12689b1a384a9342f4
:1003d40001d800f017ff2a4b36495a5c01325a54af
:1003e40000225a802d4b1a7084ac3c4b30332200cf
:1003f40023cb23c223cb23c223cb23c220000ef062
:1004040062f881b220000ef000f92b4b1033220069
:1004140003cb03c21b881380284920000df052fe31
:1004240020000ef050f881b220000ef0eef81c4cc3
:1004340020000ef048f881b220000ef0e6f8802289
:100444009200002120000ef01ff800f0d5fe043abf
:10045400934201d101f015f942d9c022920093428e
:1004640001d101f049f901d901f067f98022920024
:1004740000210b480ef008f800f0c4feecfcffff6e
:100484003400002001070000030400000302000000
:10049400ff010000f44f0000d00a00209004002067
:1004a400d00c0020841e0020981e0020601e002016
:1004b400881300002a04000074500000d0080020b3
:1004c400c81e002001020000b41e0020381e0020b7
:1004d40002030000ff030000541e0020f45000003b
:1004e400023a934201d101f039f80132934201d02a
:1004f40000f082fef04c20000df0e5ff81b22000f8
:100504000ef083f880229200002120000df0bcff41
:10051400ea4b1b88ea4a934201d101f0adf801335a
:10052400e84a53800022e84b1a7000f065fee74a5f
:10053400934201d101f0fcf901d901f019fae44c1c
:100544001122e449103120000df043ff20000df08a
:10055400baff0100200009f0f1ff8022d200de4b37
:100564001a80fc32d74b5a80dc4b1a68dc4b1a6079
:1005740020000df0a8ff81b220000ef046f800f034
:100584003bfed84a934201d101f0e4fb00d9fde0df
:10059400043aff3a934201d101f0f2fa29d9d24a3e
:1005a400934201d101f03cfb00d9d3e0023a9342db
:1005b40001d101f0edfa01d901f00efbc44c1e2269
:1005c400ca49503120000df004ff20000df07bffdc
:1005d4000100200009f0b2ffba4a53880133538066
:1005e40020000df070ff81b220000ef00ef800f034
:1005f40003fef93a934201d101f01cfa00d87ee0df
:10060400bb4a934201d101f060fa01d901f07cfaae
:10061400013a934201d000f0effdae495c31b54898
:100624000df068f9002801d101f025fa0222a64b49
:100634001a70b04c20000df046ff020021009e48c5
:100644000df0c7fe80229200002120000df01cff57
:100654000022a94b1a609c4b1b78022b01d101f09c
:100664002afa994b1b78032b01d101f029fa9b4bf1
:100674001b689b4a12689b1aa04a934201d800f057
:10068400c1fd904b9e495a5c01325a5400225a8053
:100694008d4b1a7084ac954b1433220023cb23c2a8
:1006a40023cb23c2196811609b88938020000df02e
:1006b4000aff81b220000df0a8ff924b10332200f4
:1006c40003cb03c21b881380814920000df0fafc80
:1006d40020000df0f8fe81b220000df096ff764c5c
:1006e40020000df0f0fe81b220000df08eff80227c
:1006f4009200002120000df0c7fe00f07dfd023abb
:10070400934201d101f075f90132934201d000f016
:1007140073fd6f4c10227c49743120000df059fe9a
:1007240020000df0d0fe0100200009f007ff774af9
:10073400694b1a80f732634b5a80684b1a68684bce
:100744001a6020000df0bffe81b220000df05dffa5
:1007540000f052fdc022d200934201d101f083fa8d
:1007640001d901f0a2fa023a934201d000f044fd0b
:10077400554b1b78012b01d000f044fd0022524b55
:100784001a70634a4f4b5a8000f03cfd614a934211
:1007940001d101f085fb34d95f4a934201d101f0c4
:1007a40045fc00d9cae0023a934201d101f099fb19
:1007b40001d901f0a4fbf13a934201d000f01cfdf1
:1007c400434c0e225549503120000df002fe20000a
:1007d4000df079fe0100200009f0b0fe504a514ba3
:1007e4001a80fb32374b5a803c4b1a684e4b1a60c6
:1007f40020000df068fe81b220000df006ff00f02d
:10080400fbfc043a934201d101f0e6fa28d9474aa5
:10081400934201d101f001fb01d901f01ffb2c4ce3
:1008240021224349583120000df0d3fd20000df062
:100834004afe0100200009f081fe3e4a394b1a802d
:10084400f632204b5a80254b1a68374b1a60200029
:100854000df039fe81b220000df0d7fe00f0ccfc83
:10086400023a934201d101f096fa0132934201d047
:1008740000f0c2fc164c0f222d49383120000df037
:10088400a8fd20000df01ffe0100200009f056fe17
:10089400294a244b1a80f8320a4b5a800f4b1a68a3
:1008a400214b1a6020000df00efe81b220000df0e5
:1008b400acfe00f0a1fcc046d00c0020b41e002009
:1008c4000302000034000020900400200104000012
:1008d400d0080020f44f0000c61e0020981e0020ff
:1008e4005c1e002002060000030500007451000095
:1008f400fd040000d00a0020841e0020881300009c
:100904002a04000074500000f450000005040000a4
:10091400ff05000009060000fd060000f452000077
:1009240001060000bc1e0020481e0020070600002f
:10093400745200000606000004060000e54a9342d3
:1009440001d101f0a4fb01d901f0a9fbe24be34979
:100954005a5c01325a5400225a80e14b1a7084ac1a
:10096400e04b1033220023cb23c223cb23c223cb5f
:1009740023c219681160998891809b799371200032
:100984000df0a1fd81b220000df03ffed64b1033d7
:10099400220003cb03c21b881380d44920000df02e
:1009a40091fb20000df08ffd81b220000df02dfe93
:1009b400cf4c20000df087fd81b220000df025fe04
:1009c40080229200002120000df05efd00f014fc56
:1009d400c84a934201d102f060f800d9d7e1093a3c
:1009e400ff3a934201d101f02dfd00d9ade0f43a74
:1009f400ff3a934201d101f053fc31d9be4a9342ec
:100a040001d101f0b9fc00d984e0023a934201d14a
:100a140001f06afc01d901f08bfcb14b1b78012b6e
:100a240001d000f0effb0022ad4b1a70af4c162240
:100a3400b249243120000df0ccfc20000df043fd20
:100a44000100200009f07afda34a53880133538042
:100a540020000df038fd81b220000df0d6fdcbe36f
:100a6400043a934201d101f0affb29d9a44a93423d
:100a740001d101f0cdfb01d901f0eefb984b1b78bd
:100a8400012b00d0bee30022954b1a70974c0f2225
:100a94009c49383120000df09cfc20000df013fd22
:100aa4000100200009f04afd8b4a5388013353802a
:100ab40020000df008fd81b220000df0a6fd9be39f
:100ac400023a934201d101f05bfb0132934200d020
:100ad40092e3834b1b78012b00d093e30022804bdd
:100ae4001a70824c2422884920000df072fc2000e8
:100af4000df0e9fc0100200009f020fd764a53883e
:100b04000133538020000df0defc81b220000df093
:100b14007cfd71e380221201934201d101f04ffc6c
:100b24000132934201d101f06cfc033a934200d0ac
:100b340062e36b4b1b78012b00d063e30022684b0c
:100b44001a70724a644b5a805ce3714a934201d131
:100b540001f0d0fd00d882e06e4a934201d101f049
:100b640071fe00d9eae0023a934201d101f00dfe90
:100b740001d901f029fe013a934200d03ce36649d1
:100b84005c3166480cf0b6fe002801d101f0d3fdbb
:100b94000222534b1a70614c20000df094fc0200a9
:100ba400210053480df015fc802292000021200002
:100bb4000df06afc00225a4b1a60494b1b78022b39
:100bc40001d101f0d8fd464b1b78032b01d101f074
:100bd400d7fd544b1b68544a12689b1a534a9342dc
:100be40000d80fe33c4b3d495a5c01325a54002271
:100bf4005a803b4b1a7084ac4d4b0833220023cbf4
:100c040023c223cb23c203cb03c21b88138020003f
:100c14000df059fc81b220000df0f7fc324b10337b
:100c2400220003cb03c21b881380304920000df03f
:100c340049fa20000df047fc81b220000df0e5fcdc
:100c44002b4c20000df03ffc81b220000df0ddfca8
:100c540080229200002120000df016fccce2043a20
:100c6400934201d101f0c5fc0fd9902212019342a5
:100c740001d101f0fcfc01d901f01bfd802292009e
:100c840000211b480df000fcbce2023a934201d162
:100c940001f0e6fb0132934200d0ade2144c200097
:100ca4000df011fc81b220000df0affc8022920007
:100cb400002120000df0e8fb1e4b1b881e4a9342c6
:100cc40001d101f091fc0133034a53800022044b0b
:100cd4001a7091e2ff060000340000202a0400008c
:100ce400900400207453000074500000d0080020c9
:100cf400d00c0020030a00000c070000f45200008e
:100d04000607000074520000f4530000ff070000bf
:100d140002090000ff090000f44f0000d00a00207f
:100d2400841e0020981e00203c1e00208813000012
:100d3400f4540000be1e002001080000e14a934262
:100d440001d101f087fd01d901f086fede4c1022ad
:100d5400de49743120000df03cfb20000df0b3fba4
:100d64000100200009f0eafba0221201d84b1a80ee
:100d7400fc32d84b5a80d84b1a68d84b1a602000e2
:100d84000df0a1fb81b220000df03ffc34e2d44a07
:100d9400934201d102f030f800d9b7e0f43a93421b
:100da40001d101f0bafd2ed9ce4a934201d101f00e
:100db400f1fe00d97ee0023a934201d101f08efea9
:100dc40001d901f0affec04c0d22c74934312000d7
:100dd4000df0fffa20000df076fb0100200009f071
:100de400adfbc24aba4b1a80f132ba4b5a80ba4ba5
:100df4001a68ba4b1a6020000df065fb81b220001e
:100e04000df003fcf8e1043a934201d101f0e2fd54
:100e140027d9b74a934201d101f0fdfd01d901f070
:100e24005bfda94c1922b3497c3120000df0d1faa5
:100e340020000df048fb0100200009f07ffbae4ac2
:100e4400a34b1a80f532a34b5a80a34b1a68a34bc9
:100e54001a6020000df037fb81b220000df0d5fba5
:100e6400cae1023a934201d101f015fd01329342e5
:100e740000d0c1e1944c13229e494c3120000df066
:100e8400a8fa20000df01ffb0100200009f056fb1a
:100e94009a4a8f4b1a80f7328e4b5a808e4b1a68bf
:100ea4008e4b1a6020000df00efb81b220000df075
:100eb400acfba1e1924a934201d101f0adfe01d90c
:100ec40001f03dffed3a934200d095e17e4c0e22b5
:100ed4008549743120000df07cfa20000df0f3fafe
:100ee4000100200009f02afb864a794b1a80ed3272
:100ef400784b5a80784b1a68784b1a6020000df0b2
:100f0400e2fa81b220000df080fb75e17e4a934243
:100f140001d102f046f853d97c4a934201d102f040
:100f240089f900d939e1fd3a934201d102f040f93f
:100f340001d202f001f90132934200d05ce1624c2b
:100f440080229200002120000df09efa704e3100a4
:100f54000c311f2220000df03cfa20000df0b3faf2
:100f640000195c4da91d20220df033fa3300f26afa
:100f74000492328e2c3304a98a809b798b712000d1
:100f84000df0a0f82900273120000df09bf8200077
:100f94000df099fa0100200009f0d0fac0221201e4
:100fa4005c4b1a80594b6b804b4b1a685a4b1a6036
:100fb40020000df088fa81b220000df026fb1be121
:100fc400fc3a934201d101f060ff00d8bce0534adf
:100fd400934201d101f09aff01d201f077fff93277
:100fe400934200d008e14e495c314e480cf082fc3b
:100ff400002801d101f0abff02224b4b1a70494c7f
:1010040020000df060fa0200210048480df0e1f9db
:1010140080229200002120000df036fa0022444b79
:101024001a60414b1b78022b01d101f0b0ff3e4bfb
:101034001b78032b01d101f0afff274b1b683d4afe
:1010440012689b1a3c4a934200d8dbe0214b3b498f
:101054005a5c01325a5400225a80334b1a7084acc1
:10106400374b2033220023cb23c223cb23c21b784c
:10107400137020000df027fa81b220000df0c5fa9c
:10108400304b1033220003cb03c21b8813800e495c
:1010940020000df017f820000df015fa81b22000a1
:1010a4000df0b3fa214c20000df00dfa81b22000ae
:1010b4000df0abfa80229200002120000df0e4f93b
:1010c4009ae0c046010a0000d0080020f450000055
:1010d400ba1e002034000020981e0020441e002068
:1010e400fe0a00000e0a0000745500000b0a0000fe
:1010f400080a0000f4540000070a0000050a000072
:10110400fc0a00000f0a0000fd0b0000fc0c0000ac
:10111400f4560000c01e0020501e0020030b0000e7
:10112400f44f0000d00a002090040020d00c0020ce
:10113400841e0020401e0020881300002a040000a2
:101144007456000074500000023a934201d101f039
:1011540091fe013293424fd1db4c0d22db496031c9
:1011640020000df036f920000df0adf9010020004b
:1011740009f0e4f9b0221201d54b1a80fc32d54ba8
:101184005a80d54b1a68d54b1a6020000df09bf994
:1011940081b220000df039fa2ee0d14a934201d1f8
:1011a40002f000f901d202f0d9f80132934223d1be
:1011b4000022cc4b1a7002f004f8c34c0522ca4931
:1011c40020000df006f920000df07df9010020004b
:1011d40009f0b4f980225200c44b1a80fc32bd4b92
:1011e4005a80bd4b1a68c24b1a6020000df06bf98f
:1011f40081b220000df009fab64b1b78022b01d105
:1012040002f011f9c5239b009d44f0bdae4c1122a0
:10121400b549103120000df0dcf820000df053f931
:101224000100200009f08af981225200af4b1a8094
:10123400fa32a84b5a80a84b1a68ad4b1a602000aa
:101244000df041f981b220000df0dff9d4e79e4c96
:101254000b22a549303120000df0bbf820000df021
:1012640032f90100200009f069f9822252009f4bf3
:101274001a80f832974b5a80974b1a689c4b1a6025
:1012840020000df020f981b220000df0bef9b3e783
:101294008d4c092294493c3120000df09af820002d
:1012a4000df011f90100200009f048f90622ff327f
:1012b4008e4b1a80f732874b5a80874b1a688c4bb7
:1012c4001a6020000df0fff881b220000df09df9a6
:1012d40092e77d4c12228449483120000df079f8c0
:1012e40020000df0f0f80100200009f027f9832216
:1012f40052007e4b1a80f632764b5a80764b1a682f
:101304007b4b1a6020000df0def881b220000df056
:101314007cf971e77449643176480cf0ebfa0028e3
:1013240001d1fef731ff03226e4b1a70714c20007d
:101334000df0c9f8020021006f480df04af8802230
:101344009200002120000df09ff800226b4b1a60e0
:10135400fef71afffe22ff325e4b5a8052e7ff224d
:1013640052005c4b5a804de7634c20000df0abf803
:1013740081b220000df049f95c4b1b888322520096
:1013840093420cd00133534a5380802292000021af
:1013940059480df079f80022524b1a702ce758493d
:1013a4001c3155480cf0a6fa01004a4ca01d053129
:1013b40020220df00ef8534b6380e6e7454b52496b
:1013c4005a5c01325a5400225a80464b1a7084ac3b
:1013d4004b4d2b002433220043cb43c243cb43c2a7
:1013e40003cb03c220000df06ef881b220000df093
:1013f4000cf92b001033220003cb03c21b8813808b
:10140400314920000cf05efe20000df05cf881b242
:1014140020000df0faf8384c20000df054f881b299
:1014240020000df0f2f880229200002120000df03f
:101434002bf8e1e68022920000212f480df024f8d9
:101444000022284b1a70dde61f4c0c222c49443133
:1014540020000cf0beff20000df035f80100200044
:1014640009f06cf8294a2a4b1a80fb32194b5a802e
:10147400194b1a68274b1a6020000df024f881b22a
:1014840020000df0c2f8b7e60f4c0e221c49503173
:1014940020000cf09eff20000df015f80100200044
:1014a40009f04cf81c4a1a4b1a80fa32094b5a803c
:1014b400094b1a68174b1a6020000df004f881b22a
:1014c40020000df0a2f897e6d0080020f4550000a3
:1014d400b81e002034000020981e0020401e00206a
:1014e400fe0c000090040020f44f0000c81e0020f1
:1014f400601e0020d00a0020d00c0020841e002092
:1015040074500000ff0100002a04000001020000e2
:10151400b41e0020381e002002020000eb4c0b22f7
:10152400eb49603120000cf054ff20000cf0cbff9d
:101534000100200009f002f8e64ae74b1a80f9326c
:10154400e64b5a80e64b1a68e64b1a6020000cf012
:10155400baff81b220000df058f84de6e2495c3143
:10156400e2480cf0c7f9002861d00222e04b1a705f
:10157400de4c20000cf0a7ff02002100dd480cf037
:1015840028ff80229200002120000cf07dff002221
:10159400d94b1a60d64b1b78022b65d0d44b1b78e1
:1015a400032b65d0ce4b1b68ce4a12689b1ad34ad4
:1015b400934200d826e6c94bd1495a5c01325a54a9
:1015c40000225a80ca4b1a7084acc14d2b006c3374
:1015d400220043cb43c243cb43c243cb43c220008c
:1015e4000cf071ff81b220000df00ff82b001033c6
:1015f400220003cb03c21b881380b44920000cf0e3
:1016040061fd20000cf05fff81b220000cf0fdffb3
:10161400b84c20000cf057ff81b220000cf0f5ff0d
:1016240080229200002120000cf02effe4e5ae4958
:101634006431ae480cf05ef90028abd00322ac4b09
:101644001a70aa4c20000cf03eff02002100a948a9
:101654000cf0bffe80229200002120000cf014ff49
:101664000022a54b1a6095e7a64a9c4b5a80c9e50f
:10167400a54a9a4b5a80c5e5a44a984b5a80fef76e
:1016840051ff964b9e495a5c01325a5400225a80ab
:10169400974b1a7084ac9e4b1033220023cb23c289
:1016a40023cb23c203cb03c220000cf00cff81b276
:1016b40020000cf0aaff864b1033220003cb03c298
:1016c4001b881380814920000cf0fcfc20000cf0e6
:1016d400fafe81b220000cf098ff864c20000cf03a
:1016e400f2fe81b220000cf090ff802292000021d3
:1016f40020000cf0c9fe7fe5744c0b227a4930318e
:1017040020000cf066fe20000cf0ddfe010020003d
:1017140008f014ffc02292007e4b1a80fc326f4bfb
:101724005a806f4b1a687c4b1a6020000cf0cbfe79
:1017340081b220000cf069ff5ee5644c09226a491d
:101744003c3120000cf045fe20000cf0bcfe0100f2
:10175400200008f0f3fe714a6e4b1a80fb325f4b97
:101764005a805f4b1a686c4b1a6020000cf0abfe79
:1017740081b220000cf049ff3ee5544c0c22544940
:10178400443120000cf025fe20000cf09cfe0100ea
:10179400200008f0d3fe624a5e4b1a80fa324f4ba7
:1017a4005a804f4b1a685c4b1a6020000cf08bfe79
:1017b40081b220000cf029ff1ee54b4964314b48ef
:1017c4000cf098f8002801d1fef7effd0322484bf6
:1017d4001a70464c20000cf076fe020021004548a9
:1017e4000cf0f7fd80229200002120000cf04cfe4a
:1017f4000022414b1a60fef7d8fd4a4a374b5a8003
:1018040000e5494a354b5a80fce43a4c20000cf080
:101814005afe81b220000cf0f8fe802292000021d2
:1018240020000cf031fe3b4b1b883d4a934206d00e
:1018340001332a4a538000222d4b1a70dce43b4ac0
:10184400264b5a80f7e7254b2d495a5c01325a54ee
:1018540000225a80264b1a7084ac2d4b543322003c
:1018640023cb23c223cb23c203cb03c220000cf01f
:101874002afe81b220000cf0c8fe154b1033220062
:1018840003cb03c21b881380104920000cf01afc00
:1018940020000cf018fe81b220000cf0b6fe154cae
:1018a40020000cf010fe81b220000cf0aefe80226d
:1018b4009200002120000cf0e7fd9de480229200bc
:1018c40000210c480cf0e0fd9ce4c046d008002048
:1018d4007450000003020000b41e002034000020f5
:1018e400981e0020381e0020f44f0000d00a00206b
:1018f40090040020d00c0020841e002088130000d7
:101904002a040000fd020000fe020000ff020000a5
:10191400f4500000c21e0020541e002001030000e9
:1019240002030000fd030000fe030000ff030000ab
:10193400ee4c0b22ee49243120000cf04afd20002d
:101944000cf0c1fd0100200008f0f8fde94aea4b63
:101954001a80fb32e94b5a80e94b1a68e94b1a604a
:1019640020000cf0b0fd81b220000cf04efe43e4e8
:10197400de4c0b22de49303120000cf02afd200021
:101984000cf0a1fd0100200008f0d8fdde4ada4b7e
:101994001a80fa32d94b5a80d94b1a68d94b1a603b
:1019a40020000cf090fd81b220000cf02efe23e408
:1019b400ce4c0922ce493c3120000cf00afd200017
:1019c4000cf081fd0100200008f0b8fdcf4aca4b9d
:1019d4001a80f932c94b5a80c94b1a68c94b1a602c
:1019e40020000cf070fd81b220000cf00efefff719
:1019f40003fcbe4c0c22c649443120000cf0e9fc27
:101a040020000cf060fd0100200008f097fdc14aa1
:101a1400b94b1a80f832b94b5a80b94b1a68b94b92
:101a24001a6020000cf04ffd81b220000cf0edfd97
:101a3400fff7e2fbad4c0f22b749043120000cf054
:101a4400c8fc20000cf03ffd0100200008f076fdea
:101a5400b24aa94b1a80f632a84b5a80a84b1a688e
:101a6400a84b1a6020000cf02efd81b220000cf06f
:101a7400ccfdfff7c1fb9e496431a9480bf03aff46
:101a8400002801d1fef7e7fd0322a64b1a70a44cef
:101a940020000cf018fd02002100a3480cf099fc72
:101aa40080229200002120000cf0eefc00229f4bcb
:101ab4001a60fef7d0fd9e4a904b5a80fff7a2fbb6
:101ac4009c4a8e4b5a80fff79dfb974c20000cf0ec
:101ad400fafc81b220000cf098fd802292000021d3
:101ae40020000cf0d1fc844b1b888c4a934207d015
:101af4000133824a538000228a4b1a70fff77cfb21
:101b04008d4a7e4b5a80f6e77c4b8c495a5c0132f5
:101b14005a5400225a80834b1a7084ac7e4b34335f
:101b2400220023cb23c223cb23c21b881380200093
:101b34000cf0c9fc81b220000cf067fd744b10332b
:101b4400220003cb03c21b881380684920000cf0d9
:101b5400b9fa20000cf0b7fc81b220000cf055fd5e
:101b6400714c20000cf0affc81b220000cf04dfd54
:101b740080229200002120000cf086fcfff73cfb41
:101b840080229200002168480cf07efcfff73afbab
:101b9400644b1b78012b01d0fff734fb0022614b0f
:101ba4001a70524c1e225c49703120000cf011fc5a
:101bb40020000cf088fc0100200008f0bffc4f4a14
:101bc40053880133538020000cf07dfc81b2200047
:101bd4000cf01bfdfff710fb524b1b78012b01d0bf
:101be400fff710fb00224f4b1a70404c1e22544941
:101bf400103120000cf0edfb20000cf064fc01001f
:101c0400200008f09bfc3d4a538801335380200098
:101c14000cf059fc81b220000cf0f7fcfff7ecfa51
:101c2400404b1b78012b01d0fff7ecfa00223d4b0f
:101c34001a702e4c0f224249303120000cf0c9fb9f
:101c440020000cf040fc0100200008f077fc3d4a25
:101c54002a4b5a8020000cf036fc81b220000cf094
:101c6400d4fcfff7c9fa214c122221494831200043
:101c74000cf0affb20000cf026fc0100200008f063
:101c84005dfcc022d200304b1a80fc321b4b5a80c0
:101c94001b4b1a682d4b1a6020000cf014fc81b207
:101ca40020000cf0b2fcfff7a7fa104c30222449b4
:101cb400403120000cf08dfb20000cf004fc0100ee
:101cc400200008f03bfc224a1f4b1a80fb320b4bce
:101cd4005a800b4b1a681d4b1a6020000cf0f3fb62
:101ce40081b220000cf091fcfff786fad0080020a6
:101cf400f44f000001040000c61e00203400002040
:101d0400981e00205c1e0020020400000304000052
:101d14007450000004040000745100000604000024
:101d2400d00a002090040020d00c0020841e002043
:101d3400fd040000fe040000ff0400002a0400006b
:101d4400f4510000fe050000bc1e0020481e0020c7
:101d540001060000f14c2e22f149703120000cf0f4
:101d640038fb20000cf0affb0100200008f0e6fb7c
:101d7400ec4aed4b1a80fa32ec4b5a80ec4b1a6861
:101d8400ec4b1a6020000cf09efb81b220000cf09a
:101d94003cfcfff731fae14c1522e74920312000e1
:101da4000cf017fb20000cf08efb0100200008f063
:101db400c5fbe24adc4b1a80f932dc4b5a80dc4b1f
:101dc4001a68dc4b1a6020000cf07dfb81b2200005
:101dd4000cf01bfcfff710fad04c0f22d649483107
:101de40020000cf0f6fa20000cf06dfb010020003e
:101df40008f0a4fbd24acc4b1a80f732cb4b5a8062
:101e0400cb4b1a68cb4b1a6020000cf05cfb81b200
:101e140020000cf0fafbfff7eff9c04c2622c6496c
:101e24007c3120000cf0d5fa20000cf04cfb0100b2
:101e3400200008f083fbc34abb4b1a80f532bb4b2e
:101e44005a80bb4b1a68bb4b1a6020000cf03bfb5a
:101e540081b220000cf0d9fbfff7cef9af4c16226b
:101e6400b949243120000cf0b4fa20000cf02bfb0b
:101e74000100200008f062fbc122d200aa4b1a80a4
:101e8400f432aa4b5a80aa4b1a68aa4b1a60200053
:101e94000cf019fb81b220000cf0b7fbfff7acf992
:101ea4009e4c1222a8493c3120000cf092fa2000ea
:101eb4000cf009fb0100200008f040fba34a9a4bf8
:101ec4001a80f332994b5a80994b1a68994b1a60cd
:101ed40020000cf0f8fa81b220000cf096fbfff71a
:101ee4008bf99b4b1b78012b01d0fff78bf9002258
:101ef400974b1a70974a8d4b5a80fff783f996498e
:101f04005c3196480bf0f6fc002868d00222904b16
:101f14001a70924c20000cf0d6fa0200210090486e
:101f24000cf057fa80229200002120000cf0acfa49
:101f340000228c4b1a60864b1b78022b6cd0844b8e
:101f44001b78032b6dd07a4b1b687a4a12689b1a54
:101f5400854a934201d8fff755f9744b83495a5c7b
:101f640001325a5400225a80794b1a7084ac764b51
:101f74006033220023cb23c223cb23c223cb23c22f
:101f840003cb03c2198811809b78937020000cf056
:101f94009afa81b220000cf038fb754b1033220002
:101fa40003cb03c21b8813805c4920000cf08af821
:101fb40020000cf088fa81b220000cf026fb684c5b
:101fc40020000cf080fa81b220000cf01efb80226d
:101fd4009200002120000cf057fafff70df95e493a
:101fe40064315e480bf086fc0028a4d00322584bd1
:101ff4001a705a4c20000cf066fa0200210058486e
:102004000cf0e7f980229200002120000cf03cfa49
:102014000022544b1a608ee7564a444b5a80fff70d
:10202400f1f8554a414b5a80fff7ecf8c023db0026
:102034003d4a12889a421ad0494c20000cf043fac7
:1020440081b220000cf0e1fa8022920000212000ed
:102054000cf01afa344b1b883c4a934213d00133d8
:10206400324a538000223a4b1a70fff7c5f84049b0
:102074001c313b480bf03efc411d20222b4806300e
:102084000cf0a7f9d8e7334a284b5a80eae78022b4
:102094009200002132480cf0f7f9fff7b3f81f4c17
:1020a40030221f49403120000cf093f920000cf03d
:1020b4000afa0100200008f041fa1c4a538801334f
:1020c400538020000cf0fff981b220000cf09dfa3f
:1020d400fff792f81e4b1b78012b01d0fff792f803
:1020e40000221b4b1a700d4c122224493c31200053
:1020f4000cf06ff920000cf0e6f90100200008f064
:102104001dfa0a4a53880133538020000cf0dbf98e
:1021140081b220000cf079fafff76ef8d0080020a5
:10212400f451000002060000bc1e00203400002010
:10213400981e0020481e0020745200000306000070
:102144000506000007060000f4520000090600001e
:1021540090040020ff060000f44f0000d00a002085
:10216400d00c0020841e0020881300002a040000e4
:1021740074500000fd060000fe06000074530000c9
:10218400f04b1b78012b01d0fff73cf80022ed4bfc
:102194001a70ed4c2e22ed49503120000cf019f943
:1021a40020000cf090f90100200008f0c7f9e84a7b
:1021b40053880233538020000cf085f981b220004b
:1021c4000cf023fafff718f8de4b1b78012b01d033
:1021d400fff718f80022db4b1a70db4c1e22dd4996
:1021e400243120000cf0f5f820000cf06cf901000b
:1021f400200008f0a3f9d64a538801335380200005
:102204000cf061f981b220000cf0fff9fef7f4ff45
:10221400cc4b1b78012b01d0fef7f4ff0022c94bf5
:102224001a70c94c0f22cc49483120000cf0d1f867
:1022340020000cf048f90100200008f07ff9c44a9e
:1022440053880133538020000cf03df981b2200003
:102254000cf0dbf9fef7d0ffba4b1b78012b01d051
:10226400fef7d0ff0022b74b1a70b74c3d22b94994
:10227400443120000cf0adf820000cf024f90100ea
:10228400200008f05bf9b24a5388013353802000e0
:102294000cf019f981b220000cf0b7f9fef7acff8d
:1022a400a84b1b78012b01d0fef7acff0022a54bf5
:1022b4001a70a54c2622a8497c3120000cf089f81c
:1022c40020000cf000f90100200008f037f9a04ac2
:1022d40053880133538020000cf0f5f881b22000bc
:1022e4000cf093f9fef788ff964b1b78012b01d075
:1022f400fef788ff0022934b1a70934c10229749e3
:10230400043120000cf065f820000cf0dcf801002a
:10231400200008f013f98e4a5388013353802000bb
:102324000cf0d1f881b220000cf06ff9fef764ffd5
:10233400844b1b78012b01d0fef764ff0022814bf4
:102344001a70814c0f228549143120000cf041f899
:1023540020000cf0b8f80100200008f0eff87c4ae7
:1023640053880133538020000cf0adf881b2200073
:102374000cf04bf9fef740ff724b1b78012b01d098
:10238400fef740ff00226f4b1a706f4c0e22744907
:10239400503120000cf01df820000cf094f80100de
:1023a400200008f0cbf86f4a694b5a8020000cf0eb
:1023b4008af881b220000cf028f9fef71dff624c68
:1023c4000f226649143120000cf003f820000cf0b1
:1023d4007af80100200008f0b1f880221201624b63
:1023e4001a80fc325a4b5a80604b1a68604b1a6050
:1023f40020000cf068f881b220000cf006f9fef71a
:10240400fbfe514c0f225549243120000bf0e1ff13
:1024140020000cf058f80100200008f08ff8554a0d
:10242400514b1a80fb324a4b5a80504b1a68504b1e
:102434001a6020000cf047f881b220000cf0e5f897
:10244400fef7dafe3f4b1b78012b01d0fef7dafed4
:1024540000223c4b1a70484a3d4b5a80fef7d2fe8c
:1024640046495c3146480bf045fa002800d193e018
:102474000222344b1a70424c20000cf024f8020063
:10248400210040480bf0a5ff80229200002120008b
:102494000bf0faff00223c4b1a602a4b1b78022bec
:1024a40000d197e0274b1b78032b00d197e02f4beb
:1024b4001b682f4a12689b1a344a934201d8fef7cc
:1024c400a1fe234b32495a5c01325a5400225a80ed
:1024d4001c4b1a7084ac214b3433220023cb23c20f
:1024e40023cb23c223cb23c2196811601b79137138
:1024f40020000bf0e8ff81b220000cf086f8254b99
:102504001033220003cb03c21b8813800e49200022
:102514000bf0d8fd20000bf0d6ff81b220000cf0a8
:1025240074f8184c20000bf0ceff81b220000cf0a0
:102534006cf880229200002120000bf0a5fffef72a
:102544005bfec04690040020d008002074530000b5
:1025540034000020f453000074520000745400004e
:10256400f4520000fe070000be1e0020981e00204a
:102574004c1e002001080000ff080000f44f00007a
:10258400d00a0020d00c0020841e002088130000f4
:102594002a04000074500000f0496431f0480bf044
:1025a400a9f9002800d178e70322ee4b1a70ec4c0d
:1025b40020000bf088ff02002100eb480bf009ff1c
:1025c40080229200002120000bf05eff0022e74be6
:1025d4001a6062e7e64ae74b5a80fef713fee64ac2
:1025e400e44b5a80fef70efee44ae24b5a80fef7b3
:1025f4006dfbe04be2495a5c01325a5400225a8086
:10260400d84b1a7084acdf4b6033220023cb23c237
:1026140023cb23c223cb23c21b78137020000bf0df
:1026240052ff81b220000bf0f0ffd74b1033220091
:1026340003cb03c21b881380d44920000bf042fd56
:1026440020000bf040ff81b220000bf0deffc64cef
:1026540020000bf038ff81b220000bf0d6ff80225f
:102664009200002120000bf00ffffef7c5fdc74cc0
:102674001022c749743120000bf0abfe20000bf090
:1026840022ff0100200007f059ff90221201c14be4
:102694001a80fc32b74b5a80bf4b1a68bf4b1a6082
:1026a40020000bf010ff81b220000bf0aefffef70c
:1026b400a3fdb64c0f22ba49043120000bf089fe69
:1026c40020000bf000ff0100200007f037ffb54a9f
:1026d400b04b1a80fb32a74b5a80af4b1a68af4bf2
:1026e4001a6020000bf0effe81b220000bf08dff8a
:1026f400fef782fda54c0e22a349503120000bf0b9
:1027040068fe20000bf0dffe0100200007f016ff3a
:10271400a54aa04b1a80fa32964b5a809e4b1a68ef
:102724009e4b1a6020000bf0cefe81b220000bf00d
:102734006cfffef761fd8949643189480bf0daf8d2
:10274400002801d1fef739fa0322864b1a70844c13
:1027540020000bf0b8fe0200210083480bf039fe84
:1027640080229200002120000bf08efe00227f4b7d
:102774001a60fef722fa8d4a7e4b5a80fef742fd1c
:102784008b4a7c4b5a80fef73dfd774c20000bf0c2
:102794009afe81b220000bf038ff802292000021c3
:1027a40020000bf071fe7b4b1b887e4a934207d0be
:1027b4000133704a538000226a4b1a70fef71cfde5
:1027c4007c4a6c4b5a80f6e76a4b6d495a5c01327d
:1027d4005a5400225a80634b1a7084ac764b2c33c3
:1027e400220023cb23c223cb23c2196811609b8808
:1027f400938020000bf067fe81b220000bf005fff0
:10280400614b1033220003cb03c21b8813805f4942
:1028140020000bf057fc20000bf055fe81b2200085
:102824000bf0f3fe504c20000bf04dfe81b2200063
:102834000bf0ebfe80229200002120000bf024fe1e
:10284400fef7dafc80229200002147480bf01cfec0
:10285400fef7d8fc4d4c0f225149043120000bf0f7
:10286400b8fd20000bf02ffe0100200007f066feeb
:10287400524a534b1a80fb323e4b5a80464b1a68dd
:10288400504b1a6020000bf01efe81b220000bf0aa
:10289400bcfefef7b1fc3d4c0e223b4950312000fa
:1028a4000bf097fd20000bf00efe0100200007f056
:1028b40045fe454a424b1a80f8322e4b5a80364b1d
:1028c4001a68404b1a6020000bf0fdfd81b2200015
:1028d4000bf09bfefef790fc2c4c0f22294914317f
:1028e40020000bf076fd20000bf0edfd0100200030
:1028f40007f024fe354a324b1a80f3321d4b5a80be
:10290400254b1a682f4b1a6020000bf0dcfd81b2b6
:1029140020000bf07afefef76ffc1c4c0f221949c5
:10292400243120000bf055fd20000bf0ccfd0100fc
:10293400200007f003fe264a214b1a80f2320d4b89
:102944005a80154b1a681f4b1a6020000bf0bbfd10
:1029540081b220000bf059fefef74efcf44f00004c
:10296400d00a002090040020d00c0020841e0020f7
:10297400fd08000034000020fe080000ff080000ed
:102984002a0400007454000074500000d008002091
:10299400f4500000b61e0020981e00203c1e0020ab
:1029a400745100000109000002090000fd09000043
:1029b400fe090000ff090000f4540000010a0000b1
:1029c400ba1e0020441e0020040a0000090a000068
:1029d4000a0a0000e94c1922e949603120000bf091
:1029e400f8fc20000bf06ffd0100200007f0a6fdad
:1029f400e44ae54b1a80f632e44b5a80e44b1a68f9
:102a0400e44b1a6020000bf05efd81b220000bf055
:102a1400fcfdfef7f1fbd94c1922df4918312000e7
:102a24000bf0d7fc20000bf04efd0100200007f056
:102a340085fdda4ad44b1a80f432d44b5a80d44bf5
:102a44001a68d44b1a6020000bf03dfd81b22000bf
:102a54000bf0dbfdfef7d0fbc84c2e22d0497031c1
:102a640020000bf0b6fc20000bf02dfd010020002f
:102a740007f064fdcb4ac44b1a80fa32c34b5a8028
:102a8400c34b1a68c34b1a6020000bf01cfd81b2c3
:102a940020000bf0bafdfef7affbb84c1222c2497e
:102aa4003c3120000bf095fc20000bf00cfd0100e4
:102ab400200007f043fdbd4ab34b1a80f932b34bf3
:102ac4005a80b34b1a68b34b1a6020000bf0fbfc1e
:102ad40081b220000bf099fdfef78efba74c0e226d
:102ae400b149503120000bf074fc20000bf0ebfcda
:102af4000100200007f022fdad4aa34b1a80f032fa
:102b0400a24b5a80a24b1a68a24b1a6020000bf009
:102b1400dafc81b220000bf078fda6480af0a4fc90
:102b2400fef76afb954c9c4d290044311a22200083
:102b34000bf04ffc20000bf0c6fc0019934eb11da6
:102b440020220bf046fc04a92b0060330a0021cba1
:102b540021c21b78137020000bf0b4fa20000bf094
:102b6400b2fc0100200007f0e9fc934a864b1a806e
:102b7400924b7380864b1a68864b1a6020000bf0c8
:102b8400a2fc81b220000bf040fd8d480af06cfce1
:102b9400fef732fb794c80229200002120000bf0da
:102ba40073fc04ae6422002130000bf06dfc7a4dfe
:102bb400290044311a2220000bf00bfc20000bf0fa
:102bc40082fc0019714fb91d20220bf002fc2b006e
:102bd4006c33320003cb03c2310020000bf072fad5
:102be40020000bf070fc0100200007f0a7fc754ae0
:102bf400654b1a80714b7b80654b1a68654b1a6074
:102c040020000bf060fc81b220000bf0fefc6c484d
:102c14000af02afcfef7f0fa6b495c316b480af0c3
:102c240069fe002864d00222694b1a70674c2000a8
:102c34000bf049fc0200210066480bf0cafb80221d
:102c44009200002120000bf01ffc0022624b1a604e
:102c54005f4b1b78022b68d05d4b1b78032b69d02c
:102c64004b4b1b684b4a12689b1a5c4a934201d82f
:102c7400fef7c8fa454b5a495a5c01325a540022ad
:102c84005a80534b1a7084ac564b0433220023cb26
:102c940023c223cb23c223cb23c223cb23c22000b2
:102ca4000bf011fc81b220000bf0affc4e4b103343
:102cb400220003cb03c21b881380304920000bf091
:102cc40001fa20000bf0fffb81b220000bf09dfc09
:102cd400404c20000bf0f7fb81b220000bf095fc78
:102ce40080229200002120000bf0cefbfef784fa34
:102cf4003549643135480af0fdfd0028a8d0032287
:102d0400334b1a70314c20000bf0ddfb0200210024
:102d140030480bf05efb80229200002120000bf073
:102d2400b3fb00222c4b1a6092e7304a174b5a80af
:102d3400fef768fa2e4a154b5a80fef763fa254cc3
:102d440020000bf0c0fb81b220000bf05efc80225f
:102d54009200002120000bf097fb0b4b1b88194ab3
:102d6400934207d00133094a53800022184b1a704a
:102d7400fef742fa1f4a054b5a80f6e7d0080020b6
:102d8400f4540000060a0000ba1e0020340000209b
:102d9400981e0020441e002074550000080a0000fc
:102da400f4510000020a0000f4520000030a00007b
:102db4000c0a0000881300000d0a0000fc0a000041
:102dc400b80b00000e0a0000f44f0000d00a0020e7
:102dd40090040020d00c0020841e00201027000046
:102de4002a040000f455000074500000fd0a00009d
:102df400fe0a0000ff0a0000f54bf6495a5c013256
:102e04005a5400225a80f44b1a7084acf34b343376
:102e1400220023cb23c223cb23c223cb23c203cb45
:102e240003c220000bf04ffb81b220000bf0edfb3e
:102e3400eb4b1033220003cb03c21b881380e949f8
:102e440020000bf03ff920000bf03dfb81b2200085
:102e54000bf0dbfbe44c20000bf035fb81b22000cf
:102e64000bf0d3fb80229200002120000bf00cfb1e
:102e7400fef7c2f90021d74bd54ad15480229200e3
:102e8400d9480bf001fbfef7bdf9d64c0d22d3490e
:102e9400703120000bf09dfa20000bf014fb0100b0
:102ea400200007f04bfbd14ad14b1a80fb32c84bb0
:102eb4005a80d04b1a68d04b1a6020000bf003fbe9
:102ec40081b220000bf0a1fbfef796f9c54c11224c
:102ed400ca4920000bf07dfa20000bf0f4fa01003f
:102ee400200007f02bfbc64ac14b1a80fa32b84bbc
:102ef4005a80c04b1a68c04b1a6020000bf0e3faea
:102f040081b220000bf081fbfef776f9b54c0c2260
:102f1400ba49143120000bf05cfa20000bf0d3fa0c
:102f24000100200007f00afbb64ab14b1a80f932bf
:102f3400a74b5a80af4b1a68af4b1a6020000bf0b6
:102f4400c2fa81b220000bf060fbfef755f9ae49de
:102f54006431ae480af0cefc002801d1fef761f8d6
:102f640003229d4b1a70a94c20000bf0acfa02000e
:102f740021009d480bf02dfa8022920000212000b0
:102f84000bf082fa0022a24b1a60fef74af8a14a1b
:102f94008f4b5a80fef736f99f4a8d4b5a80fef7c5
:102fa40031f9914c20000bf08efa81b220000bf025
:102fb4002cfb8f4b1b88934a934207d00133844ade
:102fc40053800022844b1a70fef716f98b493c316a
:102fd40085480af08ffc002800d180e003300bf014
:102fe4000ffb07f043fd051c844940317e480af07d
:102ff40081fc00287dd003300bf002fb07f036fd86
:10300400041c7e49483178480af074fc002800d139
:103014008de0824e1422002130000bf035fa142288
:1030240000217f480bf030fa7e49281c06f05cfb37
:103034000af098fa0300642701907b43180009f012
:10304400dbf8011c281c05f02bfa02907549201ca2
:1030540006f04afb0af086fa05004743380009f0f7
:10306400cbf8011c201c05f01bfa03906e49029852
:1030740006f03afb041c019809f0bef8011c201c60
:1030840005f088fb08f0e0fd02000b005b4f3c00fc
:103094004c34210030000af027fa6349039806f003
:1030a40023fb0190280009f0a7f8011c019805f002
:1030b40071fb08f0c9fd02000b00210058480af01a
:1030c40013fa39005431564b320084a80af00cfa32
:1030d40084a80bf0f8f981b284a80bf096fa802248
:1030e4009200002140480bf0cff9504a384b5a80e7
:1030f40067e780231b069c466544404e31004431fb
:10310400394f38000af0f6fb03300bf079fa07f078
:10311400adfc041c3100483138000af0ebfb0028f8
:1031240000d076e780231b069c46644471e7802325
:103134001b069c4664446ce7254b26495a5c0132c5
:103144005a5400225a80244b1a7084ac2b4b74338b
:10315400220023cb23c203cb03c21b7813702000ad
:103164000bf0b1f981b220000bf04ffa1c4b103375
:10317400220003cb03c21b8813801a4920000af0e3
:10318400a1ff20000bf09ff981b220000bf03dfa63
:10319400154c20000bf097f981b220000bf035faa2
:1031a40080229200002120000bf06ef9fef724f833
:1031b4008022920000210c480bf066f91c4a044b53
:1031c4005a80034b1b78022b01d0fef71bf831e128
:1031d400340000202a04000090040020f45500006c
:1031e40074500000d0080020d00c0020010b000017
:1031f400b81e0020981e0020401e002074560000b7
:10320400020b0000030b0000f44f0000d00a002062
:10321400841e0020fd0b0000fe0b0000680400204b
:103224007c0400200000c84200007042ff0b000034
:10323400ff0c0000e6495c31e6480af05bfb00281d
:1032440065d00222e44b1a70e24c20000bf03bf9eb
:1032540002002100e1480bf0bcf88022920000211a
:1032640020000bf011f90022dd4b1a60da4b1b78b9
:10327400022b69d0d84b1b78032b6ad0d94b1b681f
:10328400d94a12689b1ad94a934201d8fdf7baff6a
:10329400d74bd8495a5c01325a54d74a5a80002233
:1032a400cd4b1a7084acd54b3433220023cb23c2cc
:1032b40023cb23c223cb23c21b88138020000bf013
:1032c40002f981b220000bf0a0f9cd4b103322009b
:1032d40003cb03c21b881380ca4920000af0f2fe04
:1032e40020000bf0f0f881b220000bf08ef9bb4cfb
:1032f40020000bf0e8f881b220000bf086f9802260
:103304009200002120000bf0bff8fdf775ffb049d3
:103314006431b0480af0eefa0028a7d00322ae4b7d
:103324001a70ac4c20000bf0cef802002100ab4820
:103334000bf04ff880229200002120000bf0a4f83b
:103344000022a74b1a6091e7af4aa94b5a80fdf7b8
:1033540059ffae4aa64b5a80fdf754ff0021a54bf6
:10336400a34ad1549d4c20000bf0adf881b220004b
:103374000bf04bf9a64b1b88c022120193420dd0cf
:1033840001339b4a538080229200002193480bf022
:103394007bf80022904b1a70fdf72eff964a944b4f
:1033a4005a80f0e7924b93495a5c01325a54924a3c
:1033b4005a800022884b1a7084ac904b5c332200f4
:1033c40023cb23c223cb23c219681160998891802f
:1033d4009b79937120000bf076f881b220000bf0fa
:1033e40014f9874b1033220003cb03c21b881380cc
:1033f400844920000af066fe20000bf064f881b2d4
:1034040020000bf002f9754c20000bf05cf881b23f
:1034140020000bf0faf880229200002120000bf02b
:1034240033f8fdf7e9fe744b714a52889a4201d091
:10343400fdf7e8fe6e4b9b88764a934259d015d926
:10344400754a934200d18be100d21be101329342d1
:1034540001d0fdf7d7fe8022920000215f480bf0d7
:1034640013f800225c4b1a70fdf7ccfefc3a934231
:1034740025d00132934201d0fdf7c4fe614c0e22e7
:103484006649103120000af0a4ff20000bf01bf85d
:103494000100200007f052f8614a624b1a80fb32a7
:1034a400534b9a804f4b1a685f4b1a6020000bf005
:1034b4000af881b220000bf0a8f8fdf7a3fe4f49eb
:1034c4007c3144480af016fa0c30040053490c319c
:1034d4000af010fa002801d1fdf794fe20000bf049
:1034e4006bf8434b8a22920098524d4a9a80fdf71a
:1034f40089fe37495c3137480af0fcf9002800d1cd
:1035040098e00222344b1a70324c20000af0dbffa0
:103514000200210031480af05cff80229200002161
:1035240020000af0b1ff00222d4b1a602a4b1b78b1
:10353400022b00d19ce0284b1b78032b00d19ce08c
:10354400284b1b68384a12689b1a284a934201d8b0
:10355400fdf758fe0022204b1a70254b33495a5c64
:1035640001325a54324a9a8084ac2c4b20332200c4
:1035740023cb23c223cb23c21b88138020000af051
:10358400a2ff81b220000bf040f81d4b1033220043
:1035940003cb03c21b8813801a4920000af092fd52
:1035a40020000af090ff81b220000bf02ef80b4ca3
:1035b40020000af088ff81b220000bf026f8802258
:1035c4009200002120000af05ffffdf71bfec046b9
:1035d400f44f0000d00a002090040020d00c0020fa
:1035e400841e0020981e0020501e0020102700007a
:1035f400340000202a040000ff0c0000f4560000f0
:1036040074500000d0080020fd0c0000fe0c0000e7
:10361400c01e0020fc800000fe80000074570000e3
:103624000180ffffc41e0020581e00202b04000050
:103634000080ffff6949643169480af05bf900289a
:1036440000d173e70322674b1a70654c20000af01f
:103654003aff0200210064480af0bbfe8022920077
:10366400002120000af010ff0022604b1a605de781
:103674005f4a604b9a80fdf7c5fd5f4a5d4b9a80b7
:10368400fdf7c0fd5d4c21003c31574d28000af088
:1036940031f906002100443128000af02bf9002eec
:1036a4004bd0564c21004c314f4e30000af022f9d9
:1036b400c51c2100503130000af01cf9504c421b4b
:1036c400290020000af085fe4e4b9c4664440122ea
:1036d4004d4be25400224d4be25404ac474d2b00b9
:1036e4005833220003cb03c21b78137044492000d3
:1036f4000af0e8fc20000af0e6fe201829000c314c
:1037040003220af066fe20000af0ddfe81b22000ea
:103714000af07bff3e4b1b883e4a934210d0013394
:10372400344a93808022920000212f480af0acfe94
:1037340000222c4b1a70fdf765fd0028b1d1cce7af
:103744002c498a2292008b5a013b9bb28b52002b4c
:1037540002d1314a8a80e5e7304a264b9a80e1e774
:103764000022204b1a70234b28495a5c01325a54c8
:10377400294a9a8084ac214b6433220023cb23c290
:1037840003cb03c21b88138020000af09cfe81b285
:1037940020000af03aff224b1033220003cb03c26d
:1037a4001b8813801f4920000af08cfc20000af0bb
:1037b4008afe81b220000af028ff0b4c20000af098
:1037c40082fe81b220000af020ff802292000021b4
:1037d40020000af059fefdf715fdc046f44f000025
:1037e400d00a002090040020d00c0020841e002069
:1037f400fd80ffff34000020fe80ffff74570000af
:103804005e020020d6fdffff270200002b0400000b
:10381400c41e0020018000000080ffff0180ffff24
:0838240074500000d0080020e0
:020000040000fa
:10382c00f0b5a5b007930023049007982093069158
:10383c001a920af02dff050000680af040fe0026df
:10384c000027069b05901f931f9b1a780d2a39d8c9
:10385c00092a3dd2002a44d00023129300221f9c37
:10386c000c922378302b00d07ee06378582b02d05a
:10387c00782b00d06ee0079bb74a0293129b1fa9ce
:10388c00019320ab0093049821ab03f095fd072521
:10389c000590054005d0062d2fd1002301341f942f
:1038ac0012931a9b002b02d01a9b1f9a1a60129b20
:1038bc00002b1dd0802332001b06fb1810001900b2
:1038cc0025b0f0bd2b2a05d02d2a14d0202ac3d127
:1038dc000133b8e7002212925a1c1f925b78002b1e
:1038ec00bcd1069b1f93002312931a9b002bdbd198
:1038fc0032003b00e2e70122ede7209a002a07d0d4
:10390c00352122a80af092f82099049809f08cff2e
:10391c00681e042806d80af00bfd0c0317190c00be
:10392c00229e239f059b1b07bbd580231b061f4391
:10393c00b7e7239b894a8a491a40219b229e5b1830
:10394c001b051a431700ede7864febe70126864f60
:10395c007642e7e71f9b5a1c1f925b78302bf9d0fd
:10396c00002b9ed001230c931f9b0a221393002340
:10397c000b930a9308931f9804782300303bd9b219
:10398c00092926d9059a29680af05dfa002832d04f
:10399c00002023008446089a0790059220221900e3
:1039ac0091430a000021452a00d0a7e0059b0c9a00
:1039bc00034313438b4294d01f9b069301331f93f5
:1039cc00069b5b782b2b71d00c002d2b74d1012412
:1039dc006de00899082909dc0a9951435b180a9390
:1039ec00089b0130013308931f90c4e70b99514396
:1039fc005b180b93f4e71f9a059b9446089a634453
:103a0c001f931b78002a49d11000302b28d01a00a4
:103a1c00313a082a46d8844600201f9a0590139202
:103a2c00303b421c002b0fd00a219444059a1018ed
:103a3c0082421bd1511c0591082a25dc0a220a99c5
:103a4c004a439b1800220a9310001f9b591c1f917c
:103a5c005b781a00303a092ae2d9012207929de7d5
:103a6c001f9b01305a1c1f925b78cee70132541e0b
:103a7c00082c03dc0a9c4c430a94d9e7102ad7dca7
:103a8c000b9c4c430b94d3e7059900221029dbdceb
:103a9c000a210b9841435b180b93d5e7089a84468f
:103aac000592d6e7002294460592d6e70c00069bb9
:103abc0002331f93069b9b781a00303a092a60d870
:103acc00302b43d01a00313a0021082a16d8303b4b
:103adc001f9d0e931f9b591c1f915b781a00303a47
:103aec00092a47d94a1b214d2900082a03dc0e99c3
:103afc00a94200dd2900002c00d04942059a002a79
:103b0c0063d10c9a104300d0cbe6079a002a00d060
:103b1c00e7e64e2b3ed038dc492b00d0e1e6144cc6
:103b2c001fa821000af052f8002800d1d9e61f9beb
:103b3c00e11c013b1fa81f930af048f8002802d192
:103b4c001f9b01331f93074f0026aae61f9b5a1c8d
:103b5c001f925b78b4e7c04664e30000ffffefff01
:103b6c00330400000000f07fffffff7f1f4e0000ba
:103b7c00c8e500000a220e994a43d218303a0e9238
:103b8c00a8e7069a00211f92b8e7692bc7d06e2bc5
:103b9c0000d0a6e68b491fa809310af017f80028b7
:103bac0000d19ee61f9b1b78282b0cd122aa86499c
:103bbc001fa806f087fa052805d1239b834a229e6d
:103bcc001a4317006de6824fbee76346cb1a079384
:103bdc00089b002b01d1059b0893059c102c00dd44
:103bec0010240a9808f028ff06000f00092c15dd98
:103bfc002200784b093ad2009b181a685b6804f0d3
:103c0c0039fa06000b980f0008f016ff02000b00a3
:103c1c003000390002f0a4fb06000f00059b0f2baf
:103c2c0039dc079b002b00d13be626dd162b0bdc89
:103c3c006849db00c9183200086849683b0004f089
:103c4c0019fa06000f002ce62523059a9b1a079af1
:103c5c009a4220dc0f24059b5e4de41ae1006918a2
:103c6c003200086849683b0004f004fa079b1c1bef
:103c7c00e4002c1922686368e1e7079b16330adb22
:103c8c00079b3000da00534b39009b1a1a685b68ab
:103c9c0003f0f0f8d5e7059b1c1b079be418002ce0
:103cac006edd0f2323400ad04a49db00c9183200cd
:103cbc00086849683b0004f0ddf906000f000f238b
:103ccc009c4348d02633ff339c4221dd00240594cd
:103cdc000a94079422230026049a3c4f13600a9bf3
:103cec00b34200d1dde52099049809f09dfd0799b8
:103cfc00049809f099fd0599049809f095fd0a9925
:103d0c00049809f091fd2100049809f08dfdc8e597
:103d1c000023300039001d002411012c1edc002b67
:103d2c0001d006000f002c4bed00ff182b4b32007e
:103d3c005d19286869683b0004f09cf9234b0f005f
:103d4c000b40274906008b42c0d826498b4213d919
:103d5c000126254f76420023069373e0012214427c
:103d6c0007d01e4aeb009b181a685b6804f082f9b6
:103d7c00012301356410d0e7d4239b04ff18eae734
:103d8c00002ce8d00f23644223400ad0114adb00f8
:103d9c00d31830001a685b68390003f06bf8060022
:103dac000f002411d7d01f2c20dd002405940a9479
:103dbc0007942223049a002613600a9b0027002be9
:103dcc0091d16ee5c8e5000078e300000000f07fbb
:103ddc000000f8ff20b400000000b0fc00dc000084
:103dec000000a07c0000907cffffef7f102323409d
:103dfc00069301d06a230693300039000023ca4d84
:103e0c00002c00dd03e1002b01d006000f00069b07
:103e1c00002b0fd06b237900490d3a005b1a002b55
:103e2c0008dd1f2b00dc04e10026342b00dcf9e05c
:103e3c00dc27bf04002200233000390008f0e0fb2f
:103e4c000028b2d10a9b089a00931399059b0498f9
:103e5c0008f050fa0a90002800d137e7079b00249d
:103e6c00da175b421a40079b1592db43079adb1764
:103e7c001a40139205940a9b0498596808f09efc0a
:103e8c000790002800d125e70a9b0a991b690c3181
:103e9c009a1c92000c3008930af097fa22ab01930b
:103eac0021ab009332003b0004980e960f9707f05d
:103ebc00ddfc2090002800d10ce7012104980af0c9
:103ecc008dfa0590002800d104e7219b002b00da25
:103edc00b4e0159ad518139a94460699229a5b1a4f
:103eec0036219b189148013b8a1a0121834200db41
:103efc00b0e0c01a121a1f2800dda4e08140002394
:103f0c0014910c93ab1808931300069a6344d318be
:103f1c00089a0b932b00954200dd13000b9a9342e9
:103f2c0000dd1300002b06dd089aed1ad21a089258
:103f3c000b9ad21a0b92159b002b17d01a000599cd
:103f4c00049807f0ddfd0590002800d1c2e60100c1
:103f5c00209a049806f04df91b90002800d1b9e680
:103f6c002099049809f060fc1b9b2093089b002b64
:103f7c0073dc139b002b79d10b9b002b08dd1a00f3
:103f8c000799049807f01afd0790002800d1a1e6c4
:103f9c00002d08dd2a000599049807f00ffd059007
:103fac00002800d196e6079a2099049807f0ccf9de
:103fbc00041e00d18ee60025c3680599c5600b93dd
:103fcc0009f04bfca8425bda0b9bab421bd1ae4217
:103fdc0019d13b03ab4216d1d622554bd2043b40f0
:103fec00934210d96369ab4202d12369012b0adddc
:103ffc0021000122049807f0e1fc0599040009f066
:10400c002cfc00286cdc069b002b78d16be6012283
:10401c00144204d02a686b6804f02cf80123641055
:10402c000835ede60121203b494299400a40170032
:10403c0000e7012252429a401640fbe6139a159d66
:10404c00d21a944649e73b48c31a080098400c9092
:10405c00149157e700230c93fae7089a20990498d7
:10406c0007f0acfc2090002883d133e6139a079913
:10407c00049807f045fd0790002800d07ce729e65e
:10408c00002800d095e00b9a3b03002a24d02a4943
:10409c003a001b0b8b425ed1069b0138b4460100e3
:1040ac00002b0ad0d425224bed043b40ab4204d864
:1040bc006b211b0dcb1a0100994061454bd11f4b55
:1040cc009a4202d14b1c00d104e6194b00261a402f
:1040dc0080235b03d71896e7002b3cd1002e3ad1f6
:1040ec00069a134b002a2dd01a00d6213a40c90447
:1040fc008a4227dcdc239b049a4200dc59e6104bf5
:10410c0030001193002310933900109a119b03f087
:10411c00b1ff06000f1e00d0e5e5002800d0e2e557
:10412c002223049a1360dee588db000002fcffff0b
:10413c000000f07fe2fbffffffff0f00ffffef7fb0
:10414c00000050390126a94a3b409b18a84a7642e8
:10415c001a43170057e70c9b002b13d03b4200d19e
:10416c0051e70b9b069a30003900002b0fd009f059
:10417c00d5fb02000b000e980f9902f0f1f8060027
:10418c000f0040e7149b334200d13ce7e9e709f00c
:10419c00c5fb02000b000e980f9901f031fb0022b9
:1041ac00002306000f0008f02bfa002800d000e6d0
:1041bc0029e70599200008f0a3fe80230022db05e7
:1041cc000890099108f02cfa002875d00b9b002b55
:1041dc0043d00022874b0c920d93864b0893864b51
:1041ec003b401493149a854b9a4200d0b1e00e9a3e
:1041fc000f9b10921193824b3000ff18390008f07e
:10420c00f3fe02000b000c980d9903f033ff320003
:10421c003b0002f0a5f8784a7a4b06000a409a4215
:10422c0062d9794b119a9a4203d1109a013200d17a
:10423c0050e501261f0076422099049809f0f4fa03
:10424c000799049809f0f0fa0599049809f0ecfa2a
:10425c002100049809f0e8fa0de6002e1dd13b036d
:10426c0020d1089809990022624b08f0cff9002858
:10427c001ed1089809990022644b03f0fbfe05003f
:10428c000891802212069446089b1c9563441d934a
:10429c001c9a1d9b0c920d93a1e7012e02d1002fad
:1042ac0000d186e500225a4b00250c920d9394e721
:1042bc00564b0b9d0893e4e7544b08980999002240
:1042cc0003f0d8fe0b9b05000891002b07d180232f
:1042dc001b06cb1816901793169a179bdae7020059
:1042ec00089b16921793f7e7d4239b04cf18069bd1
:1042fc00002ba1d1404b149a0c973b409a429bd176
:10430c000899280008f032fb08f01efa0b00020096
:10431c000899280001f074fa0b9b08900991002b66
:10432c0004d1002e02d10c9b1b0358d0089809997c
:10433c00384a394b08f06af9002800d0d3e40898c1
:10434c000999364a314b08f075f9002800d173e70a
:10435c00c9e4069b002b2ad0d423149adb049a427e
:10436c0025d82f4a2f4b2800089908f059f9002816
:10437c0016d02800089909f0b9f9002800d10120bd
:10438c0008f05afb0b9b05000891002b22d18023cf
:10439c001b06cb1818901993189a199b0c920d9315
:1043ac00d6220d9bd2049b18149a9b1a0d930e982f
:1043bc000f990c9e0d9f08f017fe02000b003000a9
:1043cc00390003f057fe0e9a0f9b01f0c9ff06004f
:1043dc000f008ce70200089b18921993dce70d4a3a
:1043ec00114b0898099908f011f9aee70000f0ff9d
:1043fc00ffff0f000000f03f0000f07f0000e07fa7
:10440c000000b0fcffff9f7cffffef7f0000e03f50
:10441c000000f0bf9535a094ffffdf3f35e5af35c9
:0c442c000000c0ffffffdf41ffffcf3f9b
:020000040000fa
:10443800f0b516001f00446a9db00490259d0696ad
:104448000797002c08d1102009f09cff049b5862a4
:10445800446084600460c460049b5b6a1968002936
:104468000bd05a68012393404a608b60049809f086
:10447800ddf90022049b5b6a1a60079b002b1cda9b
:1044880001232b607b005b080793079cba4b220033
:1044980019931a409a421cd1b84b249a1360069a71
:1044a800b74b002a03d1240301d100f08cfd269ad2
:1044b800002a05d109330a9308e000232b60e4e7ba
:1044c8001a0009320a920c33269a13600a981db012
:1044d800f0bd069e079f002200233000390008f037
:1044e80091f8051e0ed00123249a1360a44b1a00dc
:1044f8000d320a92269a002ae8d01a0026990e321e
:104508000a60e3e71aab01931bab009332003b0050
:10451800049807f0adf9630005905b0d00d17fe0ca
:104528003a03984c120b14432100974a300018950f
:104538009e180022954b01f065f9954a954b03f0ba
:104548009bfd954a954b01f00dff040030000d00ce
:1045580008f0fcf8924a934b03f08efd02000b0022
:104568002000290001f0fefe04000d0008f000fa0a
:104578000022039000232000290008f049f80028b1
:104588000ed0039808f0e2f80b0002002900200082
:1045980008f038f8030058425841039b1b1a03934c
:1045a80001231693039b162b0fd87f49db00c918ec
:1045b80008684968069a079b08f03ef800284bd01f
:1045c800039b013b0393002316931a9b9e1b002316
:1045d8000b933300013b0c9304d501239b1b0b93d6
:1045e80000230c93039b002b38db039a0c9b944607
:1045f80063440c9300230f920893229b0125092bf7
:1046080000d991e0052b02dd0025043b2293229b73
:10461800981e032800d991e009f08cfe828429763f
:104628001a9b1b9a9e18614bf218202a0fdd203b1b
:104638000698f318d84040239b1a9c40204308f062
:10464800fdf901235a4c013e0919189371e72023fb
:1046580006989b1a9840f2e71690b6e70b9b039ac8
:104668009b1a0b935342089300230f93c5e701232a
:104678000e93239b002b65dd1f000d93049a546a4b
:104688000022626004221100143199425fd96168e6
:10469800049808f095f8049b20605b6a1b680a93ed
:1046a8000e2f00d9fce0002d00d1f9e0069b079cf5
:1046b80014931594039b002b00dc7de01a000f2156
:1046c800394b0a40d2009b185c681b681093119400
:1046d800039b02241d11eb060ad5364b0d401a6abe
:1046e8005b6a1498159902f0c7fb0324069007919a
:1046f800304e002d30d1109a119b0698079902f080
:10470800bbfb0690079171e00123239a0e93944610
:10471800039b63445f1c0d933b1eafdc0123ade795
:104728000023a5e70023f0e700230e952293013b21
:104738000d931f000022122323929fe701230e935b
:10474800023bf5e701230d931f001a00f4e76168a7
:1047580052000131616096e701231d4208d010988c
:104768001199e4183268736803f086fc109011916f
:104778006d100836bde7c0460000f07f0f27000027
:10478800ace400000000f03f01fcffff0000f83f30
:1047980061436f63a787d23fb3c8608b288ac63f3f
:1047a800fb799f501344d33f20b40000320400002b
:1047b800000010fe00dc0000039b0224002b15d033
:1047c800149815995d420f23c94a2b40db00d31872
:1047d8001a685b6803f050fc002306900791c54ee9
:1047e8002d11002d00d08be0002b8ad1169b002bb9
:1047f80000d191e0069a079b109211931098119995
:104808000022bd4b07f004ff002800d184e0002ff0
:1048180000d181e00d9b002b3edd10981199039b80
:1048280000225e1eb54b03f027fc069007910d9df4
:104838000134200007f08aff069a079b03f01cfc4e
:104848000022af4b01f08efd12901391129b139c26
:10485800ac4a10931194139b9c181194002d5ed1af
:10486800069807990022a84b00f0ccff109a230065
:104878000690079107f0e0fe002800d000e3a34867
:104888001399844661440b0006980799109a07f01b
:10489800bffe002800d0e7e2149b159c06930794fe
:1048a8001b9b002b00da56e1039a0e2a00dd52e129
:1048b8008f4bd2009b185c681b6808930994239b54
:1048c800002b00dbcee0002f00ddcbe000d0cee2f5
:1048d8000898099900228c4b03f0cefb069a079b97
:1048e80007f0b4fe3e000897002800d0a3e20a9b18
:1048f8000a9a5d1c31231370039b013303939ee2d4
:104908000122154205d0a4183268736803f0b4fb7d
:1049180001236d10083664e7039e3d0089e70a9a73
:10492800691e521917920e9a714bc900002a4ad073
:104938005b181a685b680020754902f09dfa109aa6
:10494800119b00f05fff0a9b10901191129306983b
:10495800079908f00df8040007f0f8fe02000b00b4
:104968000698079900f04eff129b30345d1c1c70ae
:10497800109a119b0690079107f04afe002865d10e
:10498800069a079b00205c4900f03cff109a119b97
:1049980007f03efe002800d0bde0179b9d4200d1e5
:1049a8007ae7109811990022544b03f065fb002216
:1049b8001090119106980799504b03f05dfb1295e2
:1049c80006900791c3e7591808684968109a119b1f
:1049d80003f052fb109011910a9c179d06980799b5
:1049e80007f0c6ff129007f0b1fe02000b00069810
:1049f800079900f007ff129b069007913033237048
:104a0800179b01340022a34224d1414b10981199dd
:104a180001f0a8fc02000b000698079907f00cfead
:104a2800002800d077e0109a119b0020384900f048
:104a3800e9fe02000b000698079907f0e9fd002837
:104a480000d129e76b1e1a78302a01d003963fe07f
:104a58001d00f7e706980799284b03f00dfb069011
:104a68000791bbe70a9e089a099b0698079902f0e6
:104a780003fa07f07dff040007f068fe089a099b17
:104a880003f0fafa0b0002000698079900f0bafe44
:104a98002300303333700a9b751ceb1a9f424bd1ad
:104aa80002000b0001f05efc06000f0002000b0084
:104ab8000898099907f0acfd00282bd108980999a6
:104ac80032003b0007f09efd002801d0e30721d407
:104ad8000599049808f0aafe00232b70039b249ada
:104ae80001331360269b002b00d1efe41d60ede439
:104af80020b4000000dc00000000f03f000024406b
:104b080000001c400000c0fc000014400000c07cf5
:104b18000000e03f039e6b1e1a78392a06d10a9ad4
:104b28009a4207d130231370130001361a780132e4
:104b38001a708be71d00eee70022cf4b03f09cfaba
:104b480000220023069007912e0007f05bfd002845
:104b580000d188e7bce70e9a002a00d187e0229aa4
:104b6800012a6edc189a002a67d0c44a9b18089d4f
:104b78000b9c0b9a0121d2180b920c9a0498d3180b
:104b88000c9309f02dfc0600002c0edd0c9b002b6d
:104b98000bdd0c9a2300944200dd13000b9ae41af3
:104ba800d21a0b920c9ad31a0c93089b002b1ed086
:104bb8000e9b002b5fd0002d11dd31002a000498d8
:104bc80006f0a0ff059a01000600049805f013fb03
:104bd80005991090049808f029fe109b0593089bee
:104be8005a1b04d00599049806f08cff0590012102
:104bf800049809f0f5fb0f9b0890002b3ddd1a0087
:104c08000100049806f07eff229b08900025012be6
:104c18003bdc0025069bab4233d1079b1b03ab4211
:104c28002fd1199b079a13422bd00b9b01250133d7
:104c38000b930c9b01330c9323e036231a9a9b1a8f
:104c480095e7089b7d1eab4206db5d1b002f0bda48
:104c58000b9bdc1b00238ce7089b0895ea1a0f9b2b
:104c680000259b180f93f1e70b9c3b0081e7089dfb
:104c78000b9c0e9e88e7089ab4e7229b0025012b1f
:104c8800c7dd0f9b0120002b0bd0089b089a1b69de
:104c98000f9303339b00d318586808f093fd202323
:104ca800181a0c9bc0181f23184000d1abe0202312
:104cb8001b1a042b00dc9be01c23181a0b9b2418de
:104cc8001b180b930c9b1b180c930b9b002b05dddf
:104cd8001a000599049806f073fe05900c9b002baa
:104ce80005dd1a000899049806f06afe0890169bdc
:104cf800002b00d189e00899059808f0b0fd00283c
:104d080000db82e0039b0a22013b03930599002301
:104d1800049807f0a5fc0e9b0590002b00d15be1e1
:104d2800002331000a22049807f09afc0d9b060024
:104d3800002b02dc229b022b6ddc002c05dd3100f0
:104d48002200049806f03cfe06003000002d11d029
:104d58007168049807f034fd3100040033690c31a0
:104d68009a1c92000c3009f032fb012221000498b1
:104d780006f026fe0d9f0a9b013f0b93db193700b7
:104d880006000f930899059805f068fd39000d9005
:104d98000400059808f063fd32000e900899049805
:104da80006f0d4fa01230c93c36830340500002bb5
:104db80004d10100059808f052fd0c9029000498d0
:104dc80008f034fd0c9b229a134300d089e001239c
:104dd800069a134200d084e0392c00d1a3e00e9b40
:104de800002b01dd0d9c31340b9b5d1c1c7027e0f2
:104df800042b00d169e70b9a1c33d2180b920c9a3a
:104e0800e418d31860e70300f5e7002f3cdc229b89
:104e1800022b39dd0d970d9b002b0cd1089905222b
:104e2800049807f01dfc08900100059808f017fd8c
:104e3800002800dd5be5239b0a9ddb4303930027e5
:104e48000899049808f0f2fc002e00d140e6002fe3
:104e580005d0b74203d03900049808f0e7fc3100c8
:104e6800049808f0e3fc33e608952e00e3e70023f6
:104e780008931e00dfe7c04600002440330400000a
:104e8800039608952e0032e50e9b0d97002b00d057
:104e980053e70a9d0899059805f0e0fc0a9b303015
:104ea8000d9a287001350400eb1a9a4278dc151e19
:104eb80000dc012500270a9b5d1905990122049849
:104ec80006f07efd0899059008f0c9fc00282fdc43
:104ed80001d1e3072cd46b1e1a78302ab0d11d00fb
:104ee800f9e70e9b002b07db1d00229b1d4326d1f3
:104ef8000123069a134222d10c9b002b00dc73e796
:104f080005990122049806f05bfd0899059008f0c0
:104f1800a6fc002804dc00d066e7e30700d463e7ba
:104f2800392c00d05ee70b9b0b9a5d1c392313705c
:104f38006b1e1a78392a3bd001321a7080e70b9b16
:104f480001330d930c9b002b05dd392cebd00d9d07
:104f580001340b9b4ae70b9b0f9a0d9d1c709342e3
:104f6800abd000230a220599049807f079fb0023a7
:104f780005900a2239000498b74206d107f070fb61
:104f8800070006000d9b0b93fce607f069fb310058
:104f9800070000230a22049807f062fb0600f1e7e5
:104fa80000230a220599049807f05afb059071e737
:104fb8000a9a9a4205d1039b013303933123137054
:104fc8003ee71d00b4e7269a0a930833002a01d069
:104fd800fff77afafff77afa0d9b002b00dd58e706
:0c4fe800229b022b00dc54e715e7c046ba
:020000040000fa
:104ff40041540d0a00000000415445300d0a0000e0
:1050040041542b434c434b3d225343222c320d0a33
:105014000000000041542b4350494e3f0d0a00004c
:1050240041542b434f50533f0d0a000041542b432e
:1050340053510d0a0000000041542b555244464977
:105044004c453d225030220d0a0000004f4b0d0a02
:10505400000000004552524f520d0a005f41545f58
:105064004d4f44554c455f434f4e4e4543542020cd
:105074004572726f725f74696d656f75740d0a00a5
:1050840074785f4552524f523a0000002c33322c50
:10509400000000005f41545f4d4f44554c455f4351
:1050a4004f4e4e45435420204572726f725f6d65ba
:1050b400670d0a0041542b43455245473f0d0a00f2
:1050c40041542b434744434f4e543f0d0a000000c4
:1050d40041542b43434c4b3f0d0a00005f41545f46
:1050e40034474c54455f6c696e6b5f63686b20207a
:1050f4004572726f725f74696d656f75740d0a0025
:105104005f41545f34474c54455f6c696e6b5f6319
:10511400686b20204572726f725f6d65670d0a00bf
:105124005f41545f4e4554574f524b5f5354415463
:10513400555320204572726f725f74696d656f7587
:10514400740d0a005f41545f4e4554574f524b5ff4
:1051540053544154555320204572726f725f6d65ec
:10516400670d0a0041542b555053443d302c302ccc
:10517400300d0a0041542b55505344413d302c33db
:105184000d0a00005f41545f52454c4f475f494e42
:1051940020204572726f725f74696d656f75740d4e
:1051a4000a0000005f41545f52454c4f475f494e2f
:1051b40020204572726f725f6d65670d0a000000f2
:1051c40041542b555345434d4e473d302c302c22f2
:1051d4007063626361222c313335390d0a0000009b
:1051e40041542b555345434d4e473d302c312c22d1
:1051f4007063626363222c313235370d0a0000007c
:1052040041542b555345434d4e473d302c322c22af
:10521400706362706b222c313637350d0a00000042
:1052240041542b555345434d4e473d330d0a000021
:1052340041542b554d5154543d302c22394334396b
:1052440030443332424232303833333630313832fc
:10525400304531413732393843453232220d0a0064
:1052640041542b554d5154543d322c227368617274
:10527400656170702e73746f6e65746563682e63f8
:105284006f6d2e7477222c383838330d0a000000e5
:1052940041542b554d5154543d332c22222c383833
:1052a40038330d0a0000000041542b554d5154541d
:1052b4003d362c310d0a000041542b554d515454a8
:1052c4003d372c310d0a000041542b554d51545497
:1052d4003d382c22736572617068696d2f6c61733f
:1052e4007477696c6c220d0a0000000041542b5540
:1052f4004d5154543d392c22556e72657175657348
:1053040074656420646973636f6e6e656374220de3
:105314000a00000041542b554d5154543d31302c5a
:10532400333630302c32300d0a00000041542b55f6
:105334004d5154543d31312c312c320d0a000000b2
:1053440041542b554d515454433d310d0a00000036
:105354005f41545f4d5154545f42494449525f4147
:105364005554485f504152415f4c4f4144202045c1
:1053740072726f725f74696d656f75740d0a0000e7
:105384005f41545f4d5154545f42494449525f4117
:105394005554485f504152415f4c4f414420204591
:1053a40072726f725f6d65670d0a000041542b5570
:1053b4004d5154543d312c313838330d0a0000001e
:1053c40041542b554d5154543d322c227368617213
:1053d400656170702e73746f6e65746563682e6397
:1053e4006f6d2e7477222c313838330d0a0000008b
:1053f40041542b554d5154543d332c227878782efa
:105404007878782e7878782e787878222c3838380e
:10541400330d0a0041542b554d5154543d342c2224
:1054240074657374222c226d717474313233220dbd
:105434000a00000041542b554d5154543d382c2240
:10544400454d4f544f2f4445562f3943343930443a
:1054540033324242323038333336303138323045e9
:10546400314137323938434532322f5550220d0af3
:105474000000000041542b554d5154543d31312c02
:10548400300d0a0041542b554d5154544e563d3263
:105494000d0a000041542b554d5154544e563d3184
:1054a4000d0a00005f41545f4d5154545f50415206
:1054b400415f4f5045524154494f4e20204572722e
:1054c4006f725f74696d656f75740d0a000000007a
:1054d4005f41545f4d5154545f504152415f4f50ae
:1054e40045524154494f4e20204572726f725f6d90
:1054f40065670d0a000000005f41545f34475f4c4c
:1055040054455f4c4f47494e20204572726f725f7d
:1055140074696d656f75740d0a0000005f41545f16
:1055240034475f4c54455f4c4f47494e20204572e9
:10553400726f725f6d65670d0a00000041542b5550
:105544005345435052463d322c302c310d0a000055
:1055540041542b555345435052463d322c332c2253
:105564007063626361220d0a0000000041542b55f0
:105574005345435052463d322c352c2270636263ae
:1055840063220d0a0000000041542b55534543503b
:1055940052463d322c362c22706362706b220d0a07
:1055a4000000000041542b554d5154543f200d0a26
:1055b4000000000041542b554d515454433d342cac
:1055c400302c22454d4f544f2f4445562f00000098
:1055d4002f444f574e220d0a000000002f50554211
:1055e400220d0a0041542b554d515454433d300d66
:1055f4000a0000005f41545f4d5154545f424944d6
:1056040049525f415554485f4c4f47494e5f464ca1
:105614004f5720204572726f725f74696d656f75a4
:10562400740d0a005f41545f4d5154545f42494424
:1056340049525f415554485f4c4f47494e5f464c71
:105644004f5720204572726f725f6d65670d0a00b7
:1056540041542b5547524d433d310d0a0000000083
:1056640041542b5547494e443d310d0a000000007a
:1056740041542b554750533d312c392c36370d0aa4
:105684000000000041542b5547524d433f0d0a0082
:105694005f41545f47505320204572726f725f74ac
:1056a400696d656f75740d0a000000002c412c00b3
:1056b4002c4e2c002c532c002c452c00252e30373e
:1056c400660000006c617469747564653d2025731f
:1056d40020206c6f6e6769747564653d2025730db9
:1056e4000a0000005f41545f475053202045727206
:1056f4006f725f6d65670d0a0000000041542b5501
:105704004d515454433d322c302c302c302c20221b
:10571400454d4f544f2f4445562f00002f555022ce
:105724002c2200005f41545f4d5154545f54585f24
:1057340055505f444154413120204572726f725f6d
:1057440074696d656f75740d0a0000005f4d5154e6
:10575400545f54585f55505f4441544131202045b3
:1057640072726f725f6d65670d0a00002b55554d9f
:10577400515454433a20362c000000000d0a000016
:1057840041542b554d515454433d360d0a000000ed
:105794005f41545f5245414420204572726f725fed
:1057a40074696d656f75740d0a0000002f444f57be
:1057b4004e222c002f505542222c00002c227b001c
:1057c4007d220d0a00000000525820444154413a01
:1057d400000000005f41545f52454144202045725f
:1057e400726f725f6d65670d0a0000004552524f7b
:1057f400523a4c544520344720524553455420498d
:085804004e495449414c0000db
:020000040000fa
:10580c00f7b50d0009036c00ed0f0095490a450f23
:10581c0029431d035e00c700d80f6b0a550f2b439d
:10582c00c14d640d760dd200ae4203d11d008446ed
:10583c00154302d101254540ac46009da01bac454b
:10584c0000d036e1002861dd002e25d11d00154366
:10585c0000d196e2461e002e19d1ba18ba42a441c4
:10586c00c91864420919170001240b0200d4bee0c8
:10587c00ad4b01349c4200d180e2ac487b08014026
:10588c00012007401f43c80707434908afe0a64d56
:10589c00a84209d1a44caae0a34dac4200d1a6e089
:1058ac00802506002d042b43382e2adc1f2e17dcf6
:1058bc0020201d00801b8540ac4615000190f54052
:1058cc00604605430198f3408240501e82411543c7
:1058dc00ed195b18bd428941494259182f00c4e7a4
:1058ec0030001d002038c5400020202e03d0402061
:1058fc00861bb34018000243501e824115430023ff
:10590c00e6e71a4315006a1e9541f8e7002850d0c7
:10591c00002c14d10c003c4300d128e2c443002cd1
:10592c0007d1bf189742a441c91864420919340021
:10593c009be77d48864209d119001700aae77a4ceb
:10594c00a642f9d04442802000040143382c2bdcc1
:10595c001f2c17dc2025281b01900800019de1401d
:10596c00a840844638006546e0402843019daf407e
:10597c007d1eaf413843871897429241c918524255
:10598c008918d4e720000d002038c54028000025d8
:10599c00202c03d040252c1ba1400d002f437d1e35
:1059ac00af4138430021e6e70f433800471eb841aa
:1059bc00f8e7661c75056d0d012d00dd69e008002a
:1059cc003843002c49d1002800d1d3e118001043f2
:1059dc000dd0ba18ba42b641c9188023764289193b
:1059ec001b041700194202d00124504b19407b07ad
:1059fc0009d00f233b40042b05d03b1dbb42bf41bc
:105a0c007f42c9191f000b0206d5474b01349c423b
:105a1c0000d1c3e1454b1940434b4807ff083843bd
:105a2c00c9089c4206d103000b4300d1b9e1802385
:105a3c001b031943002709033b0d1b05090b1943d5
:105a4c003b4b6405194064080c43009b6400d90768
:105a5c0064080c43210003b0f0bd002800d16be7b3
:105a6c001800104300d115e74807ff0807438020b2
:105a7c00c9080003014207d0dc08044204d1d20853
:105a8c005b0713431f002100780fc9000143ff007f
:105a9c0000e7254ca64200d16fe1ba18c918ba42ea
