:020000040000fa
:10000000f07f0020513b0000731f0000e94c00000e
:1000100000000000000000000000000000000000e0
:100020000000000000000000000000000f4b000076
:1000300000000000000000000f4b0000d54400004d
:100040000f4b00000f4b00000f4b0000093b00005e
:100050000f4b00000f4b00000f4b00000f4b000038
:100060000f4b0000451500000d0c000005120000ac
:10007000290e0000000000000000000091090000af
:10008000000000000f4b00000f4b00000f4b000062
:100090000f4b00000f4b00000f4b00000f4b0000f8
:1000a0000f4b00000f4b00000f4b00000f4b0000e8
:0c00b0000f4b00000f4b00000f4b000036
:020000040000fa
:1000bc00f8b5c046f8bc08bc9e467047593a0000db
:1000cc00f8b5c046f8bc08bc9e467047313a0000f3
:020000040000fa
:0800dc005c220000010000009d
:020000040000fa
:1000e400b82000201c00000000000000481a002076
:1000f4009c0000000000000000000020340000000c
:1001040000000000340000201c000000000000007b
:100114000421002004000000000000000821002049
:100124000400000000000000342100200100000051
:100134000000000035210020010000000000000044
:100144003621002001000000000000000c210020e6
:100154000400000000000000102100200400000042
:100164000000000014210020040000000000000032
:100174003721002001000000000000003821002089
:10018400010000000000000018210020040000000d
:1001940000000000392100200100000000000000e0
:1001a4003a210020010000000100000001000000cd
:1001b40060000020ec030000000000003b21002050
:1001c40001000000000000001c21002004000000c9
:1001d400000000003c21002001000000000000009d
:1001e4003d21002001000000000000003e2100200d
:1001f40001000000000000004c0400200712000071
:1002040000000000c41f00202c00000000000000bb
:10021400541600201500000000000000b41e002049
:100224005000000000000000601e00205400000088
:1002340000000000041f0020400000000000000037
:10024400741b00208c000000000000009820002097
:1002540020000000000000004820002028000000ca
:10026400000000008c160020900100000000000037
:1002740088190020c000000000000000f01f0020ca
:100284002c000000000000003f21002001000000bd
:10029400000000001c2000202c00000000000000d2
:1002a400001c00208000000000000000801c0020d2
:1002b4008000000000000000441f002040000000f7
:1002c40000000000e42000200c00000000000000fa
:1002d400702000202800000000000000e41a002024
:1002e4009000000000000000d42000201000000056
:1002f400000000006c160020180000000000000040
:1003040084160020010000000000000020210020cd
:100314000400000000000000851600200100000019
:1003240000000000f02000200c000000000000008d
:1003340040210020010000000000000041210020b5
:100344000100000000000000fc2000200800000064
:1003540000000000001d00208000000000000000dc
:10036400801d00208000000000000000841f002089
:1003740040000000000000002421002004000000d0
:1003840001000000001e0020001e0020600000008c
:10039400010000000000000050460000704600000c
:1003a40030460000000000000000000000000000d3
:1003b4000000000000000000000000000000000039
:1003c4000000000000000000000000000000000029
:1003d4000000000000000000000000000000000019
:1003e4000000000000000000000000000000000009
:1003f400000000001c1800206c0100000100000037
:1004040043000000000000000000000000000000a5
:1004140000000000000000000000000000000000d8
:100424004300000000000000000000000000000085
:1004340000000000000000000000000000000000b8
:100444004300000000000000000000000000000065
:100454000000000000000000000000000000000098
:100464004300000000000000000000000000000045
:100474000000000000000000000000000000000078
:100484004300000000000000000000000000000025
:100494000000000000000000000000000000000058
:1004a4004300000000000000000000000000000005
:1004b4000000000000000000000000000000000038
:1004c40043000000000000000000000000000000e5
:1004d4000000000000000000000000000000000018
:1004e400994800001d45000000000000701e000037
:1004f400394c0000384c0000384c0000384c0000e7
:10050400384c0000384c0000384c0000384c0000d7
:10051400384c0000384c0000ffffffffffffffffd7
:10052400ffffffffffff0000010041534349490063
:1005340000000000000000000000000000000000b7
:10054400000000000000000000004153434949003e
:100554000000000000000000000000000000000097
:10056400000000000000000000000000282100201e
:1005740004000000000000002c2100200400000002
:1005840000000000881600200400000000000000a5
:1005940030210020040000000000000000000000e2
:1005a40000000000222222222222222222222222af
:020000040000fa
:1005b400f0b59db00490039115001c00002805d0ef
:1005c40083690593002b01d102f0acff984b039a89
:1005d4009a4260d1049b5b680393039b9b891b072e
:1005e40067d5039b1b690593002b62d000220f92f1
:1005f40020220aab5a76302206959a76069d2b78ed
:10060400002b60d1069bee1a0cd03300069a039996
:10061400049803f0e3fa431c00d170e10f9b9e1988
:1006240005930f962b78002b00d168e101220aaec6
:10063400524272605322002306a97e4f521801359c
:100644000a93f360b36013702237052229783800c7
:1006540004f02cf96a1c002839d13068c30604d58b
:100664005323202106afdb191970030704d5532344
:100674002b2106afdb1919702b782a2b2fd00020e1
:100684000a21f3682a78303a092a00d870e0002851
:100694002cd0f3602ae0684b039a9a4202d1049b5f
:1006a4009b6899e7654b039a9a4296d1049bdb6851
:1006b40092e70399049801f053fd002896d0012095
:1006c40040421db0f0bd252b9cd0013597e7012396
:1006d400c01b8340316815000b433360b5e72368c2
:1006e400211d002b3edbf36015000c002b782e2b14
:1006f4000ad16b786a1c2a2b42d122680235231d49
:10070400002a3adb1c0072604a4f297828370322fa
:10071400380004f0cbf8002806d04023c01b8340e7
:100724003268013513433360424f297838006b1c1b
:1007340006222c300693317604f0b8f85322337e27
:1007440006a95218692b31d03ed8582b78d029d815
:10075400002b00d1f6e0522106a809180b700123e2
:100764000e9356e05b42f360022303433360bbe71e
:100774004b4301359b18012084e701225242c1e713
:10078400002315000a201a007360297830390929da
:1007940003d9002bb8d07260b6e742430135521832
:1007a4000123f2e7632b2cd0642bd4d10a99231da7
:1007b4002668080633d51c00002e02da2d23764263
:1007c40013700a23059357e0702b00d19ee00dd8d7
:1007d4006f2bc0d10a99221d2668080623d5140060
:1007e4006f2b00d19be00a23059340e0752bf1d0d9
:1007f400782bb0d15523782206a95b181a701137cb
:1008040022e0522306a95b182178043419700123cd
:10081400336100235225137006abed1851e04906ed
:10082400c9d536b2c7e74906d9d5b6b2d7e7c04667
:10083400504600009440000070460000304600001e
:10084400552206a9521813700a9b221d2668190600
:1008540061d51400da0702d5202213430a9310232a
:100864000593002e03d120230a9a9a430a92532314
:10087400002206a95b181a700b9b0c93002b7bdbe0
:1008840004220a9991430a91002e4ad1002b75d172
:10089400532506abed18059b082b0dd10a9bdb07ee
:1008a4000ad50b9b05930e9b0793079a059b9342ce
:1008b40002dc3023013d2b70532306aa9b185b1bdb
:1008c4000e93314b09aa00930aa9039b049801f0e3
:1008d400a2fd431c13d00e9b2a000399049803f035
:1008e4007df9431c0bd00a9b002505939b0737d445
:1008f400099a0d9b934200da13005a1c37d1039bcb
:100904000f989b895b0600d4dbe6d8e62023326887
:10091400134333606ee759069bd5b6b299e70823b3
:1009240062e7532506abed183000059902f048fb49
:100934007b5c013d30002b70059902f005fb061e1f
:10094400f2d1a8e733611500bbe7292206a90123e8
:1009540052180498039903f041f9431ccfd0013590
:100964000d9b099a05939b1a9d42eedbc0e70f9af3
:10097400d31805920f9341e6002ed2d1522506ab2f
:0c098400ed183b782b7086e7e13b00008b
:020000040000fa
:10099000f0b5ce46474680b585b0964b1c6da30199
:1009a00003d580229204934b1a65e30755d5914bea
:1009b000012119655a6d8a435a65a4229b585b062a
:1009c0004bd0a4238b4ad558ad04ad0e29018a4bd8
:1009d000de68761833685b0000d4ade0ab005b19cd
:1009e0009b00864a9a583368db00db081360326844
:1009f00073689b0202d4930000d5d3e0ab005b196f
:100a00009b007e4ad3181b6900221a707768102257
:100a10007b49684604f012f83f033f0f6b46db5ded
:100a20009946764b9846af007b199b004344586823
:100a3000310008314a4604f001f87f19bf004744ed
:100a4000bb684a461a70a8236a4ad5506d4b1b688a
:100a5000002b02d06b4a50689847e3065ad5654b85
:100a6000102119655a6d8a435a65b4229b585b065a
:100a700050d0b4235f4ad558ad04ad0e29015e4b6a
:100a80001e69761833685b0060d5ab005b199a006d
:100a90005a4b9b18c8331a683368db00db081360b5
:100aa000326873689b0202d4930000d583e0ab00e8
:100ab0005b199a00514b9b18d8331b6800221a709f
:100ac000776810224e49684603f0b8ff3f033f0f96
:100ad0006b46db5d9946494fab0098465b199b001e
:100ae000fb18cc331868310008314a4603f0a6ffe2
:100af00043465b199b00ff18d0373b684a461a7083
:100b0000b8233c4ad5503f4b9b68002b02d03d4a4e
:100b1000d0689847a3052cd5364b802292001a65e1
:100b20005a6d39490a405a6500231f22944601270d
:100b3000304ad826e0204fe0ab005b199b002f4adb
:100b40009a583368db005b0d136050e7ab005b190c
:100b50009a002a4b9b18c8331a683368db005b0d78
:100b600013609de7274b9b69002b02d0254ad06973
:100b70009847230511d51f4980231b010b65c4200d
:100b80000b581b0a1f2213400958090c0a409342b4
:100b900003d20133dbb29a42fbd105b00cbc9046c4
:100ba0009946f0bdab005b199b00144ad3181b6932
:100bb00001221a702ae7ab005b199a000f4b9b18b1
:100bc000d8331b6801221a707ae715588d431550e7
:100bd0000133dbb2052bc5d0614619403d008d4085
:100be00029009559a84615580d42f1d045460d42a9
:100bf000ebd1ede7001c0042482000208c160020bd
:0c0c0000904a000098200020fffdffff3c
:020000040000fa
:100c0c00f0b5de4657464e464546e0b583b07f4bc1
:100c1c009b7d002b00d1f2e07c490a7ed2b28b7d09
:100c2c005bb2002b0ddb794a137edbb2927dd207cf
:100c3c0000d4dce0db0700d4d9e0754c754b98464a
:100c4c0067e052b2002aeeda704b5b8b072213403e
:100c5c00e9d06f4ad3876d4b80221a7607225a83cc
:100c6c001b7e5b0705d5694b04211a8d1a7e0a423f
:100c7c00fbd1674b1b6a002bd5d0654a516a022009
:100c8c009847d0e75e00b246624e5546755d0d70d2
:100c9c00b346da4455466d784d70013316e00b7847
:100cac001385002f1ed1137e01252b4200d19ee00f
:100cbc00a3689a46e3689a4500d195e056680640c9
:100ccc00012edfd04646f65c0e7001334b45b64123
:100cdc0033406646f36053680340012bdfd10b8829
:100cec001385dee703f030fe494b1b68002b10d058
:100cfc00474a127f002a08d0454a9269904208d38d
:100d0c00434a51680320984703e0414a9269904254
:100d1c000bd03f4b1b6999463d4b1f7d3b4a07202f
:100d2c006b46991d3a4b9c46bde7394a51680320e6
:100d3c009847eee74246126a002a2fd0796a0120c2
:100d4c009047bb6a01333a6b93429241134025e0c2
:100d5c002f4a916a4900304a54545218240a54704c
:100d6c002ae02b4a926b904208d1294a516a002002
:100d7c00984703e0264d2e00a8462f00234b1b7ee0
:100d8c005b073cd5214b1c8da4b2ab6a01332a6b9b
:100d9c00934292411340f26a9a42cbd01c4ad26ad7
:100dac009a42ebd0194a516807220a40012acfd047
:100dbc00174a926a18498c54154a93623423d35caf
:100dcc00002bdbd003f098fc114b1b6a002bd5d009
:100ddc003c220f498a5c002ac3d08a6b9042cdd347
:100dec00496a00209847c9e70122084b1a75074a3f
:100dfc00137edbb2927d520701d55b07bad403b0e8
:100e0c003cbc90469946a246ab46f0bd0008004259
:0c0e1c00441f0020801c0020001c00204f
:020000040000fa
:100e2800f0b5de4657464e464546e0b583b07f4ba3
:100e38009b7d002b00d1f2e07c490a7ed2b28b7deb
:100e48005bb2002b0ddb794a137edbb2927dd207b1
:100e580000d4dce0db0700d4d9e0754c754b98462c
:100e680067e052b2002aeeda704b5b8b0722134020
:100e7800e9d06f4ad3876d4b80221a7607225a83ae
:100e88001b7e5b0705d5694b04211a8d1a7e0a4221
:100e9800fbd1674b1b6a002bd5d0654a516a0220eb
:100ea8009847d0e75e00b246624e5546755d0d70b4
:100eb800b346da4455466d784d70013316e00b7829
:100ec8001385002f1ed1137e01252b4200d19ee0f1
:100ed800a3689a46e3689a4500d195e056680640ab
:100ee800012edfd04646f65c0e7001334b45b64105
:100ef80033406646f36053680340012bdfd10b880b
:100f08001385dee703f05efd494b1b68002b10d00c
:100f1800474a127f002a08d0454a9269904208d36e
:100f2800434a51680320984703e0414a9269904236
:100f38000bd03f4b1b6999463d4b1f7d3b4a072011
:100f48006b46991d3a4b9c46bde7394a51680320c8
:100f58009847eee74246126a002a2fd0796a0120a4
:100f68009047bb6a01333a6b93429241134025e0a4
:100f78002f4a916a4900304a54545218240a54702e
:100f88002ae02b4a926b904208d1294a516a0020e4
:100f9800984703e0264d2e00a8462f00234b1b7ec2
:100fa8005b073cd5214b1c8da4b2ab6a01332a6b7d
:100fb800934292411340f26a9a42cbd01c4ad26ab9
:100fc8009a42ebd0194a516807220a40012acfd029
:100fd800174a926a18498c54154a93623423d35c91
:100fe800002bdbd003f0b4fb114b1b6a002bd5d0d0
:100ff8003c220f498a5c002ac3d08a6b9042cdd329
:10100800496a00209847c9e70122084b1a75074a20
:10101800137edbb2927d520701d55b07bad403b0c9
:101028003cbc90469946a246ab46f0bd0010004233
:0c103800841f0020801d0020001d0020ef
:020000040000fa
:10104400f0b5c30f85b0440245000391640a2d0e28
:10105400029301930ad0ff2d38d08023e400db04ef
:101064007f3d1c432e00002300930ae0002c33d064
:10107400200002f0f9fe7626431f9c407642361a81
:101084000095039b5f025d00db0f7f0a2d0e039327
:1010940025d0ff2d2dd0802228000025ff00d2046a
:1010a40017437f38039b029a361a5a40009b9800d4
:1010b400284301380e2824d803f090fc4e9d639dec
:1010c400979d634e4e976379797954002e000323dc
:1010d400002cc9d10223c7e726000123c4e7381e28
:1010e4000dd002f0c1fe431f9f4076235b42181ac5
:1010f400d8e728000325002fd4d10225d2e7012503
:10110400d0e764017801844228d31a210123241ae8
:10111400012527005b006400002f01dba04201d8f9
:10112400241a2b4301390029f3d1611e8c411c433d
:1011340031007f3100293cdd630704d00f232340b5
:10114400042b00d00434230103d531002b4b803110
:101154001c40e308fe2921dd002310e0013e1b2191
:101164000023d5e78023db031c4204d01f4202d1b5
:101174003c00039b01938023019adb032343ff215b
:101184000ce03c00039a0095009b022be4d0032b57
:101194002fd00023009819000128c9d15802c9b2e0
:1011a400c905400ad2070843104305b0f0bd029aae
:1011b400eae70120411a1b291ddc23002020cb4033
:1011c400411a8c40611e8c412343590704d00f21de
:1011d4001940042900d004338021c9041940db08d4
:1011e4000029dbd000230121d8e780240023e40375
:1011f400c0e70192bfe700231900cfe7fffffff725
:020000040000fa
:1012040010b5694b9b7d002b17d0674b5b8b9b07fd
:1012140014d5664bff21202299540221212299548e
:101224002023624ad35c5bb2013300d18be02023dc
:101234005e4ad35c062b00d19de010bd5a4b5b8bfc
:10124400db0707d5594bff21202299540221212283
:101254009954e5e7544b5b8b5b0707d5534bff2150
:1012640020229954012121229954d9e720234f4a5d
:10127400d35c5bb2032b44d0042b0fd0022bcfd111
:101284001369002b04d09088002102f08ffac7e77d
:10129400464b9888012102f089fac1e7434a9369d1
:1012a400126993420cd0414a9168cc5c28213e4893
:1012b4004454013393610200d369002bfcd1afe79e
:1012c4003a4b5b69002b0ed0384b9b885b000122a4
:1012d4001343354a5362d369002bfcd103212023e5
:1012e400324ad1549ce7304a5168c0239b020b43d5
:1012f4005360d369002bfcd1062120232b4ad154ff
:101304008ee72a4a5369013bd2699a420dd0264a94
:10131400d369002bfcd1254ad36928212248415c9a
:10132400d068c1540133d3617ae71f4a5168e0237e
:10133400db020b435360d369002bfcd1062120232d
:101344001a4ad154e3e700212023d154164a5168a4
:10135400c0239b020b435360d369002bfcd183222f
:10136400114b1a76114b5b6a002b00d165e70f4acb
:10137400906a984761e71300002220215a542121e2
:101384005a548322084b1a76190030224b8b13408f
:10139400102bfbd1054b5b6a002b00d14de7034ab0
:1013a400906a984749e7c046000c0042f01f0020ad
:020000040000fa
:1013b400130fdeff25303258000000002256303073
:1013c40031223a2225642e25303164222c0000007b
:1013d4002252303031223a2225303164222c00004e
:1013e4002252303031223a2225303264222c00003d
:1013f4002252303031223a2225303364222c00002c
:101404002252303031223a2225303464222c00001a
:101414002252303031223a2225303564222c000009
:101424002252303031223a2225303664222c0000f8
:101434002254303031223a2225303364222c0000e9
:101444002254303031223a2225303264222c0000da
:101454002254303031223a2225303164222c0000cb
:10146400225350303031223a2225303364222c006a
:10147400225350303031223a2225303264222c005b
:10148400225350303031223a2225303164222c004c
:1014940022475244303031223a2225303364222c00
:1014a4000000000022475244303031223a222530d5
:1014b4003264222c00000000224752443030312292
:1014c4003a2225303164222c000000002245574482
:1014d400303030223a22253075222c0022455230f9
:1014e4003030223a22253075222c000022435f41fd
:1014f40056473031223a2225642e25303164222c7d
:1015040000000000224d5f4156473031223a222527
:10151400642e25303164222c0000000022534f43f6
:101524003031223a222564222c000000224f444ffd
:10153400223a22256c642e25303164222c00c046c8
:020000040000fa
:1015440010b5564b9b7d002b78d0544a5168072325
:101554000b40127e520730d5504a906a50494a696e
:10156400c9688a4229d2002b0cd14d4b5968885442
:1015740001325a61494b1b7edb073dd50122474ba3
:101584001a7523e0464b51005c68085301325a61d6
:10159400424b1b7edb072fd50122404b1a75404a74
:1015a40093699268934255d23d4a59001068085a8b
:1015b4003a4988620133936114e0384a127ed207b3
:1015c4001ad50121354a1175002be8d1344a9369a3
:1015d4009268934233d2324a1168c85c2f498862b8
:1015e400013393612e4b9a699b689a423dd02c4bf0
:1015f4005a69db689a4244d0284b1b7e9b0716d558
:10160400284b1b78002b19d0254b5a69db689a426a
:1016140011d1234b00221a7707202049087521494c
:101624000a701b6a002b09d01d4a506a98471d4b4b
:101634001b78002b02d00222184b9a7510bd184b50
:101644001b69002b23d0ff21144a9162013b144ae9
:101654001361c7e7124b1b69002b18d012490f4abc
:101664009162013b0e4a1361bce70d4b1b69002bd1
:10167400bdd101220b4b1a70084b1b7e9b07c3d4b0
:10168400d9e7064b01229a7504221a75b4e7044b74
:101694009a699b689a42aad1ebe7c04600040042cb
:0c16a4001c2000203f210020ffff000060
:020000040000fa
:1016b00070b5050000294dd000284bd04948007f67
:1016c000002800d08be0484c666807243440012c89
:1016d00047d044480560426000244461846104614d
:1016e000002d47d08160002a48d03e4ad3600121b6
:1016f0003c4a11773c4a127e520705d53a4a0424e7
:10170000916a117e2142fbd1374a518b042001435b
:101710005183117e802001431176324ad16892684c
:10172000914202d9881a2f4c20612f484068400707
:1017300033d12c4989698a4224d928782a4a90626f
:101740000131284a9161002b44d10122264b9a7520
:10175000012045e00020002b42d0002aaed100201d
:101760003ee0002901d0cc073ad4002bb1d0dc07f1
:10177000afd535e000201b498860b4e70021194a45
:10178000d160b4e7174a1269002adcd0ff2016495d
:101790008862013a13490a61d5e75208114882600c
:1017a0000469640804614908c16081698a4208d9f2
:1017b0002a88d205d20d0c4882620131094a916112
:1017c000c1e7002cbfd00949074a9162013c054a94
:1017d0001461b8e70422044b9a75012000e0002050
:1017e00070bdc0461c20002000040042ff01000024
:020000040000fa
:1017f00070b504000e00002800d188e005680020c4
:10180000002d48d0002900d1424e2b019e4243d3e7
:10181000290b28053200002302f0acfa80235b027a
:10182000181a00213c4a13680225ab431360d369a0
:10183000002bfcd180b2384b98816368022b50d0ca
:10184000354a136849033548184080235b04034335
:10185000194311605168a368e068034330480140b0
:101860000b4361680b4353602b4ad369002bfcd1b7
:10187000294a136802210b431360d369002bfcd162
:10188000254b5a6807231340012b3ad0254b802261
:101890001a631a61012070bdeb009e420ad3690be6
:1018a000e8043200002302f065fa80235b02181a74
:1018b0000221b7e76b005b199e420fd3c022920250
:1018c00000232800002102f0d3f93200002302f0a7
:1018d00051fa80235b02181a0421a3e7002100209b
:1018e000a0e70d4a136849030c48034019431160ef
:1018f0005168a368e0680343472081430b4353606a
:10190000b2e7084b40221a631a610120c3e70020a6
:10191000c1e7c046006cdc0200080042ff1ffff078
:08192000b8dfffff441f0020a7
:020000040000fa
:10192800f7b58a8905000c00130760d44b68002bb3
:1019380004dc0b6c002b01dc0020febde76a002fe5
:10194800fad000232e682b6080235b011a4034d024
:10195800606da3895b0706d56368c01a636b002bab
:1019680001d0236cc01a0200216a00232800e76a0c
:10197800b847a189431c06d12b681d2b31d82c4aa6
:10198800da40d3072dd50023636023692360cb0495
:1019980005d5431c02d12b68002b00d16065616b13
:1019a8002e600029c8d023004433994202d0280071
:1019b80001f0a8f900206063bfe70123216a28002d
:1019c800b847431cc5d12b68002bc2d01d2b01d0b2
:1019d800162b01d12e60afe74023a2891343a381c0
:1019e800abe740230b430120a3814042a5e70f69e1
:1019f800002fa1d00b680f60db1b01930023920717
:101a080000d14b69a360019b002b00dc94e7019b8c
:101a18003a00216a2800a66ab047002803dc402360
:101a2800a2891343dfe7019b3f181b1a0193eae7da
:041a38000100402049
:020000040000fa
:101a3c00f0b5de4657464e464546e0b583b0042326
:101a4c009846002399463c4b9b463c4d1e000ae0b1
:101a5c0043467f2b19d880235b009c46e1444346c8
:101a6c0004339bb298464346043b9bb25a4651689a
:101a7c004a468f5aaf42ebd042467f2a05d89b0884
:101a8c000193444680239a463fe0080000232a4ce9
:101a9c0004e001339bb24030802b05d002883d2af4
:101aac00f7d8a2181372f4e7012040424623224ac9
:101abc00d05204220027214c002011e001339bb2ac
:101acc00934205d09d016d5aa542f7d00600f5e76b
:101adc00002e09d10137bfb2043292b2202f06d0aa
:101aec00131f9bb20126ede74623134ad75203b0ce
:101afc003cbc90469946a246ab46f0bd019802f01c
:101b0c0071fd0434a4b27f2ca5d87268a3019b5a32
:101b1c00ab42f6d09f42f4d14a445346d35a118873
:101b2c009942ebd04021525a9a42e7d0a00880b299
:101b3c0002f058fde5e7c046741b0020ffff0000d3
:020000040000fa
:101b4c00496e76616c69642064726976657220698d
:101b5c006e7374616e636500496e7374616e636558
:101b6c0020616c726561647920696e207573650003
:101b7c00496e76616c69642073797374656d206f3e
:101b8c00626a6563742068616e646c6500000000b5
:101b9c00496e76616c69642044726976657220497d
:101bac006e7374616e636500576173207468652091
:101bbc0064726976657220696e697469616c697aa0
:101bcc0065643f00496e76616c6964204472697685
:101bdc0065722048616e646c650000004661696c3a
:101bec00656420746f2067657420636c69656e741e
:101bfc00206d75746578206c6f636b004661696c41
:101c0c00656420746f20676574207265736f7572dc
:101c1c006365206c6f636b00496e737566666963f0
:101c2c0069656e74205175657565204465707468be
:101c3c00000000005472616e736665722048616e1c
:0c1c4c00646c6520496e76616c69640070
:020000040000fa
:101c5800f0b5de4657464e464546e0b585b002909b
:101c68008c46002900d170e0394b1b699846070063
:101c780001250022364b9a46994646460fe0400019
:101c880034495c460c548846404400244470494614
:101c98008b6001326b1c0237ac4546d91d0001929e
:101ca8002d4b586807230340012b15d0284b986803
:101cb800dc68431cb34289410b409c4236d00299f0
:101cc800895c8b46244c616807240c40012cd6d0d3
:101cd80020495c460c54dae77b781b0238780343ca
:101ce800039351468c68c9688846601cb042894194
:101cf800084080451ad0184949688b46072188460c
:101d0800594643461940012906d0124b6946097bba
:101d180019550f4b9860bce764000e4b0399195591
:101d2800984644440b0a6370f3e7019502f0d8fc27
:101d3800002802d00122084b9a75019805b03cbcd6
:101d480090469946a246ab46f0bd00230193ede7c5
:0c1d5800441f0020801c002000080042f6
:020000040000fa
:101d6400f0b5de4657464e464546e0b585b002908e
:101d74008c46002900d170e0394b1b699846070056
:101d840001250022364b9a46994646460fe040000c
:101d940034495c460c548846404400244470494607
:101da4008b6001326b1c0237ac4546d91d00019291
:101db4002d4b586807230340012b15d0284b9868f6
:101dc400dc68431cb34289410b409c4236d00299e3
:101dd400895c8b46244c616807240c40012cd6d0c6
:101de40020495c460c54dae77b781b0238780343bd
:101df400039351468c68c9688846601cb042894187
:101e0400084080451ad0184949688b4607218846fe
:101e1400594643461940012906d0124b6946097bad
:101e240019550f4b9860bce764000e4b0399195584
:101e3400984644440b0a6370f3e7019502f07cfc76
:101e4400002802d00122084b9a75019805b03cbcc9
:101e540090469946a246ab46f0bd00230193ede7b8
:0c1e6400841f0020801d002000100042a0
:020000040000fa
:101e7000002020202020202020202828282828205a
:101e80002020202020202020202020202020202052
:101e900020881010101010101010101010101010ba
:101ea00010040404040404040404041010101010aa
:101eb0001010414141414141010101010101010174
:101ec00001010101010101010101010110101010c6
:101ed0001010424242424242020202020202020246
:101ee000020202020202020202020202101010109a
:101ef00020000000000000000000000000000000c2
:101f000000000000000000000000000000000000d1
:101f100000000000000000000000000000000000c1
:101f200000000000000000000000000000000000b1
:101f300000000000000000000000000000000000a1
:101f40000000000000000000000000000000000091
:101f50000000000000000000000000000000000081
:101f60000000000000000000000000000000000071
:011f70000070
:020000040000fa
:021f7200fee788
:020000040000fa
:101f7400374b5a6852031b68db0c13439b029b0ac2
:101f8400344a936300235375110004228b691a4267
:101f9400fcd130491022cb681a42fcd02e4b0022cf
:101fa4009a611a612d4a2e4b1a62190004224b6859
:101fb4001a42fcd140218823294ad150100088219b
:101fc400402243581a42fcd04021cc23244ad15009
:101fd4001000cc21402243581a42fcd04021d02387
:101fe4001f4ad1501000d021402243581a42fcd03d
:101ff4004021d4231a4ad1501000d42140224358fe
:102004001a42fcd04021d823154ad1501000d821bf
:10201400402243581a42fcd04021e823104ad150b0
:102024001000e821402243581a42fcd04021822368
:102034005b000b4ad15010001900402243581a4249
:10204400fcd0084b084a1a61084ada617047c04656
:1020540020608000001000400014004006010100d0
:10206400001c004000080040ff1d00001e0002008c
:020000040000fa
:1020740070b504000378002b03d01023c356022b41
:1020840000d070bd066ab369190aff25294054229d
:102094005143324a52182b409d00ed18ed00d3688d
:1020a400ed181c202856431c0fd06a7f002a2cd11f
:1020b4001f2202400121914080b2400982231b0467
:1020c4009c466044c00102f0fbfd6b6ab269934216
:1020d40029d0236a002b05d01a6a226200225a757d
:1020e4001a621a70256a002dcbd06b7d012bc8d1e2
:1020f400280000f039fc02236b752b696a68e968d3
:10210400a86864696468a047bbe71f2202400121f4
:10211400914080b2400982231b049c466044c00164
:1021240002f0d0fdd1e701233375f169236a002b56
:1021340005d01a6a226200225a751a621a706b68f4
:10214400002bcfd02626a35d0133a355aa686b6864
:1021540001209847a35d013ba355c3e7601e0020ff
:020000040000fa
:10216400364b70b51d6806000c00002d05d0ab6918
:10217400002b02d1280001f0d5f9314b9c420fd13c
:102184006c680c23e25e93b219072dd4d90611d4de
:1021940009233360402301201343a381404270bdcf
:1021a400284b9c4201d1ac68ebe7274b9c42e8d119
:1021b400ec68e6e75b0713d5616b002908d02300c0
:1021c4004433994202d0300000f09efd0023636343
:1021d4002422a3899343a38100236360236923609a
:1021e4000823a2891343a3812369002b0bd1a021c7
:1021f4008022a389890092000b40934203d02100de
:10220400300001f06df80123a289134011d000239e
:10221400a36063695b42a361002023698342bed14a
:102224000c23e25e1306bad540231343a38101387d
:10223400b5e7920700d46369a360ede72421002089
:0c224400504600007046000030460000cc
:020000040000fa
:10225000f0b5c64600b50400f2225200002102f09b
:102260003ffc304a936901210b4393611100012225
:102270008b691a42fcd02b4dab6902221343ab6130
:10228000294ffc602204120c28490a43a023ea507b
:102290002300a0333b611b041b0c0b43b022ab504b
:1022a00023004133ff33bb611b041b0ca022d2046b
:1022b0001343c022ab5023009133ff33fb611b0457
:1022c0001b0ca026f6023343f022ab50dc235b004c
:1022d0009846a04443463b6204221549404602f01a
:1022e000adfb43461b041b0c802252021343842285
:1022f000ab50bd34ff347c6228220e49200002f02e
:102300009dfb2404240c34438823ec50ab69012248
:102310009343ab6129008b691a42fcd104bc9046ff
:10232000f0bdc046001c00424820002000000a808a
:08233000c04c000074430000e2
:020000040000fa
:10233800f0b5060085b00f0015001c008b4265d86b
:1023480001d1824262d82100280002f089fa3900be
:102358000090300002f084fa009b21001b1a1a003a
:102368002800039302f070fa00900191019bbb4290
:1023780046d802d1009bb34242d8009b019c039ae5
:1023880001200021f61aa74102f05efa039b002bf8
:102398002fd0019b009adb0754081c43019b5d0862
:1023a800039b9c46bd422ed801d1b4422bd83200a3
:1023b8003b00121bab41012692185b410027b6185f
:1023c8005f4101235b429c446346002bead180199c
:1023d8007941039a04000d003000390002f028fa10
:1023e800039a06000f0002f02ffa241a8d412000ec
:1023f80029000a9b002b01d01e605f6005b0f0bd6c
:1024080000200021c2e7b6197f41dae70020002149
:02241800efe7ec
:020000040000fa
:10241a00f7b5150001938a680b6900900c00934286
:10242a0000da130022002b6043321278002a01d00e
:10243a0001332b6023689b0602d52b6802332b607d
:10244a00062723681f4027d0230043331b785a1ed0
:10245a0093412268920630d42200019943320098af
:10246a00089eb047431c25d0062320682a68e168e5
:10247a0003400025042b03d18d1aeb43db171d40c3
:10248a00a3682269934201dd9b1aed180027bd4219
:10249a0020d1002010e00137e3682a689b1a9f4286
:1024aa00d2da22000123193201990098089eb04716
:1024ba00431cf0d101204042febd3020e1184331d7
:1024ca00087021005a1c45310978a2184332023398
:1024da001170c1e7220001231a3201990098089e5f
:0a24ea00b047431ce6d00137d1e7ec
:020000040000fa
:1024f400f0b5c64600b582b00400884615000192c6
:10250400304b9f6a53180020bb4257d82d4b0021f3
:102514004c2299545e6a3100280000f051fd711a72
:102524004246884500d90a00264b988a80239b029c
:102534009f4204d901ab997802230b4018438023ae
:102544005b029f4204d901ab997801230b401843e5
:1025540080235b0000219f4204d92b0a3021194fac
:102564007b5401214b1c9c46164b5b1830331d7069
:10257400002a0cd000230021124e6644e75cf318b5
:1025840030331f70013189b20b008a42f6d80d4beb
:10259400ad189d61a418dc6141468e1a1e620024a8
:1025a40042215c546244190030311b695b689847ce
:1025b400002803d102214c23024ad15402b004bca6
:0825c4009046f0bdb41e00209a
:020000040000fa
:1025cc00f8b505000e001400002804d08369002b18
:1025dc0001d100f0a3ff294b9c4233d16c68a36955
:1025ec00a360a3891b0737d52369002b34d00c2398
:1025fc00e25e80239b01f7b2f6b21a4236d0236812
:10260c002269981a6369984205db2100280001f0c1
:10261c0073f8002826d1a3680130013ba36023681e
:10262c005a1c22601f706369984204d0a389db078f
:10263c001ad50a2e18d12100280001f05df80028c7
:10264c0012d00fe00e4b9c4201d1ac68c7e70d4b8a
:10265c009c42c4d1ec68c2e721002800fff77cfd46
:10266c000028c4d0012676423000f8bd1343a38164
:10267c00226e054b13402366c1e7c046504600004e
:0c268c007046000030460000ffdfffff3a
:020000040000fa
:1026980010b52d4c23691b6998474223e35c012b35
:1026a80026d0002b0fd0022b41d04c23264ad35cd6
:1026b800002b07d0536c002b04d04c21505cc0b2c7
:1026c800916c984710bd002804d002214c231e4a63
:1026d800d154eae701f078ff002804d102214c2305
:1026e800194ad154e1e701214223174ad154dce7c2
:1026f800002813d1144b196a002904d101214c2355
:10270800114ad154d1e79a69d869fff7effe00283a
:10271800cbd102214c230c4ad154c6e701f054ff17
:102728000028c2d102214c23074ad154bde7002812
:1027380004d002214c23044ad154b6e701214c238a
:0c274800014ad154b1e7c046b41e002085
:020000040000fa
:10275400032370b5cd1c9d43083506000c2d1ed2f5
:102764000c25a9421dd8300002f0bffa254a14688e
:102774002100002919d1244c2368002b03d13000f7
:1027840001f0dcfe20602900300001f0d7fe431c7c
:102794002cd10c233000336002f0a8fa03e0002da2
:1027a400dfda0c233360002070bd0b685b1b1ad486
:1027b4000b2b03d90b60cc18256003e08c420ed19f
:1027c40063681360300002f091fa200007220b3096
:1027d400231d9043c31ae7d05a42e250e4e74b6802
:1027e40063600c00eee70c004968c2e70323c41cd5
:1027f4009c43a042e0d0211a300001f09ffe431c0c
:0c280400dad1c6e7282100202c2100209a
:020000040000fa
:1028100070b500280ad1294b1b78002b1ed002f07e
:10282000f5f9002811d10120404246e002f0eef90e
:10283000002802d1012040423fe002f0e1f92049a6
:1028400001f00efc0120404237e002f0d9f91c49aa
:10285000183101f005fc012040422ee0174c012206
:102860005023e2545123e2545223e2542270086868
:102870006061cb69a3618b69e361002323624d68ca
:10288000e5608d68a5606360a284023aa262262298
:10289000a3546370ca68e2620a6922634a69626388
:1028a0000a6ae2634422a354a364e364c368210078
:1028b0000448984702232374002070bd601e002046
:0828c0004c1b00007520000014
:020000040000fa
:1028c80010b58223db05264a1a60802252051a6158
:1028d80000214022995441229954422299540122bc
:1028e80043201a5444201a5445201a5446201a5496
:1028f8004720195448201a5449201a544f20195473
:1029080003205024185551241a5552241a5553247b
:102918001a555724195558241a5559241a555b2401
:102928001a5506245c229c543022995410243122d2
:102938009c54332232241a55985434201a5437227e
:102948009954222238201a5439201a543b22995477
:1029580066203c2298543d2299543e22995410bd39
:0429680087808000e4
:020000040000fa
:10296c0070b5050082692548130aff210b405426d7
:10297c007343c31811408c006418e400db68e4183e
:10298c0023885e438019816a8a4223d020000c3050
:10299c0054267343194ef61873691b680021984727
:1029ac00ab69b36200222023e2541c202056431c46
:1029bc000fd0627f002a12d01f22024001219140c9
:1029cc0080b2400982231b049c466044c00102f083
:1029dc0073f970bd2022a25c002ae6d0d6e71f2234
:1029ec0002400121914080b2400982231b049c4685
:1029fc006044c00102f062f9ebe7c046601e0020a3
:020000040000fa
:102a0c00f0b5c64600b582b0019308ac2478002c12
:102a1c0003d0012c1bd0002015e01f4ea4243459e8
:102a2c00a404a40e1d4fa5002b199b00d851f81817
:102a3c0042608160019bc360099b0361736d01223d
:102a4c0013437365012002b004bc9046f0bd124ed6
:102a5c00b4243559ad04ad0e104fab009c465c1937
:102a6c00a4003c19c8239846a04443461860200093
:102a7c00cc3002602200d0321160d434019b236030
:102a8c006544ad007d19d835099b2b60736d102200
:102a9c00134373650120d6e7001c00428c160020fe
:020000040000fa
:102aac0070b5002802d00120404270bd204b1b782d
:102abc00002b02d001204042f7e71d4c01220125da
:102acc0022700b6823618b6863614b68a3600023e1
:102adc006360e361236263702283cb68e3620b69fa
:102aec0023634b6963638b69a363cb69e36326231d
:102afc00e2542723e5542823e55402f0a1f82923b6
:102b0c00e55402f0a1f802f09bf82a23e55402f0f8
:102b1c009bf823695b6921000648984723691b6869
:102b2c00210005489847022323730020bde7c046c7
:0c2b3c00041f0020714a0000a5380000b2
:020000040000fa
:102b480010b506221e4b5a60fff7bafefff70efac1
:102b580000f082fa02f00ef800f016fd00f038fae4
:102b680001f071ff01f060f901f09efc00f0b8fa85
:102b780000f038fb00f0e2fe12490020fff744fea7
:102b8800114c206011490020fff78cffa06010490c
:102b9800002000f057fde0600021002000f08cfcd0
:102ba80020610c49002001f0b7fd60600a4900204f
:102bb80000f076fd606102f019f800f07df910bdb3
:102bc80000400041f84400006c1600201046000048
:0c2bd800c0470000cc4c0000e84b00009f
:020000040000fa
:102be400f0b5de4657464e464546e0b51e4ad36a22
:102bf400966a002933d0b34234d0126b9046050054
:102c040004000120194a9446194a924691460ee05e
:102c14004a46d25c2a7001334345924113408842ac
:102c240014d2421c013502349e4210d01000624678
:102c3400526807273a40012aead15a005746bf5c36
:102c440027705244527862700133e5e71e00064b48
:102c5400de623cbc90469946a246ab46f0bd1e00df
:102c64000020f4e70020f2e7441f0020000800429f
:042c7400001c002020
:020000040000fa
:102c7800f0b5de4657464e464546e0b51e4ad36a8d
:102c8800966a002933d0b34234d0126b90460500bf
:102c980004000120194a9446194a924691460ee0ca
:102ca8004a46d25c2a700133434592411340884218
:102cb80014d2421c013502349e4210d010006246e4
:102cc800526807273a40012aead15a005746bf5ca2
:102cd80027705244527862700133e5e71e00064bb4
:102ce800de623cbc90469946a246ab46f0bd1e004b
:102cf8000020f4e70020f2e7841f002000100042c3
:042d0800001d00208a
:020000040000fa
:102d0c0070b50500002910d00c1f2368002b00dac9
:102d1c00e418280001f0e5ff1d4a1368002b05d1cb
:102d2c0063601460280001f0ddff70bda34209d977
:102d3c00216860188342f3d118685b6841182160e0
:102d4c00eee713005a68002a01d0a242f9d919689b
:102d5c005818a0420bd120680918581819608242e3
:102d6c00e0d110685268411819605a60dae7a04245
:102d7c0002d90c232b60d5e721686018824203d15d
:102d8c00106852684118216062605c60cae7c046f6
:042d9c0028210020ca
:020000040000fa
:102da00070b504000d1e00d11e4d1f4a136802218c
:102db0008b431360d369002bfcd1002c30d02168e9
:102dc0006b080020994222d84900280000f0bef884
:102dd000154a136815490b4013601168a3686568ac
:102de0002b430b4313600138ff2800d9ff20c0b2ea
:102df0000d4b18735a6807218a435a605a68e16874
:102e00000a435a601a00d369002bfcd10120064afc
:102e1000136802210b431360d369002bfcd170bdf2
:102e20000020f4e7006cdc0200040042ffffffcf4b
:020000040000fa
:102e3000204a214b70b50021934203d2197001330f
:102e40009342fbd1002503261c4803684168002bf0
:102e500018d100292dd083680c30002b18d0002306
:102e60000022845c9c5401328a42fad333000b4026
:102e70005a1e93418908591889004018036841680f
:102e8000002be6d082680c30002a07d10029dcd064
:102e900059181d7001338b42fbd1d6e70029dfd1d1
:102ea00033000b405a1e9341890859188900401875
:102eb000e4e770bd8c16002000000020e400000054
:020000040000fa
:102ec00010b5bff35f8f62b61d4bc02189005a5801
:102ed0001202120ac020000602435a5008221a6049
:102ee00008315a58174c1440c022120222435a503b
:102ef000802292001a605a58134c1440c0221204c7
:102f000022435a508022d2001a605a581202120ae2
:102f100002435a50802212011a6004315a58ff2489
:102f2000a243c02422435a50802252011a605a58a8
:102f30001202120a10435850802212021a6010bd69
:0c2f400000e100e0ff00ffffffff00ffca
:020000040000fa
:102f4c00002934d00123002210b488422cd3012450
:102f5c002407a14204d2814202d209011b01f8e7e5
:102f6c00e400a14204d2814202d249005b00f8e79e
:102f7c00884201d3401a1a434c08a04202d3001bca
:102f8c005c0822438c08a04202d3001b9c082243fd
:102f9c00cc08a04202d3001bdc082243002803d03b
:102fac001b0901d00909e3e7101c10bc704701b5df
:102fbc00002001f08bfe02bd0029f8d003b5fff70d
:0c2fcc00c1ff0ebc4243891a1847c046e2
:020000040000fa
:102fd8001d4b1e4a1a601e4a9a81c02292025a60ec
:102fe8001a00d369002bfcd1174a136802210b433e
:102ff8001360d369002bfcd1164b00221a629a6227
:10300800da6234215a543c215a549a63da871a6096
:103018009a60da600021197519779a610a4b5a6823
:1030280007231340012b09d00a4b80221a631a6127
:10303800054b80229a7504229a757047054b4022e9
:103048001a631a61f4e7c046000800420401104000
:083058002bf6ffff441f0020ce
:020000040000fa
:103060001d4b1e4a1a601e4a9a81c02292025a6063
:103070001a00d369002bfcd1174a136802210b43b5
:103080001360d369002bfcd1164b00221a629a629e
:10309000da6234215a543c215a549a63da871a600e
:1030a0009a60da600021197519779a610a4b5a689b
:1030b00007231340012b09d00a4b80221a631a619f
:1030c000054b80229a7504229a757047054b402261
:1030d0001a631a61f4e7c046001000420401004080
:0830e0002bf6ffff841f002006
:020000040000fa
:1030e80010b501221a4b9a6119008b691a42fcd05b
:1030f800174b9a6902210a439a61164ada61282114
:10310800802299501449902299509a6901218a4342
:103118009a61190001228b691a42fcd10c4a0023da
:1031280093650121d1658021890451650b4c236089
:103138006360a360c82252000021094801f0ccfc5a
:1031480020000c301c22002101f0c6fc10bdc04636
:10315800001c0042020b0b14ffffff1f4820002039
:043168008c160020a1
:020000040000fa
:10316c00f8b51e4b07001e68b369002b02d1300066
:10317c0000f0d4f94836b4687368013b04d5336861
:10318c00002b07d03668f6e70c22a55e002d0dd07b
:10319c006434f2e70421380001f090f83060002824
:1031ac00f0d10c2304003b602000f8bd01235b42ee
:1031bc00e381200001232566a3812560a56065605d
:1031cc0025616561a56108222900583001f082fc57
:1031dc006563a563a564e564e6e7c046dc4c0000c6
:020000040000fa
:1031ec001c4a137801210b431370110001224b6808
:1031fc001a42fcd117490023cb61a0231b060b629a
:10320c0080231b020b61144b10221a819a821a84a0
:10321c009a851a8744201a5250201a525c201a524e
:10322c0068201a5274201a5280201a528c201a527a
:10323c0098201a52a4201a52b0201a520f20bc22e5
:10324c0098520b78022213430b704b681a42fcd134
:0c325c007047c046002800408819002080
:020000040000fa
:10326800f0b585b001900e00140001f07ffa012836
:103278001ad1731efe2b17d8050002ab1e7100274a
:10328800af4220d003abd95da368013ba360002bfc
:1032980004daa269934219db0a2917d023685a1c59
:1032a800226019700137ebe723003200583303a975
:1032b800019800f093fb0500431ce0d14023060071
:1032c800a2891343a381300005b0f0bd2200019804
:0c32d800fff778f9431ce5d10600f4e78d
:020000040000fa
:1032e400f7b502268b8905000c00334206d0230073
:1032f40047332360236101236361f7bd01ab6a4651
:1033040000f046fb009907002800fff721fa002887
:1033140006d10c22a35e9a05efd41e43a681e6e7ec
:103324000d4bab628023a28920601343a381009bd1
:1033340020616361019b002b0ad00e23e15e28000b
:1033440001f032f9002803d00123a2891343a38199
:0c335400a0893843a081d0e7f14a0000b6
:020000040000fa
:1033600010b5194b1b78012b11d1fa239b00174a7a
:1033700012689a4211d8164b1b68642b1dd8154b46
:103380001b680a2b08d90022124b1a6004e00122a4
:103390000d4b1a7000f030fe10bd00220b4b1a606e
:1033a00001f05efb01f0c6fb032802d800f088fba9
:1033b000e1e7032001f0c4fbf8e70022044b1a60a8
:1033c00001f046fbdbe7c046681600205c160020d3
:0833d0005416002058160020dd
:020000040000fa
:1033d80010b582b00020fff7b3fb01f071fa00f0de
:1033e8006ffe01f09dfb00f013ff00f059fd01f0a6
:1033f80066fa0021124801f0e1fb01f0b1fa01f090
:10340800b9fa00f0a7f9fff7a7ff00f0f7f900f005
:1034180098ff6b46dc1d5523237001212000fef721
:1034280017fc0a2000f082fcaa2323700121200047
:10343800fef70efc0a2000f079fc012002b010bd56
:043448006d4c0000c7
:020000040000fa
:10344c0070b50300041e08d000f00afd9e231b1a61
:10345c00962b08dc9622d21a9440d8b26402640ae5
:10346c00c005204370bd992b0addb9222100d21a68
:10347c0091400a00511e8a410521091acc4014437f
:10348c0099212200c91a002900dd8a40140008493c
:10349c000c40550704d00f252a40042a00d00434d0
:1034ac00620102d59f230c401b1ae408d5e7c046e5
:0434bc00fffffffb14
:020000040000fa
:1034c00070b50500164c04228923e25401228a2398
:1034d000e2548023db03636000228823e254fef77a
:1034e000adfa4623e25a0f4b9a4206d103218923b3
:1034f0000b4ad1540120404270bd00f0fbf9002876
:1035000006d103218923064ad15401204042f3e722
:10351000034b00218922995401221a702800ebe7fd
:08352000741b0020ffff0000f6
:020000040000fa
:10352800836913b50400002b28d18364c364036541
:10353800134b144a1b6882620193984201d10123fc
:1035480083612000fff70efe60602000fff70afe8f
:10355800a0602000fff706fe0022e06004216068fa
:1035680000f05efb01220921a06800f059fb02224d
:103578001221e06800f054fb0123a36113bdc0468b
:08358800dc4c0000f14a0000d8
:020000040000fa
:103590000122144b1a601a00d369002bfcd180223f
:1035a0005200104b5a601a00d369002bfcd10d4b0e
:1035b0003422da600c4a1a601a00d369002bfcd15d
:1035c0001022084b5a831a00d369002bfcd1074bf9
:1035d000002221215a5420215a548322014b9a75ea
:1035e0007047c046000c004216001000f01f00207b
:020000040000fa
:1035f00000b583b001f072f901f07af901f0faf93f
:103600000b48fef725fe002200210a4801f07af956
:103610000121094801f034fa084b0193002300937b
:10362000074a08490848fff7f1f903b000bdc04652
:1036300080000020793a00009147000037210020e7
:0c3640006000002039210020182100202b
:020000040000fa
:10364c0070b5002802d00120404270bd114b1b7890
:10365c00002b02d001204042f7e70e4c23730122cd
:10366c002270636002254c22a5540a682261888866
:10367c00a08288686062c868a0620869a060496915
:10368c00e1626364a364536900210348984725737e
:0c369c000020dae7b41e00209926000090
:020000040000fa
:1036a80010b5134b1b78002b04d10123114a13705a
:1036b8000f4a1370002802d00120404210bd002993
:1036c80013d00d4b1b785bb2002b02d00120404277
:1036d800f4e78868084b98604a685a6002241c70ae
:1036e8000968536898470020e8e701204042e5e769
:0c36f8004121002040210020f020002093
:020000040000fa
:103704000b6970b505000c00002b01d1002070bdc1
:10371400002804d08369002b01d1fff703ff0b4b72
:103724009c4209d16c680c22a35e002beed02100d0
:103734002800fef7f7f8eae7054b9c4201d1ac6894
:10374400f1e7044b9c42eed1ec68ece750460000f4
:08375400704600003046000041
:020000040000fa
:10375c0010b50122104b1a60104b1b78012b0cd0aa
:10376c00022b0dd00e4b1b780c4a12789a4203d0c8
:10377c00012b08d0022b0ad010bd01f035f9f1e76e
:10378c0001f03bf9eee70122044b1a70f4e7022238
:10379c00024b1a70f0e7c04614210020352100209e
:0437ac0036210020a2
:020000040000fa
:1037b00010b5114b00229a61da61104b83221a7600
:1037c0005a680f4c22405a601a00d369002bfcd172
:1037d00000290cd003242023074ad4544000084376
:1037e000064b58621a00d369002bfcd110bd04248b
:1037f0002023014ad454f1e7f01f0020000c0042be
:04380000fffffbffcc
:020000040000fa
:1038040010b5114b1b78002b00d110bd01f084f9c9
:10381400012806d001f080f9012810d001f07cf9cc
:10382400f3e701f079f90028f4d1084c012323705f
:1038340001f096f9a060032001f068f9eae701f0cd
:103844006bf90028ead1e0e7340000203c000020b6
:020000040000fa
:1038540070b582b001ae104c04222100300001f09a
:10386400ebf8327804340d4d2100280000f0a0fa62
:103874007278a81c210000f09bfab278281d210060
:1038840000f096faf278a81d210000f091fa0823be
:103894002b7302b070bdc046b4130000ac0200200c
:020000040000fa
:1038a40070b50400c56903695b6a9847002813d0a2
:1038b400a36b1a68904218d05a68904213d09a6841
:1038c400002390420dd06b7101222523e2542a2259
:1038d400a35c0133a35470bd00236b712522a35450
:1038e400f5e7022302e0012300e000230133eae7c5
:020000040000fa
:1038f40070b582b0002301930f4b5c6880239b0159
:10390400e61801ad03e00134ff34b44211d023883a
:103914003d2bf8d863882b80230042331b886b80af
:1039240004220649280000f0b1fe0028ebd1012052
:1039340000e0002002b070bd741b00203c4c00006d
:020000040000fa
:103944000122114b1a7019000b8c1342fcd10f4b3e
:103954001b681a02e021c9000a409b065b0f1a4348
:10396400094b9a8502225a7003225a7305229a70cf
:1039740000221a8104225a8107229a711a00138c98
:103984009bb2002bfbd170470044004220608000b2
:020000040000fa
:1039940070b50e001d000e23c95e90b014000029fe
:1039a40007da00232b60b3891b0611d48023db00c4
:1039b4000fe001aa00f0e6fd0028f2dbf022029bf2
:1039c40012021340054a9b185a4253412b60ede7fb
:1039d40040230020236010b070bdc04600e0ffff0c
:020000040000fa
:1039e4007fb51d000f4b04001b681b6a002911d111
:1039f400002b00d10c4be0331e6800222b0001a9e0
:103a04002000b047431c03d100232b608a2323608a
:103a140004b070bd002b00d1034be0331e682b00b3
:0c3a2400eee7c046242100201c18002002
:020000040000fa
:103a300010b5064c2378002b07d1054b002b02d084
:103a4000044800e000bf0123237010bdb82000200f
:103a50000000000000000000044b10b5002b03d054
:103a60000349044800e000bf10bdc046000000004c
:083a7000bc2000200000000052
:020000040000fa
:103a780010b582b000240a4b1c6000f0dffb012265
:103a8800084b1a70084b019300940023074a084911
:103a98000848fef7b7ff012001f066f802b010bd34
:103aa8001021002034210020372100206000002050
:083ab800392100201821002033
:020000040000fa
:103ac00070b50c4d0c4c21782868fff73ffa286040
:103ad000002323700a21fff739fa084b1a6894462d
:103ae00060441860fff7b2fc0549fdf7abfa054bdf
:103af000186070bd0821002038210020042100201a
:083b0000000020410c2100200f
:020000040000fa
:103b0800f0b5c64600b50e4d00240e4f0123984669
:103b180004e07e6101340c35102c0ed02a7ae3b211
:103b28009a42f7d17b694646a6401e42f2d02b68de
:103b3800002beed068689847ebe704bc9046f0bdd0
:083b480088190020002800404c
:020000040000fa
:103b500010b50a4b98470a4b9847fff769f9094a8d
:103b6000ff21094b8b439360084b9847084b9847bc
:103b7000084b9847fff730fcfee7c046eb4c0000cf
:103b8000eb4c000000ed00e000000000993b00005d
:083b9000eb4c0000eb4c0000bf
:020000040000fa
:103b980070b500260c4d0d4c641ba410a64209d12b
:103ba8000026fcf787fa0a4d0a4c641ba410a642ab
:103bb80005d170bdb300eb5898470136eee7b30066
:103bc800eb5898470136f2e7c8000000c80000002b
:083bd800c8000000cc00000051
:020000040000fa
:103be000f8b50d00096e06001400d718890418d521
:103bf0009f08bf00d719bc4201d1002008e02a006d
:103c000002cc300000f053fd431cf4d101204042af
:103c1000f8bd21782a00300000f082fb0134431cfb
:083c2000f4d0bc42f5d1e8e745
:020000040000fa
:103c2800002310b50400036043608360818103664c
:103c3800c28103614361836119000822583000f092
:103c48004bff054b24626362044ba362044be3629f
:103c5800044b236310bdc046ed430000c13f000084
:083c6800f5420000194c0000b8
:020000040000fa
:103c7000f7b5050c019393b21f006b439c46140cdf
:103c800086b277436643654366443c0ca419a3425d
:103c900002d980235b02ed18260cbfb2019b2404dd
:103ca000e41943432000514375195918491903b0c9
:023cb000f0bd65
:020000040000fa
:103cb200f7b504000700002601914834002c01d119
:103cc2003000febd6368a5680093009b013b009332
:103cd20001d52468f2e7ab89012b08d90e22ab5e2d
:103ce200013304d029003800019b9847064364350c
:023cf200ebe7fe
:020000040000fa
:103cf4000a4a136801331360094a136801331360d5
:103d0400084a136801331360074a136801331360c8
:103d1400064a1368013313607047c04660160020da
:103d240058160020541600205c160020641600204b
:020000040000fa
:103d340070b50d4b5e681b68db0714d50b4b5843fd
:103d4400094b9b6800280ed00021074c013605e082
:103d5400b51aeb18c9181300884204d9a2689a420c
:103d6400f6d89b1af6e770bd10e000e080bb0000b7
:020000040000fa
:103d7400002b11d1002a0fd1002900d1002802d034
:103d84000021c943081c07b4024802a1401802904c
:103d940003bdc046410f000003b4684601b5029854
:103da400fef7c8fa019b9e4602b00cbc7047c046a1
:020000040000fa
:103db4000eb410b582249bb0019005900b4801ab62
:103dc400039006900120a4009c8100241daa02ca2d
:103dd4004042d88118001994009200f04ffd019bd5
:103de4001c701bb010bc08bc03b01847ffffff7f5a
:020000040000fa
:103df40010b5002808d00b4c2068c0b20a4900f066
:103e040079f90023236010bd00f07afc0100054c11
:103e1400236805481818fef7e3fe2368c0182060dd
:0c3e2400e9e7c0461c21002050040020eb
:020000040000fa
:103e30000b4b00221a621a779a60da608022920293
:103e4000084b5a601a00d369002bfcd1054b17228e
:103e50001a73054a1a601a00d369002bfcd1704707
:0c3e60001c200020000400420e00200086
:020000040000fa
:103e6c001c2101231b04984201d3000c10391b0a9e
:103e7c00984201d3000a08391b09984201d3000962
:103e8c00043902a2105c40187047c04604030202b9
:0c3e9c0001010101000000000000000016
:020000040000fa
:103ea80010b59c220021084800f016fe0322074b9b
:103eb8001a700022064b1a6000f0e4fa00f048fe7f
:103ec800044b986010bdc046481a0020040000202a
:083ed800000000200c00002096
:020000040000fa
:103ee00010b520230b4ce45c0023002c01d01800fb
:103ef00010bd084b9880d9605a6100229a601a61ff
:103f0000012199701a7021215a540121fff750fca8
:083f10000123ece7f01f002083
:020000040000fa
:103f180070b520240b4d2d5d0024002d01d020000c
:103f280070bd084ca080e360049b6361a1602261be
:103f38000023a37023702122a3540021fff734fc2f
:083f48000124ece7f01f00204a
:020000040000fa
:103f500070b50d00160000280dd10a4800f065fd6f
:103f600000280bd0074c23681b68310028009847b5
:103f70000123637170bd01204042fbe701204042f4
:083f8000f8e7c046fc20002018
:020000040000fa
:103f880070b50d00160000280dd10a4800f049fd53
:103f980000280bd0074c2368db68310028009847bd
:103fa8000123637170bd01204042fbe701204042bc
:083fb800f8e7c046fc200020e0
:020000040000fa
:103fc000f8b51f008b8905000c001600db0505d530
:103fd0000e23c95e0022022300f030faa389054aad
:103fe00028001340a38132000e23e15e3b0000f065
:083ff00011faf8bdffefffff1d
:020000040000fa
:103ff8000023064a1360064a1360064a1360064afd
:104008001360064a1360064a137070476016002052
:1040180058160020541600205c1600206416002054
:0440280068160020f6
:020000040000fa
:10402c0010b520230a4ce45c0023002c01d01800ae
:10403c0010bd074b9880dc605c6199601a619c70c4
:10404c001c7021229c540021fff7acfb0123eee7ee
:04405c00f01f002031
:020000040000fa
:1040600070b50c00002811d1094b1b785bb2002bf6
:104070000cd0074b5d68002d08d0080000f040fd13
:104080000200034b98686b692100984770bdc046d9
:04409000f0200020fc
:020000040000fa
:10409400303132333435363738394142434445467a
:1040a4000030313233343536373839616263646510
:1040b4006600232d302b2000686c4c006566674534
:0340c4004647006c
:020000040000fa
:1040c80010b5012000f020fd0122074b1a700422d0
:1040d8008223db059a6100f0f5fa044b00225a802e
:1040e8009a801a7010bdc046340000203c000020a1
:020000040000fa
:1040f80030b500280ed00a000138c0b201300918c6
:104108000548064d03781478ec54013303700132e6
:104118008a42f7d130bdc0463c210020500900201a
:020000040000fa
:1041280010b500280bd1094800f07bfc002809d005
:10413800064c23681b6998470123637110bd012051
:104148004042fbe701204042f8e7c046fc2000203f
:020000040000fa
:1041580010b500280bd1094800f063fc002809d0ed
:10416800064c23685b6998470123637110bd0120e1
:104178004042fbe701204042f8e7c046fc2000200f
:020000040000fa
:1041880010b500280bd1094800f04bfc002809d0d5
:10419800064c23689b6898470123637110bd012072
:1041a8004042fbe701204042f8e7c046fc200020df
:020000040000fa
:1041b80010b500280bd1094800f033fc002809d0bd
:1041c800064c23685b6898470123637110bd012082
:1041d8004042fbe701204042f8e7c046fc200020af
:020000040000fa
:1041e800084a1368002b09d007491818884202d8d2
:1041f80010601800704701204042fbe7034b136032
:10420800f2e7c04630210020482300204821002042
:020000040000fa
:1042180010b50021064800f0cbfc0021054800f04d
:10422800c1fc0022044b1a7000f08cf810bdc04687
:0c4238004d4b0000f53d00003e21002031
:020000040000fa
:10424400084b586c084a10409b69db0709d5054a9e
:10425400936901218b439361110001228b691a42f6
:0c426400fcd17047001c0042e74700003e
:020000040000fa
:10427000ad4b0000e52b00000000000005470000ea
:1042800000000000b94b0000591c000000000000b5
:0c429000454c0000b14a0000f11700008e
:020000040000fa
:10429c000003000021480000513f0000b94100001c
:1042ac0089410000893f000029410000594100006c
:0c42bc00ed4c0000a5490000d54c0000ae
:020000040000fa
:1042c80070b564254a1e55430e0029007031fef76b
:1042d8003dfa041e08d000212a00016046600c3017
:0c42e800a060643200f0f8fb200070bd04
:020000040000fa
:1042f40070b50c000e25495f00f09ef8a389421c9e
:1043040003d1054a1340a38170bd80225201134397
:0c431400a3816065f8e7c046ffefffffe3
:020000040000fa
:10432000936810b5013b9360002b05da9469a342b2
:1043300008dbcbb20a2b05d01368581c106019702b
:0a434000c8b210bdfef742f9fbe71a
:020000040000fa
:02434a007047ba
:020000040000fa
:10434c0010b5074cc02212010021200000f0c2fb66
:10435c00033c00236370a3702370024a137010bdda
:08436c00530a00203b21002050
:020000040000fa
:10437400ef1ff138ffffff9fef20f138ffffff9f92
:10438400ef31f138ffffff9fd002f12cffffff9fb9
:08439400ef42f138ffffff9f2b
:020000040000fa
:10439c002023074ad35c0120002b07d1054b588bf7
:1043ac00302318401038431e9841c0b27047c046a5
:0843bc00f01f0020000c00427c
:020000040000fa
:1043c4000000000001000000fffffffffffffffff0
:1043d400ffffffffffffffffffffffffffffffffe9
:0843e400ffffffffffffffffd9
:020000040000fa
:1043ec0070b50c000e25495f00f036f8002803db91
:1043fc00636d1b18636570bda389024a1340a381ca
:08440c00f9e7c046ffefffffd6
:020000040000fa
:1044140070b50500080011000022064c22601a0045
:1044240000f03efc431c03d12368002b00d02b601a
:0844340070bdc046881600208f
:020000040000fa
:10443c0070b50500080011000022064c22601a001d
:10444c0000f022fc431c03d12368002b00d02b600e
:08445c0070bdc0468816002067
:020000040000fa
:1044640070b50500080011000022064c22601a00f5
:1044740000f012fc431c03d12368002b00d02b60f6
:0844840070bdc046881600203f
:020000040000fa
:10448c00064b074a117b1973117d19751169196156
:10449c00517d5975927d9a757047c0460c0000206d
:0444ac00c41f002009
:020000040000fa
:1044b000054a00231360936004495160062111608e
:1044c000034a93601360704710e000e07fbb000078
:0444d000e4200020c4
:020000040000fa
:1044d40010b5064b1b68064b9a6801329a601b683c
:1044e400002b02d0024a5068984710bd10e000e04b
:0444f400e4200020a0
:020000040000fa
:1044f800d04a00007020002001000000c4430000e2
:10450800644c00005c4c000004000000e41a002029
:04451800c04a000095
:020000040000fa
:10451c0082b0002900d101a9101e06d0002b06d0b4
:10452c0013780b601078431e984102b0704702203c
:04453c004042fae718
:020000040000fa
:10454000002370b5064c050008002360fff74cfe01
:10455000431c03d12368002b00d02b6070bdc046e4
:044560008816002099
:020000040000fa
:10456400002370b5064c05000800236000f084fbae
:10457400431c03d12368002b00d02b6070bdc046c0
:044584008816002075
:020000040000fa
:10458800002370b5064c050008001100236000f0f8
:1045980075fb431c03d12368002b00d02b6070bd32
:0445a8008816002051
:020000040000fa
:1045ac00002370b5064c05000800236000f068fb82
:1045bc00431c03d12368002b00d02b6070bdc04678
:0445cc00881600202d
:020000040000fa
:1045d00010b5064b00213022995419003031988ac9
:1045e0001b695b680122984710bdc046b41e0020bd
:020000040000fa
:1045f00010b5800080b28001044b5b68181800f091
:10460000d3f800f093f90028fbd110bd741b0020f3
:020000040000fa
:104610007042000001000000d420002090490000fa
:10462000f0470000dc4b0000d04b0000030000000e
:020000040000fa
:10463000000000000000000000000000000000007a
:10464000000000000000000000000000000000006a
:020000040000fa
:10465000000000000000000000000000000000005a
:10466000000000000000000000000000000000004a
:020000040000fa
:10467000000000000000000000000000000000003a
:10468000000000000000000000000000000000002a
:020000040000fa
:1046900030b50024a24201d1002005e0035d651c75
:0e46a0000c5da34201d0181b30bd2c00f2e7c8
:020000040000fa
:1046ae0010b50c23d45e80239b011c4204d11c4305
:0e46be009481146e23431366fef7cffd10bdea
:020000040000fa
:1046cc0070b58224e405022565610a20fff72cfbf6
:0c46dc00a5616420fff728fb656170bd3c
:020000040000fa
:1046e800054b9868db68984204d2034a126980181f
:0c46f800c01a7047c01afce7441f0020e5
:020000040000fa
:10470400054ad36a906a834204d9034a126b80181b
:0c471400c01a7047c01afce7441f0020c8
:020000040000fa
:104720004a78044b1a70044b4a885a8002221a7045
:0c4730000020704785160020202100208a
:020000040000fa
:10473c00054b9868db68984204d2034a12698018ca
:0c474c00c01a7047c01afce7841f002050
:020000040000fa
:10475800054ad36a906a834204d9034a126b8018c7
:0c476800c01a7047c01afce7841f002034
:020000040000fa
:10477400044b1b681b6a002b00d1034b942252008c
:0c478400985c7047242100201c180020c5
:020000040000fa
:1047900010b50122034b1a708020800000f0e8f968
:0847a00010bdc0463a210020c3
:020000040000fa
:1047a8004008034bd861034a1a8001207047c0466d
:0847b800004000411aa5ffffbb
:020000040000fa
:1047c000d847000057000000100000000001000062
:0847d0000100000000000000e0
:020000040000fa
:1047d800193f00002d400000e13e00009d4300000d
:0847e800a14a0000954b0000fe
:020000040000fa
:1047f000020000000000000000000800ffffffffb3
:08480000ffffffffffffffffb8
:020000040000fa
:10480800792c000059470000b9490000651d0000d7
:08481800754c0000cd490000c1
:020000040000fa
:10482000002805d1034b01225a71096819601a71d9
:084830007047c046fc20002087
:020000040000fa
:10483800d0400b1cd1409c46203ad34018435242ea
:1048480063469340184370479140031c90409c4630
:10485800203a9340194352426346d3401943704764
:1048680010b5002903d1fff7fdfa203002e0081c3b
:08487800fff7f8fa10bdc0467d
:020000040000fa
:1048800010b513000a00010002480068fbf792fe11
:0848900010bdc04624210020e8
:020000040000fa
:104898000b1e04d0ff2a04d98a2303608b3b18001f
:0848a80070470a700123fae7d2
:020000040000fa
:1048b000c9b28218904201d10020704703788b4220
:0648c000fbd00130f6e719
:020000040000fa
:0248c600704739
:020000040000fa
:1048c800034b01221a705a709a700522da707047e9
:0448d80008000020b4
:020000040000fa
:1048dc0010b5c8220021024800f0fcf810bdc046fb
:0448ec00bc020020ea
:020000040000fa
:1048f00010b540220021024800f0f2f810bdc04679
:044900006c02002025
:020000040000fa
:10490400002804d0024bd200d0509a18516070474e
:0449140098200020c7
:020000040000fa
:10491800002803d172b6bff35f8f7047bff35f8f74
:0449280062b6fae792
:020000040000fa
:10492c00034b187d01234340012018407047c046bb
:04493c0000400041f6
:020000040000fa
:10494000034b187e4008012358400123184070474c
:04495000000400421d
:020000040000fa
:1049540010b5034b1c69fff7c5fe013c201a10bdbe
:04496400441f0020cc
:020000040000fa
:10496800034b00229a601a6801210a431a607047b3
:0449780010e000e06b
:020000040000fa
:10497c00034b9b68db0602d4a522014b1a737047cc
:04498c0000200040c7
:020000040000fa
:104990000500000006000000070000000000000005
:0449a0000100000012
:020000040000fa
:1049a4000323002801d1024b1b7918007047c0462d
:0449b400fc200020c3
:020000040000fa
:1049b80010b5034b1c6bfff7cbfe013c201a10bd52
:0449c800841f002028
:020000040000fa
:1049cc0010b5034b1c69fff7b3fe013c201a10bd58
:0449dc00841f002014
:020000040000fa
:1049e00002b4714649084900095c49008e4402bc82
:0449f0007047c04606
:020000040000fa
:1049f40010b50022802109048220c00500f0c2f80d
:024a040010bde3
:020000040000fa
:104a060010b5802109040a008220c00500f0b9f81b
:024a160010bdd1
:020000040000fa
:104a1800eff3108072b6bff35f8f43425841c0b2c4
:024a28007047d5
:020000040000fa
:104a2a0042790023012a01d01800704743710123fb
:024a3a00fae799
:020000040000fa
:104a3c00002310b59a4200d110bdcc5cc454013394
:024a4c00f8e789
:020000040000fa
:024a4e007047af
:020000040000fa
:104a5000024a1368013313607047c046000000200b
:020000040000fa
:104a6000024a1368013313607047c04610210020ca
:020000040000fa
:104a700000222423c2542922835c013383547047cb
:020000040000fa
:104a8000002802d0014b9861d9617047982000201e
:020000040000fa
:104a90000001020304050607080c1014182030401a
:020000040000fa
:104aa0002123024ad05cc0b27047c046f01f0020ec
:020000040000fa
:104ab000024bd88f80b20022da877047441f002053
:020000040000fa
:104ac00001000000090000000000000000000000dc
:020000040000fa
:104ad000a12d0000b116000041490000a14b0000cb
:020000040000fa
:104ae00003008218934200d1704719700133f9e72f
:020000040000fa
:104af00010b50249fff7ddf810bdc04605370000cc
:020000040000fa
:0e4b00000023c25c0133002afbd1581e70470f
:020000040000fa
:024b0e00fee7c0
:020000040000fa
:0c4b1000014b18707047c04608000020e0
:020000040000fa
:0c4b1c00014b18787047c04608000020cc
:020000040000fa
:0c4b280010b5fef793fefef75ffd10bd18
:020000040000fa
:0c4b3400014b18687047c046102100209b
:020000040000fa
:0c4b4000014b18707047c0463621002061
:020000040000fa
:0c4b4c000122014b1a7070473d2100202f
:020000040000fa
:0c4b5800014b98687047c046c41f002045
:020000040000fa
:0c4b6400014b18687047c0466016002026
:020000040000fa
:0c4b7000014b18657047c046001c004255
:020000040000fa
:0c4b7c008422014b5a6070470040004149
:020000040000fa
:0c4b880003695a40114059400161704718
:020000040000fa
:0c4b9400014b586299627047f01f00202e
:020000040000fa
:0c4ba000014b1862596270471c20002075
:020000040000fa
:0c4bac00014b186259627047441f002042
:020000040000fa
:0c4bb800014b186059607047441f00203a
:020000040000fa
:0c4bc400014b186059607047e42000208d
:020000040000fa
:0c4bd000040000000000000002000000d3
:020000040000fa
:0c4bdc0000000000ffffffff4000000091
:020000040000fa
:0c4be800d04c00009c42000000000000c7
:020000040000fa
:0c4bf4000022014b1a707047841600204c
:020000040000fa
:0c4c0000014b58887047c046202100205e
:020000040000fa
:0c4c0c00014b18787047c0468516002048
:020000040000fa
:0c4c180010b50e23c95efff7a1fc10bd13
:020000040000fa
:0c4c240080239b0100204b607047c046bd
:020000040000fa
:0b4c30004300504f53495800002e0075
:020000040000fa
:084c3c00454d76310000c04631
:020000040000fa
:084c440010b5fff74ffd10bd94
:020000040000fa
:084c4c0010b5fff7e3fe10bdf7
:020000040000fa
:084c540010b5fff75ffe10bd73
:020000040000fa
:084c5c00000000100000000040
:020000040000fa
:084c6400000000000000002028
:020000040000fa
:084c6c0010b5fff741f810bd7f
:020000040000fa
:084c740010b5fff761fd10bd52
:020000040000fa
:084c7c0010b500f015f810bda1
:020000040000fa
:084c840010b5fff7cdff10bdd4
:020000040000fa
:084c8c0010b500f027f810bd7f
:020000040000fa
:084c940010b500f025f810bd79
:020000040000fa
:084c9c0010b500f009f810bd8d
:020000040000fa
:084ca40010b500f008f810bd86
:020000040000fa
:084cac00012040427047c046a0
:020000040000fa
:064cb400012040427047a0
:020000040000fa
:064cba000120404270479a
:020000040000fa
:044cc000df07d01723
:020000040000fa
:044cc4008161704753
:020000040000fa
:044cc800416170478f
:020000040000fa
:044ccc0000040000e0
:020000040000fa
:044cd0000848000090
:020000040000fa
:044cd4000120704704
:020000040000fa
:044cd8007047c0461b
:020000040000fa
:044cdc00001e002096
:020000040000fa
:044ce00001207047f8
:020000040000fa
:044ce40000207047f5
:020000040000fa
:024ce800fee7e5
:020000040000fa
:024cea00704711
:020000040000fa
:024cec0070470f
:020000040000fa
:024cee0070470d
:020000040000fa
:024cf00070470b
:020000040000fa
:0200000400807a
:04400000270800008d
:020000040000fa
:0200000400807a
:044004000000ffffba
:00000001FF
