:020000040000fa
:10000000f07f0020b55f0000096f00000b6f00005b
:1000100000000000000000000000000000000000e0
:100020000000000000000000000000003b4600004f
:1000300000000000000000003b460000496700008f
:100040003b4600003b4600003b4600006d5f000061
:100050003b4600003b4600003b4600003b4600009c
:100060003b4600006d37000051350000493b000061
:100070003b4600000000000000000000d5320000f8
:10008000000000003b4600003b4600003b460000ed
:100090003b4600003b4600003b4600003b4600005c
:1000a0003b4600003b4600003b4600003b4600004c
:0c00b0003b4600003b4600003b460000c1
:020000040000fa
:1000bc00f8b5c046f8bc08bc9e467047bd5e000053
:1000cc00f8b5c046f8bc08bc9e467047955e00006b
:020000040000fa
:0800dc002048000001000000b3
:020000040000fa
:1000e40070b5c0b0ce4b9b88ce4a934201d101f08b
:1000f400eafb50d9cc4a934201d101f059fe01d90f
:1001040000f00ffdf93aff3a934201d101f013fddb
:1001140000d8cfe3c54a934201d101f0c1fd01d813
:1001240000f078fcc24a934201d101f001fe01d8eb
:1001340000f0cdfcbf4a934201d101f007fefa3230
:10014400934201d101f023fefb3a934201d000f027
:10015400aafeb94c0f22b9496831200006f097fd78
:10016400200006f0fcfd0100200004f0d7f88022f6
:100174001201b34b1a80fc32a94b9a80b14b1a6816
:10018400b14b1a60200006f0eafd81b2200006f0af
:1001940071fe00f088fead4a934201d101f0f2f8fd
:1001a4003ed9ab4a934201d101f045fa00d80be2a3
:1001b400c022d200934201d101f0a6fa00d8d3e2c2
:1001c400a44a934201d101f0e2fa00d812e3a24a10
:1001d400934201d101f0fcfa01d901f053fb964c92
:1001e4000f229e491c31200006f051fd200006f02c
:1001f400b6fd0100200004f091f8994a994b1a8049
:10020400f832874b9a808f4b1a68974b1a602000fc
:1002140006f0a5fd81b2200006f02cfe00f043fe9e
:10022400fe3aff3a934201d100f067ff00d9bee0e5
:10023400fc3a934201d100f07afe5ed8033a93422d
:1002440001d100f032fe2bd8023a934201d100f0e2
:100254000bfe0132934201d000f025fe764c0722ba
:1002640082490831200006f012fd200006f077fdd7
:100274000100200004f052f80222ff327c4b1a8065
:10028400fb32674b9a806f4b1a687a4b1a602000d6
:1002940006f065fd81b2200006f0ecfd00f003fedf
:1002a4000422ff32934201d100f020fe0132934236
:1002b40001d000f0f8fd604c0b226c493031200075
:1002c40006f0e5fc200006f04afd0100200004f0e1
:1002d40025f882225200664b1a80f832504b9a80dd
:1002e400584b1a68634b1a60200006f038fd81b23f
:1002f400200006f0bffd00f0d6fdff22520093421d
:1003040001d100f0bbfe27d8023a934201d100f09c
:100314002ffe0132934201d000f0c5fd564c20005f
:1003240006f01dfd81b2200006f0a4fd80225200db
:100334000021200006f0fcfc4d4b1b880622ff32f6
:10034400934201d100f064fe0133354a93800022c8
:100354004a4b1a7000f0a7fd494a934201d100f0bc
:10036400c2fe0132934201d000f09dfd324c0522c1
:100374003e49200006f08bfc200006f0f0fc010052
:10038400200003f0cbff802292003e4b1a80fc3207
:10039400234b9a802b4b1a683b4b1a60200006f0c3
:1003a400defc81b2200006f065fd00f07cfd374ada
:1003b400934201d100f04cff00d9ace0033a9342e0
:1003c40001d100f0dafe67d8fa3a934201d100f085
:1003d400b4fe0132934201d000f065fd164c0b22ad
:1003e4002b493431200006f052fc200006f0b7fc03
:1003f4000100200003f092ff264a224b1a80f932b2
:10040400074b9a800f4b1a681f4b1a60200006f0a6
:10041400a6fc81b2200006f02dfd00f044fdc0468c
:100424003400002007060000fc0800000a07000052
:10043400fe0700000108000050000020042800000e
:1004440030220020bc160020ec210020fe03000016
:10045400ff040000030600000506000084260000d7
:10046400040600002e220020e821002004240000bd
:1004740036220020f8210020ac0900203c00002096
:10048400ff01000028220020dc210020ff020000e0
:100494008424000003020000eb4a934201d100f0df
:1004a400b9fe0132934201d000f0fdfc0022e74b7b
:1004b4001a70e74b64336a4623cb23c223cb23c28f
:1004c40003cb03c2684606f04afc81b2684606f0d4
:1004d400d1fce04b6c336a4603cb03c21b88138008
:1004e400dd49684606f098fa684606f038fc81b2a1
:1004f400684606f0bffcd94c200006f030fc81b2ff
:10050400200006f0b7fc802252000021200006f0f3
:100514000ffc00f0c8fcd24a934201d100f0c0fea7
:100524002ad8023a934201d100f099fe0132934253
:1005340001d000f0b8fcc84c0922c6493c31200067
:1005440006f0a5fb200006f00afc0100200003f0e1
:10055400e5fec44ac44b1a80fb32c44b9a80c44b98
:100564001a68c44b1a60200006f0f9fb81b220001f
:1005740006f080fc00f097fcff229200934201d128
:1005840000f0aefe0132934201d000f08cfcb34c7b
:10059400200006f0e4fb81b2200006f06bfc802210
:1005a40052000021200006f0c3fbaf4b1b88ac4a6d
:1005b400934201d100f0e1fe0133ac4a9380002262
:1005c400a24b1a7000f06ffcfb3a934201d100f089
:1005d40085ff5cd8033a934201d100f03fff2bd84a
:1005e400023a934201d100f001ff0132934201d05b
:1005f40000f059fc984c112296491031200006f065
:1006040046fb200006f0abfb0100200003f086fe51
:100614008022d200984b1a80fc32944b9a80944bdf
:100624001a68964b1a60200006f099fb81b22000ec
:1006340006f020fc00f037fc914a934201d100f00f
:100644002dff0132934201d000f02dfc824c09228f
:1006540080493c31200006f01afb200006f07ffba5
:100664000100200003f05afe864a834b1a80f932b7
:100674007e4b9a807e4b1a68804b1a60200006f0ed
:100684006efb81b2200006f0f5fb00f00cfc7e4a04
:10069400934201d100f062ff29d8f73a934201d185
:1006a40000f03cff0132934201d000f0fcfb6a4ca5
:1006b4000f2276495831200006f0e9fa200006f0ae
:1006c4004efb0100200003f029fe714a6a4b1a8098
:1006d400f632664b9a80664b1a68684b1a602000a3
:1006e40006f03dfb81b2200006f0c4fbdbe3694a5f
:1006f400934201d100f081ff0132934200d0d2e352
:100704000022524b1a70644b08336a4623cb23c22f
:1007140023cb23c21b881380684606f020fb81b2da
:10072400684606f0a7fb4b4b6c336a4603cb03c207
:100734001b8813804849684606f06ef9684606f03f
:100744000efb81b2684606f095fb444c200006f08f
:1007540006fb81b2200006f08dfb802252000021ae
:10076400200006f0e5fa9ee3fe3a934201d100f040
:1007740084ff2ad8023a934201d100f063ff013288
:10078400934200d08fe3314b1b78012b00d08ae3d6
:1007940000222e4b1a70304c1e223f494431200057
:1007a40006f075fa200006f0dafa0100200003f0e2
:1007b400b5fd2e4a938801339380200006f0cffaca
:1007c40081b2200006f056fb6de3344a934201d116
:1007d40000f077fffb32934200d064e31b4b1b789d
:1007e400012b00d05fe30022184b1a702c4a1f4bd8
:1007f4009a8058e3023a934201d100f0a7ff0132f4
:10080400934200d04fe3144c152226497431200042
:1008140006f03dfa200006f0a2fa0100200003f0e1
:100824007dfd214a214b1a80fa32104b9a80104bdd
:100834001a681f4b1a60200006f091fa81b220005a
:1008440006f018fb2fe3c046fd0200003c00002028
:10085400842400000424000050000020ac0900207f
:1008640002030000010300003222002034000020b3
:10087400bc160020f021002034220020f4210020a6
:100884000204000003040000fc040000042500002e
:1008940006040000fd040000842500000305000098
:1008a400ff05000004260000020600002e2200209e
:1008b400e8210020063a934201d101f0b1f855d85d
:1008c400033a934201d101f041f829d8f33a934213
:1008d40001d101f019f80132934200d0e3e2df4c78
:1008e4000e22df492431200006f0d1f9200006f061
:1008f40036fa0100200003f011fdc022d200d94bca
:100904001a80fc32d84b9a80d84b1a68d84b1a609c
:10091400200006f024fa81b2200006f0abfac2e20d
:10092400d44a934201d101f01ff80132934200d01e
:10093400b9e2d14c200006f012fa81b2200006f090
:1009440099fa802252000021200006f0f1f9c54beb
:100954001b88c122d200934201d101f05cf801331b
:10096400c14a93800022c54b1a709ce2c44a934248
:1009740001d101f098f822d8023a934201d101f052
:100984008af80132934200d08de2b44c3022bd4942
:100994001431200006f07bf9200006f0e0f9010094
:1009a400200003f0bbfcb04a9388013393802000fd
:1009b40006f0d5f981b2200006f05cfa73e2b24a7f
:1009c400934201d101f093f80132934200d06ae2dc
:1009d400aa4b1b78012b00d065e20022a74b1a70aa
:1009e4009e4c2422a9495431200006f050f92000dd
:1009f40006f0b5f90100200003f090fc9a4a9388b0
:100a040001339380200006f0aaf981b2200006f099
:100a140031fa48e2033a934201d101f0d4f82ad8da
:100a2400023a934201d101f0aaf80132934200d074
:100a340039e2924b1b78012b00d034e200228f4b19
:100a44001a70864c0f2292491c31200006f01ff9bf
:100a5400200006f084f90100200003f05ffc824ac4
:100a6400938801339380200006f079f981b2200045
:100a740006f000fa17e2e122d200934201d101f01c
:100a8400c6f80132934200d00de27c4b1b78012b57
:100a940000d008e20022794b1a70704c16227c496f
:100aa4007831200006f0f3f8200006f058f9010030
:100ab400200003f033fc6c4a9388013393802000b8
:100ac40006f04df981b2200006f0d4f9ebe1f33ad7
:100ad400934201d101f008f90132934200d0e2e1de
:100ae400664b1b78012b00d0dde10022634b1a70aa
:100af4005a4c0e225a492431200006f0c8f820002e
:100b040006f02df90100200003f008fc614a564b61
:100b14009a80200006f023f981b2200006f0aaf999
:100b2400c1e15d4a934201d101f0ccfa20d95b4a7c
:100b3400934201d101f04afb00d816e1584a93428e
:100b440001d101f085fb00d866e1564a934201d1f8
:100b540001f0f0fb01d201f0cefb0132934200d050
:100b6400a1e1802252000021434806f0e1f89ae115
:100b7400ff3a934201d101f0b9f900d9a0e0033a58
:100b8400934201d101f088f93ed8023a934201d14f
:100b940001f063f90132934200d084e10022374b23
:100ba4001a70414b34336a4623cb23c223cb23c26e
:100bb40023cb23c21b781370684606f0d0f881b2a9
:100bc400684606f057f9394b6c336a4603cb03c2c7
:100bd4001b8813802149684605f01eff684606f00d
:100be400bef881b2684606f045f9234c200006f0b1
:100bf400b6f881b2200006f03df9802252000021af
:100c0400200006f095f84ee190221201934201d1a2
:100c140001f04af90132934200d044e10f4c0f2213
:100c240023495831200006f032f8200006f097f8e6
:100c34000100200003f072fb1e4a1f4b1a80fb3296
:100c4400094b9a80094b1a681c4b1a60200006f065
:100c540086f881b2200006f00df924e1500000204e
:100c6400042700002e22002034000020bc1600209f
:100c7400e8210020fc060000ac0900203c00002014
:100c8400010700000426000002070000842700007a
:100c940084260000fe070000010a0000070a000085
:100ca400fc0a0000fe0a000084280000042400005e
:100cb40004250000010900002a220020e021002070
:100cc400d64a934201d101f08af924d8023a9342d8
:100cd40001d101f02cf90132934200d0e3e0d04c71
:100ce400200006f03cf881b2200006f0c3f8802210
:100cf40052000021200006f01bf8ca4b1b88ca4a88
:100d0400934201d101f066f90133c84a938000226d
:100d1400c74b1a70c7e0c74a934201d101f095f955
:100d24000132934200d0bee0c34c1022c349483183
:100d3400200005f0acff200006f011f801002000af
:100d440003f0ecfaa0221201bd4b1a80fc32b74b1f
:100d54009a80bc4b1a68bc4b1a60200005f0ffff58
:100d640081b2200006f086f89de0033a934201d157
:100d740001f0eaf928d8023a934201d101f0c3f90b
:100d84000132934200d08ee0ab4c0f22af49783150
:100d9400200005f07cff200005f0e1ff01002000a9
:100da40003f0bcfaaa4aa64b1a80f9329f4b9a80e8
:100db400a44b1a68a44b1a60200005f0d0ff81b23e
:100dc400200006f057f86ee0a24a934201d101f0e8
:100dd400dcf90132934266d1974c19229e49503175
:100de400200005f054ff200005f0b9ff01002000a9
:100df40003f094fa994a924b1a80f6328b4b9a80fc
:100e0400904b1a68904b1a60200005f0a8ff81b23d
:100e1400200006f02ff846e0f43a934201d101f0a5
:100e2400f6f9013293423ed1834c0e228c490831ab
:100e3400200005f02cff200005f091ff01002000a8
:100e440003f06cfa874a7e4b1a80f332774b9a8010
:100e54007c4b1a687c4b1a60200005f080ff81b23d
:100e6400200006f007f81ee0734c05227e4920009e
:100e740005f00dff200005f072ff0100200003f0d3
:100e84004dfa80225200794b1a80fc32674b9a80cb
:100e94006c4b1a68764b1a60200005f060ff81b233
:100ea400200005f0e7ff40b070bd634c11226e498d
:100eb4001031200005f0ebfe200005f050ff01008a
:100ec400200003f02bfa81225200684b1a80fa3278
:100ed400564b9a805b4b1a68654b1a60200005f0ec
:100ee4003eff81b2200005f0c5ffdce7524c0b2227
:100ef4005d492431200005f0cafe200005f02fffd3
:100f04000100200003f00afa0422ff32574b1a8032
:100f1400f932464b9a804b4b1a68554b1a602000a5
:100f240005f01dff81b2200005f0a4ffbbe7424c91
:100f340009224d493c31200005f0a9fe200005f0ae
:100f44000eff0100200003f0e9f90622ff32474baf
:100f54001a80f732354b9a803a4b1a68444b1a6020
:100f6400200005f0fcfe81b2200005f083ff9ae723
:100f74002f4b1b78022b41d02d4b1b78032b42d0d7
:100f8400304b1b683a4a12689b1a3a4a934200d87b
:100f940089e70022264b1a70334d2b0048336a46ea
:100fa40043cb43c243cb43c243cb43c2684605f061
:100fb400d6fe81b2684605f05dff2b006c336a46ad
:100fc40003cb03c21b8813801b49684605f024fd2c
:100fd400684605f0c4fe81b2684605f04bff104c2c
:100fe400200005f0bcfe81b2200005f043ff802202
:100ff40052000021200005f09bfe54e7fe22ff3240
:101004000a4b9a804fe7ff225200084b9a804ae726
:10101400194a064b9a80fff79af9c046fe09000068
:10102400ac0900202a22002001090000340000201d
:101034003c000020ff0900005000002004250000af
:101044002c220020bc160020e421002004280000eb
:10105400030a0000050a000004290000060a000033
:1010640084290000090a000004240000362200201c
:10107400f821002010270000ff0100000022df4bb0
:101084001a70df4d2b0078336a4643cb43c243cbff
:1010940043c203cb03c2684605f061fe81b26846d1
:1010a40005f0e8fe2b006c336a4603cb03c21b88b1
:1010b4001380d449684605f0affc684605f04ffe3e
:1010c40081b2684605f0d6fecf4c200005f047fefd
:1010d40081b2200005f0cefe8022520000212000c3
:1010e40005f026fedfe6802252000021c64805f006
:1010f4001ffe0022c14b1a70d5e6c24c0c22c34914
:101104001831200005f0c3fd200005f028fe010081
:10111400200003f003f9be4abe4b1a80fb32be4bdb
:101124009a80be4b1a68be4b1a60200005f017fe69
:1011340081b2200005f09efeb5e6b24c0e22b34902
:101144002431200005f0a3fd200005f008fe010075
:10115400200003f0e3f8b34aae4b1a80fa32ae4be8
:101164009a80ae4b1a68ae4b1a60200005f0f7fd6a
:1011740081b2200005f07efe95e6a04b1b78022b81
:1011840040d09e4b1b78032b40d0a44b1b68a44a31
:1011940012689b1aa44a934200d884e60022974b13
:1011a4001a709a4b40336a4623cb23c223cb23c203
:1011b40023cb23c2684605f0d2fd81b2684605f010
:1011c40059fe8f4b6c336a4603cb03c21b881380d2
:1011d4008c49684605f020fc684605f0c0fd81b2e4
:1011e400684605f047fe884c200005f0b8fd81b242
:1011f400200005f03ffe802252000021200005f06f
:1012040097fd50e6894a844b9a804ce6884a824b83
:101214009a8048e67c4c200005f0a1fd81b22000b4
:1012240005f028fe802252000021200005f080fdf8
:10123400784b1b887f4a934206d00133764a9380c9
:1012440000226e4b1a702ee67b4a734b9a80f7e7a6
:101254008022520000216c4805f06afd23e6694ca7
:101264000b2267493031200005f011fd200005f004
:1012740076fd0100200003f051f8c02292006f4b6c
:101284001a80fc32644b9a80644b1a686c4b1a6067
:10129400200005f064fd81b2200005f0ebfd02e6bc
:1012a400584c0c2259491831200005f0f0fc20005c
:1012b40005f055fd0100200003f030f8614a5f4b52
:1012c4001a80fa32544b9a80544b1a685c4b1a6059
:1012d400200005f044fd81b2200005f0cbfde2e5dd
:1012e400464b1b78022b40d0444b1b78032b40d039
:1012f4004a4b1b68524a12689b1a534a934200d8bd
:10130400d1e500223d4b1a70504b04336a4623cb7f
:1013140023c223cb23c223cb23c2684605f01ffd7f
:1013240081b2684605f0a6fd354b6c336a4603cba3
:1013340003c21b8813803349684605f06dfb684679
:1013440005f00dfd81b2684605f094fd2e4c200099
:1013540005f005fd81b2200005f08cfd80225200cd
:101364000021200005f0e4fc9de5394a2a4b9a80cf
:1013740099e5384a284b9a8095e5374a264b9a8056
:10138400fff71df900221d4b1a70304b28336a46b3
:1013940023cb23c223cb23c203cb03c2684605f06d
:1013a400defc81b2684605f065fd154b6c336a4678
:1013b40003cb03c21b8813801249684605f02cfb3b
:1013c400684605f0ccfc81b2684605f053fd0e4c2e
:1013d400200005f0c4fc81b2200005f04bfd802202
:1013e40052000021200005f0a3fc5ce5802252009d
:1013f4000021054805f09cfc55e5c0463c00002052
:101404000424000050000020ac09002084240000c3
:10141400010200002822002034000020bc16002015
:10142400dc21002002020000204e0000fd0200002a
:10143400fe02000003020000ff020000322200202e
:10144400f021002002030000102700000425000002
:10145400fd030000fe030000ff030000ed4c0b221f
:10146400ed492431200005f012fc200005f077fc42
:101474000100200002f052ffe84ae94b1a80fb32d7
:10148400e84b9a80e84b1a68e84b1a60200005f094
:1014940066fc81b2200005f0edfc04e5dd4c0b2276
:1014a400dd493031200005f0f2fb200005f057fc47
:1014b4000100200002f032ffdd4ad94b1a80fa32d3
:1014c400d84b9a80d84b1a68d84b1a60200005f084
:1014d40046fc81b2200005f0cdfce4e4cd4c0c22a6
:1014e400d4491831200005f0d2fb200005f037fc68
:1014f4000100200002f012ffcf4ac94b1a80f832d3
:10150400c84b9a80c84b1a68c84b1a60200005f073
:1015140026fc81b2200005f0adfcc4e4bd4c1022d1
:10152400c6494831200005f0b2fb200005f017fc45
:101534000100200002f0f2fec14ab94b1a80f732d2
:10154400b84b9a80b84b1a68b84b1a60200005f063
:1015540006fc81b2200005f08dfca4e4b94b1b7895
:10156400022b42d0b74b1b78032b42d0ae4b1b68e7
:10157400ae4a12689b1ab44a934200d893e40022fc
:10158400b04b1a70ad4b68336a4623cb23c223cbce
:1015940023c2196811609b889380684605f0dffbbd
:1015a40081b2684605f066fc9b4b6c336a4603cbfc
:1015b40003c21b8813809749684605f02dfa6846d4
:1015c40005f0cdfb81b2684605f054fc9f4c200029
:1015d40005f0c5fb81b2200005f04cfc80225200ce
:1015e4000021200005f0a4fb5de4994a8d4b9a800c
:1015f40059e4984a8b4b9a8055e4944c200005f0aa
:10160400aefb81b2200005f035fc8022520000219f
:10161400200005f08dfb824b1b888f4a934206d035
:101624000133804a93800022864b1a703be48b4a34
:101634007c4b9a80f7e7802252000021834805f012
:1016440077fb30e4734c1e2285492431200005f0d9
:101654001efb200005f083fb0100200002f05efe6b
:10166400704a938801339380200005f078fb81b29f
:10167400200005f0fffbfff716fc724b1b78012bd3
:1016840001d0fff710fc00226e4b1a70614c1e2231
:1016940073496431200005f0fafa200005f05ffb7d
:1016a4000100200002f03afe5e4a938801339380e1
:1016b400200005f054fb81b2200005f0dbfbfff7ae
:1016c400f2fb604b1b78012b01d0fff7ecfb0022ef
:1016d4005c4b1a704f4c0f2262490431200005f014
:1016e400d6fa200005f03bfb0100200002f016feb4
:1016f4005d4a4c4b9a80200005f031fb81b22000fa
:1017040005f0b8fbfff7cffb424c302255491431aa
:10171400200005f0bcfa200005f021fb01002000a8
:1017240002f0fcfdc022d200504b1a80fc323d4b2b
:101734009a803d4b1a684e4b1a60200005f00ffb4f
:1017440081b2200005f096fbfff7adfb314c2e2251
:1017540044494431200005f09afa200005f0fffacc
:101764000100200002f0dafd424a404b1a80fb32ad
:101774002c4b9a802c4b1a683d4b1a60200005f0c4
:10178400eefa81b2200005f075fbfff78cfb214ccb
:101794000f2239490c31200005f079fa200005f0b8
:1017a400defa0100200002f0b9fd344a2f4b1a8002
:1017b400f9321c4b9a801c4b1a682d4b1a6020007e
:1017c40005f0cdfa81b2200005f054fbfff76bfb66
:1017d400104c212228492c31200005f058fa200011
:1017e40005f0bdfa0100200002f098fd244a1f4bc9
:1017f4001a80f7320b4b9a800b4b1a681c4b1a60f9
:10180400200005f0acfa81b2200005f033fbfff7ad
:101814004afbc046500000200424000001040000dc
:101824003422002034000020bc160020f4210020c3
:1018340002040000842400000404000004250000c5
:10184400050400003c000020204e0000ac090020ec
:10185400fd040000fe04000006040000ff04000074
:101864008425000004260000fe0500002e2200202e
:10187400e821002001060000842600000306000081
:1018840005060000f44c2622f4495031200005f0ee
:10189400fef9200005f063fa0100200002f03efd8d
:1018a400ef4af04b1a80f632ef4b9a80ef4b1a68ee
:1018b400ef4b1a60200005f052fa81b2200005f0c7
:1018c400d9fafff7f0fae44c1622e4497831200003
:1018d40005f0ddf9200005f042fa0100200002f0d5
:1018e4001dfde44adf4b1a80f532df4b9a80df4b53
:1018f4001a68df4b1a60200005f031fa81b220002b
:1019040005f0b8fafff7cffad34c1222da491031b6
:10191400200005f0bcf9200005f021fa01002000a8
:1019240002f0fcfcc122d200ce4b1a80f432ce4b22
:101934009a80ce4b1a68ce4b1a60200005f00ffa3d
:1019440081b2200005f096fafff7adfacb4b1b7875
:10195400012b01d0fff7a7fa0022c84b1a70c84a1e
:10196400c14b9a80fff79ffac44b1b78022b48d0d7
:10197400c24b1b78032b49d0bc4b1b68bc4a126872
:101984009b1ac04a934201d8fff78dfa0022bb4b41
:101994001a70b94b34336a4623cb23c223cb23c2f8
:1019a40023cb23c203cb03c2198811809b78937085
:1019b400684605f0d4f981b2684605f05bfab24b8b
:1019c4006c336a4603cb03c21b881380a249684662
:1019d40005f022f8684605f0c2f981b2684605f0c0
:1019e40049faaa4c200005f0baf981b2200005f0aa
:1019f40041fa802252000021200005f099f9fff7f6
:101a040052faa34a984b9a80fff74dfaa14a964b93
:101a14009a80fff748fa9a4a934b9a80fef7a2fffe
:101a24000022964b1a70944b64336a4623cb23c22c
:101a340023cb23c223cb23c21968116099889180d8
:101a44009b799371684605f08af981b2684605f07e
:101a540011fa8d4b6c336a4603cb03c21b88138087
:101a64007d49684604f0d8ff684605f078f981b2ec
:101a7400684605f0fff9854c200005f070f981b245
:101a8400200005f0f7f9802252000021200005f023
:101a94004ff9fff708fa8022520000217b4805f035
:101aa40047f9fff700fa754b1b78012b01d0fff7bc
:101ab400faf90022714b1a70674c122276491031e0
:101ac400200005f0e4f8200005f049f901002000a9
:101ad40002f024fc644a938801339380200005f0cb
:101ae4003ef981b2200005f0c5f9fff7dcf9634b3c
:101af4001b78012b01d0fff7d6f900225f4b1a7037
:101b0400554c2e2264492431200005f0c0f82000f1
:101b140005f025f90100200002f000fc524a9388e8
:101b240002339380200005f01af981b2200005f0f9
:101b3400a1f9fff7b8f9514b1b78012b01d0fff73e
:101b4400b2f900224d4b1a70434c1e22524978318f
:101b5400200005f09cf8200005f001f901002000a8
:101b640002f0dcfb404a938801339380200005f0a7
:101b7400f6f881b2200005f07df9fff794f93f4ba8
:101b84001b78012b01d0fff78ef900223b4b1a7012
:101b9400314c0f2231490c31200005f078f8200037
:101ba40005f0ddf80100200002f0b8fb2e4a93880e
:101bb40001339380200005f0d2f881b2200005f0b3
:101bc40059f9fff770f92d4b1b78012b01d0fff762
:101bd4006af90022294b1a701f4c3d222f491831f3
:101be400200005f054f8200005f0b9f801002000a9
:101bf40002f094fb1c4a938801339380200005f083
:101c0400aef881b2200005f035f9fff74cf91b4b13
:101c14001b78012b01d0fff746f90022174b1a70ed
:101c24000d4c26220d495031200005f030f82000db
:101c340005f095f80100200002f070fb0a4a938831
:101c440001339380200005f08af881b2200005f06a
:101c540011f9fff728f9c04650000020842600003f
:101c6400060600002e22002034000020bc160020ae
:101c7400e821002007060000042700003c000020a3
:101c8400ff060000204e000004240000ac090020e0
:101c9400fd060000fe060000842700000428000062
:101ca400ee4b1b78012b01d0fff7fdf80022eb4b24
:101cb4001a70eb4c1022eb495831200004f0e7ff76
:101cc400200005f04cf80100200002f027fbe64a52
:101cd400938801339380200005f041f881b22000fd
:101ce40005f0c8f8fff7dff8dc4b1b78012b01d0b7
:101cf400fff7d9f80022d94b1a70d94c0f22d949d1
:101d04006831200004f0c3ff200005f028f801002a
:101d1400200002f003fbd44a93880133938020000f
:101d240005f01df881b2200005f0a4f8fff7bbf818
:101d3400ca4b1b78012b01d0fff7b5f80022c74b23
:101d44001a70ca4ac84b9a80fff7adf8c44c0f22e8
:101d5400c4497831200004f09aff200004f0ffff0a
:101d64000100200002f0dafac14ac24b1a80fb32a9
:101d7400bd4b9a80c04b1a68c04b1a60200004f017
:101d8400eeff81b2200005f075f8fff78cf8b34b35
:101d94001b78012b01d0fff786f80022af4b1a7095
:101da400b74ab14b9a80322004f014fafff77bf85b
:101db400aa4b1b78022b46d0a84b1b78032b47d089
:101dc400ad4b1b68ad4a12689b1aae4a934201d8c8
:101dd400fff769f80022a14b1a70ab4b08336a462f
:101de40023cb23c223cb23c223cb23c21968116084
:101df4001b791371684604f0b2ff81b2684605f09e
:101e040039f8a24b6c336a4603cb03c21b88138098
:101e14009349684604f000fe684604f0a0ff81b2ce
:101e2400684605f027f89a4c200004f098ff81b228
:101e3400200005f01ff8802252000021200004f049
:101e440077fffff730f8934a874b9a80fff72bf818
:101e5400914a854b9a80fff726f88d4c200004f0b8
:101e64007eff81b2200005f005f880225200002197
:101e7400200004f05dff7f4b1b887d4a934207d00e
:101e84000133794a93800022744b1a70fff70bf8e0
:101e94007b4a754b9a80f6e78022520000217c48e9
:101ea40004f046fffef7ffff6d4c10227b494831da
:101eb400200004f0ecfe200004f051ff010020009b
:101ec40002f02cfa90221201754b1a80fc32664bf8
:101ed4009a80694b1a68734b1a60200004f03fff24
:101ee40081b2200004f0c6fffef7ddff5c4c0e2239
:101ef4006d492431200004f0cafe200004f02fffb5
:101f04000100200002f00afa684a654b1a80fa328e
:101f1400554b9a80584b1a68624b1a60200004f0a3
:101f24001eff81b2200004f0a5fffef7bcff4b4b5f
:101f34001b78022b44d0494b1b78032b45d04e4bc6
:101f44001b68584a12689b1a594a934201d8fef7f3
:101f5400aaff0022414b1a704b4b5c336a4623cbd9
:101f640023c223cb23c203cb03c21b88138068463e
:101f740004f0f5fe81b2684604f07cff434b6c33f9
:101f84006a4603cb03c21b8813803549684604f0b4
:101f940043fd684604f0e3fe81b2684604f06aff3c
:101fa4003b4c200004f0dbfe81b2200004f062ff11
:101fb400802252000021200004f0bafefef773ffd5
:101fc4003c4a294b9a80fef76eff3b4a264b9a8087
:101fd400fef769ff394a244b9a80fef798fe0022e7
:101fe4001e4b1a70364b6a4623cb23c223cb23c223
:101ff400196811609b889380684604f0b0fe81b232
:10200400684604f037ff214b6c336a4603cb03c2a6
:102014001b8813801249684604f0fefc684604f0ed
:102024009efe81b2684604f025ff194c200004f09e
:1020340096fe81b2200004f01dff80225200002190
:10204400200004f075fefef72eff802252000021ce
:102054000f4804f06dfefef726ffc0463c0000204a
:10206400500000200428000034000020ff07000076
:102074000108000030220020bc160020ec210020c2
:10208400ff0800001027000084280000042400003a
:10209400ac090020fd080000fe0800000425000033
:1020a4002a220020e02100208424000002090000ec
:1020b400204e0000fd090000fe090000ff09000099
:1020c40004290000b74c0f22b7495831200004f00e
:1020d400defd200004f043fe0100200002f01ef9a2
:1020e400b24ab34b1a80fb32b24b9a80b24b1a6895
:1020f400b24b1a60200004f032fe81b2200004f0da
:10210400b9fefef7d0fea74c0e22ad4924312000c3
:1021140004f0bdfd200004f022fe0100200002f0c6
:10212400fdf8a84aa24b1a80fa32a24b9a80a24b1d
:102134001a68a24b1a60200004f011fe81b220003c
:1021440004f098fefef7affe964c13229e49203110
:10215400200004f09cfd200004f001fe010020009a
:1021640002f0dcf8994a924b1a80f832914b9a802b
:10217400914b1a68914b1a60200004f0f0fd81b273
:10218400200004f077fefef78efe864c19228e495d
:102194003431200004f07bfd200004f0e0fd010058
:1021a400200002f0bbf88a4a814b1a80f732814b37
:1021b4009a80814b1a68814b1a60200004f0cffd8d
:1021c40081b2200004f056fefef76dfe754c192214
:1021d4007d496c31200004f05afd200004f0bffd5d
:1021e4000100200002f09af87a4a714b1a80f53205
:1021f400704b9a80704b1a68704b1a60200004f080
:10220400aefd81b2200004f035fefef74cfe654cb5
:102214000e2271492431200004f039fd200004f01d
:102224009efd0100200002f079f86c4a604b1a8090
:10223400f432604b9a80604b1a68604b1a6020003d
:1022440004f08dfd81b2200004f014fefef72bfe95
:10225400634b1b78022b44d0614b1b78032b45d076
:10226400554b1b68554a12689b1a5e4a934201d823
:10227400fef719fe00225a4b1a705b4b18336a465c
:1022840023cb23c223cb23c223cb23c223cb23c2fe
:10229400684604f064fd81b2684604f0ebfd534bdc
:1022a4006c336a4603cb03c21b8813803d496846de
:1022b40004f0b2fb684604f052fd81b2684604f0b3
:1022c400d9fd4b4c200004f04afd81b2200004f0fb
:1022d400d1fd802252000021200004f029fdfef7e8
:1022e400e2fd444a334b9a80fef7ddfd424a314b0e
:1022f4009a80fef7d8fd3e4c200004f030fd81b2f8
:10230400200004f0b7fd802252000021200004f0d8
:102314000ffd274b1b882f4a934207d00133254ad0
:10232400938000222e4b1a70fef7bdfd334a214bd9
:102334009a80f6e700222a4b1a702b4b48336a46e0
:1023440023cb23c223cb23c223cb23c203cb03c27d
:10235400684604f004fd81b2684604f08bfd234b0b
:102364006c336a4603cb03c21b8813800d4968464d
:1023740004f052fb684604f0f2fc81b2684604f0b3
:1023840079fd1b4c200004f0eafc81b2200004f02b
:1023940071fd802252000021200004f0c9fcfef7e8
:1023a40082fdc0465000002004250000010a000000
:1023b4002c22002034000020bc160020e421002040
:1023c40084240000020a000004290000040a00001a
:1023d400050a0000070a000004270000080a00009c
:1023e4003c000020204e000084290000042400004a
:1023f400ac090020fd0a0000fe0a0000ff0a0000ec
:020000040000fa
:1024040041540d0a00000000415445300d0a0000fb
:1024140041542b434c434b3d225343222c320d0a4f
:102424000000000041542b4350494e3f0d0a000068
:1024340041542b434f50533f0d0a000041542b434a
:1024440053510d0a000000005f41545f4d4f445545
:102454004c455f434f4e4e45435420204572726fa6
:10246400725f74696d656f75740d0a0074785f45e9
:1024740052524f523a0000005f41545f4d4f445551
:102484004c455f434f4e4e45435420204572726f76
:10249400725f6d65670d0a0041542b4345524547f1
:1024a4003f0d0a0041542b434744434f4e543f0dc4
:1024b4000a00000041542b43434c4b3f0d0a0000db
:1024c4005f41545f34474c54455f6c696e6b5f6386
:1024d400686b20204572726f725f74696d656f75e9
:1024e400740d0a005f41545f34474c54455f6c6976
:1024f4006e6b5f63686b20204572726f725f6d65ef
:10250400670d0a005f41545f4e4554574f524b5f6d
:1025140053544154555320204572726f725f74694d
:102524006d656f75740d0a005f41545f4e455457d5
:102534004f524b5f53544154555320204572726f90
:10254400725f6d65670d0a0041542b555053443d2d
:10255400302c302c300d0a0041542b55505344413b
:102564003d302c330d0a00005f41545f52454c4fff
:10257400475f494e20204572726f725f74696d65c2
:102584006f75740d0a0000005f41545f52454c4f53
:10259400475f494e20204572726f725f6d65670d0b
:1025a4000a00000041542b555345434d4e473d30de
:1025b4002c302c227063626361222c313335390d47
:1025c4000a00000041542b555345434d4e473d30be
:1025d4002c312c227063626363222c313235370d27
:1025e4000a00000041542b555345434d4e473d309e
:1025f4002c322c22706362706b222c313637350ded
:102604000a00000041542b555345434d4e473d337a
:102614000d0a000041542b554d5154543d302c2289
:10262400394334393044333242423230383333362a
:10263400303138323045314137323938434532321e
:10264400220d0a0041542b554d5154543d322c2235
:1026540073686172656170702e73746f6e657465f2
:1026640063682e636f6d2e7477222c383838330ddf
:102674000a00000041542b554d5154543d332c2233
:10268400222c383838330d0a0000000041542b55f1
:102694004d5154543d362c310d0a000041542b55f4
:1026a4004d5154543d372c310d0a000041542b55e3
:1026b4004d5154543d382c22736572617068696db4
:1026c4002f6c61737477696c6c220d0a0000000032
:1026d40041542b554d5154543d392c22556e72653d
:1026e4007175657374656420646973636f6e6e6578
:1026f4006374220d0a00000041542b554d5154546b
:102704003d31302c333630302c32300d0a0000008d
:1027140041542b554d5154543d31312c312c320df3
:102724000a00000041542b554d515454433d310d82
:102734000a0000005f41545f4d5154545f424944c4
:1027440049525f415554485f504152415f4c4f419b
:102754004420204572726f725f74696d656f757481
:102764000d0a00005f41545f4d5154545f42494487
:1027740049525f415554485f504152415f4c4f416b
:102784004420204572726f725f6d65670d0a000008
:1027940041542b554d5154543d312c313838330d5f
:1027a4000a00000041542b554d5154543d322c2203
:1027b40073686172656170702e73746f6e65746591
:1027c40063682e636f6d2e7477222c313838330d85
:1027d4000a00000041542b554d5154543d332c22d2
:1027e4007878782e7878782e7878782e7878782299
:1027f4002c383838330d0a0041542b554d5154545c
:102804003d342c2274657374222c226d71747431de
:102814003233220d0a00000041542b554d515454bb
:102824003d382c22454d4f544f2f4445562f3943a4
:102834003439304433324242323038333336303133
:1028440038323045314137323938434532322f55e9
:1028540050220d0a0000000041542b554d51545490
:102864003d31312c300d0a0041542b554d515454f7
:102874004e563d320d0a000041542b554d515454cf
:102884004e563d310d0a00005f41545f4d51545482
:102894005f504152415f4f5045524154494f4e2081
:1028a400204572726f725f74696d656f75740d0a7d
:1028b400000000005f41545f4d5154545f50415239
:1028c400415f4f5045524154494f4e20204572724a
:1028d4006f725f6d65670d0a000000005f41545f11
:1028e40034475f4c54455f4c4f47494e2020457256
:1028f400726f725f74696d656f75740d0a00000004
:102904005f41545f34475f4c54455f4c4f47494ed9
:1029140020204572726f725f6d65670d0a000000ba
:1029240041542b555345435052463d322c302c31a3
:102934000d0a000041542b555345435052463d3235
:102944002c332c227063626361220d0a00000000a4
:1029540041542b555345435052463d322c352c227d
:102964007063626363220d0a0000000041542b551a
:102974005345435052463d322c362c2270636270cc
:102984006b220d0a0000000041542b554d51545444
:10299400433d300d0a0000005f41545f4d515454d3
:1029a4005f42494449525f415554485f4c4f47493f
:1029b4004e5f464c4f5720204572726f725f7469a8
:1029c4006d656f75740d0a005f41545f4d51545429
:1029d4005f42494449525f415554485f4c4f47490f
:1029e4004e5f464c4f5720204572726f725f6d6583
:0429f400670d0a0061
:020000040000fa
:1029f800942100201c000000000000009c1c002006
:102a08009c000000000000000000002034000000ce
:102a18000000000028220020020000000000000042
:102a2800dc21002004000000000000002a22002011
:102a38000200000000000000e02100200400000067
:102a4800000000002c22002002000000000000000e
:102a5800e421002004000000000000002e220020d5
:102a68000200000000000000e8210020040000002f
:102a780000000000302200200200000000000000da
:102a8800ec21002004000000000000003222002099
:102a98000200000000000000f021002004000000f7
:102aa80000000000342200200200000000000000a6
:102ab800f42100200400000000000000362200205d
:102ac8000200000000000000f821002004000000bf
:102ad800000000003400002080000000000000001a
:102ae800fc2100200400000000000000002200205b
:102af80004000000000000003c220020010000004b
:102b0800000000003d22002001000000000000003d
:102b18003e220020010000000000000004220020e6
:102b2800040000000000000008220020040000004b
:102b3800000000000c22002004000000000000003b
:102b48003f22002001000000000000004022002079
:102b58000100000000000000102200200400000016
:102b680000000000412200200100000000000000d9
:102b780042220020010000000100000001000000c6
:102b8800c0000020ec0300000000000038220020f4
:102b980002000000000000001422002004000000d1
:102ba80000000000ac040020031200000000000038
:102bb800f42000202c00000000000000b0160020c7
:102bc80015000000000000003a220020020000006a
:102bd8000000000024200020500000000000000039
:102be800c41d00208000000000000000381d0020e7
:102bf8008c0000000000000074210020200000006c
:102c0800000000004c210020280000000000000007
:102c1800e01800209001000000000000dc1b0020ec
:102c2800c000000000000000202100202c0000004f
:102c380000000000441e002080000000000000008a
:102c4800c41e002080000000000000007420002046
:102c58004000000000000000441f00208000000029
:102c680000000000e0160020000200000000000044
:102c7800b42000204000000000000000d021002007
:102c88000c00000000000000b0210020100000002f
:102c980000000000c021002010000000000000001b
:102ca800c81600201000000000000000d816002000
:102cb80001000000000000001822002004000000ad
:102cc80001000000c41f0020c41f00206000000095
:102cd8000100000000000000c0680000e06800007b
:102ce800a0680000000000000000000000000000d4
:102cf80000000000000000000000000000000000cc
:102d080000000000000000000000000000000000bb
:102d180000000000000000000000000000000000ab
:102d2800000000000000000000000000000000009b
:102d380000000000701a00206c0100000100000073
:102d48004300000000000000000000000000000038
:102d5800000000000000000000000000000000006b
:102d68004300000000000000000000000000000018
:102d7800000000000000000000000000000000004b
:102d880043000000000000000000000000000000f8
:102d9800000000000000000000000000000000002b
:102da80043000000000000000000000000000000d8
:102db800000000000000000000000000000000000b
:102dc80043000000000000000000000000000000b8
:102dd80000000000000000000000000000000000eb
:102de8004300000000000000000000000000000098
:102df80000000000000000000000000000000000cb
:102e08004300000000000000000000000000000077
:102e180000000000000000000000000000000000aa
:102e2800296b00006d6700000000000038450000b5
:102e3800756e0000746e0000746e0000746e000001
:102e4800746e0000746e0000746e0000746e0000f2
:102e5800746e0000746e0000ffffffffffffffffae
:102e6800ffffffffffff00000100415343494900f6
:102e7800000000000000000000000000000000004a
:102e880000000000000000000000415343494900d1
:102e9800000000000000000000000000000000002a
:102ea8000000000000000000000000001c220020bc
:102eb80004000000000000002022002004000000a0
:102ec80000000000dc1600200400000000000000e4
:102ed8002422002004000000000000000000000080
:102ee8000000000022222222222222222222222242
:020000040000fa
:102ef800f0b59db00490039115001c00002805d082
:102f080083690593002b01d102f06cfd984b039a5d
:102f18009a4260d1049b5b680393039b9b891b07c0
:102f280067d5039b1b690593002b62d000220f9283
:102f380020220aab5a76302206959a76069d2b787f
:102f4800002b60d1069bee1a0cd03300069a039929
:102f5800049803f073f8431c00d170e10f9b9e198d
:102f680005930f962b78002b00d168e101220aae59
:102f7800524272605322002306a97e4f521801352f
:102f88000a93f360b360137022370522297838005a
:102f980003f0d2fd6a1c002839d13068c30604d575
:102fa8005323202106afdb191970030704d55323d7
:102fb8002b2106afdb1919702b782a2b2fd0002074
:102fc8000a21f3682a78303a092a00d870e00028e4
:102fd8002cd0f3602ae0684b039a9a4202d1049bf2
:102fe8009b6899e7654b039a9a4296d1049bdb68e4
:102ff80092e70399049801f093fb002896d00120ea
:1030080040421db0f0bd252b9cd0013597e7012328
:10301800c01b8340316815000b433360b5e7236854
:10302800211d002b3edbf36015000c002b782e2ba6
:103038000ad16b786a1c2a2b42d122680235231ddb
:10304800002a3adb1c0072604a4f2978283703228d
:10305800380003f071fd002806d04023c01b8340d0
:103068003268013513433360424f297838006b1cae
:1030780006222c300693317603f05efd5322337e10
:1030880006a95218692b31d03ed8582b78d029d8a8
:10309800002b00d1f6e0522106a809180b70012375
:1030a8000e9356e05b42f360022303433360bbe7b1
:1030b8004b4301359b18012084e701225242c1e7a6
:1030c800002315000a201a0073602978303909296d
:1030d80003d9002bb8d07260b6e7424301355218c5
:1030e8000123f2e7632b2cd0642bd4d10a99231d3a
:1030f8002668080633d51c00002e02da2d237642f6
:1031080013700a23059357e0702b00d19ee00dd869
:103118006f2bc0d10a99221d2668080623d51400f2
:103128006f2b00d19be00a23059340e0752bf1d06b
:10313800782bb0d15523782206a95b181a7011375d
:1031480022e0522306a95b18217804341970012360
:10315800336100235225137006abed1851e0490680
:10316800c9d536b2c7e74906d9d5b6b2d7e7c046fa
:10317800c06800001c640000e0680000a06800004f
:10318800552206a9521813700a9b221d2668190693
:1031980061d51400da0702d5202213430a931023bd
:1031a8000593002e03d120230a9a9a430a925323a7
:1031b800002206a95b181a700b9b0c93002b7bdb73
:1031c80004220a9991430a91002e4ad1002b75d105
:1031d800532506abed18059b082b0dd10a9bdb0781
:1031e8000ad50b9b05930e9b0793079a059b934261
:1031f80002dc3023013d2b70532306aa9b185b1b6e
:103208000e93314b09aa00930aa9039b049801f075
:10321800e2fb431c13d00e9b2a000399049802f08a
:103228000dff431c0bd00a9b002505939b0737d441
:10323800099a0d9b934200da13005a1c37d1039b5d
:103248000f989b895b0600d4dbe6d8e6202332681a
:10325800134333606ee759069bd5b6b299e7082346
:1032680062e7532506abed183000059902f00af91c
:103278007b5c013d30002b70059902f0c7f8061ef3
:10328800f2d1a8e733611500bbe7292206a901237b
:1032980052180498039902f0d1fe431ccfd001358f
:1032a8000d9b099a05939b1a9d42eedbc0e70f9a86
:1032b800d31805920f9341e6002ed2d1522506abc2
:0c32c800ed183b782b7086e74560000095
:020000040000fa
:1032d400f0b5ce46474680b585b0964b1c6da3012c
:1032e40003d580229204934b1a65e30755d5914b7d
:1032f400012119655a6d8a435a65a4229b585b06bd
:103304004bd0a4238b4ad558ad04ad0e29018a4b6a
:10331400de68761833685b0000d4ade0ab005b195f
:103324009b00864a9a583368db00db0813603268d6
:1033340073689b0202d4930000d5d3e0ab005b1901
:103344009b007e4ad3181b6900221a7077681022ea
:103354007b49684603f09bfc3f033f0f6b46db5df4
:103364009946764b9846af007b199b0043445868b6
:10337400310008314a4603f08afc7f19bf004744f4
:10338400bb684a461a70a8236a4ad5506d4b1b681d
:10339400002b02d06b4a50689847e3065ad5654b18
:1033a400102119655a6d8a435a65b4229b585b06ed
:1033b40050d0b4235f4ad558ad04ad0e29015e4bfd
:1033c4001e69761833685b0060d5ab005b199a0000
:1033d4005a4b9b18c8331a683368db00db08136048
:1033e400326873689b0202d4930000d583e0ab007b
:1033f4005b199a00514b9b18d8331b6800221a7032
:10340400776810224e49684603f041fc3f033f0fa2
:103414006b46db5d9946494fab0098465b199b00b0
:10342400fb18cc331868310008314a4603f02ffcee
:1034340043465b199b00ff18d0373b684a461a7015
:10344400b8233c4ad5503f4b9b68002b02d03d4ae1
:10345400d0689847a3052cd5364b802292001a6574
:103464005a6d39490a405a6500231f2294460127a0
:10347400304ad826e0204fe0ab005b199b002f4a6e
:103484009a583368db005b0d136050e7ab005b199f
:103494009a002a4b9b18c8331a683368db005b0d0b
:1034a40013609de7274b9b69002b02d0254ad06906
:1034b4009847230511d51f4980231b010b65c420a0
:1034c4000b581b0a1f2213400958090c0a40934247
:1034d40003d20133dbb29a42fbd105b00cbc904657
:1034e4009946f0bdab005b199b00144ad3181b69c5
:1034f40001221a702ae7ab005b199a000f4b9b1844
:10350400d8331b6801221a707ae715588d43155079
:103514000133dbb2052bc5d0614619403d008d4017
:1035240029009559a84615580d42f1d045460d423b
:10353400ebd1ede7001c00424c210020e0180020f4
:0c354400f46c000074210020fffdffff6c
:020000040000fa
:10355000f0b5de4657464e464546e0b583b07f4b54
:103560009b7d002b00d1f2e07c490a7ed2b28b7d9c
:103570005bb2002b0ddb794a137edbb2927dd20762
:1035800000d4dce0db0700d4d9e0754c754b9846dd
:1035900067e052b2002aeeda704b5b8b07221340d1
:1035a000e9d06f4ad3876d4b80221a7607225a835f
:1035b0001b7e5b0705d5694b04211a8d1a7e0a42d2
:1035c000fbd1674b1b6a002bd5d0654a516a02209c
:1035d0009847d0e75e00b246624e5546755d0d7065
:1035e000b346da4455466d784d70013316e00b78da
:1035f0001385002f1ed1137e01252b4200d19ee0a2
:10360000a3689a46e3689a4500d195e0566806405b
:10361000012edfd04646f65c0e7001334b45b641b5
:1036200033406646f36053680340012bdfd10b88bb
:103630001385dee703f0ccfa494b1b68002b10d052
:10364000474a127f002a08d0454a9269904208d31f
:10365000434a51680320984703e0414a92699042e7
:103660000bd03f4b1b6999463d4b1f7d3b4a0720c2
:103670006b46991d3a4b9c46bde7394a5168032079
:103680009847eee74246126a002a2fd0796a012055
:103690009047bb6a01333a6b93429241134025e055
:1036a0002f4a916a4900304a54545218240a5470df
:1036b0002ae02b4a926b904208d1294a516a002095
:1036c000984703e0264d2e00a8462f00234b1b7e73
:1036d0005b073cd5214b1c8da4b2ab6a01332a6b2e
:1036e000934292411340f26a9a42cbd01c4ad26a6a
:1036f0009a42ebd0194a516807220a40012acfd0da
:10370000174a926a18498c54154a93623423d35c41
:10371000002bdbd003f04af9114b1b6a002bd5d0ec
:103720003c220f498a5c002ac3d08a6b9042cdd3d9
:10373000496a00209847c9e70122084b1a75074ad1
:10374000137edbb2927d520701d55b07bad403b07a
:103750003cbc90469946a246ab46f0bd00080042ec
:0c37600074200020c41e0020441e002025
:020000040000fa
:10376c00f0b5de4657464e464546e0b583b07f4b36
:10377c009b7d002b00d1f2e07c490a7ed2b28b7d7e
:10378c005bb2002b0ddb794a137edbb2927dd20744
:10379c0000d4dce0db0700d4d9e0754c754b9846bf
:1037ac0067e052b2002aeeda704b5b8b07221340b3
:1037bc00e9d06f4ad3876d4b80221a7607225a8341
:1037cc001b7e5b0705d5694b04211a8d1a7e0a42b4
:1037dc00fbd1674b1b6a002bd5d0654a516a02207e
:1037ec009847d0e75e00b246624e5546755d0d7047
:1037fc00b346da4455466d784d70013316e00b78bc
:10380c001385002f1ed1137e01252b4200d19ee083
:10381c00a3689a46e3689a4500d195e0566806403d
:10382c00012edfd04646f65c0e7001334b45b64197
:10383c0033406646f36053680340012bdfd10b889d
:10384c001385dee703f0c8f9494b1b68002b10d039
:10385c00474a127f002a08d0454a9269904208d301
:10386c00434a51680320984703e0414a92699042c9
:10387c000bd03f4b1b6999463d4b1f7d3b4a0720a4
:10388c006b46991d3a4b9c46bde7394a516803205b
:10389c009847eee74246126a002a2fd0796a012037
:1038ac009047bb6a01333a6b93429241134025e037
:1038bc002f4a916a4900304a54545218240a5470c1
:1038cc002ae02b4a926b904208d1294a516a002077
:1038dc00984703e0264d2e00a8462f00234b1b7e55
:1038ec005b073cd5214b1c8da4b2ab6a01332a6b10
:1038fc00934292411340f26a9a42cbd01c4ad26a4c
:10390c009a42ebd0194a516807220a40012acfd0bb
:10391c00174a926a18498c54154a93623423d35c23
:10392c00002bdbd003f058f8114b1b6a002bd5d0c1
:10393c003c220f498a5c002ac3d08a6b9042cdd3bb
:10394c00496a00209847c9e70122084b1a75074ab3
:10395c00137edbb2927d520701d55b07bad403b05c
:10396c003cbc90469946a246ab46f0bd00040042d2
:0c397c00b4200020e0160020441f0020b2
:020000040000fa
:10398800f0b5c30f85b0440245000391640a2d0ebb
:10399800029301930ad0ff2d38d08023e400db0482
:1039a8007f3d1c432e00002300930ae0002c33d0f7
:1039b800200002f06dfc7626431f9c407642361aa2
:1039c8000095039b5f025d00db0f7f0a2d0e0393ba
:1039d80025d0ff2d2dd0802228000025ff00d204fd
:1039e80017437f38039b029a361a5a40009b980067
:1039f800284301380e2824d803f022f94e9d639df0
:103a0800979d634e4e976379797954002e0003236e
:103a1800002cc9d10223c7e726000123c4e7381eba
:103a28000dd002f035fc431f9f4076235b42181ae5
:103a3800d8e728000325002fd4d10225d2e7012595
:103a4800d0e764017801844228d31a210123241a7b
:103a5800012527005b006400002f01dba04201d88c
:103a6800241a2b4301390029f3d1611e8c411c43d0
:103a780031007f3100293cdd630704d00f23234048
:103a8800042b00d00434230103d531002b4b8031a3
:103a98001c40e308fe2921dd002310e0013e1b2124
:103aa8000023d5e78023db031c4204d01f4202d148
:103ab8003c00039b01938023019adb032343ff21ee
:103ac8000ce03c00039a0095009b022be4d0032bea
:103ad8002fd00023009819000128c9d15802c9b273
:103ae800c905400ad2070843104305b0f0bd029a41
:103af800eae70120411a1b291ddc23002020cb40c6
:103b0800411a8c40611e8c412343590704d00f2170
:103b18001940042900d004338021c9041940db0866
:103b28000029dbd000230121d8e780240023e40307
:103b3800c0e70192bfe700231900cfe7fffffff7b7
:020000040000fa
:103b480010b5694b9b7d002b17d0674b5b8b9b0790
:103b580014d5664bff212022995402212122995421
:103b68002023624ad35c5bb2013300d18be020236f
:103b78005e4ad35c062b00d19de010bd5a4b5b8b8f
:103b8800db0707d5594bff21202299540221212216
:103b98009954e5e7544b5b8b5b0707d5534bff21e3
:103ba80020229954012121229954d9e720234f4af0
:103bb800d35c5bb2032b44d0042b0fd0022bcfd1a4
:103bc8001369002b04d09088002102f021f8c7e780
:103bd800464b9888012102f01bf8c1e7434a9369d4
:103be800126993420cd0414a9168cc5c28213e4826
:103bf8004454013393610200d369002bfcd1afe731
:103c08003a4b5b69002b0ed0384b9b885b00012236
:103c18001343354a5362d369002bfcd10321202377
:103c2800324ad1549ce7304a5168c0239b020b4367
:103c38005360d369002bfcd1062120232b4ad15491
:103c48008ee72a4a5369013bd2699a420dd0264a27
:103c5800d369002bfcd1254ad36928212248415c2d
:103c6800d068c1540133d3617ae71f4a5168e02311
:103c7800db020b435360d369002bfcd106212023c0
:103c88001a4ad154e3e700212023d154164a516837
:103c9800c0239b020b435360d369002bfcd18322c2
:103ca800114b1a76114b5b6a002b00d165e70f4a5e
:103cb800906a984761e71300002220215a54212175
:103cc8005a548322084b1a76190030224b8b134022
:103cd800102bfbd1054b5b6a002b00d14de7034a43
:103ce800906a984749e7c046000c0042202100200e
:020000040000fa
:103cf800130fdeff25303258000000002256303006
:103d080031223a2225642e25303164222c0000000d
:103d18002252303031223a2225303164222c0000e0
:103d28002252303031223a2225303264222c0000cf
:103d38002252303031223a2225303364222c0000be
:103d48002252303031223a2225303464222c0000ad
:103d58002252303031223a2225303564222c00009c
:103d68002252303031223a2225303664222c00008b
:103d78002254303031223a2225303364222c00007c
:103d88002254303031223a2225303264222c00006d
:103d98002254303031223a2225303164222c00005e
:103da800225350303031223a2225303364222c00fd
:103db800225350303031223a2225303264222c00ee
:103dc800225350303031223a2225303164222c00df
:103dd80022475244303031223a2225303364222c93
:103de8000000000022475244303031223a22253068
:103df8003264222c00000000224752443030312225
:103e08003a2225303164222c000000002245574414
:103e1800303030223a22253075222c00224552308b
:103e28003030223a22253075222c000022435f418f
:103e380056473031223a2225642e25303164222c0f
:103e480000000000224d5f4156473031223a2225ba
:103e5800642e25303164222c0000000022534f4389
:103e68003031223a222564222c000000224f444f90
:103e7800223a22256c642e25303164222c00c0465b
:020000040000fa
:103e880070b504000e00002800d18be00568002002
:103e9800002d4ad0002900d1434e2b019e4245d324
:103ea800290b28053200002302f0b2f980235b02b7
:103eb800181a00213d4a13680225ab431360d369e1
:103ec800002bfcd180b2394b98816368022b52d009
:103ed800364a136849033648184080235b04034375
:103ee800194311605168a368e068034331480140f1
:103ef8000b4361680b4353602c4ad369002bfcd1f8
:103f08002a4a136802210b431360d369002bfcd1a2
:103f1800264b5a6807231340012b3cd0264b80229e
:103f28001a638132ff321a61012070bdeb009e4294
:103f38000ad3690be8043200002302f069f98023f0
:103f48005b02181a0221b5e76b005b199e420fd37a
:103f5800c022920200232800002102f0b7f83200a4
:103f6800002302f055f980235b02181a0421a1e707
:103f7800002100209ee70d4a136849030c480340be
:103f8800194311605168a368e068034347208143df
:103f98000b435360b0e7084b40221a63c0321a61e2
:103fa8000120c2e70020c0e7006cdc0200040042e8
:0c3fb800ff1ffff0b8dfffffb420002067
:020000040000fa
:103fc40070b504000e00002800d188e005680020c8
:103fd400002d48d0002900d1424e2b019e4243d3ec
:103fe400290b28053200002302f014f980235b0218
:103ff400181a00213c4a13680225ab431360d369a5
:10400400002bfcd180b2384b98816368022b50d0ce
:10401400354a136849033548184080235b04034339
:10402400194311605168a368e068034330480140b4
:104034000b4361680b4353602b4ad369002bfcd1bb
:10404400294a136802210b431360d369002bfcd166
:10405400254b5a6807231340012b3ad0254b802265
:104064001a631a61012070bdeb009e420ad3690bea
:10407400e8043200002302f0cdf880235b02181a12
:104084000221b7e76b005b199e420fd3c022920254
:1040940000232800002102f01bf83200002302f064
:1040a400b9f880235b02181a0421a3e70021002039
:1040b400a0e70d4a136849030c48034019431160f3
:1040c4005168a368e0680343472081430b4353606e
:1040d400b2e7084b40221a631a610120c3e70020ab
:1040e400c1e7c046006cdc0200080042ff1ffff07d
:0840f400b8dfffff742000207b
:020000040000fa
:1040fc00f7b58a8905000c00130760d44b68002bb8
:10410c0004dc0b6c002b01dc0020febde76a002fe9
:10411c00fad000232e682b6080235b011a4034d028
:10412c00606da3895b0706d56368c01a636b002baf
:10413c0001d0236cc01a0200216a00232800e76a10
:10414c00b847a189431c06d12b681d2b31d82c4aaa
:10415c00da40d3072dd50023636023692360cb0499
:10416c0005d5431c02d12b68002b00d16065616b17
:10417c002e600029c8d023004433994202d0280075
:10418c0001f06af800206063bfe70123216a280070
:10419c00b847431cc5d12b68002bc2d01d2b01d0b6
:1041ac00162b01d12e60afe74023a2891343a381c4
:1041bc00abe740230b430120a3814042a5e70f69e5
:1041cc00002fa1d00b680f60db1b0193002392071b
:1041dc0000d14b69a360019b002b00dc94e7019b91
:1041ec003a00216a2800a66ab047002803dc402365
:1041fc00a2891343dfe7019b3f181b1a0193eae7df
:04420c00010040204d
:020000040000fa
:10421000f0b5de4657464e464546e0b583b004232a
:104220009846002399463c4b9b463c4d1e000ae0b5
:1042300043467f2b19d880235b009c46e1444346cc
:1042400004339bb298464346043b9bb25a4651689e
:104250004a468f5aaf42ebd042467f2a05d89b0888
:104260000193444680239a463fe0080000232a4ced
:1042700004e001339bb24030802b05d002883d2af8
:10428000f7d8a2181372f4e7012040424623224acd
:10429000d05204220027214c002011e001339bb2b0
:1042a000934205d09d016d5aa542f7d00600f5e76f
:1042b000002e09d10137bfb2043292b2202f06d0ae
:1042c000131f9bb20126ede74623134ad75203b0d2
:1042d0003cbc90469946a246ab46f0bd019802f020
:1042e000affa0434a4b27f2ca5d87268a3019b5afc
:1042f000ab42f6d09f42f4d14a445346d35a118878
:104300009942ebd04021525a9a42e7d0a00880b29d
:1043100002f096fae5e7c046381d0020ffff0000d6
:020000040000fa
:10432000f0b5de4657464e464546e0b585b00290ac
:104330008c46002900d170e0394b1b699846070074
:1043400001250022364b9a46994646460fe040002a
:1043500034495c460c548846404400244470494625
:104360008b6001326b1c0237ac4546d91d000192af
:104370002d4b586807230340012b15d0284b986814
:10438000dc68431cb34289410b409c4236d0029901
:10439000895c8b46244c616807240c40012cd6d0e4
:1043a00020495c460c54dae77b781b0238780343db
:1043b000039351468c68c9688846601cb0428941a5
:1043c000084080451ad0184949688b46072188461d
:1043d000594643461940012906d0124b6946097bcc
:1043e00019550f4b9860bce764000e4b03991955a3
:1043f000984644440b0a6370f3e7019502f0c8fa4b
:10440000002802d00122084b9a75019805b03cbce7
:1044100090469946a246ab46f0bd00230193ede7d6
:0c44200074200020c41e00200008004290
:020000040000fa
:10442c00f0b5de4657464e464546e0b585b002909f
:10443c008c46002900d170e0394b1b699846070067
:10444c0001250022364b9a46994646460fe040001d
:10445c0034495c460c548846404400244470494618
:10446c008b6001326b1c0237ac4546d91d000192a2
:10447c002d4b586807230340012b15d0284b986807
:10448c00dc68431cb34289410b409c4236d00299f4
:10449c00895c8b46244c616807240c40012cd6d0d7
:1044ac0020495c460c54dae77b781b0238780343ce
:1044bc00039351468c68c9688846601cb042894198
:1044cc00084080451ad0184949688b460721884610
:1044dc00594643461940012906d0124b6946097bbf
:1044ec0019550f4b9860bce764000e4b0399195596
:1044fc00984644440b0a6370f3e7019502f05efaa8
:10450c00002802d00122084b9a75019805b03cbcda
:10451c0090469946a246ab46f0bd00230193ede7c9
:0c452c00b4200020e01600200004004233
:020000040000fa
:10453800002020202020202020202828282828206b
:104548002020202020202020202020202020202063
:1045580020881010101010101010101010101010cb
:1045680010040404040404040404041010101010bb
:104578001010414141414141010101010101010185
:1045880001010101010101010101010110101010d7
:104598001010424242424242020202020202020257
:1045a80002020202020202020202020210101010ab
:1045b80020000000000000000000000000000000d3
:1045c80000000000000000000000000000000000e3
:1045d80000000000000000000000000000000000d3
:1045e80000000000000000000000000000000000c3
:1045f80000000000000000000000000000000000b3
:1046080000000000000000000000000000000000a2
:104618000000000000000000000000000000000092
:104628000000000000000000000000000000000082
:014638000081
:020000040000fa
:02463a00fee799
:020000040000fa
:10463c00324b5a6852031b68db0c13439b029b0ad8
:10464c002f4a936300235375110004228b691a427d
:10465c00fcd12b491022cb681a42fcd0294b0022ea
:10466c009a611a61284a294b1a62190004224b6874
:10467c001a42fcd140218823244ad15010008821b1
:10468c00402243581a42fcd04021cc231f4ad1501f
:10469c001000cc21402243581a42fcd04021d02398
:1046ac001a4ad1501000d021402243581a42fcd053
:1046bc004021d423154ad1501000d4214022435814
:1046cc001a42fcd04021e823104ad1501000e821b6
:1046dc00402243581a42fcd0402182235b000b4af3
:1046ec00d15010001900402243581a42fcd0084bfc
:1046fc00084a1a61084ada617047c0462060800097
:10470c00001000400014004006010100001c004095
:0c471c0000080040ff1d00000e0002001d
:020000040000fa
:10472800364b70b51d6806000c00002d05d0ab692e
:10473800002b02d1280001f055f9314b9c420fd1d2
:104748006c680c23e25e93b219072dd4d90611d4f4
:1047580009233360402301201343a381404270bde5
:10476800284b9c4201d1ac68ebe7274b9c42e8d12f
:10477800ec68e6e75b0713d5616b002908d02300d6
:104788004433994202d0300000f068fd002363638f
:104798002422a3899343a3810023636023692360b0
:1047a8000823a2891343a3812369002b0bd1a021dd
:1047b8008022a389890092000b40934203d02100f4
:1047c800300001f027f80123a289134011d00023fb
:1047d800a36063695b42a361002023698342bed161
:1047e8000c23e25e1306bad540231343a381013894
:1047f800b5e7920700d46369a360ede718220020ab
:0c480800c0680000e0680000a06800002c
:020000040000fa
:10481400f0b5c64600b50400f2225200002102f0b1
:1048240087fa304a936901210b43936111000122f5
:104834008b691a42fcd02b4dab6902221343ab6146
:10484400294ffc602204120c28490a43a023ea5091
:104854002300a0333b611b041b0c0b43b022ab5061
:1048640023004133ff33bb611b041b0ca022d20481
:104874001343c022ab5023009133ff33fb611b046d
:104884001b0ca026f6023343f022ab50dc235b0062
:104894009846a04443463b6204221549404602f030
:1048a400f6f943461b041b0c802252021343842254
:1048b400ab50bd34ff347c6228220e49200002f044
:1048c400e6f92404240c34438823ec50ab69012218
:1048d4009343ab6129008b691a42fcd104bc904616
:1048e400f0bdc046001c00424c21002000000a809c
:0848f400f46e000010660000e4
:020000040000fa
:1048fc00f0b5060085b00f0015001c008b4265d882
:10490c0001d1824262d82100280002f0eff8390070
:10491c000090300002f0eaf8009b21001b1a1a00ec
:10492c002800039302f0d6f800900191019bbb4242
:10493c0046d802d1009bb34242d8009b019c039afb
:10494c0001200021f61aa74102f0c4f8039b002baa
:10495c002fd0019b009adb0754081c43019b5d0878
:10496c00039b9c46bd422ed801d1b4422bd83200b9
:10497c003b00121bab41012692185b410027b61875
:10498c005f4101235b429c446346002bead18019b2
:10499c007941039a04000d003000390002f08ef8c2
:1049ac00039a06000f0002f095f8241a8d4120009e
:1049bc0029000a9b002b01d01e605f6005b0f0bd82
:1049cc0000200021c2e7b6197f41dae70020002160
:0249dc00efe703
:020000040000fa
:1049de00f7b5150001938a680b6900900c0093429d
:1049ee0000da130022002b6043321278002a01d025
:1049fe0001332b6023689b0602d52b6802332b6094
:104a0e00062723681f4027d0230043331b785a1ee6
:104a1e0093412268920630d42200019943320098c5
:104a2e00089eb047431c25d0062320682a68e168fb
:104a3e0003400025042b03d18d1aeb43db171d40d9
:104a4e00a3682269934201dd9b1aed180027bd422f
:104a5e0020d1002010e00137e3682a689b1a9f429c
:104a6e00d2da22000123193201990098089eb0472c
:104a7e00431cf0d101204042febd3020e1184331ed
:104a8e00087021005a1c45310978a21843320233ae
:104a9e001170c1e7220001231a3201990098089e75
:0a4aae00b047431ce6d00137d1e702
:020000040000fa
:104ab800f0b5c64600b582b00400884615000192dc
:104ac800304b9f6a53180020bb4257d82d4b00210a
:104ad8004c2299545e6a3100280000f0d3fc711a08
:104ae8004246884500d90a00264b988a80239b02b3
:104af8009f4204d901ab997802230b4018438023c5
:104b08005b029f4204d901ab997801230b401843fb
:104b180080235b0000219f4204d92b0a3021194fc2
:104b28007b5401214b1c9c46164b5b1830331d707f
:104b3800002a0cd000230021124e6644e75cf318cb
:104b480030331f70013189b20b008a42f6d80d4b01
:104b5800ad189d61a418dc6141468e1a1e620024be
:104b680042215c546244190030311b695b689847e4
:104b7800002803d102214c23024ad15402b004bcbc
:084b88009046f0bd242000203e
:020000040000fa
:104b900010b52c4b1b78002b22d02b4b1b78002bf5
:104ba0001cd1284b9b88294a93423cd019d8284acb
:104bb00093422cd00cd9274a93422ed00132ff3297
:104bc00093420bd1c022d2001e4b9a80c04605e012
:104bd000002b03d1802252001a4b9a80fbf782faf5
:104be00010bd1d4a934220d007d91c4a934222d0bf
:104bf0001b4a9342f2d1c046f0e7013aff3a934292
:104c0000ecd1c022d2000f4b9a80c046e6e780224a
:104c100092000c4b9a80c046e0e7c0229200094bfc
:104c20009a80c046dae7c046d8e780221201054bd9
:104c30009a80c046d2e7a0221201024b9a80c04659
:104c4000cce7c046340000203c000020ff040000f8
:104c5000ff010000ff020000ff060000ff08000047
:044c6000ff0a000047
:020000040000fa
:104c6400f8b505000e001400002804d08369002b59
:104c740001d100f0b9fe294b9c4233d16c68a36981
:104c8400a360a3891b0737d52369002b34d00c23d9
:104c9400e25e80239b01f7b2f6b21a4236d0236853
:104ca4002269981a6369984205db2100280000f004
:104cb4005bff002826d1a3680130013ba360236871
:104cc4005a1c22601f706369984204d0a389db07d1
:104cd4001ad50a2e18d12100280000f045ff00281b
:104ce40012d00fe00e4b9c4201d1ac68c7e70d4bcc
:104cf4009c42c4d1ec68c2e721002800fff712fdf2
:104d04000028c4d0012676423000f8bd1343a381a5
:104d1400226e054b13402366c1e7c046c0680000fd
:0c4d2400e0680000a0680000ffdfffff57
:020000040000fa
:104d300010b52d4c23691b6998474223e35c012b76
:104d400026d0002b0fd0022b41d04c23264ad35c17
:104d5000002b07d0536c002b04d04c21505cc0b208
:104d6000916c984710bd002804d002214c231e4aa4
:104d7000d154eae701f054fd002804d102214c236c
:104d8000194ad154e1e701214223174ad154dce703
:104d9000002813d1144b196a002904d101214c2396
:104da000114ad154d1e79a69d869fff785fe0028e6
:104db000cbd102214c230c4ad154c6e701f030fd7f
:104dc0000028c2d102214c23074ad154bde7002854
:104dd00004d002214c23044ad154b6e701214c23cc
:0c4de000014ad154b1e7c0462420002055
:020000040000fa
:104dec00032370b5cd1c9d43083506000c2d1ed237
:104dfc000c25a9421dd8300002f083f8254a14680e
:104e0c002100002919d1244c2368002b03d1300038
:104e1c0001f0b8fc20602900300001f0b3fc431c09
:104e2c002cd10c233000336002f06cf803e0002d21
:104e3c00dfda0c233360002070bd0b685b1b1ad4c7
:104e4c000b2b03d90b60cc18256003e08c420ed1e0
:104e5c0063681360300002f055f8200007220b3015
:104e6c00231d9043c31ae7d05a42e250e4e74b6843
:104e7c0063600c00eee70c004968c2e70323c41c16
:104e8c009c43a042e0d0211a300001f07bfc431c73
:0c4e9c00dad1c6e71c22002020220020f2
:020000040000fa
:104ea80010b5002400281fd0234b1a68a4181c60d2
:104eb8002249234801f0e0fa002820d00222214ba1
:104ec8001a701f4c200001f048ff020021001e4804
:104ed80001f0dbfe802252000021200001f026ffb5
:104ee8000022154b1a6010bd01f05cfd0400124b46
:104ef8001868134bc018210000f01cf9d4e70f49bb
:104f080008310f4801f0b8fa0028ecd003220d4b05
:104f18001a700b4c200001f020ff020021000a4803
:104f280001f0b3fe802252000021200001f0fefeb5
:104f38000022014b1a60d6e714220020c46c00003e
:0c4f4800ac0400203c000020ac0900205c
:020000040000fa
:104f5400f8b50400012802d901204042f8bd8301bc
:104f6400224a9b5c002b02d001204042f6e7170046
:104f7400850101220126ea557d190b682b618b6896
:104f84006b614b68ab6000236b60eb612b626b70f1
:104f94002a83cb68eb620b692b634b696b638b6968
:104fa400ab63cb69eb632b0026331a7001331e709d
:104fb40001331e7001f06eff2b0029331e7001f0c7
:104fc4006dff01f067ff2b002a331e7001f066ffae
:104fd4002b695b692900064898472b691b682900df
:104fe4000448984702232b732000b7e7c41d002010
:084ff400d56c0000bd5c00005b
:020000040000fa
:104ffc00f0b5c64600b582b0019308ac2478002cfd
:10500c0003d0012c1bd0002015e01f4ea4243459d2
:10501c00a404a40e1d4fa5002b199b00d851f81801
:10502c0042608160019bc360099b0361736d012227
:10503c0013437365012002b004bc9046f0bd124ec0
:10504c00b4243559ad04ad0e104fab009c465c1921
:10505c00a4003c19c8239846a0444346186020007d
:10506c00cc3002602200d0321160d434019b23601a
:10507c006544ad007d19d835099b2b60736d1022ea
:10508c00134373650120d6e7001c0042e018002092
:020000040000fa
:10509c0010b58223db05254a1a60802252051a615d
:1050ac00002240215a5441215a5442215a54012180
:1050bc0043201954442019544520195447201a549c
:1050cc0048201954492019544f201a5403245020b5
:1050dc001c54512019545220195453201954572040
:1050ec001a5458201954592019545b20195406206d
:1050fc005c21585430215a541020312158543321fa
:10510c00322019545a543420195437215a5422211c
:10511c0038201954392019543b215a5466203c210b
:10512c0058543d215a543e215a5410bd878080005a
:020000040000fa
:10513c00f0b5de4657464e464546e0b51e4ad36aa4
:10514c00966a002933d0b34234d0126b90460500d6
:10515c0004000120194a9446194a924691460ee0e1
:10516c004a46d25c2a70013343459241134088422f
:10517c0014d2421c013502349e4210d010006246fb
:10518c00526807273a40012aead15a005746bf5cb9
:10519c0027705244527862700133e5e71e00064bcb
:1051ac00de623cbc90469946a246ab46f0bd1e0062
:1051bc000020f4e70020f2e77420002000080042f1
:0451cc00441e00205d
:020000040000fa
:1051d000f0b5de4657464e464546e0b51e4ad36a10
:1051e000966a002933d0b34234d0126b9046050042
:1051f00004000120194a9446194a924691460ee04d
:105200004a46d25c2a70013343459241134088429a
:1052100014d2421c013502349e4210d01000624666
:10522000526807273a40012aead15a005746bf5c24
:1052300027705244527862700133e5e71e00064b36
:10524000de623cbc90469946a246ab46f0bd1e00cd
:105250000020f4e70020f2e7b42000200004004220
:04526000441f0020c7
:020000040000fa
:1052640070b50500002910d00c1f2368002b00da4c
:10527400e418280001f049fe1d4a1368002b05d1eb
:1052840063601460280001f041fe70bda34209d997
:10529400216860188342f3d118685b684118216063
:1052a400eee713005a68002a01d0a242f9d919681e
:1052b4005818a0420bd12068091858181960824266
:1052c400e0d110685268411819605a60dae7a042c8
:1052d40002d90c232b60d5e721686018824203d1e0
:1052e400106852684118216062605c60cae7c04679
:0452f4001c22002058
:020000040000fa
:1052f800204a214b70b50021934203d21970013323
:105308009342fbd1002503261c4803684168002b03
:1053180018d100292dd083680c30002b18d0002319
:105328000022845c9c5401328a42fad333000b4039
:105338005a1e934189085918890040180368416822
:10534800002be6d082680c30002a07d10029dcd077
:1053580059181d7001338b42fbd1d6e70029dfd1e4
:1053680033000b405a1e9341890859188900401888
:10537800e4e770bde016002000000020f8290000d6
:020000040000fa
:105388001e4b1f4a1a601f4a9a81c02292025a6015
:105398001a00d369002bfcd1184a136802210b4369
:1053a8001360d369002bfcd1174b00221a629a6252
:1053b800da620121342019543c2019549a63da879f
:1053c8001a609a60da60197519779a610b4b5a68f6
:1053d80007231340012b0bd00b4b80221a63813219
:1053e800ff321a61054b80229a7504229a7570471c
:1053f800054b40221a63c0321a61f3e700040042e9
:0c540800040100402bf6ffffb420002040
:020000040000fa
:10541400002934d00123002210b488422cd3012463
:105424002407a14204d2814202d209011b01f8e7f8
:10543400e400a14204d2814202d249005b00f8e7b1
:10544400884201d3401a1a434c08a04202d3001bdd
:105454005c0822438c08a04202d3001b9c08224310
:10546400cc08a04202d3001bdc082243002803d04e
:105474001b0901d00909e3e7101c10bc704701b5f2
:10548400002001f037fd02bd0029f8d003b5fff775
:0c549400c1ff0ebc4243891a1847c046f5
:020000040000fa
:1054a0001d4b1e4a1a601e4a9a81c02292025a60ff
:1054b0001a00d369002bfcd1174a136802210b4351
:1054c0001360d369002bfcd1164b00221a629a623a
:1054d000da620121342019543c2019549a63da8786
:1054e0001a609a60da60197519779a610a4b5a68de
:1054f00007231340012b09d00a4b80221a631a613b
:10550000054b80229a7504229a757047054b4022fc
:105510001a631a61f4e7c046000800420401104013
:085520002bf6ffff74200020b0
:020000040000fa
:1055280010b501221a4b9a6119008b691a42fcd0f6
:10553800174b9a6902210a439a61164ada612821af
:10554800802299501449902299509a6901218a43de
:105558009a61190001228b691a42fcd10c4a002376
:1055680093650121d1658021890451650b4c236025
:105578006360a360c82252000021094801f0d6fbed
:1055880020000c301c22002101f0d0fb10bdc046c9
:10559800001c0042020b0b14ffffff1f4c210020d0
:0455a800e0180020e7
:020000040000fa
:1055ac00f8b51e4b07001e68b369002b02d1300002
:1055bc0000f016fa4836b4687368013b04d53368ba
:1055cc00002b07d03668f6e70c22a55e002d0dd017
:1055dc006434f2e70421380000f0beff306000288c
:1055ec00f0d10c2304003b602000f8bd01235b428a
:1055fc00e381200001232566a3812560a5606560f9
:10560c0025616561a56108222900583001f08cfbe9
:10561c006563a563a564e564e6e7c046fc6e00001f
:020000040000fa
:10562c001c4a137801210b431370110001224b68a3
:10563c001a42fcd117490023cb61a0231b060b6235
:10564c0080231b020b61144b10221a819a821a843c
:10565c009a851a8744201a5250201a525c201a52ea
:10566c0068201a5274201a5280201a528c201a5216
:10567c0098201a52a4201a52b0201a520f20bc2281
:10568c0098520b78022213430b704b681a42fcd1d0
:0c569c007047c04600280040dc1b0020c6
:020000040000fa
:1056a80010b5bff35f8f62b6194bc02189005a58f5
:1056b8001202120ac020000602435a5008221a6039
:1056c80008315a58134c1440c022120222435a502f
:1056d800802292001a605a580f4c1440c0221204bb
:1056e80022435a508022d2001a605a581202120ad3
:1056f80002435a50802212011a6004315a58120289
:10570800120a10435850802212021a6010bdc04677
:0c57180000e100e0ff00ffffffff00ffca
:020000040000fa
:1057240010b50622184b5a60fff7b6fcfef784ff4b
:1057340001f040fb00f08cf9fff7b0fe01f009fa2c
:10574400fff720fe00f0ecfffff7ecfefff76cff25
:1057540000f002fb0d490120fff7fafb0c4c20601e
:105764000c490020fff7f4fb60600b49002000f0b7
:10577400cdf9a0600021002000f002f9e06001f002
:1057840061fbfff78fff10bd0040004180680000ff
:0c579400c816002060680000686a000071
:020000040000fa
:1057a000f0b585b001900e00140001f029f9012830
:1057b0001ad1731efe2b17d8050002ab1e710027ed
:1057c000af4220d003abd95da368013ba360002b9f
:1057d00004daa269934219db0a2917d023685a1cfc
:1057e000226019700137ebe723003200583303a918
:1057f000019800f029fb0500431ce0d1402306007e
:10580000a2891343a381300005b0f0bd22000198a6
:0c581000fff728fa431ce5d10600f4e77e
:020000040000fa
:10581c00f7b502268b8905000c00334206d0230015
:10582c0047332360236101236361f7bd01ab6a46f3
:10583c0000f0b6fa009907002800fff7d1fa00280b
:10584c0006d10c22a35e9a05efd41e43a681e6e78f
:10585c000d4bab628023a28920601343a381009b74
:10586c0020616361019b002b0ad00e23e15e2800ae
:10587c0000f0beff002803d00123a2891343a381ab
:0c588c00a0893843a081d0e7456d0000e2
:020000040000fa
:1058980010b5194b1b78012b11d1fa239b00174a1d
:1058a80012689a4211d8164b1b68642b1dd8154be9
:1058b8001b680a2b08d90022124b1a6004e0012247
:1058c8000d4b1a7000f072fd10bd00220b4b1a60d0
:1058d80001f0ecf901f054fa032802d800f01efb9d
:1058e800e1e7032001f052faf8e70022044b1a60be
:1058f80001f0d4f9dbe7c046c4160020b816002032
:08590800b0160020b4160020c7
:020000040000fa
:1059100070b50300041e08d000f0befc9e231b1ac5
:10592000962b08dc9622d21a9440d8b26402640afc
:10593000c005204370bd992b0addb9222100d21a7f
:1059400091400a00511e8a410521091acc40144396
:1059500099212200c91a002900dd8a401400084953
:105960000c40550704d00f252a40042a00d00434e7
