:020000040000fa
:10000000f07f0020555f0000d56e0000d76e000025
:1000100000000000000000000000000000000000e0
:10002000000000000000000000000000b3460000d7
:100030000000000000000000b3460000156700004b
:10004000b3460000b3460000b34600000d5f000059
:10005000b3460000b3460000b3460000b3460000bc
:10006000b3460000e5370000c9350000c13b000081
:10007000b346000000000000000000004d33000007
:1000800000000000b3460000b3460000b346000085
:10009000b3460000b3460000b3460000b34600007c
:1000a000b3460000b3460000b3460000b34600006c
:0c00b000b3460000b3460000b346000059
:020000040000fa
:1000bc00f8b5c046f8bc08bc9e4670475d5e0000b3
:1000cc00f8b5c046f8bc08bc9e467047355e0000cb
:020000040000fa
:0800dc0098480000010000003b
:020000040000fa
:1000e40070b5c0b0db4b9b88c122d200934201d1d2
:1000f40001f0edfb00d9b7e3d74a934201d101f0f7
:10010400cbf900d9fee1ff3aff3a934201d101f065
:100114003df863d9d14a934201d101f0e6f800d801
:1001240024e1cf4a934201d101f00af900d8bbe19e
:10013400cc4a934201d101f02ef901d901f078f9aa
:10014400013a934201d000f0f1fec74b1b78022b19
:1001540001d101f018f9032b01d101f018f9c34bb7
:100164001b68c34a12689b1ac24a934201d800f022
:10017400ddfe0022bc4b1a70bf4b04336a4623cb0e
:1001840023c223cb23c223cb23c2684606f0cdfd72
:1001940081b2684606f054feb84b6c336a4603cb12
:1001a40003c21b881380b649684606f01bfc6846e8
:1001b40006f0bbfd81b2684606f042feb14c200059
:1001c40006f0b3fd81b2200006f03afe8022520010
:1001d4000021200006f092fd00f0a8fefc3a9342b4
:1001e40001d100f01dff64d8033a934201d100f01d
:1001f4009ffe2ed8023a934201d100f075fe0132df
:10020400934201d000f092fe9d4c07229b49083195
:10021400200006f022fd200006f087fd01002000ea
:1002240004f0b8f80222ff32974b1a80fb32894b54
:100234009a8001228c4b1a708c4b1a68934b1a606b
:10024400200006f072fd81b2200006f0f9fd00f0f6
:100254006dfe0422ff32934201d100f08dfe013283
:10026400934201d000f062fe854c0b228349303169
:10027400200006f0f2fc200006f057fd01002000eb
:1002840004f088f8822252007f4b1a80f832714bb6
:100294009a800122744b1a70744b1a687b4b1a6053
:1002a400200006f042fd81b2200006f0c9fd00f0f6
:1002b4003dfeff225200934201d100f028ff27d8cf
:1002c400023a934201d100f0cffe0132934201d0b1
:1002d40000f02cfe6b4c200006f027fd81b22000bc
:1002e40006f0aefd802252000021200006f006fd3b
:1002f400654b1b880622ff32934201d100f002ffb6
:100304000133544a93800022574b1a7000f00efeba
:100314005f4a934201d100f02fff0132934201d092
:1003240000f004fe564c05225449200006f095fcca
:10033400200006f0fafc0100200004f02bf88022d3
:100344009200544b1a80fc32424b9a800122464b55
:100354001a70464b1a68504b1a60200006f0e5fcf0
:1003640081b2200006f06cfd00f0e0fd033a9342f8
:1003740001d100f051ff2dd8fa3a934201d100f097
:1003840028ff0132934201d000f0d0fd3c4c0b22f7
:1003940042493431200006f060fc200006f0c5fc20
:1003a4000100200003f0f6ff3d4a3a4b1a80f9326f
:1003b400284b9a8001222c4b1a702c4b1a68364b0e
:1003c4001a60200006f0b1fc81b2200006f038fd6e
:1003d40000f0acfd334a934201d100f068ff0132d2
:1003e400934201d000f0a2fd00221f4b1a702b4b48
:1003f40064336a4623cb23c223cb23c203cb03c279
:10040400684606f092fc81b2684606f019fd1b4b63
:100414006c336a4603cb03c21b88138018496846b1
:1004240006f0e0fa684606f080fc81b2684606f001
:1004340007fd144c200006f078fc81b2200006f081
:10044400fffc802252000021200006f057fc00f03f
:100454006dfdc04634000020ff030000ff020000d1
:1004640002030000fd0300003c000020bc16002035
:10047400f4210020b80b00004025000040240000b7
:1004840050000020ac0900203c220020fc21002068
:10049400ff0100002c220020dc210020c0240000e9
:1004a40003020000fd020000023a934201d100f071
:1004b40023ff0132934201d000f038fdd04c0922d1
:1004c400d0493c31200006f0c8fb200006f02dfc8a
:1004d4000100200003f05effcb4acc4b1a80fb32b4
:1004e400cb4b9a800122cb4b1a70cb4b1a68cb4b67
:1004f4001a60200006f019fc81b2200006f0a0fc6e
:1005040000f014fda022d200934201d101f0d5f8ed
:1005140030d9c34a934201d101f029f900d8fee051
:10052400c04a934201d101f081f900d844e1be4aa6
:10053400934201d101f095f901d901f0adf9b04c24
:100544002422ba492431200006f087fb200006f05b
:10055400ecfb0100200003f01dffad4a938801333a
:100564009380200006f0e1fb81b2200006f068fcd5
:1005740000f0dcfcfb3a934201d100f0feff61d8ad
:10058400033a934201d100f0b2ff2dd8023a9342cc
:1005940001d100f088ff0132934201d000f0c6fc83
:1005a400974c0b2297492431200006f056fb20007b
:1005b40006f0bbfb0100200003f0ecfe9c4a9d4bbf
:1005c4001a80fb32924b9a800122924b1a70924b02
:1005d4001a68994b1a60200006f0a7fb81b220002c
:1005e40006f02efc00f0a2fc944a934201d100f0e4
:1005f400a1ff0132934201d000f098fc804c0c2200
:100604008f491831200006f028fb200006f08dfbee
:100614000100200003f0befe8a4a864b1a80f8329d
:100624007b4b9a8001227b4b1a707b4b1a68824b5e
:100634001a60200006f079fb81b2200006f000fc6d
:1006440000f074fc804a934201d100f0e4ff54d8d6
:10065400f73a934201d100f0b3fff632934201d04e
:1006640000f064fc6b4b1b78022b01d100f0cbff34
:10067400032b01d100f0cbff674b1b686e4a126855
:100684009b1a724a934201d800f050fc0022614b3d
:100694001a706f4b68336a4623cb23c223cb23c221
:1006a400196811609b889380684606f03efb81b20e
:1006b400684606f0c5fb534b6c336a4603cb03c252
:1006c4001b8813804e49684606f08cf9684606f08c
:1006d4002cfb81b2684606f0b3fb5e4c200006f0aa
:1006e40024fb81b2200006f0abfb802252000021e3
:1006f400200006f003fb00f019fc574a934201d195
:1007040000f0a7ff0132934201d000f00ffc8022d9
:10071400520000214f4806f0f1fa00f007fcfe3abf
:10072400934201d100f0ffff23d8023a934201d152
:1007340000f0deff0132934201d000f0f7fb304cb1
:100744001e2246496431200006f087fa200006f094
:10075400ecfa0100200003f01dfe2d4a93880133ba
:100764009380200006f0e1fa81b2200006f068fbd5
:10077400dce33b4a934201d100f0efff01329342a4
:1007840000d0d3e31e4c172236491431200006f062
:1007940064fa200006f0c9fa0100200003f0fafd13
:1007a4001b4a938801339380200006f0befa81b27d
:1007b400200006f045fbb9e3023a934201d100f070
:1007c400f1ff0132934200d0b0e30d4c0f221749e0
:1007d4000431200006f041fa200006f0a6fa0100d8
:1007e400200003f0d7fd0a4a938801339380200048
:1007f40006f09bfa81b2200006f022fb96e3c04685
:100804005000002040240000010300003822002092
:10081400340000203c000020bc160020f4210020fd
:10082400010600000406000006060000c0260000c1
:10083400010400003a220020f821002003040000f3
:10084400c024000004040000fd040000881300001c
:1008540040250000ac090020fe040000c025000073
:10086400ff05000040260000d54a934201d101f063
:100874009ffa00d97ce1f73aff3a934201d101f0a3
:1008840035f93dd9cf4a934201d101f0bdf900d8e1
:10089400f4e0cd4a934201d101f02bfa00d842e1b1
:1008a40080221201934201d101f05dfa01d201f0dc
:1008b40052fa0132934200d038e3c44c0f22c449a7
:1008c4002431200006f0c9f9200006f02efa0100b8
:1008d400200003f05ffdbf4abf4b1a80fb32bf4bc1
:1008e4009a800122be4b1a70be4b1a68be4b1a6026
:1008f400200006f01afa81b2200006f0a1fa15e3ee
:10090400063a934201d101f085f86bd8033a934239
:1009140001d101f025f855d8f43a934201d100f001
:10092400f1fff332934200d000e3ad4b1b78022b6e
:1009340001d101f00bf8032b01d101f00cf8a94b04
:100944001b68aa4a12689b1aa94a934200d8ede28e
:100954000022a34b1a70a74b2c336a4623cb23c225
:1009640023cb23c223cb23c203cb03c21988118018
:100974009b789370684606f0d8f981b2684606f011
:100984005ffa9d4b6c336a4603cb03c21b8813800a
:100994008e49684606f026f8684606f0c6f981b224
:1009a400684606f04dfa954c200006f0bef981b277
:1009b400200006f045fa802252000021200006f0b3
:1009c4009df9b3e28e4a934201d100f0e8ff01326f
:1009d400934200d0aae2802252000021874806f008
:1009e4008df9a3e2874a934201d101f049f822d854
:1009f400023a934201d101f028f80132934200d027
:100a040094e2724c2e2280491c31200006f025f914
:100a1400200006f08af90100200003f0bbfc6f4ab5
:100a2400938801339380200006f07ff981b220007f
:100a340006f006fa7ae2754a934201d101f03bf8d6
:100a44000132934200d071e2604c0f2270490431ac
:100a5400200006f002f9200006f067f901002000ea
:100a640003f098fc5d4a938801339380200006f0dc
:100a74005cf981b2200006f0e3f957e2033a9342ad
:100a840001d101f069f822d8023a934201d101f070
:100a940048f80132934200d048e24c4c26225c498b
:100aa4004831200006f0d9f8200006f03ef9010094
:100ab400200003f06ffc494a93880133938020009f
:100ac40006f033f981b2200006f0baf92ee2514a59
:100ad400934201d101f05bf80132934200d025e248
:100ae4003a4c0f224c492031200006f0b6f8200081
:100af40006f01bf90100200003f04cfc474a484b68
:100b04001a80f132354b9a800122354b1a70354bdd
:100b14001a68444b1a60200006f007f981b22000dd
:100b240006f08ef902e2023a934201d101f090f804
:100b34000132934200d0f9e1304c200006f0f5f880
:100b440081b2200006f07cf98022520000212000ae
:100b540006f0d4f8324b1b881a4a934201d101f0b3
:100b6400c3f801331d4a938000221d4b1a70dde146
:100b74002d4a934201d101f0aefa5dd92b4a93423a
:100b840001d101f038fb00d826e1294a934201d172
:100b940001f079fb00d87ce1264a934201d101f0af
:100ba400e2fb01d201f0c0fb0132934200d0bde16f
:100bb400802252000021114806f0a0f8b6e1c04698
:100bc400fc0800000c070000fe0700005000002095
:100bd400c028000001080000362200203400002054
:100be4003c000020bc160020f0210020e821002059
:100bf400881300004027000040240000ac090020b6
:100c0400fe06000003070000c027000004070000e0
:100c1400c02600000a070000402800000b0700005f
:100c240034220020ec210020010a0000070a000001
:100c3400fc0a0000fe0a0000ff3a934201d101f0d1
:100c440056f971d8033a934201d101f023f93ed801
:100c5400023a934201d101f0fef80132934200d0ee
:100c640064e10022d64b1a70d64b60336a4623cb1c
:100c740023c223cb23c223cb23c21b781370684621
:100c840006f053f881b2684606f0daf8ce4b6c33be
:100c94006a4603cb03c21b881380cc49684605f01f
:100ca400a1fe684606f041f881b2684606f0c8f82d
:100cb400c74c200006f039f881b2200006f0c0f8d5
:100cc400802252000021200006f018f82ee1902224
:100cd4001201934201d101f0e5f80132934200d0b0
:100ce40024e1ba4c0f22bb495831200005f0b5ff6e
:100cf400200006f01af80100200003f04bfbb64a6e
:100d0400b64b1a80fb32b64b9a800122ac4b1a7058
:100d1400b44b1a68b44b1a60200006f006f881b28e
:100d2400200006f08df801e1b04a934201d101f0b0
:100d340093f924d8023a934201d101f0fcf801322c
:100d4400934200d0f2e0a24c200005f0eeff81b205
:100d5400200006f075f8802252000021200005f0e2
:100d6400cdff9e4b1b889c4a934201d101f06ff941
:100d740001339b4a93800022914b1a70d6e09c4a1f
:100d8400934201d101f09ff90132934200d0cde0aa
:100d94008e4c10228f494831200005f05eff200060
:100da40005f0c3ff0100200003f0f4faa0221201b1
:100db400904b1a80fc328a4b9a800122804b1a7025
:100dc400884b1a688c4b1a60200005f0aeff81b284
:100dd400200006f035f8a9e0033a934201d101f06e
:100de400c2f92bd8023a934201d101f098f90132a9
:100df400934200d09ae0754c0f22724924312000ae
:100e040005f02bff200005f090ff0100200003f007
:100e1400c1fa7a4a774b1a80f932714b9a800122cf
:100e2400674b1a706f4b1a68734b1a60200005f0f9
:100e34007cff81b2200006f003f877e0704a934209
:100e440001d101f0b4f9013293426fd15f4c192200
:100e54006c497c31200005f000ff200005f065ff9f
:100e64000100200003f096fa674a624b1a80f632ba
:100e74005b4b9a800122524b1a705a4b1a685e4b94
:100e84001a60200005f051ff81b2200005f0d8ff60
:100e94004ce0f43a934201d101f0d1f9013293428a
:100ea40044d14a4c0e2259493431200005f0d5fe74
:100eb400200005f03aff0100200003f06bfa544ac9
:100ec4004c4b1a80534a464b9a8001223c4b1a7071
:100ed400444b1a68484b1a60200005f026ff81b283
:100ee400200005f0adff21e0384c052236492000f2
:100ef40005f0b3fe200005f018ff0100200003f008
:100f040049fa80225200444b1a80fc32344b9a80b6
:100f140001222b4b1a70334b1a68404b1a60200085
:100f240005f003ff81b2200005f08aff40b070bdd8
:100f3400264c112224491031200005f08efe200099
:100f440005f0f3fe0100200003f024fa8122520090
:100f5400314b1a80fa32224b9a800122184b1a70b4
:100f6400204b1a682d4b1a60200005f0defe81b27a
:100f7400200005f065ffd9e7144c0b2212492431f7
:100f8400200005f06afe200005f0cffe01002000dd
:100f940003f000fa0422ff321f4b1a80f932104b7f
:100fa4009a800122064b1a700e4b1a681b4b1a606a
:100fb400200005f0bafe81b2200005f041ffb5e73c
:100fc4003c000020c0280000402400005000002005
:100fd400ac09002040250000010900002e22002059
:100fe40034000020bc160020e0210020fe0900008f
:100ff400ff09000030220020e4210020030a000041
:10100400050a000040290000060a0000c02900006b
:10101400090a0000fc0700003c220020fc210020fb
:10102400ea4c0922ea493c31200005f016fe200072
:1010340005f07bfe0100200003f0acf90622ff322c
:10104400e44b1a80f732e44b9a800122e34b1a7086
:10105400e34b1a68e34b1a60200005f066fe81b288
:10106400200005f0edfe61e7dc4b1b78022b3fd03e
:10107400032b42d0da4b1b68da4a12689b1ada4a0d
:10108400934200d852e70022d44b1a70d04d2b0063
:1010940048336a4643cb43c243cb43c243cb43c2e8
:1010a400684605f042fe81b2684605f0c9fe2b0091
:1010b4006c336a4603cb03c21b881380c34968465a
:1010c40005f090fc684605f030fe81b2684605f0f4
:1010d400b7fec64c200005f028fe81b2200005f0c2
:1010e400affe802252000021200005f007fe1de71c
:1010f400fe22ff32b84b9a8018e7ff225200b64b0b
:101104009a8013e7ba4ab44b9a80fff7fcf800229e
:10111400b24b1a70ae4d2b0078336a4643cb43c2b0
:1011240043cb43c203cb03c2684605f0fefd81b244
:10113400684605f085fe2b006c336a4603cb03c278
:101144001b881380a149684605f04cfc684605f0ed
:10115400ecfd81b2684605f073fea44c200005f056
:10116400e4fd81b2200005f06bfe802252000021d4
:10117400200005f0c3fdd9e68022520000219b48df
:1011840005f0bcfd0022954b1a70cfe68f4c0c2263
:1011940098491831200005f060fd200005f0c5fdd8
:1011a4000100200003f0f6f8934a944b1a80fb32b6
:1011b400894b9a800122894b1a70894b1a68904b8b
:1011c4001a60200005f0b1fd81b2200005f038fe60
:1011d400ace67e4c0e2287492431200005f03dfd0b
:1011e400200005f0a2fd0100200003f0d3f8854a99
:1011f400824b1a80fa32784b9a800122774b1a700c
:10120400774b1a687e4b1a60200005f08efd81b280
:10121400200005f015fe89e6704b1b78022b3ed0aa
:10122400032b40d06e4b1b68754a12689b1a6e4a9a
:10123400934200d87ae60022684b1a706d4b403313
:101244006a4623cb23c223cb23c223cb23c26846c3
:1012540005f06bfd81b2684605f0f2fd5c4b6c3322
:101264006a4603cb03c21b8813805849684605f0bd
:10127400b9fb684605f059fd81b2684605f0e0fd0a
:101284005a4c200005f051fd81b2200005f0d8fd34
:10129400802252000021200005f030fd46e65a4a23
:1012a4004d4b9a8042e6594a4b4b9a803ee64f4c4e
:1012b400200005f03afd81b2200005f0c1fd802236
:1012c40052000021200005f019fd4c4b1b88504aa8
:1012d400934206d00133404a938000223f4b1a7058
:1012e40024e6434a3c4b9a80f7e7802252000021cf
:1012f4003e4805f003fd19e6344c0b2234493031e5
:10130400200005f0aafc200005f00ffd01002000dc
:1013140003f040f8c02292003e4b1a80fc322e4b60
:101324009a8001222d4b1a702d4b1a683a4b1a6081
:10133400200005f0fafc81b2200005f081fdf5e5fe
:10134400224c0c222b491831200005f086fc200089
:1013540005f0ebfc0100200003f01cf82f4a2d4b94
:101364001a80fa321c4b9a8001221c4b1a701c4bb7
:101374001a68294b1a60200005f0d7fc81b22000be
:1013840005f05efdd2e5264a134b9a80cee5254a48
:10139400114b9a80cae5154c200005f0c6fc81b2b9
:1013a400200005f04dfd802252000021200005f0b0
:1013b400a5fc184b1b88194a934235d00133064ac1
:1013c40093800022054b1a70b0e5c04650000020ff
:1013d400402400003c220020340000203c00002077
:1013e400bc160020fc210020b80b0000ac09002032
:1013f400ff010000c0240000010200002c22002094
:10140400dc21002002020000fd020000fe020000b8
:101414000302000038220020f4210020020300000f
:10142400fd030000fe030000ec4aed4b9a80c8e780
:101434000022ec4b1a70ec4b28336a4623cb23c2b0
:1014440023cb23c203cb03c2684605f06efc81b2f2
:10145400684605f0f5fce54b6c336a4603cb03c2e2
:101464001b881380e249684605f0bcfa684605f01b
:101474005cfc81b2684605f0e3fcde4c200005f01c
:1014840054fc81b2200005f0dbfc802252000021d4
:10149400200005f033fc49e5802252000021d548a4
:1014a40005f02cfc42e5d24c1122d0491031200029
:1014b40005f0d3fb200005f038fc0100200002f009
:1014c40069ff8022d200cc4b1a80fc32c44b9a8034
:1014d4000122c44b1a70c94b1a68c94b1a60200008
:1014e40005f023fc81b2200005f0aafc1ee5c04ce7
:1014f4000b22be493031200005f0affb200005f07f
:1015040014fc0100200002f045ffbe4aba4b1a80c9
:10151400fa32b34b9a800122b24b1a70b74b1a6855
:10152400b74b1a60200005f000fc81b2200005f0e2
:1015340087fcfbe4ae4c0922ac493c31200005f0a9
:101544008cfb200005f0f1fb0100200002f022ffdb
:10155400ad4aa94b1a80f932a14b9a800122a14bc2
:101564001a70a64b1a68a64b1a60200005f0ddfb22
:1015740081b2200005f064fcd8e49d4c10229a4905
:101584004831200005f069fb200005f0cefb010086
:10159400200002f0fffe9d4a974b1a80f732904bd1
:1015a4009a8001228f4b1a70944b1a68944b1a60dc
:1015b400200005f0bafb81b2200005f041fcb5e43f
:1015c4008b4c0f2288495831200005f046fb20003f
:1015d40005f0abfb0100200002f0dcfe8c4a864bd8
:1015e4001a80f6327e4b9a8001227e4b1a70834b0e
:1015f4001a68834b1a60200005f097fb81b2200023
:1016040005f01efc92e4834a754b9a808ee4824a6c
:10161400734b9a808ae4774c200005f086fb81b2f4
:10162400200005f00dfc802252000021200005f06e
:1016340065fb714b1b88764a934206d00133684a96
:1016440093800022674b1a7070e4744a644b9a804a
:10165400f7e70022634b1a70714b08336a4623cbb9
:1016640023c223cb23c21b881380684605f05dfb8d
:1016740081b2684605f0e4fb5c4b6c336a4603cbed
:1016840003c21b8813805a49684605f0abf96846c3
:1016940005f04bfb81b2684605f0d2fb554c2000a7
:1016a40005f043fb81b2200005f0cafb8022520002
:1016b4000021200005f022fb38e44d4c1e2258493d
:1016c4002431200005f0c9fa200005f02efb0100aa
:1016d400200002f05ffe424a938801339380200089
:1016e40005f023fb81b2200005f0aafbfff71efce6
:1016f4003f4c1e224a494431200005f0aefa200036
:1017040005f013fb0100200002f044fe344a9388e4
:1017140001339380200005f008fb81b2200005f01e
:101724008ffbfff703fc324c0f223e4904312000ab
:1017340005f093fa200005f0f8fa0100200002f009
:1017440029fe394a264b9a80200005f0eefa81b230
:10175400200005f075fbfff7e9fb264c200005f09f
:10176400e4fa81b2200005f06bfbfff7dffb204cad
:101774002f222c492c31200005f06ffa200005f0af
:10178400d4fa0100200002f005fe154a93880133c3
:101794009380200005f0c9fa81b2200005f050fbc7
:1017a400fff7c4fb124c25221e495c31200005f0d2
:1017b40054fa200005f0b9fa0100200002f0eafd15
:1017c400074a938801339380200005f0aefa81b272
:1017d400200005f035fbfff7a9fbc046ff0300001e
:1017e400340000203c00002040250000402400007c
:1017f40050000020ac0900203a220020bc16002032
:10180400f821002002040000030400000504000085
:1018140006040000fd040000fe040000ff040000b4
:10182400c025000040260000ff050000e54c0f2203
:10183400e5491431200005f010fa200005f075fa8e
:101844000100200002f0a6fde04a93880133938052
:10185400200005f06afa81b2200005f0f1fafff7e2
:1018640065fbd84c2622d8494831200005f0f5f90b
:10187400200005f05afa0100200002f08bfdd34a43
:10188400938801339380200005f04ffa81b2200041
:1018940005f0d6fafff74afbca4c1622ca49703142
:1018a400200005f0daf9200005f03ffa01002000dd
:1018b40002f070fdc54a938801339380200005f03f
:1018c40034fa81b2200005f0bbfafff72ffbbd4cc0
:1018d4001222bf490831200005f0bff9200005f0ad
:1018e40024fa0100200002f055fdb84a9388013320
:1018f4009380200005f019fa81b2200005f0a0fac7
:10190400fff714fbaf4c0e22b1491c31200005f047
:10191400a4f9200005f009fa0100200002f03afdc4
:10192400ac4aad4b1a80f332a84b9a800122ab4be0
:101934001a70ab4b1a68ab4b1a60200005f0f5f92e
:1019440081b2200005f07cfafff7f0faa64a9f4b1b
:101954009a80fff7ebfaa54a9c4b9a80fff7e6fac8
:10196400a34c200005f0e1f981b2200005f068faeb
:10197400802252000021200005f0c0f9964b1b88fc
:10198400944a934207d00133904a93800022934ba8
:101994001a70fff7cbfa974a8c4b9a80f6e700222d
:1019a4008e4b1a708a4b5c336a4623cb23c223cbfb
:1019b40023c223cb23c219681160998891809b7933
:1019c4009371684605f0b1f981b2684605f038faba
:1019d400894b6c336a4603cb03c21b881380794955
:1019e400684604f0ffff684605f09ff981b2684637
:1019f40005f026fa7e4c200005f097f981b220000c
:101a040005f01efa802252000021200005f076f92c
:101a1400fff78cfa6b4c172278491431200005f03b
:101a24001cf9200005f081f90100200002f0b2fc4d
:101a3400664a938801339380200005f076f981b2d9
:101a4400200005f0fdf9fff771fa5e4c12226c4993
:101a54000831200005f001f9200005f066f90100c5
:101a6400200002f097fc594a9388013393802000a8
:101a740005f05bf981b2200005f0e2f9fff756fab0
:101a8400504c24225e494c31200005f0e6f8200039
:101a940005f04bf90100200002f07cfc4b4a9388ce
:101aa40001339380200005f040f981b2200005f055
:101ab400c7f9fff73bfa434c1e225149703120000d
:101ac40005f0cbf8200005f030f90100200002f009
:101ad40061fc3e4a938801339380200005f025f988
:101ae40081b2200005f0acf9fff720fa354c0f2243
:101af40035491431200005f0b0f8200005f015f93f
:101b04000100200002f046fc304a938801339380a0
:101b1400200005f00af981b2200005f091f9fff7e1
:101b240005fa284c242228492431200005f095f890
:101b3400200005f0faf80100200002f02bfc234af3
:101b4400938801339380200005f0eff881b22000e0
:101b540005f076f9fff7eaf91a4c16221a497031a2
:101b6400200005f07af8200005f0dff801002000dd
:101b740002f010fc154a938801339380200005f08d
:101b8400d4f881b2200005f05bf9fff7cff90d4cd2
:101b940010221c491031200005f05ff8200005f0e8
:101ba400c4f80100200002f0f5fb084a93880133d1
:101bb4009380200005f0b9f881b2200005f040f9c7
:101bc400fff7b4f950000020c026000034000020c4
:101bd4004027000009060000322200203c000020bb
:101be400bc160020e8210020fd060000fe060000cf
:101bf400ac090020ff06000040240000402600003d
:101c0400c027000040280000f14c0e22f1491c318d
:101c1400200005f022f8200005f087f801002000dc
:101c240002f0b8fbec4aed4b1a80f032ec4b9a8090
:101c34000122ec4b1a70ec4b1a68ec4b1a60200032
:101c440005f073f881b2200005f0faf8fff76ef999
:101c5400e44b1b78022b3dd0032b40d0e24b1b6896
:101c6400e24a12689b1ae24a934201d8fff75ef9ee
:101c74000022dc4b1a703922de493031684604f008
:101c8400ecff684605f051f881b2684605f0d8f8d3
:101c9400d94b6c336a4603cb03c21b881380cc49ef
:101ca400684604f09ffe684605f03ff881b2684636
:101cb40005f0c6f8d14c200005f037f881b22000b9
:101cc40005f0bef8802252000021200005f016f82d
:101cd400fff72cf9ca4ac24b9a80fff727f9c94a81
:101ce400bf4b9a80fff722f9c74abd4b9a80fef793
:101cf4003bff0022bb4b1a703522be496c3168464b
:101d040004f0abff684605f010f881b2684605f0b0
:101d140097f8b94b6c336a4603cb03c21b88138014
:101d2400ab49684604f05efe684604f0feff81b2eb
:101d3400684605f085f8b14c200004f0f6ff81b246
:101d4400200005f07df8802252000021200004f0dc
:101d5400d5fffff7ebf8802252000021a74804f0da
:101d6400cdfffff7e3f89a4c0f22a249203120005f
:101d740004f073ff200004f0d8ff0100200002f0fb
:101d840009fb80221201a14b1a80fc32944b9a80e9
:101d94000122944b1a70944b1a689d4b1a602000d0
:101da40004f0c3ff81b2200005f04af8fff7bef843
:101db4008c4b1b78022b44d0032b47d08a4b1b68d7
:101dc400934a12689b1a8a4a934201d8fff7aef8e5
:101dd4000022844b1a708f4b34336a4623cb23c2c0
:101de40023cb23c223cb23c2196811601b7913713f
:101df400684604f09aff81b2684605f021f87e4bec
:101e04006c336a4603cb03c21b881380704968464f
:101e140004f0e8fd684604f088ff81b2684605f0e6
:101e24000ff8764c200004f080ff81b2200005f00a
:101e340007f8802252000021200004f05ffffff722
:101e440075f8754a664b9a80fff770f8734a644bcd
:101e54009a80fff76bf8694c200004f066ff81b2aa
:101e6400200004f0edff802252000021200004f045
:101e740045ff664b1b886a4a934207d00133584a90
:101e840093800022574b1a70fff750f8654a544b61
:101e94009a80f6e7802252000021584804f02eff71
:101ea400fff744f84a4c10225f494831200004f0ff
:101eb400d4fe200004f039ff0100200002f06afa89
:101ec40090221201594b1a80fc32454b9a80012210
:101ed400444b1a70444b1a68554b1a60200004f0a6
:101ee40024ff81b2200004f0abfffff71ff8384c49
:101ef4000e2250492431200004f0affe200004f0eb
:101f040014ff0100200002f045fa4b4a474b1a80a7
:101f1400fa32334b9a800122324b1a70324b1a68d0
:101f2400434b1a60200004f000ff81b2200004f04b
:101f340087fffef7fbff2b4b1b78022b43d0032bb1
:101f440000d17fe0284b1b68394a12689b1a284a43
:101f5400934201d8fef7eaff0022224b1a70374b56
:101f640008336a4623cb23c223cb23c203cb03c249
:101f74001b881380684604f0d8fe81b2684604f0da
:101f84005fff1d4b6c336a4603cb03c21b8813806f
:101f94000f49684604f026fd684604f0c6fe81b287
:101fa400684604f04dff154c200004f0befe81b2db
:101fb400200004f045ff802252000021200004f09c
:101fc4009dfefef7b3ff1e4a054b9a80fef7aeff57
:101fd40050000020402700000c070000342200209d
:101fe400340000203c000020bc160020ec2100201e
:101ff400881300004028000040240000ac090020a1
:10200400fd070000fe070000ff0700003622002045
:10201400f0210020c0280000fd080000fe08000098
:1020240001080000ff080000402500002e220020c7
:10203400e0210020c0240000020900004029000023
:10204400fd090000e34ae44b9a80fef76fffe34a80
:10205400e14b9a80fef78ffe0022e14b1a70e14bb0
:102064002c336a4623cb23c223cb23c219681160c5
:102074009b889380684604f058fe81b2684604f059
:10208400dffed94b6c336a4603cb03c21b88138033
:10209400d649684604f0a6fc684604f046fe81b2c0
:1020a400684604f0cdfed24c200004f03efe81b21e
:1020b400200004f0c5fe802252000021200004f01c
:1020c4001dfefef733ff802252000021c84804f0b1
:1020d40015fefef72bffc54c0f22c64958312000d0
:1020e40004f0bbfd200004f020fe0100200002f0fb
:1020f40051f9c14ac14b1a80fb32b74b9a80012275
:10210400b74b1a70be4b1a68be4b1a60200004f01d
:102114000cfe81b2200004f093fefef707ffb34cdf
:102124000e22b9492431200004f097fd200004f068
:10213400fcfd0100200002f02df9b44aaf4b1a80d7
:10214400fa32a54b9a800122a54b1a70ac4b1a683f
:10215400ac4b1a60200004f0e8fd81b2200004f0ca
:102164006ffefef7e3fea14c13229e494c31200082
:1021740004f073fd200004f0d8fd0100200002f0fb
:1021840009f9a34a9d4b1a80f832934b9a80012295
:10219400934b1a709a4b1a689a4b1a60200004f0f9
:1021a400c4fd81b2200004f04bfefef7bffe8f4c4d
:1021b40019228c496031200004f04ffd200004f006
:1021c400b4fd0100200002f0e5f8924a8b4b1a801e
:1021d400f732814b9a800122814b1a70884b1a681e
:1021e400884b1a60200004f0a0fd81b2200004f0a6
:1021f40027fefef79bfe7d4c1922874918312000eb
:1022040004f02bfd200004f090fd0100200002f0fa
:10221400c1f8824a794b1a80f5326f4b9a800122b9
:102224006f4b1a70764b1a68764b1a60200004f0d4
:102234007cfd81b2200004f003fefef777fe6b4cb8
:102244000e2277491c31200004f007fd200004f021
:102254006cfd0100200002f09df8724a674b1a8061
:10226400f4325d4b9a8001225d4b1a70644b1a68fc
:10227400644b1a60200004f058fd81b2200004f081
:10228400dffdfef753fe564b1b78022b42d0032b87
:1022940045d05b4b1b685b4a12689b1a624a9342a7
:1022a40001d8fef743fe00224d4b1a705a4b4433bb
:1022b4006a4623cb23c223cb23c223cb23c223cb03
:1022c40023c2684604f031fd81b2684604f0b8fdcb
:1022d400454b6c336a4603cb03c21b8813804349c6
:1022e400684604f07ffb684604f01ffd81b268462f
:1022f40004f0a6fd3e4c200004f017fd81b220003e
:1023040004f09efd802252000021200004f0f6fc1f
:10231400fef70cfe454a304b9a80fef707fe444a0e
:102324002d4b9a80fef702fe314c200004f0fdfc98
:1023340081b2200004f084fd80225200002120009c
:1023440004f0dcfc2d4b1b883a4a934207d001333e
:10235400214a93800022224b1a70fef7e7fd364a89
:102364001d4b9a80f6e700221d4b1a702a4b7433da
:102374006a4623cb23c223cb23c223cb23c203cb62
:1023840003c2684604f0d1fc81b2684604f058fdeb
:10239400154b6c336a4603cb03c21b881380134965
:1023a400684604f01ffb684604f0bffc81b268462f
:1023b40004f046fd0e4c200004f0b7fc81b220006e
:1023c40004f03efd802252000021200004f096fc1f
:1023d400fef7acfdfe09000034000020ff090000f8
:1023e4003c00002040290000402400005000002050
:1023f400ac09002040250000010a00003022002022
:10240400bc160020e4210020c0240000020a0000c1
:10241400040a0000050a0000c0290000070a0000a1
:1024240040270000080a000088130000fd0a00008d
:0c243400fe0a0000090a0000ff0a000078
:020000040000fa
:1024400041540d0a00000000415445300d0a0000bf
:1024500041542b434c434b3d225343222c320d0a13
:102460000000000041542b4350494e3f0d0a00002c
:1024700041542b434f50533f0d0a000041542b430e
:1024800053510d0a000000005f41545f4d4f445509
:102490004c455f434f4e4e45435420204572726f6a
:1024a000725f74696d656f75740d0a0074785f45ad
:1024b00052524f523a0000005f41545f4d4f445515
:1024c0004c455f434f4e4e45435420204572726f3a
:1024d000725f6d65670d0a0041542b4345524547b5
:1024e0003f0d0a0041542b434744434f4e543f0d88
:1024f0000a00000041542b43434c4b3f0d0a00009f
:102500005f41545f34474c54455f6c696e6b5f6349
:10251000686b20204572726f725f74696d656f75ac
:10252000740d0a005f41545f34474c54455f6c6939
:102530006e6b5f63686b20204572726f725f6d65b2
:10254000670d0a005f41545f4e4554574f524b5f31
:1025500053544154555320204572726f725f746911
:102560006d656f75740d0a005f41545f4e45545799
:102570004f524b5f53544154555320204572726f54
:10258000725f6d65670d0a0041542b555053443df1
:10259000302c302c300d0a0041542b5550534441ff
:1025a0003d302c330d0a00005f41545f52454c4fc3
:1025b000475f494e20204572726f725f74696d6586
:1025c0006f75740d0a0000005f41545f52454c4f17
:1025d000475f494e20204572726f725f6d65670dcf
:1025e0000a00000041542b555345434d4e473d30a2
:1025f0002c302c227063626361222c313335390d0b
:102600000a00000041542b555345434d4e473d3081
:102610002c312c227063626363222c313235370dea
:102620000a00000041542b555345434d4e473d3061
:102630002c322c22706362706b222c313637350db0
:102640000a00000041542b555345434d4e473d333e
:102650000d0a000041542b554d5154543d302c224d
:1026600070636275756964220d0a000041542b5530
:102670004d5154543d322c22736861726561707003
:102680002e73746f6e65746563682e636f6d2e7440
:1026900077222c38383833220d0a000041542b554c
:1026a0004d5154543d332c227878782e7878782efa
:1026b0007878782e787878222c38383833220d0aba
:1026c0000000000041542b554d5154543d362c31df
:1026d0000d0a000041542b554d5154543d372c31b7
:1026e0000d0a000041542b554d5154543d382c22b5
:1026f000454d4f544f2f4445562f70636275756991
:10270000642f5550220d0a0041542b554d515454fd
:102710003d392c22556e7265717565737465642040
:10272000646973636f6e6e656374220d0a00000046
:1027300041542b554d5154543d31302c33363030ab
:102740002c32300d0a00000041542b554d51545489
:102750003d31312c312c320d0a00000041542b55f3
:102760004d515454433d310d0a0000005f41545f08
:102770004d5154545f42494449525f415554485f5a
:10278000504152415f4c4f414420204572726f725c
:102790005f74696d656f75740d0a00005f41545f69
:1027a0004d5154545f42494449525f415554485f2a
:1027b000504152415f4c4f414420204572726f722c
:1027c0005f6d65670d0a000041542b554d515454ff
:1027d0003d312c313838330d0a00000041542b555f
:1027e0004d5154543d322c22736861726561707092
:1027f0002e73746f6e65746563682e636f6d2e74cf
:1028000077222c313838330d0a00000041542b5503
:102810004d5154543d332c227878782e7878782e88
:102820007878782e787878222c383838330d0a006a
:1028300041542b554d5154543d342c2274657374be
:10284000222c226d717474313233220d0a00000083
:1028500041542b554d5154543d31312c300d0a000b
:1028600041542b554d5154544e563d320d0a0000e3
:102870005f41545f4d5154545f4e4f5f4155544832
:102880005f5553455249445f4c4f47494e5f504155
:1028900052415f4c4f414420204572726f725f7409
:1028a000696d656f75740d0a000000005f41545f2b
:1028b0004d5154545f4e4f5f415554485f555345f9
:1028c0005249445f4c4f47494e5f504152415f4c23
:1028d0004f414420204572726f725f6d65670d0a2b
:1028e0000000000041542b554d5154544e563d317b
:1028f0000d0a00005f41545f4d5154545f504152e6
:10290000415f4f5045524154494f4e20204572720d
:102910006f725f74696d656f75740d0a0000000059
:102920005f41545f4d5154545f504152415f4f508d
:1029300045524154494f4e20204572726f725f6d6f
:1029400065670d0a000000005f41545f34475f4c2b
:1029500054455f4c4f47494e20204572726f725f5d
:1029600074696d656f75740d0a0000005f41545ff6
:1029700034475f4c54455f4c4f47494e20204572c9
:10298000726f725f6d65670d0a00000041542b5530
:102990005345435052463d322c302c310d0a000035
:1029a00041542b555345435052463d322c332c2233
:1029b0007063626361220d0a0000000041542b55d0
:1029c0005345435052463d322c352c22706362638e
:1029d00063220d0a0000000041542b55534543501b
:1029e00052463d322c362c22706362706b220d0ae7
:1029f0000000000041542b554d515454433d300dbf
:102a00000a0000005f41545f4d5154545f424944f5
:102a100049525f415554485f4c4f47494e5f464cc1
:102a20004f5720204572726f725f74696d656f75c4
:102a3000740d0a005f41545f4d5154545f42494444
:102a400049525f415554485f4c4f47494e5f464c91
:102a50004f5720204572726f725f6d65670d0a00d7
:020000040000fa
:102a6000942100201c000000000000009c1c00209d
:102a70009c00000000000000000000203400000066
:102a8000000000002c2200200200000000000000d6
:102a9000dc21002004000000000000002e220020a5
:102aa0000200000000000000e021002004000000ff
:102ab00000000000302200200200000000000000a2
:102ac000e421002004000000000000003222002069
:102ad0000200000000000000e821002004000000c7
:102ae000000000003422002002000000000000006e
:102af000ec2100200400000000000000362200202d
:102b00000200000000000000f0210020040000008e
:102b10000000000038220020020000000000000039
:102b2000f421002004000000000000003a220020f0
:102b30000200000000000000f82100200400000056
:102b4000000000003c220020020000000000000005
:102b5000fc210020040000000000000034000020e0
:102b6000800000000000000000220020040000009f
:102b7000000000000422002004000000000000000b
:102b8000422200200100000000000000432200203b
:102b900001000000000000004422002001000000ad
:102ba00000000000082200200400000000000000d7
:102bb0000c22002004000000000000001022002071
:102bc0000400000000000000452200200100000079
:102bd000000000004622002001000000000000006c
:102be0001422002004000000000000004722002002
:102bf0000100000000000000482200200100000049
:102c00000100000001000000c0000020ec030000f3
:102c1000000000003e220020020000000000000032
:102c2000182200200400000000000000ac04002076
:102c30000312000000000000f42000202c0000001f
:102c400000000000b0160020150000000000000089
:102c5000402200200200000000000000242000208c
:102c60005000000000000000c41d00208000000093
:102c700000000000381d00208c0000000000000053
:102c80007421002020000000000000004c210020e2
:102c90002800000000000000e01800209001000063
:102ca00000000000dc1b0020c0000000000000004d
:102cb000202100202c00000000000000441e002005
:102cc0008000000000000000c41e00208000000002
:102cd0000000000074200020400000000000000000
:102ce000441f00208000000000000000e0160020cb
:102cf0000002000000000000b4200020400000009e
:102d000000000000d02100200c00000000000000a6
:102d1000b02100201000000000000000c0210020b1
:102d20001000000000000000c81600201000000085
:102d300000000000d8160020010000000000000084
:102d40001c2200200400000001000000c41f00201d
:102d5000c41f00206000000001000000000000000f
:102d60008c680000ac6800006c6800000000000087
:102d70000000000000000000000000000000000053
:102d80000000000000000000000000000000000043
:102d90000000000000000000000000000000000033
:102da0000000000000000000000000000000000023
:102db000000000000000000000000000701a002069
:102dc0006c01000001000000430000000000000052
:102dd00000000000000000000000000000000000f3
:102de00000000000000000004300000000000000a0
:102df00000000000000000000000000000000000d3
:102e0000000000000000000043000000000000007f
:102e100000000000000000000000000000000000b2
:102e2000000000000000000043000000000000005f
:102e30000000000000000000000000000000000092
:102e4000000000000000000043000000000000003f
:102e50000000000000000000000000000000000072
:102e6000000000000000000043000000000000001f
:102e70000000000000000000000000000000000052
:102e800000000000000000004300000000000000ff
:102e90000000000000000000000000000000000032
:102ea0000000000000000000f56a00003967000023
:102eb00000000000b0450000416e0000406e0000c0
:102ec000406e0000406e0000406e0000406e00004a
:102ed000406e0000406e0000406e0000406e00003a
:102ee000ffffffffffffffffffffffffffff0000f0
:102ef0000100415343494900000000000000000068
:102f000000000000000000000000000000000000c1
:102f10000000415343494900000000000000000048
:102f200000000000000000000000000000000000a1
:102f3000000000002022002004000000000000002b
:102f4000242200200400000000000000dc16002005
:102f500004000000000000002822002004000000ff
:102f600000000000000000000000000022222222d9
:020000040000fa
:102f7000f0b59db00490039115001c00002805d009
:102f800083690593002b01d102f000fd984b039a51
:102f90009a4260d1049b5b680393039b9b891b0748
:102fa00067d5039b1b690593002b62d000220f920b
:102fb00020220aab5a76302206959a76069d2b7807
:102fc000002b60d1069bee1a0cd03300069a0399b1
:102fd000049803f007f8431c00d170e10f9b9e1981
:102fe00005930f962b78002b00d168e101220aaee1
:102ff000524272605322002306a97e4f52180135b7
:103000000a93f360b36013702237052229783800e1
:1030100003f07cfd6a1c002839d13068c30604d552
:103020005323202106afdb191970030704d553235e
:103030002b2106afdb1919702b782a2b2fd00020fb
:103040000a21f3682a78303a092a00d870e000286b
:103050002cd0f3602ae0684b039a9a4202d1049b79
:103060009b6899e7654b039a9a4296d1049bdb686b
:1030700092e70399049801f093fb002896d0012071
:1030800040421db0f0bd252b9cd0013597e70123b0
:10309000c01b8340316815000b433360b5e72368dc
:1030a000211d002b3edbf36015000c002b782e2b2e
:1030b0000ad16b786a1c2a2b42d122680235231d63
:1030c000002a3adb1c0072604a4f29782837032215
:1030d000380003f01bfd002806d04023c01b8340ae
:1030e0003268013513433360424f297838006b1c36
:1030f00006222c300693317603f008fd5322337eee
:1031000006a95218692b31d03ed8582b78d029d82f
:10311000002b00d1f6e0522106a809180b700123fc
:103120000e9356e05b42f360022303433360bbe738
:103130004b4301359b18012084e701225242c1e72d
:10314000002315000a201a007360297830390929f4
:1031500003d9002bb8d07260b6e74243013552184c
:103160000123f2e7632b2cd0642bd4d10a99231dc1
:103170002668080633d51c00002e02da2d2376427d
:1031800013700a23059357e0702b00d19ee00dd8f1
:103190006f2bc0d10a99221d2668080623d514007a
:1031a0006f2b00d19be00a23059340e0752bf1d0f3
:1031b000782bb0d15523782206a95b181a701137e5
:1031c00022e0522306a95b182178043419700123e8
:1031d000336100235225137006abed1851e0490608
:1031e000c9d536b2c7e74906d9d5b6b2d7e7c04682
:1031f0008c680000f0630000ac6800006c680000a0
:10320000552206a9521813700a9b221d266819061a
:1032100061d51400da0702d5202213430a93102344
:103220000593002e03d120230a9a9a430a9253232e
:10323000002206a95b181a700b9b0c93002b7bdbfa
:1032400004220a9991430a91002e4ad1002b75d18c
:10325000532506abed18059b082b0dd10a9bdb0708
:103260000ad50b9b05930e9b0793079a059b9342e8
:1032700002dc3023013d2b70532306aa9b185b1bf5
:103280000e93314b09aa00930aa9039b049801f0fd
:10329000e2fb431c13d00e9b2a000399049802f012
:1032a000a1fe431c0bd00a9b002505939b0737d436
:1032b000099a0d9b934200da13005a1c37d1039be5
:1032c0000f989b895b0600d4dbe6d8e620233268a2
:1032d000134333606ee759069bd5b6b299e70823ce
:1032e00062e7532506abed183000059902f09ef811
:1032f0007b5c013d30002b70059902f05bf8061ee7
:10330000f2d1a8e733611500bbe7292206a9012302
:1033100052180498039902f065fe431ccfd0013582
:103320000d9b099a05939b1a9d42eedbc0e70f9a0d
:10333000d31805920f9341e6002ed2d1522506ab49
:0c334000ed183b782b7086e7e55f00007d
:020000040000fa
:10334c00f0b5ce46474680b585b0964b1c6da301b3
:10335c0003d580229204934b1a65e30755d5914b04
:10336c00012119655a6d8a435a65a4229b585b0644
:10337c004bd0a4238b4ad558ad04ad0e29018a4bf2
:10338c00de68761833685b0000d4ade0ab005b19e7
:10339c009b00864a9a583368db00db08136032685e
:1033ac0073689b0202d4930000d5d3e0ab005b1989
:1033bc009b007e4ad3181b6900221a707768102272
:1033cc007b49684603f045fc3f033f0f6b46db5dd2
:1033dc009946764b9846af007b199b00434458683e
:1033ec00310008314a4603f034fc7f19bf004744d2
:1033fc00bb684a461a70a8236a4ad5506d4b1b68a5
:10340c00002b02d06b4a50689847e3065ad5654b9f
:10341c00102119655a6d8a435a65b4229b585b0674
:10342c0050d0b4235f4ad558ad04ad0e29015e4b84
:10343c001e69761833685b0060d5ab005b199a0087
:10344c005a4b9b18c8331a683368db00db081360cf
:10345c00326873689b0202d4930000d583e0ab0002
:10346c005b199a00514b9b18d8331b6800221a70b9
:10347c00776810224e49684603f0ebfb3f033f0f81
:10348c006b46db5d9946494fab0098465b199b0038
:10349c00fb18cc331868310008314a4603f0d9fbcd
:1034ac0043465b199b00ff18d0373b684a461a709d
:1034bc00b8233c4ad5503f4b9b68002b02d03d4a69
:1034cc00d0689847a3052cd5364b802292001a65fc
:1034dc005a6d39490a405a6500231f229446012728
:1034ec00304ad826e0204fe0ab005b199b002f4af6
:1034fc009a583368db005b0d136050e7ab005b1927
:10350c009a002a4b9b18c8331a683368db005b0d92
:10351c0013609de7274b9b69002b02d0254ad0698d
:10352c009847230511d51f4980231b010b65c42027
:10353c000b581b0a1f2213400958090c0a409342ce
:10354c0003d20133dbb29a42fbd105b00cbc9046de
:10355c009946f0bdab005b199b00144ad3181b694c
:10356c0001221a702ae7ab005b199a000f4b9b18cb
:10357c00d8331b6801221a707ae715588d43155001
:10358c000133dbb2052bc5d0614619403d008d409f
:10359c0029009559a84615580d42f1d045460d42c3
:1035ac00ebd1ede7001c00424c210020e01800207c
:0c35bc00c06c000074210020fffdffff28
:020000040000fa
:1035c800f0b5de4657464e464546e0b583b07f4bdc
:1035d8009b7d002b00d1f2e07c490a7ed2b28b7d24
:1035e8005bb2002b0ddb794a137edbb2927dd207ea
:1035f80000d4dce0db0700d4d9e0754c754b984665
:1036080067e052b2002aeeda704b5b8b0722134058
:10361800e9d06f4ad3876d4b80221a7607225a83e6
:103628001b7e5b0705d5694b04211a8d1a7e0a4259
:10363800fbd1674b1b6a002bd5d0654a516a022023
:103648009847d0e75e00b246624e5546755d0d70ec
:10365800b346da4455466d784d70013316e00b7861
:103668001385002f1ed1137e01252b4200d19ee029
:10367800a3689a46e3689a4500d195e056680640e3
:10368800012edfd04646f65c0e7001334b45b6413d
:1036980033406646f36053680340012bdfd10b8843
:1036a8001385dee703f076fa494b1b68002b10d030
:1036b800474a127f002a08d0454a9269904208d3a7
:1036c800434a51680320984703e0414a926990426f
:1036d8000bd03f4b1b6999463d4b1f7d3b4a07204a
:1036e8006b46991d3a4b9c46bde7394a5168032001
:1036f8009847eee74246126a002a2fd0796a0120dd
:103708009047bb6a01333a6b93429241134025e0dc
:103718002f4a916a4900304a54545218240a547066
:103728002ae02b4a926b904208d1294a516a00201c
:10373800984703e0264d2e00a8462f00234b1b7efa
:103748005b073cd5214b1c8da4b2ab6a01332a6bb5
:10375800934292411340f26a9a42cbd01c4ad26af1
:103768009a42ebd0194a516807220a40012acfd061
:10377800174a926a18498c54154a93623423d35cc9
:10378800002bdbd003f0f4f8114b1b6a002bd5d0cb
:103798003c220f498a5c002ac3d08a6b9042cdd361
:1037a800496a00209847c9e70122084b1a75074a59
:1037b800137edbb2927d520701d55b07bad403b002
:1037c8003cbc90469946a246ab46f0bd0008004274
:0c37d80074200020c41e0020441e0020ad
:020000040000fa
:1037e400f0b5de4657464e464546e0b583b07f4bbe
:1037f4009b7d002b00d1f2e07c490a7ed2b28b7d06
:103804005bb2002b0ddb794a137edbb2927dd207cb
:1038140000d4dce0db0700d4d9e0754c754b984646
:1038240067e052b2002aeeda704b5b8b072213403a
:10383400e9d06f4ad3876d4b80221a7607225a83c8
:103844001b7e5b0705d5694b04211a8d1a7e0a423b
:10385400fbd1674b1b6a002bd5d0654a516a022005
:103864009847d0e75e00b246624e5546755d0d70ce
:10387400b346da4455466d784d70013316e00b7843
:103884001385002f1ed1137e01252b4200d19ee00b
:10389400a3689a46e3689a4500d195e056680640c5
:1038a400012edfd04646f65c0e7001334b45b6411f
:1038b40033406646f36053680340012bdfd10b8825
:1038c4001385dee703f072f9494b1b68002b10d017
:1038d400474a127f002a08d0454a9269904208d389
:1038e400434a51680320984703e0414a9269904251
:1038f4000bd03f4b1b6999463d4b1f7d3b4a07202c
:103904006b46991d3a4b9c46bde7394a51680320e2
:103914009847eee74246126a002a2fd0796a0120be
:103924009047bb6a01333a6b93429241134025e0be
:103934002f4a916a4900304a54545218240a547048
:103944002ae02b4a926b904208d1294a516a0020fe
:10395400984703e0264d2e00a8462f00234b1b7edc
:103964005b073cd5214b1c8da4b2ab6a01332a6b97
:10397400934292411340f26a9a42cbd01c4ad26ad3
:103984009a42ebd0194a516807220a40012acfd043
:10399400174a926a18498c54154a93623423d35cab
:1039a400002bdbd003f002f8114b1b6a002bd5d09f
:1039b4003c220f498a5c002ac3d08a6b9042cdd343
:1039c400496a00209847c9e70122084b1a75074a3b
:1039d400137edbb2927d520701d55b07bad403b0e4
:1039e4003cbc90469946a246ab46f0bd000400425a
:0c39f400b4200020e0160020441f00203a
:020000040000fa
:103a0000f0b5c30f85b0440245000391640a2d0e42
:103a1000029301930ad0ff2d38d08023e400db0409
:103a20007f3d1c432e00002300930ae0002c33d07e
:103a3000200002f001fc7626431f9c407642361a95
:103a40000095039b5f025d00db0f7f0a2d0e039341
:103a500025d0ff2d2dd0802228000025ff00d20484
:103a600017437f38039b029a361a5a40009b9800ee
:103a7000284301380e2824d803f0ccf84e9d639dce
:103a8000979d634e4e976379797954002e000323f6
:103a9000002cc9d10223c7e726000123c4e7381e42
:103aa0000dd002f0c9fb431f9f4076235b42181ada
:103ab000d8e728000325002fd4d10225d2e701251d
:103ac000d0e764017801844228d31a210123241a03
:103ad000012527005b006400002f01dba04201d814
:103ae000241a2b4301390029f3d1611e8c411c4358
:103af00031007f3100293cdd630704d00f232340d0
:103b0000042b00d00434230103d531002b4b80312a
:103b10001c40e308fe2921dd002310e0013e1b21ab
:103b20000023d5e78023db031c4204d01f4202d1cf
:103b30003c00039b01938023019adb032343ff2175
:103b40000ce03c00039a0095009b022be4d0032b71
:103b50002fd00023009819000128c9d15802c9b2fa
:103b6000c905400ad2070843104305b0f0bd029ac8
:103b7000eae70120411a1b291ddc23002020cb404d
:103b8000411a8c40611e8c412343590704d00f21f8
:103b90001940042900d004338021c9041940db08ee
:103ba0000029dbd000230121d8e780240023e4038f
:103bb000c0e70192bfe700231900cfe7fffffff73f
:020000040000fa
:103bc00010b5694b9b7d002b17d0674b5b8b9b0718
:103bd00014d5664bff2120229954022121229954a9
:103be0002023624ad35c5bb2013300d18be02023f7
:103bf0005e4ad35c062b00d19de010bd5a4b5b8b17
:103c0000db0707d5594bff2120229954022121229d
:103c10009954e5e7544b5b8b5b0707d5534bff216a
:103c200020229954012121229954d9e720234f4a77
:103c3000d35c5bb2032b44d0042b0fd0022bcfd12b
:103c40001369002b04d09088002101f0b5ffc7e76d
:103c5000464b9888012101f0afffc1e7434a9369c1
:103c6000126993420cd0414a9168cc5c28213e48ad
:103c70004454013393610200d369002bfcd1afe7b8
:103c80003a4b5b69002b0ed0384b9b885b000122be
:103c90001343354a5362d369002bfcd103212023ff
:103ca000324ad1549ce7304a5168c0239b020b43ef
:103cb0005360d369002bfcd1062120232b4ad15419
:103cc0008ee72a4a5369013bd2699a420dd0264aaf
:103cd000d369002bfcd1254ad36928212248415cb5
:103ce000d068c1540133d3617ae71f4a5168e02399
:103cf000db020b435360d369002bfcd10621202348
:103d00001a4ad154e3e700212023d154164a5168be
:103d1000c0239b020b435360d369002bfcd1832249
:103d2000114b1a76114b5b6a002b00d165e70f4ae5
:103d3000906a984761e71300002220215a542121fc
:103d40005a548322084b1a76190030224b8b1340a9
:103d5000102bfbd1054b5b6a002b00d14de7034aca
:103d6000906a984749e7c046000c00422021002095
:020000040000fa
:103d7000130fdeff2530325800000000225630308d
:103d800031223a2225642e25303164222c00000095
:103d90002252303031223a2225303164222c000068
:103da0002252303031223a2225303264222c000057
:103db0002252303031223a2225303364222c000046
:103dc0002252303031223a2225303464222c000035
:103dd0002252303031223a2225303564222c000024
:103de0002252303031223a2225303664222c000013
:103df0002254303031223a2225303364222c000004
:103e00002254303031223a2225303264222c0000f4
:103e10002254303031223a2225303164222c0000e5
:103e2000225350303031223a2225303364222c0084
:103e3000225350303031223a2225303264222c0075
:103e4000225350303031223a2225303164222c0066
:103e500022475244303031223a2225303364222c1a
:103e60000000000022475244303031223a222530ef
:103e70003264222c000000002247524430303122ac
:103e80003a2225303164222c00000000224557449c
:103e9000303030223a22253075222c002245523013
:103ea0003030223a22253075222c000022435f4117
:103eb00056473031223a2225642e25303164222c97
:103ec00000000000224d5f4156473031223a222542
:103ed000642e25303164222c0000000022534f4311
:103ee0003031223a222564222c000000224f444f18
:103ef000223a22256c642e25303164222c00c046e3
:020000040000fa
:103f000070b504000e00002800d18be00568002089
:103f1000002d4ad0002900d1434e2b019e4245d3ab
:103f2000290b28053200002302f046f980235b02aa
:103f3000181a00213d4a13680225ab431360d36968
:103f4000002bfcd180b2394b98816368022b52d090
:103f5000364a136849033648184080235b040343fc
:103f6000194311605168a368e06803433148014078
:103f70000b4361680b4353602c4ad369002bfcd17f
:103f80002a4a136802210b431360d369002bfcd12a
:103f9000264b5a6807231340012b3cd0264b802226
:103fa0001a638132ff321a61012070bdeb009e421c
:103fb0000ad3690be8043200002302f0fdf88023e5
:103fc0005b02181a0221b5e76b005b199e420fd302
:103fd000c022920200232800002102f04bf8320098
:103fe000002302f0e9f880235b02181a0421a1e7fc
:103ff000002100209ee70d4a136849030c48034046
:10400000194311605168a368e06803434720814366
:104010000b435360b0e7084b40221a63c0321a6169
:104020000120c2e70020c0e7006cdc02000400426f
:0c403000ff1ffff0b8dfffffb4200020ee
:020000040000fa
:10403c0070b504000e00002800d188e0056800204f
:10404c00002d48d0002900d1424e2b019e4243d373
:10405c00290b28053200002302f0a8f880235b020c
:10406c00181a00213c4a13680225ab431360d3692c
:10407c00002bfcd180b2384b98816368022b50d056
:10408c00354a136849033548184080235b040343c1
:10409c00194311605168a368e0680343304801403c
:1040ac000b4361680b4353602b4ad369002bfcd143
:1040bc00294a136802210b431360d369002bfcd1ee
:1040cc00254b5a6807231340012b3ad0254b8022ed
:1040dc001a631a61012070bdeb009e420ad3690b72
:1040ec00e8043200002302f061f880235b02181a06
:1040fc000221b7e76b005b199e420fd3c0229202dc
:10410c0000232800002101f0afff3200002302f051
:10411c004df880235b02181a0421a3e7002100202c
:10412c00a0e70d4a136849030c480340194311607a
:10413c005168a368e0680343472081430b435360f5
:10414c00b2e7084b40221a631a610120c3e7002032
:10415c00c1e7c046006cdc0200080042ff1ffff004
:08416c00b8dfffff7420002002
:020000040000fa
:10417400f7b58a8905000c00130760d44b68002b3f
:1041840004dc0b6c002b01dc0020febde76a002f71
:10419400fad000232e682b6080235b011a4034d0b0
:1041a400606da3895b0706d56368c01a636b002b37
:1041b40001d0236cc01a0200216a00232800e76a98
:1041c400b847a189431c06d12b681d2b31d82c4a32
:1041d400da40d3072dd50023636023692360cb0421
:1041e40005d5431c02d12b68002b00d16065616b9f
:1041f4002e600029c8d023004433994202d02800fd
:1042040000f0feff00206063bfe70123216a28005d
:10421400b847431cc5d12b68002bc2d01d2b01d03d
:10422400162b01d12e60afe74023a2891343a3814b
:10423400abe740230b430120a3814042a5e70f696c
:10424400002fa1d00b680f60db1b019300239207a2
:1042540000d14b69a360019b002b00dc94e7019b18
:104264003a00216a2800a66ab047002803dc4023ec
:10427400a2891343dfe7019b3f181b1a0193eae766
:0442840001004020d5
:020000040000fa
:10428800f0b5de4657464e464546e0b583b00423b2
:104298009846002399463c4b9b463c4d1e000ae03d
:1042a80043467f2b19d880235b009c46e144434654
:1042b80004339bb298464346043b9bb25a46516826
:1042c8004a468f5aaf42ebd042467f2a05d89b0810
:1042d8000193444680239a463fe0080000232a4c75
:1042e80004e001339bb24030802b05d002883d2a80
:1042f800f7d8a2181372f4e7012040424623224a55
:10430800d05204220027214c002011e001339bb237
:10431800934205d09d016d5aa542f7d00600f5e7f6
:10432800002e09d10137bfb2043292b2202f06d035
:10433800131f9bb20126ede74623134ad75203b059
:104348003cbc90469946a246ab46f0bd019802f0a7
:1043580059fa0434a4b27f2ca5d87268a3019b5ad9
:10436800ab42f6d09f42f4d14a445346d35a1188ff
:104378009942ebd04021525a9a42e7d0a00880b225
:1043880002f040fae5e7c046381d0020ffff0000b4
:020000040000fa
:10439800f0b5de4657464e464546e0b585b0029034
:1043a8008c46002900d170e0394b1b6998460700fc
:1043b80001250022364b9a46994646460fe04000b2
:1043c80034495c460c5488464044002444704946ad
:1043d8008b6001326b1c0237ac4546d91d00019237
:1043e8002d4b586807230340012b15d0284b98689c
:1043f800dc68431cb34289410b409c4236d0029989
:10440800895c8b46244c616807240c40012cd6d06b
:1044180020495c460c54dae77b781b023878034362
:10442800039351468c68c9688846601cb04289412c
:10443800084080451ad0184949688b4607218846a4
:10444800594643461940012906d0124b6946097b53
:1044580019550f4b9860bce764000e4b039919552a
:10446800984644440b0a6370f3e7019502f072fa28
:10447800002802d00122084b9a75019805b03cbc6f
:1044880090469946a246ab46f0bd00230193ede75e
:0c44980074200020c41e00200008004218
:020000040000fa
:1044a400f0b5de4657464e464546e0b585b0029027
:1044b4008c46002900d170e0394b1b6998460700ef
:1044c40001250022364b9a46994646460fe04000a5
:1044d40034495c460c5488464044002444704946a0
:1044e4008b6001326b1c0237ac4546d91d0001922a
:1044f4002d4b586807230340012b15d0284b98688f
:10450400dc68431cb34289410b409c4236d002997b
:10451400895c8b46244c616807240c40012cd6d05e
:1045240020495c460c54dae77b781b023878034355
:10453400039351468c68c9688846601cb04289411f
:10454400084080451ad0184949688b460721884697
:10455400594643461940012906d0124b6946097b46
:1045640019550f4b9860bce764000e4b039919551d
:10457400984644440b0a6370f3e7019502f008fa85
:10458400002802d00122084b9a75019805b03cbc62
:1045940090469946a246ab46f0bd00230193ede751
:0c45a400b4200020e016002000040042bb
:020000040000fa
:1045b00000202020202020202020282828282820f3
:1045c00020202020202020202020202020202020eb
:1045d0002088101010101010101010101010101053
:1045e0001004040404040404040404101010101043
:1045f000101041414141414101010101010101010d
:10460000010101010101010101010101101010105e
:1046100010104242424242420202020202020202de
:104620000202020202020202020202021010101032
:10463000200000000000000000000000000000005a
:10464000000000000000000000000000000000006a
:10465000000000000000000000000000000000005a
:10466000000000000000000000000000000000004a
:10467000000000000000000000000000000000003a
:10468000000000000000000000000000000000002a
:10469000000000000000000000000000000000001a
:1046a000000000000000000000000000000000000a
:0146b0000009
:020000040000fa
:0246b200fee721
:020000040000fa
:1046b400324b5a6852031b68db0c13439b029b0a60
:1046c4002f4a936300235375110004228b691a4205
:1046d400fcd12b491022cb681a42fcd0294b002272
:1046e4009a611a61284a294b1a62190004224b68fc
:1046f4001a42fcd140218823244ad1501000882139
:10470400402243581a42fcd04021cc231f4ad150a6
:104714001000cc21402243581a42fcd04021d0231f
:104724001a4ad1501000d021402243581a42fcd0da
:104734004021d423154ad1501000d421402243589b
:104744001a42fcd04021e823104ad1501000e8213d
:10475400402243581a42fcd0402182235b000b4a7a
:10476400d15010001900402243581a42fcd0084b83
:10477400084a1a61084ada617047c046206080001e
:10478400001000400014004006010100001c00401d
:0c47940000080040ff1d00000e000200a5
:020000040000fa
:1047a000364b70b51d6806000c00002d05d0ab69b6
:1047b000002b02d1280001f0e9f8314b9c420fd1c7
:1047c0006c680c23e25e93b219072dd4d90611d47c
:1047d00009233360402301201343a381404270bd6d
:1047e000284b9c4201d1ac68ebe7274b9c42e8d1b7
:1047f000ec68e6e75b0713d5616b002908d023005e
:104800004433994202d0300000f0fcfc0023636383
:104810002422a3899343a381002363602369236037
:104820000823a2891343a3812369002b0bd1a02164
:104830008022a389890092000b40934203d021007b
:10484000300000f0bbff0123a289134011d00023e8
:10485000a36063695b42a361002023698342bed1e8
:104860000c23e25e1306bad540231343a38101381b
:10487000b5e7920700d46369a360ede71c2200202e
:0c4880008c680000ac6800006c68000050
:020000040000fa
:10488c00f0b5c64600b50400f2225200002102f039
:10489c0031fa304a936901210b43936111000122d3
:1048ac008b691a42fcd02b4dab6902221343ab61ce
:1048bc00294ffc602204120c28490a43a023ea5019
:1048cc002300a0333b611b041b0c0b43b022ab50e9
:1048dc0023004133ff33bb611b041b0ca022d20409
:1048ec001343c022ab5023009133ff33fb611b04f5
:1048fc001b0ca026f6023343f022ab50dc235b00ea
:10490c009846a04443463b6204221549404602f0b7
:10491c00a0f943461b041b0c802252021343842231
:10492c00ab50bd34ff347c6228220e49200002f0cb
:10493c0090f92404240c34438823ec50ab690122f5
:10494c009343ab6129008b691a42fcd104bc90469d
:10495c00f0bdc046001c00424c21002000000a8023
:08496c00c06e0000dc650000d4
:020000040000fa
:10497400f0b5060085b00f0015001c008b4265d809
:1049840001d1824262d82100280002f099f839004e
:104994000090300002f094f8009b21001b1a1a00ca
:1049a4002800039302f080f800900191019bbb4220
:1049b40046d802d1009bb34242d8009b019c039a83
:1049c40001200021f61aa74102f06ef8039b002b88
:1049d4002fd0019b009adb0754081c43019b5d0800
:1049e400039b9c46bd422ed801d1b4422bd8320041
:1049f4003b00121bab41012692185b410027b618fd
:104a04005f4101235b429c446346002bead1801939
:104a14007941039a04000d003000390002f038f89f
:104a2400039a06000f0002f03ff8241a8d4120007b
:104a340029000a9b002b01d01e605f6005b0f0bd09
:104a440000200021c2e7b6197f41dae700200021e7
:024a5400efe78a
:020000040000fa
:104a5600f7b5150001938a680b6900900c00934224
:104a660000da130022002b6043321278002a01d0ac
:104a760001332b6023689b0602d52b6802332b601b
:104a8600062723681f4027d0230043331b785a1e6e
:104a960093412268920630d422000199433200984d
:104aa600089eb047431c25d0062320682a68e16883
:104ab60003400025042b03d18d1aeb43db171d4061
:104ac600a3682269934201dd9b1aed180027bd42b7
:104ad60020d1002010e00137e3682a689b1a9f4224
:104ae600d2da22000123193201990098089eb047b4
:104af600431cf0d101204042febd3020e118433175
:104b0600087021005a1c45310978a2184332023335
:104b16001170c1e7220001231a3201990098089efc
:0a4b2600b047431ce6d00137d1e789
:020000040000fa
:104b3000f0b5c64600b582b0040088461500019263
:104b4000304b9f6a53180020bb4257d82d4b002191
:104b50004c2299545e6a3100280000f067fc711afb
:104b60004246884500d90a00264b988a80239b023a
:104b70009f4204d901ab997802230b40184380234c
:104b80005b029f4204d901ab997801230b40184383
:104b900080235b0000219f4204d92b0a3021194f4a
:104ba0007b5401214b1c9c46164b5b1830331d7007
:104bb000002a0cd000230021124e6644e75cf31853
:104bc00030331f70013189b20b008a42f6d80d4b89
:104bd000ad189d61a418dc6141468e1a1e62002446
:104be00042215c546244190030311b695b6898476c
:104bf000002803d102214c23024ad15402b004bc44
:084c00009046f0bd24200020c5
:020000040000fa
:104c0800f8b505000e001400002804d08369002bb5
:104c180001d100f0b7fe294b9c4233d16c68a369df
:104c2800a360a3891b0737d52369002b34d00c2335
:104c3800e25e80239b01f7b2f6b21a4236d02368af
:104c48002269981a6369984205db2100280000f060
:104c580059ff002826d1a3680130013ba3602368cf
:104c68005a1c22601f706369984204d0a389db072d
:104c78001ad50a2e18d12100280000f043ff002879
:104c880012d00fe00e4b9c4201d1ac68c7e70d4b28
:104c98009c42c4d1ec68c2e721002800fff77cfde4
:104ca8000028c4d0012676423000f8bd1343a38102
:104cb800226e054b13402366c1e7c0468c6800008e
:0c4cc800ac6800006c680000ffdfffff1c
:020000040000fa
:104cd40010b52d4c23691b6998474223e35c012bd3
:104ce40026d0002b0fd0022b41d04c23264ad35c74
:104cf400002b07d0536c002b04d04c21505cc0b265
:104d0400916c984710bd002804d002214c231e4a00
:104d1400d154eae701f068fd002804d102214c23b4
:104d2400194ad154e1e701214223174ad154dce75f
:104d3400002813d1144b196a002904d101214c23f2
:104d4400114ad154d1e79a69d869fff7effe0028d8
:104d5400cbd102214c230c4ad154c6e701f044fdc7
:104d64000028c2d102214c23074ad154bde70028b0
:104d740004d002214c23044ad154b6e701214c2328
:0c4d8400014ad154b1e7c04624200020b1
:020000040000fa
:104d9000032370b5cd1c9d43083506000c2d1ed293
:104da0000c25a9421dd8300002f097f8254a146856
:104db0002100002919d1244c2368002b03d1300095
:104dc00001f0ccfc20602900300001f0c7fc431c3e
:104dd0002cd10c233000336002f080f803e0002d6a
:104de000dfda0c233360002070bd0b685b1b1ad424
:104df0000b2b03d90b60cc18256003e08c420ed13d
:104e000063681360300002f069f8200007220b305d
:104e1000231d9043c31ae7d05a42e250e4e74b689f
:104e200063600c00eee70c004968c2e70323c41c72
:104e30009c43a042e0d0211a300001f08ffc431cbb
:0c4e4000dad1c6e7202200202422002046
:020000040000fa
:104e4c0010b5002400281fd0234b1a68a4181c602e
:104e5c002249234801f0e0fa002820d00222214bfd
:104e6c001a701f4c200001f05cff020021001e484c
:104e7c0001f0effe802252000021200001f03affe9
:104e8c000022154b1a6010bd01f070fd0400124b8e
:104e9c001868134bc018210000f01af9d4e70f4919
:104eac0008310f4801f0b8fa0028ecd003220d4b62
:104ebc001a700b4c200001f034ff020021000a484c
:104ecc0001f0c7fe802252000021200001f012ffe9
:104edc000022014b1a60d6e718220020906c0000cb
:0c4eec00ac0400203c000020ac090020b9
:020000040000fa
:104ef800f8b50400012802d901204042f8bd830119
:104f0800224a9b5c002b02d001204042f6e71700a2
:104f1800850101220126ea557d190b682b618b68f2
:104f28006b614b68ab6000236b60eb612b626b704d
:104f38002a83cb68eb620b692b634b696b638b69c4
:104f4800ab63cb69eb632b0026331a7001331e70f9
:104f580001331e7001f082ff2b0029331e7001f00f
:104f680081ff01f07bff2b002a331e7001f07affce
:104f78002b695b692900064898472b691b6829003b
:104f88000448984702232b732000b7e7c41d00206c
:084f9800a16c00005d5c00004b
:020000040000fa
:104fa000f0b5c64600b582b0019308ac2478002c59
:104fb00003d0012c1bd0002015e01f4ea42434592f
:104fc000a404a40e1d4fa5002b199b00d851f8185e
:104fd00042608160019bc360099b0361736d012284
:104fe00013437365012002b004bc9046f0bd124e1d
:104ff000b4243559ad04ad0e104fab009c465c197e
:10500000a4003c19c8239846a044434618602000d9
:10501000cc3002602200d0321160d434019b236076
:105020006544ad007d19d835099b2b60736d102246
:10503000134373650120d6e7001c0042e0180020ee
:020000040000fa
:1050400010b58223db05244a1a60802252051a61ba
:10505000002140229954412299544222995401221c
:1050600043201a5444201a5445201a5448201a54f4
:1050700049201a544f201954032450201c54512005
:105080001a5452201a5453201a5457201954582095
:105090001a5459201a545b201a5406205c22985442
:1050a00030229954102031229854332232201a543d
:1050b00034201a5437229954222238201a54392085
:1050c0001a543b22995466203c2298543d2299540c
:0c50d0003e22995410bdc04607808000ad
:020000040000fa
:1050dc00f0b5de4657464e464546e0b51e4ad36a05
:1050ec00966a002933d0b34234d0126b9046050037
:1050fc0004000120194a9446194a924691460ee042
:10510c004a46d25c2a70013343459241134088428f
:10511c0014d2421c013502349e4210d0100062465b
:10512c00526807273a40012aead15a005746bf5c19
:10513c0027705244527862700133e5e71e00064b2b
:10514c00de623cbc90469946a246ab46f0bd1e00c2
:10515c000020f4e70020f2e7742000200008004251
:04516c00441e0020bd
:020000040000fa
:10517000f0b5de4657464e464546e0b51e4ad36a70
:10518000966a002933d0b34234d0126b90460500a2
:1051900004000120194a9446194a924691460ee0ad
:1051a0004a46d25c2a7001334345924113408842fb
:1051b00014d2421c013502349e4210d010006246c7
:1051c000526807273a40012aead15a005746bf5c85
:1051d00027705244527862700133e5e71e00064b97
:1051e000de623cbc90469946a246ab46f0bd1e002e
:1051f0000020f4e70020f2e7b42000200004004281
:04520000441f002027
:020000040000fa
:1052040070b50500002910d00c1f2368002b00daac
:10521400e418280001f05ffe1d4a1368002b05d135
:1052240063601460280001f057fe70bda34209d9e1
:10523400216860188342f3d118685b6841182160c3
:10524400eee713005a68002a01d0a242f9d919687e
:105254005818a0420bd120680918581819608242c6
:10526400e0d110685268411819605a60dae7a04228
:1052740002d90c232b60d5e721686018824203d140
:10528400106852684118216062605c60cae7c046d9
:0452940020220020b4
:020000040000fa
:10529800204a214b70b50021934203d21970013383
:1052a8009342fbd1002503261c4803684168002b64
:1052b80018d100292dd083680c30002b18d000237a
:1052c8000022845c9c5401328a42fad333000b409a
:1052d8005a1e934189085918890040180368416883
:1052e800002be6d082680c30002a07d10029dcd0d8
:1052f80059181d7001338b42fbd1d6e70029dfd145
:1053080033000b405a1e93418908591889004018e8
:10531800e4e770bde016002000000020602a0000cd
:020000040000fa
:105328001e4b1f4a1a601f4a9a81c02292025a6075
:105338001a00d369002bfcd1184a136802210b43c9
:105348001360d369002bfcd1174b00221a629a62b2
:10535800da620121342019543c2019549a63da87ff
:105368001a609a60da60197519779a610b4b5a6856
:1053780007231340012b0bd00b4b80221a63813279
:10538800ff321a61054b80229a7504229a7570477c
:10539800054b40221a63c0321a61f3e70004004249
:0c53a800040100402bf6ffffb4200020a1
:020000040000fa
:1053b400002934d00123002210b488422cd30124c4
:1053c4002407a14204d2814202d209011b01f8e759
:1053d400e400a14204d2814202d249005b00f8e712
:1053e400884201d3401a1a434c08a04202d3001b3e
:1053f4005c0822438c08a04202d3001b9c08224371
:10540400cc08a04202d3001bdc082243002803d0ae
:105414001b0901d00909e3e7101c10bc704701b552
:10542400002001f04dfd02bd0029f8d003b5fff7bf
:0c543400c1ff0ebc4243891a1847c04655
:020000040000fa
:105440001d4b1e4a1a601e4a9a81c02292025a605f
:105450001a00d369002bfcd1174a136802210b43b1
:105460001360d369002bfcd1164b00221a629a629a
:10547000da620121342019543c2019549a63da87e6
:105480001a609a60da60197519779a610a4b5a683e
:1054900007231340012b09d00a4b80221a631a619b
:1054a000054b80229a7504229a757047054b40225d
:1054b0001a631a61f4e7c046000800420401104074
:0854c0002bf6ffff7420002011
:020000040000fa
:1054c80010b501221a4b9a6119008b691a42fcd057
:1054d800174b9a6902210a439a61164ada61282110
:1054e800802299501449902299509a6901218a433f
:1054f8009a61190001228b691a42fcd10c4a0023d7
:1055080093650121d1658021890451650b4c236085
:105518006360a360c82252000021094801f0ecfb37
:1055280020000c301c22002101f0e6fb10bdc04613
:10553800001c0042020b0b14ffffff1f4c21002030
:04554800e018002047
:020000040000fa
:10554c00f8b51e4b07001e68b369002b02d1300062
:10555c0000f016fa4836b4687368013b04d533681a
:10556c00002b07d03668f6e70c22a55e002d0dd077
:10557c006434f2e70421380000f0c0ff30600028ea
:10558c00f0d10c2304003b602000f8bd01235b42ea
:10559c00e381200001232566a3812560a560656059
:1055ac0025616561a56108222900583001f0a2fb34
:1055bc006563a563a564e564e6e7c046c86e0000b4
:020000040000fa
:1055cc001c4a137801210b431370110001224b6804
:1055dc001a42fcd117490023cb61a0231b060b6296
:1055ec0080231b020b61144b10221a819a821a849d
:1055fc009a851a8744201a5250201a525c201a524b
:10560c0068201a5274201a5280201a528c201a5276
:10561c0098201a52a4201a52b0201a520f20bc22e1
:10562c0098520b78022213430b704b681a42fcd130
:0c563c007047c04600280040dc1b002026
:020000040000fa
:1056480010b5bff35f8f62b6194bc02189005a5855
:105658001202120ac020000602435a5008221a6099
:1056680008315a58134c1440c022120222435a508f
:10567800802292001a605a580f4c1440c02212041b
:1056880022435a508022d2001a605a581202120a33
:1056980002435a50802212011a6004315a581202e9
:1056a800120a10435850802212021a6010bdc046d8
:0c56b80000e100e0ff00ffffffff00ff2b
:020000040000fa
:1056c40010b50622184b5a60fff7b8fcfef7f0ff3e
:1056d40001f056fb00f08cf9fff7b0fe01f01ffa61
:1056e400fff720fe01f002f8fff7ecfefff76cff76
:1056f40000f002fb0d490120fff7fcfb0c4c20607d
:105704000c490020fff7f6fb60600b49002000f015
:10571400cdf9a0600021002000f002f9e06001f062
:1057240077fbfff78fff10bd004000414c6800007d
:0c573400c81600202c680000346a000039
:020000040000fa
:10574000f0b585b001900e00140001f03ff901287a
:105750001ad1731efe2b17d8050002ab1e7100274d
:10576000af4220d003abd95da368013ba360002bff
:1057700004daa269934219db0a2917d023685a1c5c
:10578000226019700137ebe723003200583303a978
:10579000019800f029fb0500431ce0d140230600de
:1057a000a2891343a381300005b0f0bd2200019807
:0c57b000fff72afa431ce5d10600f4e7dd
:020000040000fa
:1057bc00f7b502268b8905000c00334206d0230076
:1057cc0047332360236101236361f7bd01ab6a4654
:1057dc0000f0b6fa009907002800fff7d3fa00286a
:1057ec0006d10c22a35e9a05efd41e43a681e6e7f0
:1057fc000d4bab628023a28920601343a381009bd5
:10580c0020616361019b002b0ad00e23e15e28000e
:10581c0000f0d4ff002803d00123a2891343a381f5
:0c582c00a0893843a081d0e7116d000076
:020000040000fa
:1058380010b5194b1b78012b11d1fa239b00174a7d
:1058480012689a4211d8164b1b68642b1dd8154b49
:105858001b680a2b08d90022124b1a6004e00122a7
:105868000d4b1a7000f08cfd10bd00220b4b1a6016
:1058780001f002fa01f06afa032802d800f01efbd0
:10588800e1e7032001f068faf8e70022044b1a6008
:1058980001f0eaf9dbe7c046c4160020b81600207c
:0858a800b0160020b416002028
:020000040000fa
:1058b00070b50300041e08d000f0befc9e231b1a26
:1058c000962b08dc9622d21a9440d8b26402640a5d
:1058d000c005204370bd992b0addb9222100d21ae0
:1058e00091400a00511e8a410521091acc401443f7
:1058f00099212200c91a002900dd8a4014000849b4
:105900000c40550704d00f252a40042a00d0043447
:10591000620102d59f230c401b1ae408d5e7c0465c
:04592000fffffffb8b
:020000040000fa
:1059240070b50500164c04228923e25401228a230f
:10593400e2548023db03636000228823e254fef7f1
:10594400a1fc4623e25a0f4b9a4206d10321892334
:105954000b4ad1540120404270bd00f0a5f9002843
:1059640006d103218923064ad15401204042f3e79a
